:020000040800F2
:1000000088DD002031030008A561000813520008B4
:10001000C5600008391B0008B59900080000000001
:100020000000000000000000000000007102000855
:10003000ED22000800000000CD02000889720008CF
:100040004B0300084B0300084B0300084B03000858
:100050004B0300084B0300084B0300084B03000848
:100060004B0300084B0300084B0300084B03000838
:10007000052000084B0300084B0300084B03000851
:100080004B0300084B0300084B0300084B03000818
:100090003D1B00084B0300084B03000831230008F8
:1000A0004B0300084B0300084B0300084B030008F8
:1000B000BD7300084B0300084B0300084B03000806
:1000C0004B0300084B0300084B0300084B030008D8
:1000D0004B030008817900084B0300088D79000864
:1000E0004B0300084B0300084B0300084B030008B8
:1000F0004B0300084B0300084B0300084B030008A8
:100100004B0300084B0300084B0300084B03000897
:100110004B0300084B0300084B0300084B03000887
:100120004B030008112000081D2000084B030008A5
:100130004B0300084B0300084B0300084B03000867
:10014000951B00084B0300084B030008AD61000835
:100150004B03000829200008352000089979000881
:100160004B0300084B0300084B0300084B03000837
:100170004B0300084B0300084B030008000000007D
:100180004B0300084B03000800F002F800F060F891
:100190000AA090E8000C82448344AAF10107DA45E2
:1001A00001D100F055F8AFF2090EBAE80F0013F0D4
:1001B000010F18BFFB1A43F00103184728B90000CC
:1001C00048B900000A444FF0000C10F8013B13F04E
:1001D000070408BF10F8014B1D1108BF10F8015BA0
:1001E000641E05D010F8016B641E01F8016BF9D193
:1001F00013F0080F1EBF10F8014BAD1C0C1B09D1EA
:100200006D1E58BF01F801CBFAD505E014F8016B5B
:1002100001F8016B6D1EF9D59142D6D370470000ED
:100220000023002400250026103A28BF78C1FBD8FF
:10023000520728BF30C148BF0B6070471FB50BF095
:1002400032FA9DE8030000F021FA1FBD10B510BD81
:1002500000F0AEFA1146FFF7F1FF09F0EFFF00F0F2
:10026000CCFA03B4FFF7F2FF03BC00F0FDFA000084
:100270002C4B19680868B0E8F04F80F30988BFF389
:100280006F8F4FF0000080F311887047000000006E
:1002900008480068006880F308884FF0000080F389
:1002A000148862B661B6BFF34F8FBFF36F8F00DF64
:1002B00000BF00BF08ED00E0DFF80C00016841F46A
:1002C00070010160704700BF88ED00E0EFF3098026
:1002D000BFF36F8F134B1A681EF0100F08BF20ED8D
:1002E000108A20E9F04F106009B44FF0500080F3FD
:1002F0001188BFF34F8FBFF36F8F0AF083FC4FF06D
:10030000000080F3118809BC19680868B0E8F04F54
:100310001EF0100F08BFB0EC108A80F30988BFF3FD
:100320006F8F704770090020EFF305807047000061
:100330000948804709480047FEE7FEE7FEE7FEE779
:10034000FEE7FEE7FEE7FEE7FEE7FEE704480549B5
:10035000054A064B704700004D73000889010008EC
:10036000889D002088DD002088BD002088BD0020F9
:1003700070B5064600F06EF9056806F10B0020F036
:100380000704B4429CBF002070BD2B466A68BAB116
:100390001068A04210D304F1080188423CBF5068A5
:1003A000586007D35168101941601168091B01603A
:1003B00058601460101D70BD13465268002AE7D1C2
:1003C0002146284600F04EF90028DED170BD53EAE0
:1003D000020C00F069802DE9F04B4FF00006002B75
:1003E0001FBFB3FA83F503FA05F424FA05F65E405D
:1003F00012BF1643B2FA82F502FA05F4C5F12005E0
:100400001EBF22FA05FC44EA0C04203556EA044CCF
:100410004FEA144418BF641C4FF000084FF0000965
:10042000904271EB030C39D3002919BFB1FA81F75F
:1004300001FA07F6B0FA80F700FA07F6C7F12007CD
:100440001EBF20FA07FC46EA0C062037B6FBF4FC78
:10045000A7EB0507103F07F01F0BCBF120060CFAA6
:100460000BFB2CFA06F644BFB3460026202FA4BF90
:100470005E464FF0000B5BEA060C08BF4FF0010B25
:1004800019EB0B09ABFB027C48EB0608C01B06FB13
:1004900002CC0BFB03CC71EB0C01C1E70B4602460F
:1004A00041464846BDE8F08B13B54FF000004FF0D1
:1004B0000001AFF30080BDE81C407047032A40F202
:1004C000308010F0030C00F0158011F8013BBCF1F6
:1004D000020F624498BF11F801CB00F8013B38BF0E
:1004E00011F8013BA2F1040298BF00F801CB38BF1C
:1004F00000F8013B11F0030300F02580083AC0F03A
:10050000088051F8043B083A51F804CBA0E80810E1
:10051000F5E7121D5CBF51F8043B40F8043BAFF314
:100520000080D20724BF11F8013B11F801CB48BF6E
:1005300011F8012B24BF00F8013B00F801CB48BFA4
:1005400000F8012B704710B5203AC0F00B80B1E8DD
:100550001850203AA0E81850B1E81850A0E81850F8
:10056000BFF4F5AF5FEA027C24BFB1E81850A0E801
:10057000185044BF18C918C0BDE810405FEA827C1B
:1005800024BF51F8043B40F8043B08BF7047D20732
:1005900028BF31F8023B48BF11F8012B28BF20F8D3
:1005A000023B48BF00F8012B704702F0FF0343EA0B
:1005B000032242EA024200F002B84FF0000204298E
:1005C000C0F0128010F0030C00F01B80CCF1040C82
:1005D000BCF1020F18BF00F8012BA8BF20F8022BB6
:1005E000A1EB0C0100F00DB85FEAC17C24BF00F85C
:1005F000012B00F8012B48BF00F8012B70474FF08A
:10060000000200B5134694469646203922BFA0E862
:100610000C50A0E80C50B1F12001BFF4F7AF09076E
:1006200028BFA0E80C5048BF0CC05DF804EB89005F
:1006300028BF40F8042B08BF704748BF20F8022BA2
:1006400011F0804F18BF00F8012B704770477047BA
:100650007047000000487047309D00207047704789
:100660007047704738B504460A4600206946AFF324
:100670000080002808BF38BD02460099204600F0DF
:1006800075F8012038BD012000F08AB8F8B5AFF345
:100690000080054600200C46102000BF0646A81921
:1006A000A0420DD9324669460020AFF30080070012
:1006B00008BF00F075F80098A04218BF0546C4199D
:1006C000FFF7C8FF05600746F01D20F00700461938
:1006D000284600F00AF8B44208BFF8BDA21B314614
:1006E0003868BDE8F84000F041B800210160C0E979
:1006F000011070471020704770B50446051FFFF7C2
:10070000A9FF0068002C14BF446870BD002C18BFFE
:10071000AC423CBF20466468F8D301680A18AA427C
:1007200018BF456003D12A68054611440160286856
:100730004119A1421CBF6C6070BD6168696021688D
:100740000844286070BD10B500F00CF8006810BDBA
:1007500010B5044600F006F8046010BD004870476C
:10076000289D002000487047289D002003464068CF
:100770008C46002818BF88423CBF03464068F8D327
:1007800018681844884207D00CF1030020F00700D5
:10079000001D411A521A0146081D0A60FFF7ACBF3E
:1007A00010B500F039F8BDE8104000F02FB87047E0
:1007B0007546FFF7D3FFAE4605006946534620F065
:1007C0000700854618B020B5FFF7C0FDBDE8204002
:1007D0004FF000064FF000074FF000084FF0000BFD
:1007E00021F00701AC46ACE8C009ACE8C009ACE8B0
:1007F000C009ACE8C0098D46704710B50446AFF398
:1008000000802046BDE81040FFF72BBD002801D036
:1008100000F02AB87047000010B5012805D000216B
:1008200003A000F027F8012010BD09A1F8E700009F
:1008300053494752544D454D3A204F7574206F66C9
:100840002068656170206D656D6F72790000000031
:100850003A2048656170206D656D6F727920636F15
:10086000727275707465640001491820ABBEFEE7B2
:100870002600020070B505460C460A2000E06D1CFB
:1008800000F011F835B128780028F8D102E0641C96
:1008900000F009F814B120780028F8D1BDE87040C4
:1008A0000A20AFF3008008B569468DF800000320E8
:1008B000ABBE08BDB0B5B0F800C00B889C4553D1A5
:1008C00045884B889D424FD113889C454CD1538815
:1008D0009D4249D143684968506805FB0CFC0022E1
:1008E000B2EB9C0F30D04FEA9C0200BF93ED000AA0
:1008F00091ED001A03F1100E30EE010A80ED000AAE
:1009000093ED010A91ED011A01F1100430EE010A94
:1009100080ED010A93ED020A91ED021A00F1100533
:1009200030EE010A80ED020A93ED030A91ED031AFD
:10093000013A30EE010A80ED030A7346284621464B
:10094000D4D12146284673461CF003020AD000BFCA
:10095000B3EC010AB1EC011A013A30EE010AA0EC45
:10096000010AF5D1002000E0FD2040B2B0BD0180B9
:1009700042804360704700002DE9F04F81B02DEDBB
:10098000028B8EB0B0F800C0B0F802A0D44540F0A1
:100990003A810B88FD229C4540F036814F88BB424E
:1009A00040F0328140689FEDB08ABCF1000F0090AA
:1009B00000F031814C686FF0030000EB8C090027D8
:1009C00000266546CDF828C0204609940A98401BA9
:1009D00008D0B1002046FFF712FE3846013004F17E
:1009E0000404FBD304F1040BB5F101084FF07E5071
:1009F000206012D0A9EB86015846FFF700FE0120C7
:100A00005C4600BF0130854204F10404FAD101368E
:100A1000013FB8F1000F4546D8D1DDF828C0BCF140
:100A2000000F00F0F8804FEACA00043002900998E5
:100A3000009900EB8A00C0F10009042000EB8A0055
:100A4000ACF1010801EB8A054FEA8A03019001F13C
:100A5000040B4FF0000E0F46564600200A46049045
:100A6000039300BF0EFB0AF002EB800191ED000A38
:100A70000C910999B5EE400AF1EE10FA01EB8000F5
:100A80000D90CDF82080CDE906950B922ED10EF178
:100A9000010060450DD20020414600BF2A1892EDAA
:100AA000000AB5EE400AF1EE10FA06D101391844F9
:100AB000F4D10498012817D0D4E0A0EB090000215C
:100AC00057F82130146842F8043B47F821400131BF
:100AD0008E42F5D10D9A51461368046840F8043BE4
:100AE000013942F8044BF7D1012004900C99AAEB8C
:100AF0000E0991ED008AB9F1010F4FF07E500860A8
:100B00000DD00120594600BF91ED000A013080EE62
:100B1000080A864281ED000A01F10401F4D10D9921
:100B20005046CDF814B000BF91ED000A013880EEB8
:100B3000080AA1EC010AF7D1DDF82C800998A9F187
:100B4000010B0022654600BF724505D108EB890301
:100B500000EB8A0036E000BF0C9998ED008A91ED19
:100B6000000ABBF1000F28EE000A38EE400A88EDBB
:100B7000000A17D00123042107EB010C08EB010444
:100B80009CED000A94ED001A28EE000A013331EEC4
:100B9000400A9E4201F1040184ED000AECD108EB09
:100BA000010301E008F104030D9C5146B4EC011A65
:100BB00090ED000A28EE011A30EE410AA0EC010A7D
:100BC0000139F3D103EB8E08013D02F10102BBD1E3
:100BD000079D02980B9ADDF820800544039BDDF801
:100BE00018900198DDF814B0DDF828C00432013EF9
:100BF0000EF1010EA8F10108A9EB03090744834493
:100C00007FF430AF09E0FD2250B20EB0BDEC028B94
:100C100001B0BDE8F08F00200490B5EE408AF1EEFF
:100C200010FA4FF00002EFD104980128ECD00AFB33
:100C30000CF14FF000004FF0000271B1009B00BFBB
:100C400093ED000AB5EE400AF1EE10FA05D101323B
:100C5000914203F10403F3D10A468A4208BF6FF0C0
:100C60000400D2E7FB22CFE7000000002DE9F04F9F
:100C700085B047880B889F4240F08480B0F800B070
:100C800013889B4540F07E80B1F802E053889E4572
:100C900078D1D0F80480506849680190BC0827F0EA
:100CA000030008EB800604FB0EF09FED390A07F005
:100CB000030C029101EB00104FEA8E02002100901C
:100CC000CDE903E70198DDF808A0009B00EB81095E
:100CD000B0EE401A5746404674B355462746404644
:100CE000B0EE401A95ED002A90ED003A154490EDD3
:100CF000014A23EE022A95ED003A154490ED025A7E
:100D000031EE021A24EE032A95ED003A154490EDD7
:100D1000036A31EE021A25EE032A95ED003A31EE10
:100D2000021A26EE032A31EE021A013F00F11000EA
:100D30001544D7D11F463046BCF1000F0CD0654694
:100D400090ED002A97ED003A043022EE032A31EEAE
:100D5000021A013D1744F3D1A9EC011ABEF1010EAC
:100D60000AF1040A03F10403B2D1DDF80CE0049F98
:100D7000714408EB8708BBF1010B06EB8706A1D194
:100D8000002000E0FD2040B205B0BDE8F08F00BFBC
:100D900000000000B0B5B0F800C00B889C4553D1EE
:100DA00045884B889D424FD113889C454CD1538830
:100DB0009D4249D143684968506805FB0CFC0022FC
:100DC000B2EB9C0F30D04FEA9C0200BF93ED000ABB
:100DD00091ED001A03F1100E30EE410A80ED000A89
:100DE00093ED010A91ED011A01F1100430EE410A70
:100DF00080ED010A93ED020A91ED021A00F110054F
:100E000030EE410A80ED020A93ED030A91ED031AD8
:100E1000013A30EE410A80ED030A73462846214626
:100E2000D4D12146284673461CF003020AD000BFE5
:100E3000B3EC010AB1EC011A013A30EE410AA0EC20
:100E4000010AF5D1002000E0FD2040B2B0BD000055
:100E50002DE9F04FB0F800A04A88924545D142886C
:100E60000B889A4241D1D1F804C046684FEA9208F3
:100E700002F003094FEA0A1E4FEA8A014FF0000B05
:100E8000624600BFB8F1000F1AD01546474600BFB2
:100E9000336828462B6073680D444350B3686C1860
:100EA0006B50F56806F1100366186550013F06EBBC
:100EB00001051E46ECD100EB0E071E4602E000BF06
:100EC0000CEB8B07B9F1000F06D0484656F8043BEF
:100ED00001383B600F44F9D10BF1010BBAF1010A63
:100EE00002F10402CED1002000E0FD2040B2BDE8B6
:100EF000F08F00002DE9F04780462DED028B002495
:100F0000DFF8E890DFF8E8A09FED3A8A04EB4400B0
:100F100000EBC40009EB001608EB840704EB840027
:100F20000AEB4015D6ED0B0A97ED010A284609F0A9
:100F30006BF8D6ED0C0A95ED0A0A05F1500009F0A0
:100F400063F887ED1F0AD6ED8F0A97ED040A05F5C1
:100F5000F07009F059F8D6ED900A95ED820A05F582
:100F60000C7009F051F887ED220A08EBC400054621
:100F700097ED1F2A31469430F0EE481AB0EE481A29
:100F8000F0EE480AB0EE480A01F0B8F897ED222AD0
:100F900006F5047105F1AC00F0EE481AB0EE481AFF
:100FA000F0EE480AB0EE480A01F0A8F8641C022CE2
:100FB000ACDD98F8010048B1012803D10020401CA5
:100FC0000228FCDDBDEC028BBDE8F087002408EBB5
:100FD000C4000546943001F039F905F1AC0001F088
:100FE00035F9641C022CF2DDECE700001805002046
:100FF000740E0020000000002DE9F04705462DED9D
:10100000028B00249FED318A314F04EB440000EB4A
:10101000C40007EB001105EBC400814694300E4676
:101020008046B0EE482AF0EE481AB0EE481AF0EECC
:10103000480AB0EE480A01F061F809F1AC0006F583
:1010400004718146B0EE482AF0EE481AB0EE481A14
:10105000F0EE480AB0EE480A01F050F896F8240085
:101060000B2802D9404601F0E6F896F834020B2826
:1010700002D9484601F0DFF8641C022CC5DD68780F
:10108000022813D001280DD1002405EBC400064628
:10109000943001F027F806F1AC0001F023F8641C4D
:1010A000022CF2DDBDEC028BBDE8F087002405EBDD
:1010B000C4000646943001F015F806F1AC0001F0CA
:1010C00011F8641C022CF2DDECE7000000000000C7
:1010D0001805002070B504462DED068B20780028F9
:1010E00009D0724D9FED729B0128B5F9081018D0F8
:1010F000022815D13DE000206F4B00EB400101EBD1
:10110000C00103EB011104EB800291ED0B0A82EDAB
:10111000010A91ED8F0A82ED040A401C0228ECDDE1
:101120008EE008460AF04EF853EC192B0AF062F8EC
:1011300041EC180B20690AF045FA53EC182B0AF021
:1011400057F909F065FF2061B5F902000AF03AF895
:1011500053EC192B0AF04EF841EC180B60690AF0B9
:1011600031FA53EC182B0AF043F909F051FF606192
:1011700066E008460AF026F89FED50AB53EC1A2BB8
:101180000AF038F841EC180BA0680AF01BFA53EC8F
:10119000182B0AF02DF909F03BFFA060B5F900000B
:1011A0000AF010F853EC1A2B0AF024F841EC180B53
:1011B000E0680AF007FA53EC182B09F05BFF09F01E
:1011C00027FFE060B5F9020009F0FCFF53EC192B92
:1011D0000AF010F841EC180B20690AF0F3F953EC0F
:1011E000182B0AF005F909F013FF2061B5F9060084
:1011F00009F0E8FF53EC192B09F0FCFF41EC180B48
:1012000060690AF0DFF953EC182B0AF0F1F809F0E5
:10121000FFFE6061B5F9040009F0D4FF9FED291BC2
:1012200053EC112B09F0E6FF41EC180BA0690AF012
:10123000C9F953EC182B0AF0DBF809F0E9FEA061BC
:10124000002104EB810004EBC10290ED010AD2ED14
:101250000E0AB4EEE00AF1EE10FA02DDC0ED010A6A
:1012600008E0D2ED0D0AB4EEE00AF1EE10FA01D278
:10127000C0ED010A90ED040AD2ED140AB4EEE00AC2
:10128000F1EE10FA02DDC0ED040A08E0D2ED130A17
:10129000B4EEE00AF1EE10FA01D2C0ED040A491CE6
:1012A0000229CEDDBDEC068B70BD000038090020A0
:1012B0002D431CEBE2361A3F180500202D431CEB92
:1012C000E2362A3FFCA9F1D24D62303F00F022F80D
:1012D0000F4C0F48FFF7FEFE0D4800F0C3FF2078CB
:1012E00020B1012806D002280BD107E00848FFF7FB
:1012F00083FE06E00648FFF7FDFD02E00448FFF725
:10130000F9FD20786070022008F0BDFFE1E70000E1
:10131000740D002070B5484A0121484805F05AF87C
:10132000454A4648183214460121503005F052F81B
:101330004248414A0121A03005F04CF83F4822467E
:101340000121F03005F046F83B4A01213C4805F008
:1013500041F83B4822460121503005F03BF8364A1F
:101360003748303215460121A03005F033F8324AB3
:101370003348483216460121F03005F02BF82A4652
:101380000121304805F026F82E4832460121503020
:1013900005F020F82B48284A0121A03005F01AF862
:1013A000284822460121F03005F014F827489FED27
:1013B000260A80ED0D0A80ED0E0A9FED250A80EDCC
:1013C0000F0AB3EE0F0A80ED100A9FED220A80ED9E
:1013D000110A9FED210A80ED120A9FED200A80ED8F
:1013E000130ABBEE0E0A80ED140A9FED1D0A80ED74
:1013F000150AB8EE080A80ED160ADFED1A0AC0EDEC
:10140000170ADFED190AC0ED180AF3EE0B0AC0ED5A
:10141000190ADFED160AC0ED1A0AFBEE010AC0ED4B
:101420001B0AFBEE030AC0ED1C0A80ED1D0A9FEDAE
:10143000100A80ED1E0A70BD44010020740E0020C9
:10144000B40F0020F410002000000000740D0020F4
:10145000000006C300808FC300007A430000DCC296
:101460000000E6C200006DC300005C43000064C2DF
:10147000000094C101221021014801F057BE000074
:101480000000024000221021014801F04FBE000080
:10149000000002402DE9F041FFF7F4FF802000F04A
:1014A0007BFA552000F078FA552000F075FAFFF726
:1014B000E1FF962000F026FFFFF7E4FF802000F018
:1014C0006BFA552000F068FA552000F065FAFFF736
:1014D000D1FF962000F016FFFFF7D4FFB6217E2043
:1014E00000F0A0FAFFF7C6FF502000F000FFFFF762
:1014F000C9FF802000F050FA552000F04DFA552029
:1015000000F04AFAFFF7B6FF962000F0FBFEFFF767
:10151000B9FF802000F040FA552000F03DFA552038
:1015200000F03AFA0446FFF7A5FF962000F0EAFE25
:101530001E2C02D0FF20BDE8F0810024174FFFF7DA
:10154000A1FF04EB4405EE19785D717800F06AFAAA
:10155000FFF790FF962000F0D5FEFFF793FF785D30
:1015600040F0800000F018FA552000F015FA5520E0
:1015700000F012FA0546FFF77DFF962000F0C2FE4C
:101580007078A84204D004EB440038448078D2E755
:10159000641CE4B2062CD2D30020CCE7A4020020C5
:1015A00001221146014801F0C1BD000000040240C3
:1015B00000220121014801F0B9BD000000040240F1
:1015C000F8B500200090FFF7F3FF6946002000F017
:1015D000D7F9FFF7E5FF962000F094FEFFF7E8FF4C
:1015E0006946002000F0CCF9FFF7DAFF962000F002
:1015F00089FEFFF7DDFFB621142000F013FAFFF794
:10160000CFFF502000F073FEFFF7D2FF69460020A5
:1016100000F0B6F9FFF7C4FF962000F073FEFFF765
:10162000C7FF6946002000F0ABF9FFF7B9FF96202D
:1016300000F068FE9DF800000F2801D0FF20F8BDE3
:101640000024154FFFF7B4FF04EB4405EE19785D55
:10165000717800F0E7F9FFF7A3FF962000F052FE43
:10166000FFF7A6FF785D694600F08AF9FFF798FF5B
:10167000962000F047FE70789DF80010884204D054
:1016800004EB440038448078F8BD641CE4B2062CB6
:10169000D8D30020F8BD0000B60200207CB5044677
:1016A000002000900190FFF7EDFE922000F074F909
:1016B00006226946122000F051F9FFF7DBFE9DF883
:1016C00000009DF8011040EA012000B220849DF83E
:1016D00002109DF8032041EA022109B261849DF8BD
:1016E00004209DF8053042EA032212B2A28400EEE3
:1016F000100A454DF8EEC00A95ED000A60EE800A2A
:10170000C4ED010A00EE901AF8EEE00A60EE800ADD
:10171000C4ED020A00EE902AF8EEE00A20EE800AFC
:1017200084ED030AFFF7AEFEA22000F035F9022295
:101730006946222000F012F9FFF79CFE9DF8000098
:101740009DF80110C00040EA5110A085B0F5806FEF
:1017500002DBA0F50060A085B4F92C00B4EE001AFD
:1017600000EE100AF8EEC00AB3EE070A00EE810A96
:1017700084ED070AFFF71CFF08226946002000F0ED
:10178000EDF8FFF70DFF9DF800000F2814D19DF82C
:1017900002009DF8031040EA0120E0849DF8040057
:1017A0009DF8051040EA012020859DF806009DF86F
:1017B000071040EA01206085B4F92600D4ED0C0A38
:1017C00000EE100AB8EEC01A95ED010A50EE010ABB
:1017D000C4ED040AB4F92800D4ED0D0A01EE100A94
:1017E000B8EEC11A50EE010AC4ED050AB4F92A0098
:1017F000D4ED0E0A01EE100AB8EEC11A50EE010A3D
:10180000C4ED060A7CBD00009C02002070B50024D7
:10181000FFF740FE40EA0405FFF7D2FE40EA050468
:10182000022000F064FD002CF2D1BDE870400148B8
:1018300000F002B80C1600207CB504460020009091
:101840000190002541F28836FFF71CFE922000F03F
:10185000A3F806226946122000F080F8FFF70AFE7E
:101860009DF801009DF8001041EA002020849DF8B9
:1018700003009DF8021041EA002060849DF80500F5
:101880009DF8041041EA0020A084FFF791FE082291
:101890006946002000F062F8FFF782FE9DF8000024
:1018A0000F2838D19DF80300000201B29DF8020014
:1018B0000143E1849DF805009DF80420000200B278
:1018C000104320859DF807209DF80630120212B2C1
:1018D0001A43628500EE101A1E49D4ED0C0AB8EEC8
:1018E000C01A91ED010A40EE010AC4ED0C0A00EEA7
:1018F000900A94ED0D1AF8EEE00A00EE201A84ED3D
:101900000D1A00EE902A94ED0E1AF8EEE00A00EEA1
:10191000201A84ED0E1A012000F0E9FC6D1CADB216
:10192000B54291D3D4ED0C0A9FED0B0A80EE801ADC
:1019300084ED0C1AD4ED0D0A80EE801A84ED0D1A98
:10194000D4ED0E0A80EE801A84ED0E1A012020706C
:101950007CBD00009C02002000409C4570B50D46F7
:10196000144640F0800000F017F806E0552000F023
:1019700013F805F8010B641EE4B2002CF6D170BD1B
:1019800010B50C4640F0800000F006F8552000F03D
:1019900003F8207010BD000001B582B00020019056
:1019A0004FF47A700090012301AA02A9024802F0C4
:1019B0003FFD9DF804000EBD701C002010B5F0EE38
:1019C000400A9FED130A134808F01EFB1148124A03
:1019D00090ED0A0A10EE101A914204DD9FED0F0AF5
:1019E00080ED0A0A08E0B5EEC00AF1EE10FA03D263
:1019F0009FED0B0A80ED0A0A90ED0A0ABDE810403F
:101A0000BCEEC00A10EE100A80B203F003BC000066
:101A100000002042800B00200000FA440000FA443D
:101A20000000000010B50C46FFF7B6FF2046BDE8E9
:101A30001040FFF7B1BF000000B58BB0282101A80E
:101A4000FEF7DDFD0121099100200790089101902A
:101A5000029003900490069005900A9001A9104806
:101A600000F01AFD08B100F066FC0D4801F077F8AF
:101A700002210B4800F08CFC0E2006900A9001A970
:101A8000084800F009FD08B100F055FC054801F0D8
:101A900066F80221034800F07BFC0BB000BD00009B
:101AA000201C0020481C00200D490A6842F080726A
:101AB0000A600C4900224A600B6843F001030B6086
:101AC00009494843094908604FF47A73B0FBF3F3BE
:101AD0004B60054BB0FBF3F08860CA6070470000B4
:101AE000FCED00E0001000E040420F005802002032
:101AF00008B51A2000900948094B0168A3F10F02AC
:101B0000091D05F04FFF642000900648064B016850
:101B1000A3F16402091D05F045FF08BD581D002012
:101B200075170020E81D0020021700200021014841
:101B300003F03EB8101D0020FEE70000014800F051
:101B4000BDBD0000201C002070B504460D460E4AA5
:101B50002946204600F002FA0B4A294688322046E0
:101B600000F0FCF9094A2946204600F0F7F9074A37
:101B700029468832204600F0F1F929462046BDE882
:101B80007040034A00F010BBF80200200804002057
:101B900088080020014800F091BD0000481C00208A
:101BA00070B504460D460E4A2946204600F0FCFA60
:101BB0000B4A2946B032204600F0F6FA094A294677
:101BC000204600F0F1FA074A2946B032204600F0DC
:101BD000EBFA29462046BDE87040034A00F0E4BA1B
:101BE0001805002078060020D807002070B52D4D7C
:101BF0002D4C2878002837D008232C4AD4F8181206
:101C0000D4F8B80207F02CFE284A08230832D4F88A
:101C1000C812D4F8680307F023FE00202870234A76
:101C200008231032D4F87813D4F8180407F018FEFB
:101C30001F4A204811880B0A0374417451880B0A0B
:101C40008374C17491880B0A03754175D1880A0A9F
:101C50008275C1758168D0F88000BDE87040154A72
:101C60000823103207F0FCBD104A0823183AA16877
:101C7000D4F8A80007F0F4FD0C4A0823103AD4F871
:101C8000B810D4F8580107F0EBFD084A0823083AC9
:101C9000D4F86811D4F8080207F0E2FD012028709A
:101CA000BDE700000402002018050020200E0020DF
:101CB000B0120020F802002004284FF00000704706
:101CC0000020704710B500220449054806F0AAF824
:101CD0000449034806F098F8002010BD248E002027
:101CE000488100202486002010B50446204604F0D8
:101CF000EBF92146034806F087F8024806F058F849
:101D0000002010BD48810020002070472DE9F041DF
:101D10000024154E154F04EB8400144A06EB4010C6
:101D20000546183A012104F055FB05F150003A46EA
:101D3000012104F04FFB641C032CECDD0B4A012154
:101D400018320B4804F046FB084A0948303201219A
:101D5000503004F03FFB04489FED060A843880EDC4
:101D6000000ABDE8F0810000B8120020BC0100208C
:101D7000381500200041AF4300200849002201EB44
:101D80004003A3F87C208A67401C0328F7DD044841
:101D900090ED020A81ED0F0A704700003412002016
:101DA000D80A00202DE9F047544D554F05F184061F
:101DB00095ED100AB5EEC00AF1EE10FA64D195ED7A
:101DC000110AB5EEC00AF1EE10FA5DD195ED120AD6
:101DD000B5EEC00AF1EE10FA56D1A86F401CA86704
:101DE00040F6B831884229DB002404EB041007EBED
:101DF000C00905EB8400D9ED0A0A90ED130A04EB43
:101E0000840006EB4018404608F0FEF8B9F92000BF
:101E100000EE100A08F15000F8EEC00A98ED0A0A28
:101E200008F0F2F8BDEEC00A05EB440110EE100A0E
:101E3000A1F87C00641C032CD7DD48E0002404EBEF
:101E4000041007EBC00805EB8409B8F9200000EE88
:101E5000100A04EB840006EB4010F8EEC00A99ED7E
:101E6000170A503008F0D0F8BDEEC00A05EB440167
:101E700010EE100AA1F87C0098ED0A0A89ED130A09
:101E8000641C032CDBDD22E0002404EB041007EBD0
:101E9000C000B0F9200000EE100A05EB8400F8EE57
:101EA000C00A90ED170A04EB840006EB4010503096
:101EB00008F0AAF8BDEEC00A05EB440110EE100AC6
:101EC000A1F87C00641C032CDFDD0020A867002043
:101ED00043F6FC735C4205EB4001B1F97C209A4269
:101EE00002DDA1F87C3003E0A24201DAA1F87C40D7
:101EF000401C0328EFDDBDE8F0870000341200200D
:101F0000F8020020FFF702FF084C05F013F9207BD0
:101F100020B1607B10B1FFF745FF01E0FFF72CFF18
:101F2000207B6073012008F0AEF9EEE73412002048
:101F300090F82C10002250290CD9B0F88410491CBC
:101F400089B2A0F88410C82903D902218430817095
:101F500002807047A0F884207047000010B5144636
:101F60000068E26890423AD1887984F82C00487879
:101F70000A7840EA02206084C8788A7840EA022021
:101F800020844879097940EA0120E0832046FFF760
:101F9000CFFF207F012812D0E068B0F5017F06D97D
:101FA00040F2FF11A160401F4000207607E04FF48F
:101FB0000071884203D9A160401E4000207622793A
:101FC0004FF4005104F11C0052B1012A0FD0022A33
:101FD00005D19FED0A0A07F0B7FF84ED0A0A10BD8C
:101FE000B7EE000A07F0B0FF84ED0A0A10BD9FEDBE
:101FF000040A07F0A9FF84ED0A0A10BD0000104290
:102000002CA09941014800F037BE0000F01E0020CE
:10201000014800F031BE0000501F0020014800F0D0
:102020002BBE0000301E0020014800F025BE00003D
:10203000B01F0020014800F01FBE0000901E0020CD
:102040000168CAB2103A1823B2FBF3F2064B9B5C4C
:10205000C3656FF30901032A02D9091D816500E0F8
:102060008165806D704700007CBA000810B501469C
:1020700000208A6A8B694FF0C074002B0ED0B3F534
:10208000005F1AD062B3012A2AD0022A28D0032A7C
:1020900003D1C96AC90100D5012010BD1AB1012AB6
:1020A00006D0022AF9D1C96AC901F6D5012010BDAE
:1020B000C96AA142FBD1012010BD52B1012A0AD048
:1020C000022A06D0032AF7D1C96AA142F4D101201D
:1020D00010BD012010BDC96AC901FBD5012010BD8A
:1020E000012010BDFF21017041708170C17001712C
:1020F00041718171FD21C17170470000F0B5024648
:102100000B46F0EE603AB0EE413A93ED111ADFED76
:10211000232A1020F1EE410A20EE220A08F059F895
:10212000044693ED121A0C20B0EE630AF1EE410A58
:1021300008F04FF80546DFED1A2A93ED141A0C202B
:10214000F0EE620AB0EE430A08F043F8064693ED5B
:10215000151A0C20F0EE620AB0EE610A08F039F8A8
:102160000746DFED100A93ED131A0C2082EE200AC9
:10217000F1EE410A08F02DF8210A11705470290976
:102180009170290141EA1621D170167139095171F6
:10219000390141EA10219171D071F0BD35FA8E3CC0
:1021A0000000000000007A4410B514460068E268A0
:1021B00090423FD10878000904F8240F88784A78C3
:1021C00040EA02206080CA780B79120142EA1312B9
:1021D000A2800B794A7903F00F0342EA0322E280DE
:1021E0008A796275C9792175D4ED080A1021B1EE9A
:1021F000600A08F03EFB84ED060A243C04F1440129
:1022000004F11C0008F08CF884ED0B0AD4ED120ADE
:10221000208D0C21B1EE600A08F02BFB84ED0C0A36
:10222000D4ED130A608D0C21B1EE600A08F021FB99
:1022300084ED0D0A10BDFF21017041708170C170E5
:10224000017141718171FB21C1717047FF210170E2
:1022500041708170C170017141718171FC21C17146
:102260007047000070B505462DED028B00241C4E12
:10227000DFED1C8A9FED1C8A06EB440105EB440050
:10228000B1F8011020F8E41F10210088F0EE680A70
:10229000B0EE480A08F0EDFA05EB840080ED070A7D
:1022A000641C022CE8DD0024E01C06EB440105EB75
:1022B0004000B1F8071020F8E41F10210088F0EE6C
:1022C000680AB0EE480A08F0D4FA05EB840080ED05
:1022D0000A0A641C022CE7DDBDEC028B70BD000015
:1022E000481600200000B4430000B4C3704770B526
:1022F000054600F023FF044600F020FF001BA84223
:10230000FAD370BD70B5054602F076FF044602F0C0
:1023100073FF001BA842FAD370BD0000034804F00D
:10232000F1FD052007F0AFFFF8E7000038090020B5
:10233000202000F007BE72B6FEE70000F6EE000AAD
:1023400060EE200A10EE100A0649A1EB600000EED4
:10235000100A20EE801AF7EE080A41EE400A20EE3D
:10236000800A7047865A375F10B5084400280BD0A2
:102370000822064903F03CF8044920460422BDE83F
:102380001040103103F034B810BD00001A0A0020CC
:1023900090F82020012A07D0022A05D0416A41F492
:1023A0008021416201207047006842690A4342610E
:1023B00000207047F0B590F820500468A468012D03
:1023C00007D0022D05D0416A41F4802141620120ED
:1023D000F0BD04F0806504F00066354301D1E500EE
:1023E00053D5C4F301640125A5401D608B684FF4EB
:1023F000C0759BB1CE6805EB041733434E6843EAC2
:10240000C6030668F3514FF4C273076803EB041365
:102410000E69FE50097D012909D00DE00E88CB68B8
:1024200005EB041743EA46530668F351EBE70168EE
:10243000CE5846F48076CE501179D379567941EA58
:10244000036193791B0443EA062319434FF4C676CC
:10245000036806EB041699511178D37841EA0361B9
:10246000937852781B0443EA022211434FF4C47359
:10247000026803EB0413D150006805EB04114258C5
:1024800042F0010242500020F0BD416A41F40011C7
:1024900041620120F0BD000010B590F82020012A13
:1024A00007D0022A05D0416A41F48021416201200F
:1024B00010BD3C4800F50070026842F00102026065
:1024C000026822F47C52026002684B6A42EA0322EC
:1024D00002600A7D02F01F0301229A40C369934300
:1024E000C361A0F50070CB69B3B9D0F80C32934347
:1024F000C0F80C328C894B6864F31F434C6900EBC5
:10250000C404C4F840320C890B6864F31F434C695F
:1025100000EBC404C4F84432CB69012B16D1D0F8C7
:102520000C321343C0F80C320C884B6864F31F4321
:102530004C6900EBC404C4F840320C89CB6864F3E6
:102540001F434C6900EBC404C4F844328B697BB16F
:10255000D0F804321343C0F804320B6973B1D0F8D9
:1025600014321343C0F81432096A01290CD010E068
:10257000D0F804329343C0F80432EEE7D0F81432B6
:102580009343C0F81432EFE7D0F81C121143C0F89F
:102590001C12D0F8001221F00101C0F80012002036
:1025A00010BD000000640040704770B590F82040F6
:1025B000012C07D0022C05D0416A41F480214162F0
:1025C000012070BD21B104682469A4072AD003E06A
:1025D0000468E468A4071FD04FF4D874056804EBBE
:1025E00001142D5905F0040595600DB305682D59AA
:1025F000ED08556005682C5904F00204D4604FF4CE
:10260000DA74056804EB01142E5906F00F06082E43
:1026100013D30825156114E0416A41F400114162A9
:10262000012070BD416A41F400114162012070BD7A
:1026300005682D596D0D1560DCE72D5905F00F0566
:10264000156105682D59C5F30725956105682C5955
:10265000240C54614FF4DC72046802EB0112A4589C
:102660001C700468A458240A5C700468A458240CE4
:102670009C700468A258120EDA704FF4DE7204687F
:1026800002EB0112A4581C710468A458240A5C715E
:102690000468A458240C9C710468A258120EDA71C4
:1026A00031B10068016941F020010161002070BD75
:1026B0000068C16841F02001C160F7E72DE9F05FD3
:1026C0000546002428684669D0F804908768D0F849
:1026D0000CA0D0F810B0D0F81880F10748D0F90756
:1026E00014D001218160B80703D5284600F064FAB0
:1026F0000CE0780702D54FF4006407E0380702D5F4
:102700004FF4805402E0284600F055FAF80516D53B
:1027100029684FF480708860B80503D5284600F01A
:102720004DFA0CE0780502D544F4005407E0380572
:1027300002D544F4804402E0284600F03EFAF80353
:1027400016D529684FF480308860B80303D5284631
:1027500000F036FA0CE0780302D544F4004407E0B8
:10276000380302D544F4803402E0284600F027FA0A
:10277000300707D55FEACA6004D544F400742968BD
:102780001020C86070074FF0080707D55FEA0A708D
:1027900004D52868C760284600F0B8F9B00706D508
:1027A0002868C068800702D0284600F0B1F970069A
:1027B00007D55FEACB6004D544F480642968102013
:1027C0000861B00607D55FEA0B7004D52868076179
:1027D000284600F0C1F9F00606D528680069800790
:1027E00002D0284600F0B9F9B00308D55FEAC96005
:1027F00005D5296810204860284600F0AFF9F0039D
:1028000007D55FEA097004D528684760284600F0BC
:10281000D8F9300446D55FEA497040D5F00504D5B3
:102820005FEAC87001D044F00104B00504D55FEA46
:10283000887001D544F00204700504D55FEA487041
:1028400001D544F00404300529D518F0700F26D0C6
:1028500008F07000402815D006DC102809D0202888
:102860000AD0302816D10AE050280ED0602811D1A5
:102870000EE044F008040DE044F010040AE044F0D7
:10288000200407E044F0400404E044F0800401E048
:1028900044F480742868816921F07001816129689D
:1028A00004204860002C05D0686A204368622846EE
:1028B000FFF77AFEBDE8F09F70B50446002C03D008
:1028C00094F8200010B104E0012070BD204600F013
:1028D0009DF82068016841F00101016000F02EFCC4
:1028E000054605260CE000F029FC401B0A2807D904
:1028F000606A40F40030606284F82060012070BD9E
:1029000020684068C007EED02068016821F002010D
:10291000016000F013FC05460CE000F00FFC401BCA
:102920000A2807D9606A40F40030606284F82060A9
:10293000012070BD206840688007EED4207E012809
:102940003FD02068016821F080010160607E01288D
:102950003DD02068016821F040010160A07E01287F
:102960003BD02068016821F020010160E07E012851
:1029700039D02068016841F010010160207F0128F2
:1029800037D02068016821F008010160607F0128CC
:1029900035D02068016821F004010160D4E902010A
:1029A0000843D4E90412114308436168491E0843EF
:1029B0002168C86100206062012084F820000020A6
:1029C00070BD2068016841F080010160BEE72068A9
:1029D000016841F040010160C0E72068016841F0F2
:1029E00020010160C2E72068016821F01001016048
:1029F000C4E72068016841F008010160C6E720686B
:102A0000016841F004010160C8E700002DE9F041D0
:102A100086B00446142101A8FDF7F1FD364B374A74
:102A2000DFF8D08018682168344C03260227401C48
:102A3000103200254FF0090C414527D118600128BC
:102A400007D1106840F000701060106800F000704E
:102A50000090206840F008002060206800F0080026
:102A600000900196029703950496CDF814C001A931
:102A7000234800F073FA00220521142000F0FCFB2B
:102A8000142000F0EBFB06B0BDE8F081DFF87480A5
:102A90004145F8D1116841F080611160116801F081
:102AA000806100911860012807D1106840F0007023
:102AB0001060106800F000700090206840F0020084
:102AC0002060206800F002000090602001900297D2
:102AD00003950496CDF814C001A90B4800F03EFA06
:102AE00000220521402000F0C7FB402000F0B6FB8B
:102AF000C9E7000000640040680900203038024047
:102B0000000C0240006800400004024070470000D2
:102B100010B504460C4B0D4A00212046FFF745FD39
:102B20000B492068884205D1BDE810400649074896
:102B3000FFF70AB80749884205D1BDE810400249AD
:102B40000248FFF72DB810BD1C020020F015002030
:102B5000006400400068004070477047704770B5DF
:102B6000044694F82000012805D0606A40F4002053
:102B70006062012070BD022084F820002068016896
:102B800021F00101016000F0D9FA05460DE000F0E6
:102B9000D5FA401B0A2808D9606A40F40030606208
:102BA000052084F82000012070BD20684068C0071F
:102BB000EDD1606270BD70477047704770477047D5
:102BC000704770472DE9F0410446A76D00F0B6FA52
:102BD000054694F835000026022806D0802060655E
:102BE00084F834600120BDE8F0812068016821F09C
:102BF000160101602068416921F080014161206C6B
:102C000008B9A06C20B12068016821F008010160BA
:102C10002068016821F0010101600BE000F08EFAEC
:102C2000401B052806D92020343420620320607020
:102C30002670D8E720680068C007EFD134343F2001
:102C400094F828108840B860012060702670002039
:102C5000C9E790F83510022903D080214165012091
:102C60007047052180F835100068016821F00101E6
:102C700001600020704700002DE9F84304464FF042
:102C80000009CDF800906F484FF416510068B0FB72
:102C9000F1F7A56D2E6894F85C00082202FA00F1A5
:102CA000314210D02068016849070CD5016821F035
:102CB0000401016094F85C0002FA00F1A960606D03
:102CC00040F00100606594F85C104FF0010808FACC
:102CD00001F0304208D021684969090604D5A8608E
:102CE000606D40F00200606594F85C10042088403C
:102CF000304208D021680968890704D5A860606D52
:102D000040F00400606594F85C1010208840304268
:102D100020D02168096809071CD5A86020680168CF
:102D200049030CD50068000304D4216C91B12046FE
:102D300088470FE0A16C69B1204688470AE0016826
:102D4000C90503D4016821F008010160216C09B1B3
:102D50002046884794F85C102020884030424CD0B0
:102D600021680968C90648D5A86094F83500052887
:102D70000BD020680168490330D50068000328D4CF
:102D8000616C51B32046884737E02068016821F024
:102D9000160101602068416921F080014161206CC9
:102DA00008B9A06C20B12068016821F00801016019
:102DB00094F85C103F208840A86084F8358084F83F
:102DC0003490216D00293BD001B02046BDE8F0438E
:102DD0000847E16B09B1204688470EE00168C90544
:102DE00007D4016821F01001016084F8358084F86F
:102DF0003490E16B09B120468847606D00281FD0F0
:102E0000606DC00714D0052084F835002068016883
:102E100021F0010101600098401C0090B84203D8E5
:102E200020680068C007F6D184F8358084F83490B3
:102E3000E16C002904D001B02046BDE8F04308470A
:102E4000BDE8F8836C0900202DE9F041044600F04C
:102E500075F905465CB1022084F83500002684F837
:102E600034602068016821F0010101600DE001205B
:102E7000BDE8F08100F062F9401B052805D920204B
:102E80006065032084F83500F2E720680068C00719
:102E9000F0D121680A6820480240D4E901031843B0
:102EA000D4E903352B43184363691843A3691843D6
:102EB000E3691843236A18431043626A042A03D162
:102EC000D4E90B231A43104308602068406920F0BE
:102ED0000700656A29460543012704290DD1A06A28
:102EE0000543E06A48B12046FFF7C0F828B140200A
:102EF000606584F835700120BAE720684561204696
:102F0000FFF79EF894F85C203F2191408160666550
:102F100084F835700020ABE73F8010F070B50446B0
:102F200000F00CF90546601C02D004480078044407
:102F300000F004F9401BA042FAD370BDD80900206C
:102F40007047000010B504490A68024202D00860C8
:102F5000FFF7F6FF10BD0000143C01402DE9F84FCB
:102F60000022DFF89C914FF0010803274FF00F0C6F
:102F700009F1040AA9F1040B08FA02F50B682B40C9
:102F8000AB426ED10C7904F00304012C01D0022C69
:102F900015D18668540007FA04FE26EA0E06D1F819
:102FA0000CE00EFA04FE4EEA060EC0F808E0446893
:102FB000AC430D79C5F300159540254345600C7968
:102FC000E443A40708D0C568540007FA04F6B543E3
:102FD0008E68A6402E43C6600C7904F00304022CD0
:102FE00011D1D40800EB8406356A5407E40E0CFABC
:102FF00004FE25EA0E05D1F810E00EFA04FE4EEAB2
:10300000050EC6F820E00568540007FA04F6B5433B
:103010000E7906F00306A6402E4306604C6814F4B1
:10302000403F67D0374C256845F4804525602468CB
:1030300004F480440094344C22F003052E19D6F891
:10304000085894074FEA147E0CFA0EF4A5432F4C4F
:10305000A04201D1002424E02D4CA04202D1012441
:103060001FE047E02B4CA04201D1022419E02A4C7A
:10307000A04201D1032414E0284CA04201D1042431
:103080000FE0274CA04201D105240AE0254CA042C4
:1030900001D1062405E0244CA04201D1072400E020
:1030A000082404FA0EF42C43C6F80848D9F8004066
:1030B0009C434D68ED0200D51C43C9F80040DAF886
:1030C00000409C434D68AD0200D51C43CAF8004047
:1030D000DBF800409C434D68AD0300D51C43CBF8A2
:1030E0000040074D083D2C689C434E68F60300D510
:1030F0001C432C60521C102AFFF43EAFBDE8F88F31
:10310000083C0140443802400030014000000240C9
:103110000004024000080240000C0240001002407F
:103120000014024000180240001C0240002A01D096
:10313000816170470904816170470000014880681F
:1031400070470000D80900200248816802781144C5
:1031500081607047D809002010B50B48016841F420
:1031600000710160016841F480610160016841F40F
:1031700080710160032000F09FF80F2000F006F836
:1031800000F050F8002010BD003C024030B587B080
:10319000054600241F48016841F0010101600068F4
:1031A00000F00100009001A902A800F031FE05988E
:1031B000B0B100F051FE40001749B0FBF1F1491EDB
:1031C00016484FF08042026040F2E732C260416030
:1031D00004618460846101F071FA04461CB115E059
:1031E00000F03AFEE8E70D4801F0B2FA04466CB987
:1031F0001C2000F033F8102D07D2002229461C2095
:1032000000F03AF80648056000E0012407B02046C7
:1032100030BD00004038024040420F001020002026
:10322000DC09002082B00C48016841F48041016053
:10323000006800F4804001900748001F016841F0D9
:1032400080510160006800F08050019000220F2141
:10325000901E02B000F010B844380240002809DB8C
:1032600000F01F02012191404009800000F1E020A0
:10327000C0F8001170470000F0B40D460D4B1B68FC
:10328000C3F30223C3F10704042C00D90424191D3D
:10329000072901D2002300E0DB1E012606FA04F113
:1032A000491E294099409E40761E16403143F0BC8D
:1032B00006F0ACBB0CED00E000F00701054A106819
:1032C0004FF6FF03184040EA01200349084310600D
:1032D000704700000CED00E00000FA057047006840
:1032E00041620020704770B50368586A002907D012
:1032F0009C6A00EB144400204FF48275491E0AE0DA
:1033000040EA024098620DE005EB80069E5904EB0E
:103310001644401CC0B28842F6D305EB810144EA52
:1033200002405850002070BDD0F8E00405F063B9A9
:1033300001EBC10200EB8202D0F8E004126A05F052
:1033400087B801EBC10200EB8202D0F8E004D2F8AA
:10335000602205F0EBB8D0F8E00405F04EB90A069B
:1033600001F00F0101EBC10100EB810101D5143126
:1033700001E001F51571006806F0A4B870B50446C7
:103380000B0601F00F0000EBC00104EB81014FF0D0
:1033900001024FF0000502D514314A7002E001F538
:1033A00015714D70087094F89404012808D084F8C1
:1033B0009424206805F09EFD84F89454002070BD8C
:1033C000022070BD70B5044601F00F0022799042D2
:1033D00001D9012070BD0B0601F00F0101EBC10105
:1033E00004EB81014FF001024FF0000502D51431CA
:1033F0004A7002E001F515714D708D70087094F8F7
:103400009404012808D084F89424206805F0DCFE98
:1034100084F89454002070BD022070BD01F00F01AB
:1034200001EBC10100EB8100D0F8680270472DE983
:10343000F04104460F0601F00F0000EBC00104EB61
:1034400081014FF001064FF0000502D514314E7096
:1034500002E001F515714D7008708A600B714A78B1
:1034600002B14883022B00D14D7194F894040128D5
:1034700009D084F89464206805F086FC284684F816
:103480009454BDE8F0810220FBE710B501F00F0471
:1034900004EBC40100EB810101F51571CA600B61F9
:1034A00000234B614B700C708379012B00D1CA61F2
:1034B0008279006805F0E0FE002010BD70B504467A
:1034C0000D46217905F00F00884201D9012070BD19
:1034D00029064FF000064FF0010206D500EBC001AF
:1034E00004EB810114314A7006E005EBC50104EBE1
:1034F000810101F515714E708A70087094F894047A
:10350000012807D084F89424206805F089FE280754
:1035100002D007E0022070BDA17904F29C4220682D
:1035200005F028FE84F89464002070BD10B501F009
:103530000F0404EBC40100EB81011431CA600B617C
:1035400000234B6101234B700C708379012B00D158
:10355000CA618279006805F08FFE002010BD2DE958
:10356000F84F04462568284606F056F800287ED114
:10357000206806F07DF8002879D0D5F80808C0F357
:103580000D20C4F8D404206806F072F8800704D532
:103590002068416901F002014161206806F068F885
:1035A000C10604F29C40009035D52068816921F065
:1035B000100181612F6A07F00F0000EBC00004EBDF
:1035C000800606F51576C7F34340022802D0062888
:1035D00012D01BE047F6F070074217D0C7F30A126B
:1035E00017462846F16806F047F8F0683844F0605E
:1035F00070693844706109E008222846009906F095
:103600003BF87069C7F30A1108447061206881694A
:1036100041F010018161206806F02AF800034FF0A4
:10362000080B4FF000094FF001085ED50026206816
:1036300005F0FDFF824655E05FEACA704FD0F1B257
:10364000206806F00DF80746F80707D005EB46108E
:10365000C0F8088B3146204602F0D2FD380709D564
:1036600005EB4610C0F808BB3146204600E0F8E103
:1036700002F0A2FDF80604D505EB46101021C0F8B3
:10368000081BB8071CD56869000605D5D5F80408DD
:1036900040F48061C5F8041806EBC60004EB800016
:1036A00000F51570C178012905D180F80390F1B2B9
:1036B000204600F0DCF905EB46110220C1F8080BAA
:1036C000B80604D505EB46102021C0F8081BB80445
:1036D00005D505EB46104FF40051C0F8081B761CC9
:1036E0004FEA5A0ABAF1000FA6D1206805F0C0FFD0
:1036F00040036CD5206805F093FF8246002663E006
:103700005FEACA705DD0F1B2206805F097FF074606
:10371000F80723D006F00F0108FA01F0D5F83418A5
:103720008143C5F8341805EB4610C0F80889A07924
:1037300001280FD106EBC60004EB8000D0E9072179
:103740001144016236B9606A20B920680121009AEB
:1037500005F010FDF1B22046FFF7EAFD380703D56A
:1037600005EB4610C0F808B9F80604D505EB46107D
:103770001021C0F80819780604D505EB4610402141
:10378000C0F80819B80716D53146284605F012FFCB
:1037900006EBC60004EB80001430C178012905D186
:1037A00080F80390F1B2204600F05DF905EB461178
:1037B0000220C1F80809380603D53146204602F038
:1037C00091FD761C4FEA5A0ABAF1000F98D1206891
:1037D00005F04EFF002811DAD5F8040820F00101A9
:1037E000C5F8041894F8CC04012829D0204600F02C
:1037F00006FA2068416901F000414161206805F046
:1038000037FF00050BD5D5F80808C00702D02046C1
:1038100000F038FA2068416901F4006141612068D4
:1038200005F026FFC00461D5D5F8040820F0010199
:10383000C5F804181021206805F0BCFE002120E026
:1038400084F8CC9400212046FFF748FDD1E705EB32
:10385000411000F510604FF67F328260036823F458
:1038600000130360C0F80822D0F8002222F40012EE
:10387000C0F80022D0F8002242F00062C0F8002216
:10388000491C20798842E2D8D5F81C0840F0011183
:10389000C5F81C18E07B60B1D5F8840840F00B0136
:1038A000C5F88418D5F8440840F00B01C5F8441851
:1038B0000CE0D5F8140842F22B010843C5F81408AF
:1038C000D5F8100840F00B01C5F81018D5F800081D
:1038D00020F4FE61C5F80018A1792068009A05F06F
:1038E00049FC2068416901F480514161206805F07C
:1038F000BFFE800415D5206805F088FA206805F021
:103900007BFEE07100F0A2FA0146E279206805F042
:1039100019FF204600F05CF92068416901F400516C
:103920004161206805F0A4FE000707D5204600F09D
:103930006AF92068416901F008014161206805F0D9
:1039400097FE000615D5A86920F08001A96101261F
:103950000CE006EBC60004EB800090F8570201284B
:1039600003D1F1B22046FFF7FAFC761C2079B04271
:10397000EFD8206805F07CFEC0021FD5012615E0B7
:1039800005EB4610D0F8001906EBC60004EB8000EA
:10399000027E012A09D1002907DA80F81780F0B2E7
:1039A00040F080012046FFF7DAFC761C2079B04217
:1039B000E6D82068416901F480114161206805F072
:1039C00057FE800230D5012026E005EB4011D1F8EA
:1039D000001B00EBC00204EB820292F85832012B6C
:1039E00019D1002917DA94F8D43401F4803103F0A6
:1039F000010399420FD182F85782A96941F08002F0
:103A0000AA616969090606D4D5F8040840F4007073
:103A1000C5F8040803E0401C21798142D5D820680C
:103A2000416901F400114161206805F021FE400068
:103A300007D52046FFF778FC2068416901F08041F6
:103A40004161206805F014FE40070AD520684568EA
:103A5000680702D52046FFF77EFC206841682943AD
:103A60004160BDE8F88FD0F8E00404F01ABED0F849
:103A7000E00404F02BBEF8B50446002C05D02668FF
:103A800094F89504002510B106E00120F8BD84F8F3
:103A90009454204600F05AF8032084F89504B6F1B7
:103AA000A04F00D1A571206805F05EFB207C8DF849
:103AB000000094E80F0005F0B7F9022618B184F869
:103AC00095640120F8BD0021206805F0F4FD18B1CF
:103AD00084F895640120F8BD002101270CE001EB7A
:103AE000C10004EB800047750175C1850576C5618D
:103AF00005624562491CC9B220798842EFD800218D
:103B00000DE001EBC10004EB800000F5157045707D
:103B1000017005718560C5600561491CC9B22079D5
:103B20008842EED8207C8DF8000094E80F0005F064
:103B300061FA18B184F895640120F8BD657484F8C1
:103B40009574206805F048FA0020F8BD10B586B0DD
:103B50000446142101A8FCF752FD2068B0F1A04FE3
:103B60002FD100211848026842F00102026000686B
:103B700000F0010000904FF4C0500190022002902C
:103B80000391032004900A20059001A90F48FFF734
:103B9000E5F90D48001D016841F0800101600A4807
:103BA0001430016841F480410160006800F48040F5
:103BB0000090002205214320FFF75EFB4320FFF722
:103BC0004DFB06B010BD000030380240000002403E
:103BD00070B504460125E07900280ED0022801D0F6
:103BE000FEF7A9FB2946D4F8E00404F0E0FDD4F880
:103BF000E004BDE8704004F093BD0025F2E7D0F882
:103C0000E00404F0BDBDD0F8E00404F0C3BD10B57D
:103C1000044694F8940401280AD0012084F89404FE
:103C20006174206805F077FD002084F8940410BDCD
:103C3000022010BDD0F8E02400F29C41104604F0B0
:103C4000C2BD10B50446206894F89414012909D027
:103C5000012184F89414C168490609D5617B0129C2
:103C600002D005E0022010BD816B41F480318163F8
:103C7000206805F079FC206805F0A0F9002084F8A0
:103C8000940410BD10B50446D4F8E00404F0DDFD42
:103C90002068D0F8001E41F00101C0F8001EE07A53
:103CA000002804D00248016841F00601016010BDFF
:103CB00010ED00E0704700002DE9F04704460D4686
:103CC000002C13D0DFF82891D9F80000EFB200F0F3
:103CD0000700A8420CD289F80070D9F8000000F063
:103CE0000700A84204D00120BDE8F0870120FBE7CF
:103CF0002068404E810712D5400703D5306840F454
:103D0000E05030602078000703D5306840F4604010
:103D100030603068A16820F0F000084330602078FF
:103D2000C00731D0334960680839012808D002281B
:103D30000BD0032809D0096889070BD40120D3E7E9
:103D40000968890306D40120CEE70968890101D4F6
:103D50000120C9E7316821F0030101433160FFF719
:103D6000EDF9804641F2883A07E0FFF7E7F9A0EB6A
:103D70000800504501D90320B6E73068616800F0BB
:103D80000C00B0EB810FF0D1D9F8000000F0070073
:103D9000A84209D989F80070D9F8000000F007009E
:103DA000A84201D001209FE72078400705D5306860
:103DB000E16820F4E050084330602078000706D521
:103DC0003068216920F4604040EAC100306000F0B2
:103DD00063F83168084AC1F30311515CC8400749D0
:103DE000086007480068FFF7D1F900207CE7000071
:103DF000003C02400838024064BA00086C09002008
:103E0000DC09002001490120C864704700004742D6
:103E10000F2202600B4A136803F003034360136828
:103E200003F0F0038360136803F4E053C360126887
:103E300002F46042D20802610348006800F0070003
:103E40000860704708380240003C024001480068A2
:103E5000704700006C09002000B5FFF7F7FF044928
:103E60000968044AC1F38221515CC84000BD0000CA
:103E70000838024074BA000800B5FFF7E7FF0449AC
:103E80000968044AC1F34231515CC84000BD0000DA
:103E90000838024074BA000810B51748006810F0DE
:103EA0000C01164816D0164B042912D0082911D13E
:103EB000114C241F216801F03F02216849020AD5F4
:103EC0002068C0F38810A0FB03010023FCF77FFAF1
:103ED00009E0184610BD21680023C1F38811A1FB39
:103EE0000001FCF774FA2168C1F30141491C490043
:103EF000B0FBF1F010BD0000083802400024F400CF
:103F0000001BB70010B505480068000605D5FFF78F
:103F1000D1FE02498020891C087010BD0C38024077
:103F20002DE9F84F0446002C13D02078DFF8A08349
:103F3000C007A8F1040556D008F104000168C1F3D8
:103F4000810101290CD00068C0F38100022803D050
:103F50000DE00120BDE8F88FD8F80000400206D53A
:103F6000286880033FD5606870BB0120F2E7606875
:103F7000B0F5803F10D0B0F5A02F12D0286820F403
:103F800080302860286820F4802028606068E0B1D4
:103F9000FFF7D4F8064614E0286840F48030286023
:103FA000F4E7286840F480202860286840F48030D6
:103FB0002860EBE7FFF7C2F8801B642801D90320D3
:103FC000C8E728688003F5D50DE0FFF7B7F8064687
:103FD00006E0FFF7B3F8801B642801D90320B9E796
:103FE00028688003F5D42078BA4F80074FF0000985
:103FF00048D5B748001D016811F00C0F08D00068C3
:10400000C0F38100022813D1D8F8000040020FD479
:104010002868800704D5E068012801D0012099E7CD
:104020002868216920F0F80040EAC100286029E0F2
:10403000E068B8B101203860FFF780F8064606E076
:10404000FFF77CF8801B022801D9032082E728684B
:104050008007F5D52868216920F0F80040EAC10002
:1040600028600FE0C7F80090FFF768F8064606E002
:10407000FFF764F8801B022801D903206AE728684B
:104080008007F5D42078000729D5DFF844A29248AC
:1040900061690AF1700A89B101210160FFF74EF8E8
:1040A000064606E0FFF74AF8801B022801D90320E4
:1040B00050E7DAF800008007F4D510E0C0F800906F
:1040C000FFF73CF8064606E0FFF738F8801B0228A9
:1040D00001D903203EE7DAF800008007F4D4207805
:1040E000400778D54FF0000A79483C300068C0009E
:1040F0000BD477483C30016841F080510160006882
:1041000000F0805000904FF0010ADFF8D0B1DBF8EA
:104110000000C00514D4DBF8000040F48070CBF838
:104120000000FFF70BF8064606E0FFF707F8801BD4
:10413000022801D903200DE7DBF80000C005F4D503
:10414000634EA0686C3601280FD0052812D0306865
:1041500020F001003060306820F004003060A0687A
:10416000F8B1FEF7EBFF834617E0306840F001003E
:104170003060F4E7306840F004003060306840F0B0
:1041800001003060EBE7FEF7D9FFA0EB0B0141F235
:104190008830814201D90320DCE630688007F2D5FF
:1041A00010E0FEF7CBFF834609E0FEF7C7FFA0EB68
:1041B0000B0141F28830814201D90320CAE6306800
:1041C0008007F2D4BAF1010F05D141483C300168B3
:1041D00021F080510160A069C0B33D49091D096803
:1041E0004FF0FF36C1F38101022946D0022805D0E5
:1041F000C7F86090FEF7A2FF04463AE0C7F8609067
:10420000FEF79CFF814607E0FEF798FFA0EB090050
:10421000022801D903209DE628688001F4D4D4E95E
:1042200007010843616AA26A890106EB520241EA6A
:104230000241084394F82C1040EA0160C8F80000DD
:1042400001203866FEF77AFF044607E03DE0FEF7FE
:1042500075FF001B022801D903207BE62868800136
:10426000F5D532E0FEF76AFF001B022801D90320D2
:1042700070E628688001F5D427E0012823D0D8F81B
:104280000000E26900F4800191421AD1226A00F034
:104290003F01914215D147F6C071626A0140B1EB0E
:1042A000821F0ED1A26A00F4403106EB5202B1EB3C
:1042B000024F06D194F82C1000F07060B0EB016F43
:1042C00003D0012046E6012044E6002042E600003B
:1042D0000438024000004742800E47420070004010
:1042E00070B50446002C09D0606A002540B12561F4
:1042F0006561A56294F8510040B10CE0012070BDE9
:104300006068B0F5827FF4D0E561F2E784F8505040
:10431000204600F045F8022084F85100206801682A
:1043200021F040010160A088218900F4827001F42D
:1043300004410843A18901F400610843217C01F094
:1043400002010843217D01F001010843218B01F4A2
:1043500000710843217F01F03801084394F82010D0
:1043600001F080010843218D01F4005108432168C8
:104370000860A069042101EA104094F8241001F0BB
:1043800010010843216848602068C16921F4006178
:10439000C1616565012084F85100002070BD0000F6
:1043A000F0B587B00446142102A8FCF728F91C498F
:1043B0002068884232D100271A48016841F48051B0
:1043C0000160006800F480500190164814380168BC
:1043D00041F002010160016801F0020101910168F0
:1043E00041F001010160006800F001000190182017
:1043F000029002260396049703250595052406944A
:1044000002A90948FEF7AAFD8020029003960497AE
:104410000595069402A90548FEF7A0FD07B0F0BD7A
:1044200000300140443802400004024000000240D5
:104430002DE9FF4F81B004460E9E8B46984601251C
:10444000002794F8500001280ED0AA4684F850A006
:10445000FEF774FE814694F85100616801280DD082
:10446000B1F5827F08D103E0022005B0BDE8F08FEE
:10447000A16809B9042801D00227CFE0BBF1000FE1
:104480002DD0039858B35FEA080028D094F8510063
:10449000042802D0052084F85100002060650399AB
:1044A000A163A4F83E80A4F83C80C4F830B0A4F81E
:1044B0003680A4F83480206460642068016849066E
:1044C00003D4016841F040010160E068B0F5006F7D
:1044D00007D06068F0B3B8F1010F49D07EE0012742
:1044E0009CE0606810B1B8F1010F3AD1206B2168EF
:1044F0000088C860206B801C2063E08E401EE08630
:104500002FE02068816889070DD5E18E59B1012D12
:1045100009D1216B0988C160206B801C2063E08E6B
:10452000401EE086002520688168C9070BD0E18F16
:1045300049B1C068A16B0880A06B801CA063E08FAC
:10454000401EE0870125FEF7F9FDA0EB0900B0420F
:1045500007D300E00CE0701C03D0032784F851A0BF
:104560005CE0E08E0028CCD1E08F0028C9D13BE090
:10457000206B216800780873206B401C2063E08E5C
:10458000401EE0862AE02068816889070DD5E18E0B
:1045900059B1012D09D1216B09780173206B401CA1
:1045A0002063E08E401EE086002520688168C907F0
:1045B0000BD0E18F49B1C068A16B0870A06B401CA3
:1045C000A063E08F401EE0870125FEF7B7FDA0EB5A
:1045D0000900B04201D3701C10D17EB1E08E0028DA
:1045E000D1D1E08F0028CED14A463146204602F094
:1045F000FFFC38B10127202060650FE0032784F815
:1046000051A00BE0A06818B92068C16880680090CC
:10461000606D08B1012701E084F851A0002084F802
:104620005000384621E770477047000070B590F899
:104630003C20012A31D0012680F83C60022280F81B
:104640003D2002685468936824F070050C682C4380
:104650005460134C0268A24214D0B2F1804F11D0C2
:10466000104CA2420ED0104CA2420BD00F4CA242D2
:1046700008D00F4CA24205D00E4CA24202D00E4CE4
:10468000A24204D123F080034968194391603C3071
:10469000467000210170002070BD022070BD000036
:1046A000000001400004004000080040000C0040F1
:1046B00000040140004001400018004010B50446CD
:1046C000002C03D094F83D0010B107E0012010BD8C
:1046D000002084F83C00204600F016F8022084F800
:1046E0003D00211D206802F06FFE01203D34607204
:1046F0006070A070E07020716071A071E071207234
:104700002070002010BD000008B500680D498842E7
:1047100009D10D48016841F004010160006800F012
:104720000400009008BD09498842FBD10648001DDD
:10473000016841F400310160006800F4003000902D
:1047400008BD00000008004040380240004401401D
:1047500090F83D10012901D001207047022180F816
:104760003D100168CA6842F00102CA60006814493D
:10477000884214D0B0F1804F11D0124988420ED037
:10478000114988420BD01149884208D0104988420B
:1047900005D01049884202D00F49884209D181686A
:1047A00001F00701062908D0016841F0010101600C
:1047B00003E0016841F00101016000207047000042
:1047C000000001400004004000080040000C0040D0
:1047D00000040140004001400018004070B504464C
:1047E000002594F83C00012817D0012684F83C608D
:1047F000022084F83D002068826822F0770222F4CB
:104800007F4282600868502838D00DDC202853D0C1
:1048100005DC90B3102811D14EE0022070BD302885
:104820004AD040280AD13DE0602831D070280CD011
:10483000B0F5805F03D0B0F5005F12D001253C34A5
:10484000667000202070284670BDCB68D1E9012138
:10485000206802F034FE2068816841F077018160B1
:10486000EDE7CB68D1E90121206802F028FE20683D
:10487000816841F480418160E1E71DE0CA684968D0
:10488000206802F0FFFE5021206802F022FED6E7E9
:10489000CA684968206802F006FF6021206802F0BB
:1048A00018FECCE7CA684968206802F0EBFE402198
:1048B000206802F00EFEC2E722680146104602F0B0
:1048C00008FEBCE770472DE9F04104462068C56842
:1048D00006694FF00007B10714D5A90712D5F91ED4
:1048E00001610120207720688069800703D020467D
:1048F000FFF7E8FF05E0204600F0C6F8204600F08C
:1049000056F92777700717D5680715D521686FF016
:1049100004000861022020772068806910F4407F3D
:1049200003D02046FFF7CEFF05E0204600F0ACF8AC
:10493000204600F03CF92777300716D5280714D514
:1049400021686FF008000861042020772068C069A2
:10495000800703D02046FFF7B5FF05E0204600F0B2
:1049600093F8204600F023F92777F00617D5E806DC
:1049700015D521686FF010000861082020772068A5
:10498000C06910F4407F03D02046FFF79BFF05E08D
:10499000204600F079F8204600F009F92777F00763
:1049A00008D0E80706D021686FF0010008612046B2
:1049B00000F06CF9300608D5280606D521686FF09E
:1049C000800008612046FFF72EFE700608D56806B5
:1049D00006D521686FF040000861204600F05DF9BF
:1049E000B0060AD5A80608D521686FF02000086136
:1049F0002046BDE8F041FFF717BEBDE8F08100009A
:104A000030B587B00446142102A8FBF7F8FD194D14
:104A100020681949022201230324A84213D10868FF
:104A200040F008000860086800F00800019050039A
:104A30000290039204930594069202A90F48FEF790
:104A40008DFA07B030BD0E4DA842FAD1086840F08B
:104A500020000860086800F02000019040200290CB
:104A6000039204930592069402A90648FEF776FA8B
:104A7000E7E700000008004030380240000C024028
:104A80000044014000140240704770B504460D46D2
:104A9000002694F83C0001280FD0012084F83C0047
:104AA0006AB1042A1FD0082A32D00C2A44D0012629
:104AB000002084F83C00304670BD022070BD2946BD
:104AC000206802F00FFD2068816941F008018161D2
:104AD0002068816921F004018161206881692A6967
:104AE00011438161E4E72946206802F02FFD206828
:104AF000816941F4006181612068816921F48061EC
:104B00008161206881692A6941EA02218161CFE7D8
:104B10002946206802F054FD2068C16941F008016F
:104B2000C1612068C16921F00401C1612068C169C7
:104B30002A691143C161BBE72946206802F078FD6C
:104B40002068C16941F40061C1612068C16921F434
:104B50008061C1612068C1692A6941EA0221C1619D
:104B6000A6E710B50446002C03D094F83D0010B120
:104B700007E0012010BD002084F83C00204600F032
:104B800015F8022084F83D00211D206802F01CFC6D
:104B900001203D3460726070A070E070207160711F
:104BA000A071E07120722070002010BD7047704726
:104BB00010B50446002909D004290AD008290BD0D1
:104BC00094F8410001280AD0012010BD94F83E005D
:104BD000F8E794F83F00F5E794F84000F2E7022088
:104BE000A9B3042937D0082938D084F8410001221C
:104BF000206802F057FC1E4920681E4A884201D0F6
:104C0000904203D1436C43F40043436420688842DC
:104C100013D0B0F1804F10D0174988420DD01749FA
:104C200088420AD01649884207D0904205D01549DB
:104C3000884202D01449884213D1816801F00701EB
:104C4000062912D0016841F0010101600DE0FFE783
:104C500084F83E00CBE784F83F00C8E784F84000C2
:104C6000C5E7016841F001010160002010BD0000AE
:104C70000000014000040140000400400008004022
:104C8000000C004000400140001800400068B0F1F6
:104C9000804F01D1FEF758BA7047704710B50446EF
:104CA000104A2068904203D1204604F04BFE05E0F4
:104CB0000D4A904202D1204604F0FAFD0120206303
:104CC0002068C16841F01001C1602068416941F06D
:104CD00040014161E06B0068016841F00101016041
:104CE00010BD000000480040001001407047000067
:104CF000F8B5044622681068D168536900F00F06C1
:104D0000002E08D1850606D58D0604D52046BDE8BF
:104D1000F84002F016BD0025002E66D003F0010613
:104D200001F49077374360D0C20705D0CA0503D598
:104D3000626C42F001026264420705D5DA0703D0D3
:104D4000626C42F002026264820705D5DA0703D082
:104D5000626C42F004026264020707D501F020028F
:104D6000324303D0626C42F008026264626C002A33
:104D700031D0800604D5880602D5204602F0E1FC39
:104D800020684069C0F38010616C090700D438B313
:104D9000204602F0A2FC2068406940061CD520682D
:104DA000143050E8001F21F0400140E80012002AB2
:104DB000F5D1E06B60B159490165E06BFDF749FF42
:104DC000002808D0E06B016D01B0BDE8F040084755
:104DD0002046FFF78BFFF8BD2046FFF787FFF8BDA1
:104DE0002046FFF783FF6564F8BD236B012B7DD15F
:104DF000C3067BD5CB067FD51068506800905069FC
:104E00004FF0200340064FF0020644D5E16B0868DE
:104E1000406880B20028E7D0A28D8242E4D9E085C4
:104E2000C869B0F5807F2DD020680C3050E8001F95
:104E300021F4807140E80012002AF5D12068143076
:104E400050E8001F21F0010140E80012002AF5D1CE
:104E50002068143050E8001F21F0400140E80012A3
:104E6000002AF5D184F84230256320680C3050E8E0
:104E7000001F21F0100140E80012002AF5D1E06B7C
:104E8000FDF7A0FE6663A08DE18D401A81B2204639
:104E9000FFF704FFF8BDA08DE18D401A81B2E08DCF
:104EA0000028F7D00029F5D020680C3050E8002FFA
:104EB00022F4907240E80027002FF5D120681430CA
:104EC00050E8002F22F0010240E80027002FF5D122
:104ED00084F84230256320680C3050E8002F22F01F
:104EE000100240E80023002BF5D100E004E06663E7
:104EF0002046FFF7D3FEF8BD020606D50A0604D504
:104F00002046BDE8F84002F00BBD4006F3D5480648
:104F1000F1D52046BDE8F84002F006BCCB7600088B
:104F200070B50446002C04D094F84100002510B15F
:104F300006E0012070BD84F84050204600F024F8BF
:104F4000242084F841002068C16821F40051C16028
:104F5000204602F05BFC2068016921F49041016168
:104F60002068416921F02A0141612068C16841F44B
:104F70000051C1606564202084F8410084F842003B
:104F80006563002070BD00002DE9F04F87B0044636
:104F9000142102A8FBF733FB8B488A4B1438226894
:104FA00089490225002706154FF003084FF0070B2B
:104FB0004FF0400A4FF000699A4267D10A6842F008
:104FC00010020A60096801F010010191016841F0C6
:104FD00002010160016801F002010191016841F0E4
:104FE00001010160006800F0010001908020029042
:104FF00003950497CDF81480CDF818B002A9734832
:10500000FDF7ACFF2802029003950497CDF81480B9
:10501000CDF818B002A96E48FDF7A0FF6E4D6D489F
:105020002860C5F80490AF60EF602E616F61AF61DA
:10503000EF612F626F622846FDF706FF08B1FDF7AA
:105040007AF9E563AC636348634D78306035286076
:10505000C5F80490C5F808A0EF602E616F61AF61DC
:10506000EF612F626F622846FDF7EEFE08B1FDF793
:1050700062F9A563AC63002205212520FEF7FCF848
:105080002520FEF7EBF807B0BDE8F08F534B9A42AE
:105090003ED14D49091F0A6842F480220A6009681E
:1050A00001F480210191016841F004010160006870
:1050B00000F0040001904FF44060029003950497C3
:1050C000CDF81480CDF818B002A94548FDF746FF89
:1050D000414D4448C0352860C5F80490AF60EF608A
:1050E0002E616F61AF618015E8612F626F622846A3
:1050F000FDF7AAFE08B1FDF71EF9E563AC630022D7
:1051000005212720FEF7B8F82720FEF7A7F8BAE711
:10511000354B9A42B7D10A6842F020020A6009680A
:1051200001F020010191016841F040010160006837
:1051300000F0400001904FF48440029003950497E2
:10514000CDF814800820069002A92848FDF706FF34
:105150002048274D183828604FF02068C5F8048093
:10516000AF60EF602E616F61AF61EF612F626F62C0
:105170002846FDF769FE08B1FDF7DDF8E563AC638D
:1051800014481B4D603060352860C5F80480C5F8B0
:1051900008A0EF602E616F61AF61EF612F626F62F7
:1051A0002846FDF751FE08B1FDF7C5F8A563AC63CD
:1051B000002205214720FEF75FF84720FEF74EF852
:1051C00061E7000000100140443802400004024042
:1051D0000000024040640240301E002000480040B1
:1051E00000080240286002400014014000180240FC
:1051F000501F00207047704710B5FDF79FFF4FF01C
:105200008041496A00EB4002C2EBC01001EBC000D4
:1052100010BDFEE702460021014804F0CCBB0000AF
:10522000101D002010B51249124800F057FC11481B
:105230000F49203000F052FC0E480D49403000F07C
:105240004DFC0C480C4A0221603001F0C3F80A4AB8
:105250000848903ABDE81040A2F190019FED071A6E
:10526000DFED070AB2EE040AB03001F0CFBA000059
:1052700000000020200B00202C0100200024744995
:105280006F12833A2DED048B84B000200190FFF75C
:10529000C9FF504800F1400A20309FED4F9AA0F11D
:1052A0006804039004F1280004F1340B04F1F806BB
:1052B00004F52077DFF824819FED498ADFED498AE4
:1052C0004FF00509484D029004F0F2FF0190464866
:1052D000FCF7E4F995ED020A3E4800F019FC84ED74
:1052E0000E0A95ED030A504600F012FC84ED0F0AF9
:1052F00095ED010A039800F00BFC84ED0D0AD5E949
:1053000005122869C4E90B12A0623248B0EE490ABE
:105310005A46B030029901F0D7FAD7E90512386938
:10532000C4E90812E06196ED670A20EE080A84EDF0
:10533000000A96ED660A20EE080A84ED010AD6ED11
:10534000680A60EE880AC4ED030AD4ED100A70EE14
:10535000600A10EE900A404505D9B4F84400401C9C
:10536000A4F8440009E010EE900A2049884204DDC8
:10537000B4F84400401EA4F8440084ED100AB4F9C7
:10538000440000EE900AF8EEE00A00EEA80A84ED70
:10539000020A94ED0B0A20EE080A84ED040A94ED4B
:1053A0000C0A20EE080A84ED050A94ED0A0A20EEA4
:1053B000080A84ED060A0198B0FBF9F109FB110017
:1053C00018B995ED070AFCF7F9FA012101A804F0D4
:1053D00062FF79E7200B00206F12833A000034C38C
:1053E000E12E65420000B4430C1600200000344357
:1053F000F0B500230A2530263727002412E0B5EB4C
:10540000107F04D906EB107C01F813C003E007EB12
:10541000107C01F813C0000101EB430C8CF8014033
:105420005B1CDBB29342EAD3F0BD2DE9F0410446A8
:105430000D4616461F460420208008206080002D5F
:1054400000D017B9FE2084F8C40025716671A771D9
:1054500000202062012204F12003114604F118000B
:10546000FBF785FA20887843FAF782FFE06021880D
:105470007943FBF7C4F820886843FAF779FFC4F84A
:10548000C80021886943FBF7BAF82179012204F1A9
:105490002C00D4F8C830FBF76AFA20886843FAF782
:1054A00067FFC4F8CC0021886943FBF7A8F821798D
:1054B000012204F13400D4F8CC30FBF758FA2088EC
:1054C0007843FAF755FFC4F8D40021887943FBF7F5
:1054D00096F8A179012204F14400D4F8D430FBF706
:1054E00046FA607988B320887043FAF741FF20615B
:1054F00021887143FBF783F820887043FAF738FF5F
:10550000C4F8D00021887143FBF779F86179012252
:1055100004F13C00D4F8D030FBF729FA218805FBD0
:1055200006F006464843FAF723FF0246C4F8D800BF
:10553000218810467143FBF762F86279217904F102
:105540004C00D4F8D830FBF712FA208805FB05F69A
:105550007043FAF70DFFC4F8DC0021887143FBF7B4
:105560004EF8217904F154000A46D4F8DC30FBF7F8
:10557000FEF920887043FAF7FBFEC4F8E0002188AA
:105580007143FBF73CF8217904F15C000A46D4F83A
:10559000E030FBF7ECF9218807FB05F08046484333
:1055A000FAF7E6FEC4F8E400218801FB08F1FBF7F6
:1055B00026F82279A17904F16400D4F8E430FBF7ED
:1055C000D6F9208805FB07F800FB08F0FAF7D0FEB3
:1055D000C4F8E800218801FB08F1FBF710F8A27974
:1055E000217904F16C00D4F8E830FBF7C0F9208889
:1055F0007043FAF7BDFEC4F8EC0021887143FAF756
:10560000FEFF217904F174000A46D4F8EC30FBF770
:10561000AEF920887043FAF7ABFEC4F8F000218899
:105620007143FAF7ECFF217904F17C000A46D4F8C3
:10563000F030FBF79CF920887043FAF799FEC4F824
:10564000F40021887143FAF7DAFF217904F184002C
:105650000A46D4F8F430FBF78AF920887F43784370
:10566000FAF786FEC4F8F80021887943FAF7C7FFF5
:10567000A17904F18C000A46D4F8F830FBF777F9E9
:10568000208800FB08F0FAF773FEC4F8FC002188BC
:1056900001FB08F1FAF7B3FFA279217904F1940034
:1056A000D4F8FC30FBF763F9218820794143484363
:1056B000FAF75EFEC4F80001228821794A4351437B
:1056C000FAF79DFF217904F19C000A46D4F80031D5
:1056D000FBF74DF92188207941434843FAF748FE0A
:1056E000C4F80401228821794A435143FAF787FF1D
:1056F000217904F1A4000A46D4F80431FBF737F904
:105700002188207941434843FAF732FEC4F8080162
:10571000228821794A435143FAF771FF217904F134
:10572000AC000A46D4F80831FBF721F9208821792A
:105730004843FAF71DFEC4F80C0121882279514331
:10574000FAF75DFF2179012204F1B400D4F80C319D
:10575000FBF70DF9208821794843FAF709FEC4F8D0
:105760001001218822795143FAF749FF217901225A
:1057700004F1BC00D4F81031FBF7F9F82088684335
:10578000FAF7F6FDC4F8340121886943BDE8F04119
:10579000FAF735BF2DE9F047044694F814014007A5
:1057A00056D404F16C0104F164000D460746FBF782
:1057B0004FFB683484F85C0034F8040CA087E08A5E
:1057C000E087683C04F1A40204F17C011646884697
:1057D0003846FBF74BFA6E3484F85600E08EE087CB
:1057E0002088A4F840006E3C04F1AC02174629461C
:1057F0003046FBF73BFA8C3484F83800208820824E
:10580000608860828C3C04F19C02914604F18C011A
:105810003846FBF74FF86E3484F856003946484650
:10582000FBF7AAF884F85600E089E08620882087F4
:10583000324629464046FBF719FA84F856006E3C7A
:1058400004F1940239463046FBF710FA84F8C4009C
:10585000BDE8F08710B504462288A079E16842438C
:10586000D4F8D400FAF76FFE2188A0794143E068AC
:10587000FAF7C5FE6079002808D0228821694243E2
:10588000D4F8D000BDE81040FAF75DBE10BD2DE998
:10589000F041044694F81401C0062AD434F8940F59
:1058A000208234F82E0C6082943C04F1A402154648
:1058B00004F1640104F19400FBF7D8F97E3484F814
:1058C0004600E08CE085208820867E3C04F1AC0216
:1058D00004F17C0116460F462846FBF7C7F984F809
:1058E000C40004F1740231463846FBF753FA84F8D9
:1058F000C400BDE8F0812DE9F041044694F814019C
:1059000080072BD404F15C0104F154000D460746D6
:10591000FBF79EFA84F8C40004F17C02164604F1F9
:1059200074013846FBF7A2F9683484F85C00A08A59
:10593000A08734F80A0CE087683C04F1A4021746FB
:1059400029463046FBF792F984F8C400324604F148
:1059500084013846FAF7AEFF84F8C400BDE8F08150
:1059600010B504462046FFF775FFD4F8181109B1A9
:1059700020468847204600F076F8D4F81C1109B17B
:10598000204688472046FFF7B6FFD4F8201109B11A
:10599000204688472046FFF7FDFED4F8241109B1C0
:1059A00020468847204600F01EF8D4F8281109B197
:1059B000204688472046FFF76AFFD4F82C1109B12A
:1059C00020468847D4F8301109B1204688472288FC
:1059D0002079D4F8C8104243D4F83401FAF7B3FD63
:1059E000D4F8340110BD2DE9F041044694F81401B7
:1059F000000736D4B4F86400A4F8B4000125A4F874
:105A0000B65004F1B40204F1340116460F4604F115
:105A10006400FBF72BF9A634A07734F8620CE0821F
:105A20002583A63C04F1BC029046314604F14400B3
:105A3000FBF7B0F9943484F8300020882084658422
:105A4000943C3246414604F19400FBF70FF984F888
:105A5000C40004F12C0231463846FAF72BFF84F8D3
:105A6000C400BDE8F0812DE9F041044694F814012A
:105A7000C0072AD1627904F12C0104F1540004F129
:105A8000340522B32279A4F8B4200126A4F8B66024
:105A900004F1B4021746FBF7E9F884F8C400207952
:105AA000A4F8B400A4F8B66004F1BC02164604F1F0
:105AB0003C0104F14C00FBF7D9F804F8C40F2A4666
:105AC00031463846FAF7F6FE2070BDE8F0812A46E6
:105AD000FBF7CCF884F8C400F7E7000091ED000A6A
:105AE00080ED050A91ED010A80ED060A91ED020AAA
:105AF00080ED070A9FED050A80ED010A80ED020A9C
:105B000080ED030A80ED040A7047000000000000E9
:105B100080ED010A0178002907D180ED020A80EDAD
:105B2000030A80ED040A01210170D0ED030AC0EDE3
:105B3000020A90ED041A80ED031AD0ED061A61EE08
:105B4000A00AD0ED051A41EE810A90ED071A41EE48
:105B5000000AC0ED040AB0EE600A704710B5FBF70A
:105B6000E5FFA820FBF7A0FFFBF766FFFBF7C0FFF0
:105B700000F068FABDE81040FBF748BE10B51048C9
:105B80000E4901600321416000218160C1604FF432
:105B9000102202614FF40012426101760122427626
:105BA0008176C17601774177FCF786FE002803D025
:105BB000BDE81040FCF7BFBB10BD00000064004012
:105BC000201C002010B510480E49016003214160DF
:105BD00000218160C1604FF4102202614FF4001275
:105BE00042610176012242768176C1760177417762
:105BF000FCF762FE002803D0BDE81040FCF79BBB19
:105C000010BD000000680040481C002008B51D4879
:105C1000016841F400110160016801F40011009174
:105C2000016841F480010160006800F48000009088
:105C3000002205210C20FDF71FFB0C20FDF70EFBB9
:105C4000002205213920FDF717FB3920FDF706FB5F
:105C5000002205213A20FDF70FFB3A20FDF7FEFA5E
:105C6000002205214520FDF707FB4520FDF7F6FA48
:105C7000002205214620FDF7FFFABDE80840462036
:105C8000FDF7ECBA3038024010B5AAB01C22214909
:105C900023A8FAF758FC002123A804F015FB1E4C9A
:105CA00020601C221B491C311CA8FAF74CFC002167
:105CB0001CA804F009FB60601C221649383115A8A5
:105CC000FAF741FC002115A804F0FEFAA0601C229E
:105CD000104954310EA8FAF736FC00210EA804F042
:105CE000F3FAE0601C220B49703107A8FAF72BFC8D
:105CF000002107A804F0E8FA20611C2205498C3134
:105D00006846FAF720FC0021684604F0DDFA60617D
:105D10002AB010BDBCB90008500900202DE9F04799
:105D200086B0142101A8FAF76AFC002643480168EE
:105D300041F002010160016801F002010091016877
:105D400041F040010160016801F0400100910168EB
:105D500041F008010160016801F00801009101684B
:105D600041F004010160016801F004010091016843
:105D700041F001010160016801F001010091016839
:105D800041F080010160016801F08001009101682B
:105D900041F020010160016801F0200100910168DB
:105DA00041F010010160006800F010000090DFF881
:105DB0009080012210214046FDF7B8F9DFF8849069
:105DC0004FF40077002239464846FDF7AFF9DFF877
:105DD00078A0012211465046FDF7A8F91020019045
:105DE0000124029403940225049501A94046FDF77D
:105DF000B5F8302001904FF404100290039401A9EB
:105E00001248FDF7ABF8019702940396049601A996
:105E10004846FDF7A3F8019402940394049501A960
:105E20005046FDF79BF8002205211720FDF724FAC4
:105E30001720FDF713FA06B0BDE8F08730380240AE
:105E4000000002400010024000040240000802402E
:105E500010B510480E4901604FF482714160002175
:105E60008160C1600161012242615202826110229F
:105E7000C2610162416281620A21C162FEF730FAA9
:105E8000002803D0BDE81040FCF755BA10BD000053
:105E900000300140701C002010B588B01C2101A802
:105EA000FAF7ADFB15481449016053214160002405
:105EB000846044F61F61C16004618461FEF7FEFBEB
:105EC00008B1FCF738FA0D48FEF74BFE08B1FCF7B5
:105ED00032FA60200190029403940594002201A9F3
:105EE0000648FEF7D2FD08B1FCF725FA0348FEF795
:105EF00087FD08B010BD000000440140101D0020C7
:105F000010B58EB000240A940B940C940D94089450
:105F100009941C2101A8FAF772FB1E481C49016074
:105F2000A7214160846040F2CF71C1600461846147
:105F3000FEF7C4FB08B1FCF7FEF94FF480500A905D
:105F40000AA91448FEF74AFC08B1FCF7F4F9114815
:105F5000FEF707FE08B1FCF7EEF90894099408A9CA
:105F60000C48FEF763FB08B1FCF7E5F960200190EF
:105F7000029403940594082201A90648FEF785FDC2
:105F800008B1FCF7D8F90348FEF73AFD0EB010BD92
:105F900000080040C81C002010B50C480A490160E8
:105FA0004FF4E131416000218160C16001610C2248
:105FB00042618161C161FEF7B3FF002803D0BDE8F3
:105FC0001040FCF7B8B910BD00100140581D00206A
:105FD00010B50C480A4901600B49416000218160FD
:105FE000C16001610C2242618161C161FEF798FFCD
:105FF000002803D0BDE81040FCF79DB910BD00009B
:1060000000480040A01D0020A086010010B50C48EB
:106010000A4901604FF4E131416000218160C160B3
:1060200001610C2242618161C161FEF779FF0028A4
:1060300003D0BDE81040FCF77EB910BD001401404C
:10604000E81D002000B585B014216846FAF7D7FA9C
:106050004FF4805000900120019002200290032014
:10606000039069461248FCF779FF0A20FCF756FFB7
:1060700000221049104802F0C5F908B1FCF75BF99D
:106080000E490D4802F010FC08B1FCF754F90C4918
:10609000094801F0ADFE08B1FCF74DF9064802F0E1
:1060A000D9FC002801D0FCF746F905B000BD00007E
:1060B00000000240E409002048810020A00A0020DE
:1060C000340A0020FEE7000070B505460C4628465D
:1060D000216804F0C7FD01280BD10649287809780A
:1060E000884206D129462268BDE870400148FAF787
:1060F000E5B970BDC8020020F0B5264F022538462C
:10610000FB7A827A002424482449254E012B04D0AE
:10611000022B32D0032B34D10FE0012A0AD0022AFD
:1061200002D0032A2DD102E005700D7329E005701D
:106130000D7326E005700D7323E00123012A18D0AA
:10614000022A02D0032A1CD102E003700B7318E06C
:1061500005700D73326842B1756835B1827812B13D
:106160008470746003E08370FBE702B9736034608D
:1061700007E003700B73336003E0847004700C73EA
:106180003460BA7D012A03D1847004700C733460CA
:10619000F0BD000038090020740D002034120020EA
:1061A00010020020FDF7AEFEFEE700000148FDF7FB
:1061B000D6B900004498002070B504462068056CEC
:1061C00000EB4110D0F8081B0C4EB54205D909046C
:1061D00003D54FF40041C0F8081B2046FDF72AFD07
:1061E000B54208D9A079012805D104F29C420121C9
:1061F000206802F0BFFF002070BD00000A30544F3D
:106200002DE9F04105460C462E68306C06EB441132
:10621000D1F8083B95F806804FF400474FF0200C6A
:1062200005F29C42B8F1010F08D0DFF8B08040457C
:1062300045D118043AD5C1F8087B4CE0284E5FEAF6
:10624000037806D5B04246D9180444D5C1F8087B76
:1062500041E05FEA836802D5C1F808CB3BE013F068
:10626000280F38D1B04204D9180402D5C1F8087BF0
:1062700031E004EBC40005EB800000F51570D1F8A7
:10628000101B036AC1F31201591A416124B9036951
:106290003BB1C2681144C160E1B22846FDF751F834
:1062A00019E00121286802F065FFF5E7980601D59D
:1062B000C1F808CBE1B22846FDF743F80BE034B94A
:1062C000D5F8640218B90021304602F053FFE1B25C
:1062D0002846FDF736F80020BDE8F0810A31544F1A
:1062E0000A30544F2DE9F84F80460E46D8F800701A
:1062F00006EBC60008EB80041434D4E9041088428D
:1063000002D90120BDE8F88F081AA168814200D2A5
:106310000846C01C4FEA900A07EB461916E0151A0A
:10632000A268AA4200D21546E81C4FEA900A98F8E3
:1063300006000090ABB2F2B23846E16803F07CFA96
:10634000E0682844E060606928446061D9F8180971
:1063500080B2504505D3D4E90420904201D2002AEE
:10636000DDD1D4E90401884208D806F00F010120EC
:106370008840D7F834188143C7F834180020C1E7A3
:106380000021C160016141619FED060A80ED060AAE
:1063900080ED070A80ED080A80ED090A80ED0A0AFF
:1063A0007047000000000000816A21F00042C2F145
:1063B000FF42D20F002A09D14FF07F42B2EB410FCA
:1063C00001D1012100E00021012902D1022180F840
:1063D0004610704770B50446154621700648E064C3
:1063E0000648A0642046FFF7CBFFA36C2946204651
:1063F000984784F8460070BD816300080164000876
:106400000278002A1DD0E1B191ED000A80ED0B0A5F
:1064100091ED010A80ED0C0A91ED020A80ED0D0A62
:1064200091ED030A80ED0E0A91ED040A80ED0F0A4A
:1064300091ED050A80ED100A0021A0F8441000201B
:10644000704701207047000010B50446903434F8BE
:10645000901C14F88C0C4143E06FFAF7D0F8E06B15
:1064600090ED000AD0ED010A20EE000A00EEA00A2D
:10647000D0ED020A00EEA00AD0ED030A00EEA00A59
:10648000FBF75CFFE06F80ED000AE06BD0ED000AE7
:1064900020EE800A80ED000AE06BE16F90ED010ACA
:1064A000D1ED000A20EE200A80ED010AE06BE16FD9
:1064B00090ED020AD1ED000A20EE200A80ED020ADA
:1064C000E06BE16F90ED030AD1ED000A20EE200AA7
:1064D00080ED030AE06BB6EE000A14ED221AD0ED4F
:1064E000010AE06C60EE800A60EE810AC0ED040AE9
:1064F000E06B14ED221AD0ED020AE06C60EE800A27
:1065000060EE810AC0ED050AE06BFEEE000A54ED74
:10651000221A90ED001AE06C21EE201A21EE211AC9
:1065200080ED0A1AE06B54ED221A90ED031AE06C2C
:1065300021EE001A21EE211A80ED0B1AE06B54EDCA
:10654000221A90ED031AE06C21EE201A21EE211A96
:1065500080ED101AE06B54ED221A90ED001AE06CF9
:1065600021EE201A21EE211A80ED111AE06B90ED38
:10657000021AE06C21EE000A14ED221A20EE010A44
:1065800080ED160AE06B90ED010AE06C20EE200A27
:1065900054ED220A20EE200A80ED170AE06D0F4B21
:1065A000903C016F9FED0E0A0E4ADFED0F0A9942F3
:1065B00002DD80ED1C0A03E0914201D9C0ED1C0A06
:1065C000D4F8EC00D0F88C10994202DD80ED230A5B
:1065D00010BD9142FCD9C0ED230A10BD00401C46FD
:1065E00000401C4600401CC600401CC62DE9F0417E
:1065F0000446A4342089208001256580A43C04F150
:10660000A40204F1AC00164604F1BC010746FAF7F7
:106610002DFBAC342076258120886081AC3C04F1D0
:10662000B40188463846FAF713FC84F8C40004F134
:10663000180231464046FAF719FB84F8C40094ED7D
:10664000090AB6EE001AD4ED080A20EE011AF4EE9B
:10665000C10AF1EE10FA01D284F82950F4EEC00A12
:106660000020F1EE10FA30DD94F8291069B3217D95
:1066700029B194F82810491C84F8281001E084F806
:10668000280094F82810322907D9F53404F8CC0CE6
:10669000E07F20F01000E0773DE02288207942433F
:1066A000D4E93201F9F74FFF22882079424342436F
:1066B000D4E93B01F9F747FF94F8140140F01000CA
:1066C00084F814010120BDE8F0819FED141A20EE3A
:1066D000011AF4EEC10AF1EE10FA0FDD94F8291058
:1066E00061B19FED0F1A70EE600AD4F80C1120EE24
:1066F000010A80EE801A81ED001A05E0D4F80C1131
:10670000B7EE000A81ED000AF53404F8CD0CE07F05
:1067100020F01000E0770020D5E70000CDCCCC3D84
:106720006666663F10B50446683434F8681C14F891
:10673000620C414314F8640C4143E06FF9F75FFFCA
:10674000606EF8EE000A90ED020AE06F20EE200A7B
:1067500080ED000A606EB0EE000A90ED031AE06F63
:1067600021EE001A80ED011A606E90ED001AE06FC4
:1067700021EE201A80ED021A606E90ED011AE06F92
:1067800021EE001A80ED031A606E90ED011AE06FA1
:1067900021EE001A80ED061A606E90ED001AE06F8F
:1067A00021EE001A80ED071A606E90ED031AE06F7B
:1067B00021EE001A80ED081A606E90ED021AE06F6B
:1067C00021EE001A80ED091A606E90ED001AE06F5C
:1067D00021EE001A80ED0C1A606E90ED011AE06F48
:1067E00021EE201A80ED0D1A606E90ED021AE06F16
:1067F00061EE200AC0ED0E0A606ED0ED030AE06F74
:1068000020EE800A80ED0F0A10BD000010B504468E
:1068100084ED080AC4ED090A84ED0A1AE1622263D4
:1068200003230022062104F13400FEF7FEFD0020C0
:10683000DC3404F8940C04F87F0C9FED1E0A04ED80
:10684000210A04F8800C206AB7EE000A80ED000AE5
:10685000206A9FED190A80ED010A206A80ED020A84
:10686000206A80ED030A154860671548A06715483F
:10687000E06794F86C0040F0040040F0080084F8F1
:106880006C0034F8A82C14F8A40C54F8B01C424343
:106890004243606BF9F757FE34F8A82C14F8A40CA7
:1068A00054F8AC1C42434243606CBDE81040F9F719
:1068B0004ABE000077CC2B3200000000496400087B
:1068C00025670008096C000870B504462DED028BA1
:1068D0001546F83404ED2F0A91ED000A54ED390AFB
:1068E00030EE600A84ED200AD1ED010A14ED381A69
:1068F00070EEC10AC4ED210A91ED021A54ED371A67
:1069000031EE611A84ED221A20EE000A00EEA00A90
:1069100001EE010AFBF712FD84ED240A94ED200A32
:10692000F6EE000A20EE201A14ED2F0A21EE001ACE
:1069300084ED251A94ED211A21EE201A21EE001A79
:1069400084ED261A94ED221A61EE200A20EE800AC8
:1069500084ED270A34F8C42C14F8C00C54F8CC1C6D
:1069600042434243A069F9F7EEFD94ED250AA06980
:10697000B1EE400A80ED010A94ED260AA069B1EE5D
:10698000400A80ED020A94ED270AA069B1EE400AA0
:1069900080ED030AA06994ED250A80ED060AA0693E
:1069A00094ED270A80ED080A94ED260AA069B1EE5D
:1069B000400A80ED090AA06994ED260A80ED0C0AD0
:1069C00094ED270AA069B1EE400A80ED0D0AA06996
:1069D00094ED250A80ED0F0AA06994ED270A80ED59
:1069E000120AA06994ED260A80ED130A94ED250A97
:1069F000A069B1EE400A80ED140A07CDC4E91E1269
:106A0000606794ED1D0AD4ED1E0A20EE000A00EE28
:106A1000A00AD4ED1F0A00EEA00AFBF78FFC84ED5C
:106A2000230AD4ED1D0A54F8B80C20EE800A80ED3C
:106A3000000A94ED1E0AD4ED230A54F8B80C20EE97
:106A4000200A80ED010A94ED1F0AD4ED230A54F8C0
:106A5000B80C20EE200A80ED020AD4ED240AF7EEED
:106A6000008A654988EEA00AF83C10EE100A8842B8
:106A700011DAD4ED610A614988EEA00A10EE100A1D
:106A8000884208DD10EE100A5D49884203DA0120D1
:106A900084F8480002E0002084F84800B03414ED87
:106AA000240A54ED1D0AA06F20EE200A80ED000A92
:106AB00014ED240A54ED1D0AA06F20EE200A80ED8B
:106AC000070A14ED240A54ED1D0AA06F20EE200AD7
:106AD00080ED0E0A14ED240A54ED1D0AA06F20EE7D
:106AE000200A80ED150A14ED230A54ED1D0AA06F4B
:106AF00020EE200A80ED1C0A14ED230A54ED1D0A35
:106B0000A06F20EE200A80ED230AE06F14ED220A28
:106B100080ED000AE06F14ED220A80ED040AE06FB8
:106B200014ED220AB03C80ED080A04F13400FEF7AF
:106B300017FFD4F8680190ED001A84ED011A90ED6A
:106B4000010A84ED020AD0ED021AC4ED031A90ED99
:106B5000032A84ED042AD0ED040AC4ED050AD0ED21
:106B6000050AC4ED060ADFED270AC4ED070A61EE47
:106B7000012A21EE021AB0EE008AF0EE680A40EE19
:106B8000002A00EE211A52EE880A21EE080A03F0CC
:106B90006FF884ED660A94ED020AD4ED040A94EDD0
:106BA000031A20EE200AD4ED010A00EEC10AF8EE25
:106BB000000A20EE200A02F0C5FF84ED670A94ED7A
:106BC000010A94ED041AF0EE680A60EE001A41EE34
:106BD000011A51EE880AD4ED021A20EE210AD4EDF2
:106BE000031A01EE810A20EE080A03F041F884ED51
:106BF000680ABDEC028B70BD9A99993E23DB144163
:106C000023DB2441000000002DE9FF5F044604F16E
:106C10006C0104F1640005460391FAF719F9683430
:106C200084F85C0034F8040CA087E08AE087683CB4
:106C300004F1A40204F17C01934689462846FAF740
:106C400015F86E3484F85600E08EE0872088A4F8AA
:106C500040006E3C04F1AC02924658460399FAF7A4
:106C600005F88C3484F8380020882082608860829F
:106C70008C3C04F19C02154604F18C015046F9F756
:106C800019FEA834207751462846F9F775FE20777B
:106C900034F8440CA0810126E681606A90ED010A77
:106CA000D0ED030A90ED021A20EE200AD0ED000A82
:106CB000606E00EEC10AF0EE000A20EE200A80EDC0
:106CC000000A606A90ED000A90ED011AD0ED031AF7
:106CD00020EE010A90ED021A606E01EE210A20EE0C
:106CE000200A80ED010A606A90ED000A60EE000A59
:106CF00090ED010A40EE400A90ED020A40EE400A93
:106D000090ED030A606EA83C40EE000AC0ED020A56
:106D100000276D46D4F80C0100EB870090ED000AC7
:106D2000B0EEC00A02F082FE05EB870080ED000A9B
:106D30007F1CFFB2032FEDD3B4F84400A4F8BC00CD
:106D4000A4F8BE6004F1BC0204F1B4011746884601
:106D500004F14400FAF71EF884F8C4002046FFF757
:106D600045FC002872D16E34E089E08620882087B7
:106D70005A4648460399F9F779FF84F856006E3C65
:106D800004F19402914651465846F9F76FFF84F892
:106D9000C40000200FE0D4F8FC10D4F80C2101EB63
:106DA000800191ED000AD2ED000A20EE200A81ED6B
:106DB000000A401CC0B2B4F89610B4F894205143B5
:106DC0008142E8DC04219FED3B1A00200A1F05EBFD
:106DD000820201EB4103D2ED000A80EE810AD4F871
:106DE000FC2003EB000C02EB8C02D2ED000A60EEFB
:106DF000200AC2ED000A401CC0B20328EFD3491C90
:106E0000C9B20629E1D334F8940F2084668442463F
:106E100039464846F9F72AFF84F8300014F86B0C1D
:106E2000943C60B3D4ED020A9FED232AD4F80C0100
:106E3000DFED221A20EE821A90ED040AB4EEC10AA8
:106E4000F1EE10FA03DD80ED041A09E030E060EEA7
:106E5000A10AB4EEE00AF1EE10FA01D2C0ED040A84
:106E6000D4ED020AD4F80C0120EE821A90ED050A46
:106E7000B4EEC10AF1EE10FA02DD80ED051A08E069
:106E800060EEA10AB4EEE00AF1EE10FA01D2C0ED14
:106E9000050AD4F80C019FED0A0A80ED030A04F1FB
:106EA0002C02414604F13400F9F704FD84F8C400D3
:106EB000BDE8FF9FDA0FC93F0AD7233C0AD723BC9E
:106EC000000000000178A52918D10D4942784A70C8
:106ED00082788A70C278CA7002790A7142794A71DE
:106EE00082798A71C279CA71027A0A72427A4A72C6
:106EF000827A8A72C27ACA72007B08737047000075
:106F00004816002010B50446E07D322808D8182124
:106F10002046F9F752FBFA20E0750120A07510BD5C
:106F2000401EE07510BDF0B500285FD000295DD08F
:106F30000278437842EA0322C2F30A060E804278BE
:106F40008378D20842EA4312C2F30A024A80837865
:106F5000C4789B0943EA8403047943EA8423C3F396
:106F60000A058D80037944795B0843EAC413C3F3AF
:106F70000A03CB80047C477C44EA0724C4F30A0458
:106F80000C814779C7F301178F724779BF09CF7218
:106F9000877990F807C047EA0C278F81077A90F825
:106FA00009C047EA0C27CF81877A90F80BC047EADF
:106FB0000C270F82077B8F74477BCF74877BC07B46
:106FC00047EA00208882A6F580660E80A2F58062DE
:106FD0004A80A5F580658D80A3F58063CB80A4F5FC
:106FE00080640C81FA20C87500208875F0BD00000F
:106FF0007CB504460E461546334601220221204642
:10700000009500F033F828B1606D40F02000606515
:1070100003207CBD134814490068B0FBF1F04FF425
:107020007A71484301906068B0F5827F0DD1334694
:10703000002280212046009500F018F878B1606D9C
:1070400040F02000606503207CBD019838B10198B4
:10705000401E019020688068C0430006F5D50020DE
:107060007CBD00006C09002000366E012DE9F8435C
:1070700004460F4691461E46089DFCF75FF8401BEC
:10708000351AFCF75BF8804626480068C0F3CB3021
:10709000684300903AE0701C38D0FCF74FF8A0EB42
:1070A0000800A84203D215B1009858B32BE020681D
:1070B000416821F0E00141606068B0F5827F0BD14A
:1070C000A068B0F5004F02D0B0F5806F04D1206801
:1070D000016821F040010160A06AB0F5005F09D1AC
:1070E0002068016821F4005101602068016841F4C2
:1070F0000051016001205034607000202070032096
:10710000BDE8F88300250098401E00902068806844
:1071100037EA000004D000204845BCD10020EFE74A
:107120000120F9E76C0900200178407841EA00204D
:107130007047000070B52DED028B4B4C94ED010AA9
:1071400084ED020A207B012826D14848B0F90410BA
:1071500000EE101AB8EEC00A84ED0D0AB0F9061060
:1071600000EE101AB8EEC00A84ED0E0AB0F9000065
:1071700004F028F89FED3E1B53EC112B04F03AF875
:1071800041EC180BE06B04F01DFA53EC182B04F0E3
:107190002FF903F03DFFE0639FED378AD4ED0D0A30
:1071A00094ED0B0AB0EE481A02F0F4FF84ED0B0ADE
:1071B000D4ED0E0A94ED0C0AB0EE481A02F0EAFF84
:1071C00084ED0C0A94ED0B1AF1EE080A21EE201A58
:1071D00084ED101A20EE200A84ED110A207B274D41
:1071E000012802D0022814D01BE0D5ED020A94ED4C
:1071F0000F0A234802F008FF1B48D5ED050A84302A
:1072000090EDAA0A00F5347002F0FEFE84ED120A39
:1072100007E09FED1C0A84ED120A95ED020A84ED49
:107220000F0A94ED100AD4ED110A94ED121A70EEC3
:10723000201A71EE811AC4ED171A70EEC01A71EEA1
:10724000811AC4ED181AF1EE401A71EEE01A71EECF
:10725000811AC4ED191A30EE600A30EE010A84ED8D
:107260001A0ABDEC028B70BD3412002038090020D0
:10727000613255302AA9333F9A99993FD80A0020A4
:10728000381500200000000010B5502080F3118850
:10729000BFF34F8FBFF36F8F03F0ECFD18B10449BC
:1072A0004FF080500860002080F3118810BD00006E
:1072B00004ED00E030B593B0302107A8F9F79FF94D
:1072C000142102A8F9F79BF900251E48016841F036
:1072D00080510160006800F0805001901A480168F8
:1072E00041F480410160006800F480400190012079
:1072F00007900004089002240D9480010E9006204F
:107300000F90A820109011940720129007A8FCF766
:1073100007FE08B1FBF70FF80F20029003940495C5
:107320004FF4A05005904FF480500690052102A81C
:10733000FCF7C2FC08B1FAF7FEFFFCF763FD13B0DF
:1073400030BD000040380240007000400248016833
:1073500041F470010160704788ED00E02DED028B73
:107360004FF40076104D114F114C9FED128A1248C8
:10737000FEF7C2FEAA7831463846FBF7D7FEFAF789
:1073800035FCFBF7DBFE6168401A00EE100AB8EE30
:10739000400AC8EE000AC4ED020AFBF7CFFE6060A7
:1073A000012002F070FFE2E7740D0020001002409F
:1073B0000402002000007A44D81500200148FDF79F
:1073C00082BA0000102000202DE9F04102682A4D09
:1073D0002A4E2B4FDFF8ACC02B4B4FF08048A84211
:1073E00009D0404507D0B04205D0B84203D060452F
:1073F00001D0984203D122F070044A682243A84287
:107400001BD0404519D0B04217D0B84215D06045C6
:1074100013D0984211D01D4CA0420ED01C4CA0425B
:107420000BD01C4CA04208D01B4CA04205D01B4CDA
:10743000A04202D01A4CA04203D122F44074CA6880
:1074400022434C6922F08002224302608A68C262B1
:107450000A688262A84201D0984201D10969016399
:10746000012141610169C90703D0016921F00101CE
:107470000161BDE8F081000000000140000400400F
:1074800000080040000C00400004014000400140A2
:10749000004401400048014000180040001C00402A
:1074A0000020004010B501F01F0101238B40046A49
:1074B0009C430462036A8A401343036210BD10B503
:1074C000846824F47F4442EA03220A432243826010
:1074D00010BD826822F070020A4342F00701816009
:1074E00070470000F0B5056A026A22F001020262EC
:1074F0004368826922F0700222F003020C68144390
:1075000025F002058A682A430E4E0F4FB04201D083
:10751000B84205D122F00805CA682A4322F00402C5
:10752000B04201D0B84207D123F4807323F4007332
:107530004D691D438B692B434360846149684163F6
:107540000262F0BD0000014000040140F0B5026A93
:10755000036A23F0100303624368846924F4E0445F
:1075600024F440740D6844EA052422F020028D685A
:1075700042EA0512104D114EA84201D0B04206D188
:1075800022F08002CF6842EA071222F04002A842AD
:1075900001D0B04209D123F4806323F400634D6924
:1075A00043EA85038D6943EA850343608461496842
:1075B00081630262F0BD0000000001400004014050
:1075C000F0B5026A036A23F4807303624368C469F6
:1075D00024F0700424F003050C682C4322F400729C
:1075E0008D6842EA0522104D104EA84201D0B042EB
:1075F00006D122F40062CF6842EA072222F48062B8
:10760000A84201D0B04209D123F4805323F400539F
:107610004D6943EA05138D6943EA05134360C4616C
:107620004968C1630262F0BD0000014000040140EE
:1076300030B5036A026A22F4805202624268C46969
:1076400024F4E04424F440740D6844EA052423F44F
:1076500000538D6843EA0533084DA84202D0084D17
:10766000A84204D122F480424D6942EA8512426068
:10767000C46149680164036230BD0000000001403C
:107680000004014010B5036A046A24F00104046296
:10769000846924F0F00444EA021423F00A020A4345
:1076A0008461026210BD10B5036A046A24F01004FC
:1076B0000462846924F4704444EA023223F0A00393
:1076C00043EA01118261016210BD10B5806B002197
:1076D000C185C184FDF70AFB10BD01680C3151E87A
:1076E000002F22F4907241E80023002BF5D10168AD
:1076F000143151E8002F22F0010241E80023002B51
:10770000F5D1016B012909D101680C3151E8002F35
:1077100022F0100241E80023002BF5D1202180F84F
:10772000421000210163704710B50168CA6822F059
:107730004002CA60202180F84110FDF75CFD002066
:1077400010BD08B590F84210222901D0022008BDD2
:1077500082684FF480539A4201D1016921B1816A54
:107760009A421DD052B10BE0816A02685268C2F39E
:1077700008020A80816A891C816209E002697AB183
:107780000268526802F07F020A70816A491C8162B5
:10779000C18D491E0904090CC18505D0002008BD12
:1077A000026852680A70F0E70168CA6822F0200295
:1077B000CA600168CA6822F48072CA6001684A69B6
:1077C00022F001024A61202180F842100021416329
:1077D000026B012A03D0FDF70DFD002008BD0163F7
:1077E00001680C3151E8002F22F0100241E800231B
:1077F000002BF5D101680A68D20602D50A684968EB
:107800000091818DFDF74AFAE7E700002DE9F0418C
:10781000044620680169E26821F440511143016186
:10782000A1682069E269014360691043014320684F
:10783000C26849F20C639A430A43C26020684169F6
:10784000A26921F4407111434161334920688842A3
:1078500002D03249884202D1FCF70EFB01E0FCF76E
:10786000FBFAE1690023192764253226B1F5004FA0
:1078700028D061688B0F8A00A0FB0701F8F7A7FDED
:107880000146B0FBF5F07A42504301EB800006EB75
:107890000010B0FBF5F000F0F002B1FBF5F002EBE8
:1078A0000012B1FBF5F07B42584301EB800006EB80
:1078B0000010B0FBF5F0216800F00F001044886064
:1078C000BDE8F08161684A18A0FB07015B41F8F749
:1078D0007EFD0146B0FBF5F00201B1FBF5F06FF063
:1078E0001803584301EB800006EBC000B0FBF5F035
:1078F00000F0F80002EB4002B1FBF5F0584301EB59
:10790000800006EBC000B0FBF5F0216800F0070036
:1079100010448860D4E700000010014000140140CA
:1079200090F84110212901D0022070478168B1F5FB
:10793000805F01D1016961B1016A4A1C026202687B
:1079400009785160C18C491E0904090CC1840AD010
:1079500013E0016A02680988C1F308015160016AF5
:10796000891C0162EEE70168CA6822F08002CA60E1
:107970000068C16841F04001C1600020704700000C
:107980000148FDF7B5B90000581D00200148FDF77A
:10799000AFB90000A01D00200148FDF7A9B9000003
:1079A000E81D002070B5049E01240463242484850E
:1079B0000468656945F0400565610468E56845F05F
:1079C0001005E560C46B2468256825F00105256075
:1079D000C46B24682468E407F4D1C46B2468A160F4
:1079E000C16B0968CA60C16B09680B61C16B09682A
:1079F0004E60C16B09680A6842F480220A60C06B5D
:107A00000068016841F00101016070BD2DE9F0419D
:107A10000E46D0F8C822D0F8D41200EB8101D1F87C
:107A2000C012002925D006F00F0303EB830400EBFE
:107A300084040027A5694DB103EBC30302EB830265
:107A4000D369B5FBF3F203FB1252A2B1C1F8147271
:107A5000D0F8D42200EB8200D0F8C40203692BB125
:107A6000D1F80802324601F5047198470020BDE8BC
:107A7000F0810320FBE7A76100231A46314600F09E
:107A8000F1FEF3E770B50546D5F8D40205EB8000AA
:107A9000D0F8C042002C12D0284600F0BEFDC4F839
:107AA0000C02D5F8D412D4F8040205EB8101D1F808
:107AB000C412CA6804F503719047002070BD03200A
:107AC00070BD000070B50446224D2046297800F0B4
:107AD000B6FC2878002600F00F0000EB800004EBD5
:107AE000800086846978204600F0A9FC687800F060
:107AF0000F0000EB800004EB8000A0F86461A9781F
:107B0000204600F09CFCA87800F00F0000EB8000FD
:107B100004EB80008684C684D4F8D40204EB800091
:107B2000D0F8C01299B1D0F8C40240688047D4F8A8
:107B3000D40204EB8000D0F8C00201F01FF9D4F8A1
:107B4000D40204EB8000C0F8C062C4F8BC6200201C
:107B500070BD00004C0A002010B5D0F8D41200EB24
:107B60008100D0F8C042002C10D0D0F8C41259B116
:107B700094F80002FF2807D08B6894F80122214670
:107B80009847FF2084F80002002010BD032010BD9C
:107B90000A21018000487047500A002070B506464F
:107BA00082210C4800F0B1FB05460121094800F094
:107BB000ACFB04468121074800F0A7FB0DB1102162
:107BC000A971402104B1A18000B18180432030809F
:107BD000004870BD5C0A002070B5064682210D4841
:107BE00000F093FB054601210A4800F08EFB044695
:107BF0008121084800F089FB0DB11021A9714FF4D3
:107C0000007104B1A18000B181804320308001481F
:107C100070BD00005C0A002070B5064682210C4849
:107C200000F073FB05460121094800F06EFB044695
:107C30008121074800F069FB0DB11021A971402195
:107C400004B1A18000B1818043203080004870BD24
:107C50005C0A00202DE9F04704464FF407763046D1
:107C600001F08EF805464FF00008002D64D0314633
:107C70002846F8F7C4FCD4F8D40204EB8000C0F81E
:107C8000C052C4F8BC52207C484E4FF010094FF44B
:107C9000007A0127F0B3402302223178204600F019
:107CA0002AFD307800F00F0000EB800004EB80002C
:107CB0008784402302227178204600F01CFD7078F2
:107CC00000F00F0000EB800004EB8000A0F864716E
:107CD000B07800F00F0000EB800004EB8000A0F80B
:107CE000269008230322B178204600F004FDB078E6
:107CF00000F00F0000EB800004EB80008784C5F8E3
:107D00000482D4F8D40204EB8000D0F8C4020068E6
:107D1000804700E018E0C5F81482C5F81882D5F84D
:107D20000422C2B3207CB8B340237178204600F00F
:107D3000EEFC0020BDE8F087D4F8D40204EB80000C
:107D4000C0F8C0820220F5E753460222317820466F
:107D500000F0D1FC307800F00F0000EB800004EB65
:107D600080008784534602227178204600F0C3FCCD
:107D7000707800F00F0000EB800004EB8000A0F8AA
:107D80006471B07800F00F0000EB800004EB80001D
:107D9000A0F82690A5E700E001E00220CAE75346DC
:107DA0007178204600F0B3FCC3E700004C0A0020C5
:107DB00010B5D0F8D41200EB8101D1F8C01200291F
:107DC0000AD0027C094C4AB1D1F8042240236178E0
:107DD00000F09DFC002010BD032010BDD1F804224E
:107DE0004FF40073617800F092FCF3E74C0A002036
:107DF000002907D0D0F8D42200EB8200C0F8C412CA
:107E00000020704703207047D0F8D42200EB820096
:107E1000D0F8C002002803D0C0F804120020704738
:107E200003207047D0F8D43200EB8300D0F8C002B2
:107E3000002805D0C0F80812C0F8102200207047B2
:107E4000032070472DE9FC4106460C46D6F8D402C3
:107E500006EB8000D0F8C07200210191009100254E
:107E6000002F0DD0217811F0600238D0202A09D0DF
:107E70002146304600F09CF803252846BDE8FC81E9
:107E80000320FBE7E2880AB3090610D5D0F8C40244
:107E900094F801C03946836860469847E288072A0B
:107EA00000D907223946304600F0A8F8E5E76078A7
:107EB00087F80002E088402800D34020C2B287F84B
:107EC00001223946304600F07FF8D6E7D0F8C402E8
:107ED00063780022866821461846B047CDE760786F
:107EE00058B10128C9D00A2817D00B2825D021461F
:107EF000304600F05DF80325BFE796F89C020328A2
:107F000005D02146304600F053F80325B5E702229C
:107F10006946304600F072F8AFE796F89C020328F5
:107F200005D02146304600F043F80325A5E701229D
:107F300001A9304600F062F89FE796F89C020328FA
:107F40009BD02146304600F033F8032595E710B565
:107F50000024D0F8B8225268904700B1032420468C
:107F600010BD90F89C22012A05D0022A03D0032AD2
:107F700001D000F01DB84988012904D10021C0F8C2
:107F8000A41200F048B870470020704700207047E6
:107F900010B513460A46002100F0B9FB002010BDC1
:107FA00010B513460A46002100F05CFC002010BD0D
:107FB00010B504468021204600F035FC2046BDE87F
:107FC0001040002100F02FBC10B50323C0F89432FC
:107FD000C0F85821C0F85C2113460A46002100F081
:107FE00096FB002010BD10B50521C0F894120023A7
:107FF0001A46194600F08BFB002010BD10B5022375
:10800000C0F894328261C26113460A46002100F032
:1080100029FC002010BD10B50421C0F894120023E3
:108020001A46194600F01EFC002010BD10B50028AD
:1080300006D00A46054906A000F0B3F9034810BD72
:108040000A46024902A000F0ACF9F7E724840020B8
:1080500043444320436F6E66696700001220088026
:1080600000487047040A002010B5002806D00A46D0
:10807000054906A000F095F9034810BD0A460249DB
:1080800002A000F08EF9F7E7248400204344432047
:10809000496E7465726661636500000004200880A3
:1080A00000487047000A002010B50A46024903A0A4
:1080B00000F077F9004810BD2484002053544D6926
:1080C00063726F656C656374726F6E6963730000D1
:1080D00010B5002806D00A46054906A000F061F94F
:1080E000034810BD0A46024902A000F05AF9F7E71A
:1080F0002484002053544D333220566972747561C4
:108100006C20436F6D506F727400000010B51A2020
:108110000880FAF729F9014810BD0000180A00206C
:108120000A46D188012902D01146FFF741BF90F8D5
:108130009C12012906D0022904D0032909D0114636
:10814000FFF736BF00218160012200F10801FFF72F
:1081500055BF0122011DFFF751BF2DE9F843044629
:108160000F4600200090002600257888010A082983
:1081700070D2DFE801F0AB040C22ABAB8B9AD4F8E1
:10818000B412207C0A68694690470646A3E0207C2A
:108190004FF0020840B1D4F8B802C16A6846884777
:1081A000064686F8018096E0D4F8B802816A6846EF
:1081B0008847064686F801808DE0C0B206285FD267
:1081C000DFE800F0031221303F4FD4F8B4024268D8
:1081D00022B1207C6946904706467CE0394620461D
:1081E000FFF7E6FE012576E0D4F8B402826822B1FA
:1081F000207C6946904706466DE039462046FFF7E9
:10820000D7FE012567E0D4F8B402C26822B1207C11
:108210006946904706465EE039462046FFF7C8FEAD
:10822000012558E0D4F8B402026922B1207C6946E5
:10823000904706464FE039462046FFF7B9FE012534
:1082400049E0D4F8B40242692AB1207C69469047DB
:10825000064640E03AE039462046FFF7A9FE0125F0
:1082600039E0D4F8B402826922B1207C6946904793
:10827000064630E039462046FFF79AFE01252AE0FF
:1082800039462046FFF794FE012524E0207C28B1E2
:1082900039462046FFF78CFE01251CE0D4F8B802D1
:1082A000416B68468847064615E0207C28B1394670
:1082B0002046FFF77DFE01250DE0D4F8B802016BE2
:1082C0006846884706460721717004E03946204613
:1082D000FFF76EFE0125002D0CD1FA888AB1BDF89A
:1082E000000048B1824200D9024600923146204641
:1082F000FFF784FEBDE8F88339462046FFF758FEB5
:10830000F8E72046FFF787FEF4E778B50E46054606
:1083100000246A88297828468A4211D900910AE007
:10832000694600F019F84178052904D10446A1787E
:10833000B14205D000246988BDF800209142EFD8F1
:10834000204678BD002102E0491CC9B2401C0278D9
:10835000002AF9D1084670470A8803781A440A802F
:108360000178084470470A4690F89C12012906D00B
:10837000022904D0032902D01146FFF719BED18883
:10838000022902D01146FFF713BE0121C160D0F8C7
:10839000A41209B10321C160022200F10C01FFF710
:1083A0002DBE70B50D461646002818D0044620464E
:1083B000FFF7C8FF022101EB4000308030782870C1
:1083C000032068700220002206E02954641C401C2F
:1083D000C0B22A54401CC0B221780029F5D170BD2A
:1083E00001460020002906D0012905D0022905D028
:1083F000032905D0032070470320704701207047F0
:108400000320704700280FD00023C0F8B832C0F80E
:10841000C432C0F8D03209B1C0F8B412012180F8DA
:108420009C12027000F0FEB80320704710B5D0F81F
:10843000C802FAF7C7FFBDE81040FFF7D1BF10B57B
:10844000D0F8C802FAF79AFFBDE81040FFF7C8BF9E
:1084500070B504460B461646002B08D043F0800149
:108460002046FFF791FDFF285ED078B35CE004F171
:108470001400D4F89412002502293CD1D0E902213D
:108480008A420CD9521A826031462046FFF788FD95
:1084900000231A461946204600F039F92BE0914294
:1084A00015D14068884212D3D4F8981288420ED26F
:1084B000002211462046FFF773FDC4F898520023AE
:1084C0001A461946204600F022F914E01CE094F800
:1084D0009C02032808D1D4F8B802C16821B1C4F8BD
:1084E000D452C168204688478021204600F09BF97D
:1084F0002046FFF778FD94F8A002A8B1204600F0CE
:10850000F0F984F8A0520FE094F89C1203290BD1E3
:10851000D4F8B8124A693AB1C4F8D4024A69194683
:1085200020469047002800D1002070BD70B5044659
:108530000B4615460022002B08D003F07F01204691
:10854000FFF722FDFF2854D078B352E004F5AA705B
:10855000D4F8941203294CD1D0E902218A420AD9D5
:10856000521A8260C068824200D3024629462046E1
:10857000FFF70EFD3DE094F8AA0210F01F0006D0B0
:10858000012806D002280AD0002078B11BE0002084
:10859000FBE794F8AE122046FFF7F8FCF5E794F8F5
:1085A000AE122046FFF7F0FCEFE710E094F89C12C3
:1085B000032908D1D4F8B8120A6922B1C4F8D40248
:1085C0000969204688472046FFF725FD11E094F809
:1085D0009C1203290AD1D4F8B8128D6935B1C4F8B8
:1085E000D4028A6919462046904702460AB11046CD
:1085F00070BD002070BD0020704710B5002401211F
:1086000080F89C12D0F8B822002A04D05268017970
:10861000904700B10324204610BDD0F8C802FAF7F5
:10862000FDBE000010B50178002927D11449C1F81A
:10863000E004C0F8C8124FF0A040086004200871A0
:108640000222CA71002088714A728872C872087347
:108650008873C8730846FBF70EFA08B1F9F76BFE8A
:1086600080210748FAF73BFE402200210448FAF730
:108670003AFE802201210248FAF735FE002010BDA3
:10868000449800200A0601F07F01D0F8C80201EBEF
:10869000C10100EB810001D5807D704790F8560242
:1086A000704710B5D0F8D42200EB8202D2F8B8227D
:1086B000002A04D090F89C32032B02D004E003205F
:1086C00010BD126A02B19047002010BD10B5D0F85D
:1086D000D42200EB8202D2F8B822002A04D090F80B
:1086E0009C32032B02D004E0032010BD526A02B179
:1086F0009047002010BD10B514461A46D0F8C802A5
:108700002346FAF794FEBDE81040FFF769BE10B5A6
:10871000D0F8C802FAF7B9FEBDE81040FFF760BE16
:108720002DE9F04104460025012684F89C620020D2
:10873000C4F894026060C4F8A40284F8A002D4F8DB
:10874000B802002806D0426822B100212046904796
:1087500000B103250022402311462046FFF7CBFF3E
:10876000A4F864614027C4F860714023002280218E
:108770002046FFF7C0FFA68427622846BDE8F081A7
:1087800090F89C12042903D190F89D1280F89C1255
:108790000020704710B590F89C12032905D1D0F83D
:1087A000B81211B1C96901B18847002010BD017428
:1087B0000020704710B5D0F8C802FBF728FABDE8D2
:1087C0001040FFF70DBE70B5044604F2AA2005461E
:1087D00000F051F80120C4F89402B4F8B002C4F8D3
:1087E000980294F8AA2212F01F000AD001280ED095
:1087F000022812D02046BDE8704002F0800100F04F
:1088000012B829462046BDE8704000F025B9294637
:108810002046BDE8704000F06ABA29462046BDE80F
:10882000704000F054B910B5D0F8C802FAF746FE0F
:10883000BDE81040FFF7D4BD10B5D0F8C802FBF773
:1088400000FABDE81040FFF7CBBD90F89C12042958
:1088500003D090F89C1280F89D12042180F89C129D
:108860000020704710B5D0F8C802FAF75FFEBDE8E7
:108870001040FFF7B5BD70B5044608460178217079
:108880004178801C617005462846FEF74DFC6080EB
:108890002846851C2846FEF747FCA0802846801CF9
:1088A000FEF742FCE08070BD38B504460020009021
:1088B000002914D0C4F8B812D4F8D40204EB800014
:1088C000D0F8B802C16A19B168468847C4F8D00226
:1088D000D4F8D802401CC4F8D802002038BD0320C8
:1088E00038BD0020704770B504468888002821D123
:1088F000C888F8B9488880281CD200F07F0594F811
:108900009C0203280DD084F89E5229462046FFF78A
:1089100051FF2046FFF77FFB45B1022084F89C02FF
:1089200070BD2046BDE87040FFF742BB012084F8CF
:108930009C0270BD2046BDE87040FFF739BB03467E
:108940000020D3F8B822002A02D012681846104737
:10895000704700002DE9F04104460F460025334ED4
:10896000B9783170012906D939462046FFF720FB36
:108970000320BDE8F08194F89C024FF00208022821
:108980000CD0032824D039462046FFF711FB31785C
:108990002046FFF7DCFA03252846EAE7A1B161602B
:1089A0002046FFF7CCFF0546280006D03946204672
:1089B000FFF7FEFA84F89C82EEE72046FFF72BFBD8
:1089C000032084F89C02E7E72046FFF724FBE3E757
:1089D000C9B16068884224D0C1B22046FFF7B7FA17
:1089E000317861602046FFF7AAFF0546280014D0C1
:1089F00039462046FFF7DCFA21792046FFF7A7FA2F
:108A000084F89C82C8E784F89C8261602046FFF766
:108A10009EFA2046FFF7FFFABEE72046FFF7FBFA73
:108A2000BAE72046FFF7F7FAB6E70000480A002049
:108A30004A88012A03D0022A06D0FFF7B9BA0121D9
:108A4000C0F8A412FFF7E7BA8988090A80F8A012D3
:108A5000FFF7E1BAFFF7F0BE10B500240A7812F074
:108A6000600211D0202A05D0402A03D0FFF7A0FAD7
:108A7000204610BDD0F8D42200EB8202D2F8B822F2
:108A8000926890470446F3E74A780A2A1CD2DFE846
:108A900002F012181B151B08051B0F0BFFF75DFBDF
:108AA000E6E7FFF720FFE3E7FFF754FF0446DFE7C1
:108AB000FFF736FBDCE7FFF756FCD9E7FFF7B8FF17
:108AC000D6E7FFF74EFAD3E7FFF772FAD0E72DE9C2
:108AD000F04105460E4600273479307810F06000EA
:108AE0001ED0202808D0402806D031462846FFF75F
:108AF0005FFA3846BDE8F08121462846FFF744FA80
:108B0000FF28F6D00028F4D1C5F8D402D5F8B80271
:108B10008268002AEDD03146284690470746E8E7AC
:108B20007078002870D0012831D0032804D0314655
:108B30002846FFF73DFADCE795F89C02022806D0AC
:108B4000032815D031462846FFF732FAD1E754B151
:108B5000802C08D021462846FFF765FE8021284654
:108B6000FFF761FEC5E731462846FFF721FAC0E767
:108B7000708840B93CB1802C05D0F08818B92146E6
:108B80002846FFF750FE2846FFF745FAB1E795F86B
:108B90009C02022806D0032815D031462846FFF74C
:108BA00007FAA6E754B1802C08D021462846FFF7E3
:108BB0003AFE80212846FFF736FE9AE731462846DE
:108BC000FFF7F6F995E77088002892D1600603D088
:108BD00021462846FFF72AFC2846FFF71CFA2146C3
:108BE0002846FFF7D1F9FF2883D0002881D1C5F8A6
:108BF000D402D5F8B8028268002A90D031462846BF
:108C00009047074675E7FFE795F89C024FF000088C
:108C1000022806D0032825D031462846FFF7C8F998
:108C200067E734B1802C04D031462846FFF7C0F9FD
:108C30005FE7200607D504F07F0000EB800005EB1E
:108C40008001143107E004F07F0000EB800005EBA9
:108C5000800101F5AA71C1F8008002222846FFF7C1
:108C6000CDF946E720060CD504F00F0000EB80009C
:108C700005EB8000808C68B931462846FFF798F9EB
:108C800037E704F00F0000EB800005EB8000B0F840
:108C9000640148B120060CD504F07F0000EB800091
:108CA00005EB800614360CE031462846FFF780F9C4
:108CB0001FE704F07F0000EB800005EB800606F55F
:108CC000AA764CB1802C07D021462846FFF7DAFC63
:108CD00028B10120306004E0C6F8008001E0C6F849
:108CE0000080022231462846FFF788F901E770B577
:108CF00005460E460024307810F0600009D0202888
:108D000007D0402805D031462846FFF751F92046C4
:108D100070BD95F89C02012808D0022806D00328CF
:108D200004D031462846FFF743F9F0E7B088C1B2D6
:108D300001291ED8C1B22846FFF728F9FF2800D024
:108D400048B10324F0880028E1D1002CDFD1284667
:108D5000FFF761F9DBE7D5F8B8128A683AB1C5F8D0
:108D6000D4028A683146284690470446EAE703243D
:108D7000E8E731462846FFF71BF9C8E770470000CF
:108D8000004870472496002070B50A784E78012379
:108D900002F00F041C4DA340012E19D0D0F81C483E
:108DA00044EA0343C0F81C3800EB4210D0F8002B13
:108DB00012040BD4D0F8002B0B890979C3F30A03F2
:108DC0001A4345EA81410A43C0F8002B002070BDD8
:108DD000D0F81C489BB21C43C0F81C4800EB421062
:108DE000D0F800391B04F1D4D0F800390C89097986
:108DF000C4F30A048904234341EA82510B432B4301
:108E0000C0F80039E2E7000000800010D0F8001937
:108E10006FF30A01C0F80019D0F8041841F480710A
:108E2000C0F80418002070470FB410B504469DF830
:108E3000110001281CD0E06840F04000E0602046AE
:108E400000F036F89DF8151051B3A16B21F4803174
:108E5000A1639DF80E10012907D1A16841F0060118
:108E6000A160A16841F02001A16010BC5DF814FB75
:108E7000A06B20F48030A063E0680C490840E060FB
:108E8000E06820F44010E0609DF81800012803D14C
:108E9000E06840F48010E060204600F009F8D8E770
:108EA000A16B41F48031A163D3E70000BFFFBDFF98
:108EB00008B5002300934FF070620099491C00919F
:108EC0000099914201D9032008BD01690029F4DA13
:108ED0000093016941F0010101610099491C009171
:108EE0000099914201D9032008BD0169C907F4D155
:108EF000002008BD70B54B780A78012500EB4212BE
:108F0000012B2BD0D2F8003B002B0BDAD2F8003B20
:108F100043F00063C2F8003BD2F8003B43F08043CB
:108F2000C2F8003B00F61C00046A0B7803F00F0641
:108F300005FA06F324EA034404620468097801F0A0
:108F40000F0105FA01F324EA03410160D2F8000B96
:108F500018490840C2F8000B002070BDD2F8003953
:108F6000002B0BDAD2F8003943F00063C2F8003965
:108F7000D2F8003943F08043C2F8003900F61C00F3
:108F8000046A0B7803F00F0605FA06F39EB2B443A9
:108F900004620468097801F00F0105FA01F399B23F
:108FA0008C430460D2F8000903490840C2F8000964
:108FB000D2E700000078F3EF007833ECD0F8001E21
:108FC00021F00301C0F8001ED0F8041821F00201BE
:108FD000C0F8041800207047D0F8001E21F00301EB
:108FE000C0F8001ED0F8041841F00201C0F80418BF
:108FF000002070470FB42DE9F043044600250020FF
:10900000002704EB8001C1F80471401C0F28F8D33D
:109010009DF82A6066B3A06B20F40011A163A06BD9
:1090200040F40021A163C4F8007E9DF825000128CA
:1090300031D00321204600F07DFB1021204600F0B6
:10904000B9FA00B10125204600F094FA00B10125DB
:10905000C4F81078C4F81478C4F81C7800204FF0D5
:1090600000634FF0904C4FF67F389DF8202034E09D
:10907000D4F8040840F00201C4F80418A06B40F4CE
:109080000011A163A06B20F40021A163A06B20F468
:109090008021A163C7E79DF8230020B1012120466C
:1090A00000F048FBC9E70021204600F043FBC4E77D
:1090B00004EB4011D1F80099B9F1000F06DA10B1B4
:1090C000C1F800C904E0C4F8003901E0C1F8007932
:1090D000C1F81079C1F80889401C8242E8D8002004
:1090E00014E004EB4011D1F8009BB9F1000F06DA4F
:1090F00010B1C1F800CB04E0C4F8003B01E0C1F8B6
:10910000007BC1F8107BC1F8088B401C8242E8D874
:10911000D4F8100820F48071C4F81018A7616FF01B
:10912000804060619DF8220018B9A06940F01000ED
:10913000A061A0690A490843A0619DF8260018B102
:10914000A06940F00800A061012E03D1A069054983
:109150000843A0612846BDE8F0035DF814FB000059
:1091600000383C8004000040816821F001018160EA
:109170000020704710B5036C124CA34205D9D0F8FB
:10918000003B002B01DA002010BD00F53160002308
:109190000360036843F400230360036843F018038B
:1091A0000360036843F0C0430360A0F53160012908
:1091B00006D100F530604261016841F08021016014
:1091C000002010BD0A30544F4A780B78012A00EB7A
:1091D00043100BD0D0F8002B22F40012C0F8002B63
:1091E0000979032914D0022912D017E0D0F80029F8
:1091F00022F40012C0F800290979032901D00229BC
:109200000CD1D0F8001941F08051C0F8001905E0E8
:10921000D0F8001B41F08051C0F8001B00207047BF
:109220000A784B780978012B00EB411012D0D0F866
:10923000001B002906DB2AB1D0F8001B21F0804179
:10924000C0F8001BD0F8001B41F40011C0F8001B4F
:1092500000207047D0F80019002906DB2AB1D0F8A9
:10926000001921F08041C0F80019D0F8001941F42C
:109270000011C0F80019EBE7F8B50C784F780B78BF
:109280008F4D6FF0604600EB4313012F29D0D3F8C8
:10929000107B6FF31207C3F8107BD3F8107B2F40BD
:1092A000C3F8107B002C7DD00D69002D7BD08C681D
:1092B00025446D1EB5FBF4F5ADB26C430C62D3F8DA
:1092C000104B06EAC5452C43C3F8104BD3F8104B9E
:1092D0000D6AC5F312052C43C3F8104B012A7DD04B
:1092E000D1E00F6927B3D3F810796FF31207C3F8F1
:1092F0001079D3F810792F40C3F8107934B30F697F
:109300008D682F447F1EB7FBF5F506EAC545D3F8F7
:1093100010693543C3F81059D3F810590E69C6F3D4
:1093200012063543C3F810590D79012D1AD023E0E8
:1093300003F511631E682E401E601D6845F400256C
:109340001D601D686FF312051D6015E00E698D68C4
:10935000AE4200D90D61D0F8105945F40026C0F88E
:109360001069D9E703F511631D6825F0C0451D603C
:109370001D6845F000551D60012A1BD000EB441309
:10938000D3F8004944F00444C3F800490C79012C97
:1093900039D00A69002A0CD0D0F83428097801F0B5
:1093A0000F0301E048E05BE0012199400A43C0F867
:1093B000342882E0CA691AB100EB4413C3F81429B7
:1093C0000979012916D1D0F80818C9050AD400EB8B
:1093D0004411D1F8002942F0005200E04FE0C1F8FA
:1093E000002907E000EB4411D1F8002942F0805237
:1093F000C1F8002900EB4410D0F8001941F00441F5
:10940000C0F8001959E0D0F80848E40506D4D3F8AC
:10941000004944F00054C3F8004905E0D3F800497E
:1094200044F08054C3F8004900920A8A93B20A7843
:10943000C96800F001FA40E00C690CB18C680C615D
:109440008C680C62D0F8105BC4F312042543C0F89A
:10945000105BD0F8104B44F40024C0F8104B3DE7EB
:10946000D3F8104B8D68C5F312052C43C3F8104B8D
:10947000D3F8104B44F40024C3F8104B2EE7CA680D
:109480000AB1C3F8142B0979012910D1D0F80808C2
:10949000C00506D4D3F8000B40F00050C3F8000B11
:1094A00005E0D3F8000B40F08050C3F8000BD3F870
:1094B000000B40F00440C3F8000B0020F8BD000092
:1094C000FFFF07E038B5002200920B784D7800EBE3
:1094D000431442F21073012D1AD0D4F8005B002D12
:1094E00040DAD4F8005B45F00065C4F8005B0C7806
:1094F00000EB4414D4F8005B45F08045C4F8005BF1
:10950000009C641C0094009C9C4224D9012229E008
:10951000D4F80059002D25DAD4F8005945F000653B
:10952000C4F800590C7800EB4414D4F8005945F005
:109530008045C4F80059009C641C0094009C9C4227
:1095400001D901220EE00C7800EB4414D4F8004954
:10955000002CF0DB06E00C7800EB4414D4F8004B50
:10956000002CCDDB104638BD816841F001018160DF
:109570000020704708B5002300934FF070620099F7
:10958000491C00910099914201D9032008BD01694D
:109590000029F4DA0093102101610099491C00911F
:1095A0000099914201D9032008BD0169C906F4D48C
:1095B000002008BD18B5002400944FF07063009A95
:1095C000521C0092009A9A4201D9032018BD0269E8
:1095D000002AF4DA0094202242EA81110161009904
:1095E000491C00910099994201D9032018BD0169D5
:1095F0008906F4D4002018BDD0F8080800F0060051
:10960000002805D0022805D0062803D00F20704777
:109610000020704702207047406900F00100704749
:10962000D0F81818D0F81C08084080B27047D0F85D
:109630001818D0F81C080840000C704710B5D0F876
:109640001038D0F8342801F00F04E24002F0010293
:1096500043EAC21200EB4110D0F80809104010BDD7
:1096600000EB4111D1F8081BD0F8140808407047EE
:10967000416980690840704730B503460846940840
:1096800002F00301002203F5805303E01D6840F857
:10969000045B521CA242F9D300290BD000221C68A3
:1096A000D50024FA05F300F8013B521C491E89B28B
:1096B0000029F5D130BD70B505460024E86820F0DA
:1096C000C040E860012902D089B1012070BDE8687E
:1096D00040F00050E8600A20F9F720FC0A342846E0
:1096E000FFF79AFF012810D0C82CF4D30DE0E868EA
:1096F00040F08040E8600A20F9F710FC0A34284660
:10970000FFF78AFF08B1C82CF5D3C82C01D0002080
:1097100070BD012070BD00F50060026822F4FE6299
:10972000026002684FF4FE6303EA01110A4302601B
:1097300000207047D0F800280A43C0F80028002015
:1097400070470000022A0ED082B30921C26822F4B9
:109750007052C260C2684FF4705303EA81210A4319
:10976000C26000207047224A224B0A449A4201D22A
:109770000F21EBE7204A214B0A449A4201D20E21E5
:10978000E4E71F4A1F4B0A449A4201D20D21DDE74C
:109790001D4A1E4B0A449A4201D20C21D6E71C4AAC
:1097A0001C4B0A449A4202D20B21CFE71DE01A4A11
:1097B0001A4B0A449A4201D20A21C7E7184A194BA8
:1097C0000A449A4201D20921C0E7174A174B0A44BA
:1097D0009A4201D20821B9E7154A1144154A91422B
:1097E00001D20721B2E70621B0E70921AEE7000068
:1097F000405327FF00350C00401E1BFF40420F0066
:1098000000DC0BFF804F1200808CF9FE20D6130085
:1098100060B6E5FE60E3160000D3CEFE40771B0085
:10982000C05BB3FEC091210000CA91FE20753800D4
:10983000E05459FEE09C410010B5029C002C0DD173
:10984000DB1C9C08002300EB023000F5805003E095
:1098500051F8042B02605B1CA342F9D3002010BD19
:1098600030B40E4CA04209D10D4801600361A0F153
:109870000C03014630BC0B48F8F79CBD0A4CA042D3
:109880000AD10748183001600361A0F124030146A2
:1098900030BC0648F8F78EBD30BC7047006400400D
:1098A00024020020201C002000680040481C0020EA
:1098B00070B50C46C16B0A6811680B034FF01E01AE
:1098C0001DD4136823F001031360C26B1268136880
:1098D00043F400231360C06B006841600F211848F7
:1098E00001F0C0F901282AD10F2C28D31448FDF724
:1098F000E9FABDE870400F211148F6F75EBE136823
:1099000023F001031360C26B1268136823F4002371
:109910001360C06B0068416009480F210F30054695
:1099200001F0A0F901280AD10F2C08D32846FDF731
:10993000C9FA2846BDE870400F21F6F73EBE70BD5B
:109940006617002030B4C26B126813681C034FF016
:10995000240313D4146824F001041460C26B126849
:10996000146844F400241460C06B0068436012293A
:1099700019D130BC0D490E48FDF7D5BA146824F052
:1099800001041460C26B1268146824F4002414608B
:10999000C06B00684360122905D1054830BC0349FB
:1099A0002430FDF7C0BA30BC7047000038090020F1
:1099B00084170020FEE7002908D0042909D00829CF
:1099C0000AD00C2901D10068026470470068426324
:1099D00070470068826370470068C2637047022066
:1099E00000F051FCFBE74100080218BF04200A0EFA
:1099F00018BF40F001004FF07F4232EA010108BF7A
:109A000040F00200012808BF052070470907090E31
:109A1000002804DB00F1E02080F80014704700F01B
:109A20000F0000F1E02080F8141D704710B510EE13
:109A3000104A4FF01A402DED028B00EB4400B0F1BC
:109A4000C85F4AD84FF0FC40B0EB440F22D2B0EED2
:109A5000C00AF7EE000A30EEC00AF6EE000A20EE69
:109A6000208A18EE100A00F0E5FE00EE100A14F04D
:109A7000004F1DBF9FED281ADFED280AB1EE400A06
:109A80009FED271A08BFF0EE410AF8EE001A20EE0B
:109A9000210A05E020EE008A9FED221ADFED220A5E
:109AA000DFED221A9FED222A70EEC00A20EE080A8E
:109AB00008EE212ADFED1F1A48EE021A9FED1E2A3A
:109AC00008EE212ADFED1D1A48EE021ABDEC028BCA
:109AD00040EE610A30EE810A10BD4FF0CC40B0EB91
:109AE000440F82BF9FED160ABDEC028B10BD4FF0F4
:109AF0007F40B0EB440F05D2BDEC028BBDE81040B7
:109B000000F00CBA0120F6F723FEBDEC028BBDE895
:109B1000104000F009BA00000000494022AA7D3A36
:109B2000000000000000C93F22AAFD3924FE1C3DB0
:109B3000C78AD83C1E67383D1B93993DAFAA2A3E81
:109B4000DB0FC93F10B54FF00E402DED028BB0EE8C
:109B5000408A18EE104A00EB4400B0F1506F4AD82A
:109B60004FF0FC40B0EB440F22D2B0EEC80AF7EE43
:109B7000000A30EEC00AF6EE000A60EE208A18EE07
:109B8000900A00F057FE01EE100A14F0004F1DBFBE
:109B9000DFED2D0A9FED2D0AB1EE411ADFED2C0A03
:109BA00008BF9FED2C0AF8EE001A21EE218A05E08D
:109BB000DFED290A68EE088AB0EE600A9FED271AE9
:109BC000DFED271A30EE080A48EE811A9FED251ABC
:109BD00008EEA11ADFED241A48EE811A9FED231A30
:109BE00008EEA11A68EE281ABDEC028B01EE810A7C
:109BF00030EE200A10BD4FF0E440B0EB440F0CD91A
:109C000018EE100AFFF7EFFE042808BF00F094F9E1
:109C1000B0EE480ABDEC028B10BD4FF07F40B0EBB8
:109C2000440F07D2B0EE480ABDEC028BBDE81040ED
:109C300000F074B90120F6F78BFDBDEC028BBDE896
:109C4000104000F071B900000000C9BF22AAFDB9A0
:109C50000000C93F22AAFD390000000024FE1C3D7F
:109C6000C78AD83C1E67383D1B93993DAFAA2A3E50
:109C700070B54FF068422DED048BF0EE408A18EE7F
:109C8000900AB0EE608A18EE101A02EB4003B3F1AE
:109C9000654F3CBF02EB4102B2F1654F7DD200BF80
:109CA000C0F3C753C1F3C7529A1A1B2A09DD10F03B
:109CB000004F14BF9FED830A9FED830ABDEC048B18
:109CC00070BD12F11A0F36DA11F0004F09D010F002
:109CD000004F0CBF9FED7D0A9FED7D0ABDEC048B0C
:109CE00070BD88EE889A19EE100AFFF77CFE0428F2
:109CF00008BF00F021F918EE900AFFF774FE054640
:109D000018EE100AFFF76FFE044619EE100AFFF76F
:109D10006AFE042D18BF052D08D1042C18BF052C90
:109D200004D1002804BF0220F6F712FDB0EE490A64
:109D3000BDEC048B70BD4200B2EB410F3AD910F07C
:109D4000004F19BFDFED630A9FED630ADFED630A81
:109D50009FED630AB0EE481A0A46B1EE688A80F0B9
:109D60000041F0EE418A10460A1A5200B2F1807F9B
:109D700034D2484010F0004FDFED5A1A9FED5A2AB6
:109D80001DBFBEEE001A70EEE10A30EE420AB6EEDA
:109D9000001A08BF70EEA10A00E040E008BF30EEF4
:109DA000020AB0EE682A01EE482A08EE818AC2EE65
:109DB000081A15E011F0004F04BF9FED4C0AF0EEB9
:109DC000400AD1D010F0004F19BFDFED490A9FEDD6
:109DD000490ADFED490A9FED490AC5E7C8EE881A2E
:109DE00021EEA11A9FED462ADFED462A41EE022A16
:109DF0009FED452A01EE222ADFED442A41EE022A98
:109E00009FED432ABDEC048B01EE222A21EE811A3C
:109E100001EE020A30EE210A30EE200A70BD4FF04A
:109E20007F42B2EB400F28BFB2EB410F09D2F0EEF8
:109E3000480AB0EE680ABDEC048BBDE8704000F043
:109E400070B840EA01035B0008BF41F0FF410BD04E
:109E5000B2EB400F08BFB2EB410F08D120F08040B9
:109E600008EE900A21F0804108EE101A18E7B2EBD4
:109E7000400F12BF5FEA410340F0FF4001F0004194
:109E80003FF40EAFB2EB410F12BF5FEA400200F0A9
:109E9000004041F0FF413FF403AF4A0092EA400323
:109EA0003FF5FEAE002AACBF9FED1A0A9FED1A0ADD
:109EB00068EE808A28EE008A18EE900A18EE101AD2
:109EC000EEE60000DB0FC9BFDB0FC93FDB0F4940E7
:109ED000DB0F49C00000C9BF22AAFDB90000C93F7D
:109EE00022AAFD390060ED3EC30ACE370000000013
:109EF000000049C022AA7DBA0000494022AA7D3A4A
:109F00002DAD65BD8FB8D53D0FB511BE61C84C3EB6
:109F1000A8AAAABE0000804F0000802F30EE000AE1
:109F2000704730EE200A7047DFED020A80EEA00A8B
:109F300070470000000000009FED020A20EE000ABA
:109F4000704700000000001010B5B0EE401A9FED01
:109F50002C0A002852D00278012A07D0C288028138
:109F6000F0EE400AC0ED030A01220270B0F90620AB
:109F7000B0F908309A4207DAA2EB03040C4400EE71
:109F8000104AB8EEC00A08E007DDA2EB0304A4EB18
:109F9000010400EE104AB8EEC00AA2EB030300EE83
:109FA000903AF8EEE00A0281B0EEC02ADFED151A11
:109FB000F0EEE02AB4EEE22AF1EE10FA0EDD00EE49
:109FC000101AB8EE400A20EE010A80EE801A90EDD9
:109FD000030A01EE210A80ED030A0DE000EE901A5B
:109FE000F8EE600A20EE811AC0EE010A90ED030A35
:109FF00000EEA10A80ED030A90ED030A10BD0000F7
:10A00000000000000000B44310B504462DED048BA1
:10A01000B0EE408AF0EE608A2046FCF7C5F994F86D
:10A0200046009FED5B9A38B1E16C20468847B0EE60
:10A03000490ABDEC048B10BD84ED018AC4ED028A8F
:10A04000D4ED041AC4ED051A94ED031A84ED041A34
:10A0500038EE680A84ED030A94ED0E2AF0EEC00A89
:10A06000F4EEC20AF1EE10FA04DB2078012802D0E7
:10A07000022853D089E094ED0C2AB5EEC02AF1EE07
:10A0800010FA06D0D4ED060A70EE800AC4ED060A76
:10A0900001E084ED069AD4ED061AD4ED0F0AF4EE31
:10A0A000E01AF1EE10FA02DDC4ED060A08E0F1EE66
:10A0B000600AF4EEE01AF1EE10FA01D2C4ED060ADD
:10A0C000D4ED0B0A60EE800AC4ED070AD4ED061A3F
:10A0D00062EE211AC4ED081A30EE410A94ED0D1A11
:10A0E00020EE010A84ED090A70EEA10A30EE800A22
:10A0F00084ED0A0AD4ED100AB4EEE00AF1EE10FA8B
:10A1000002DDC4ED0A0A40E0F1EE600AB4EEE00AB6
:10A11000F1EE10FA39D2C4ED0A0A36E070EE410AC7
:10A1200094ED0B2A60EE820AC4ED070A94ED0C2A26
:10A1300022EE002A84ED082AF0EE002A01EE620ADF
:10A1400094ED0D1A30EE210A20EE010A84ED090A81
:10A1500070EE820A30EE800AD4ED0A0A30EE200A50
:10A1600084ED0A0AD4ED100AB4EEE00AF1EE10FA1A
:10A1700002DDC4ED0A0A08E0F1EE600AB4EEE00A7E
:10A18000F1EE10FA01D2C4ED0A0A94ED0A0A50E782
:10A1900000000000F0EE401A30EEE12A30EEE10A55
:10A1A000B5EEC02A31EE800AF1EE10FA07DDB4EE0A
:10A1B000C12AF1EE10FA01DD31EE810A7047F1EEAD
:10A1C000410AB4EEE02AF1EE10FAF7D231EEC10AFC
:10A1D000704731EE601A0121814070EE600A491E1D
:10A1E00000EE101AB8EEC00A20EE800AC0EE010A96
:10A1F000BDEEE00A10EE100A7047000010B50346ED
:10A200001046002B01D0084C0AE04FF6FF7010BD3D
:10A2100013F8012B4240D2B234F8122082EA102007
:10A22000491E4A1CF4D110BDBAB70008EFF30580EF
:10A23000002801D00120704700207047F8F78CFFFC
:10A24000FDF738F8FBF76AFDFBF7E0FCFBF700FED3
:10A25000FBF756FEFBF720FEFBF790FCFBF7B2FC8A
:10A26000FBF7B6FEFBF798FEFBF7D0FEFBF776FC9C
:10A27000FBF70AFD00F017F8FEE7014600208429ED
:10A2800000D0C81C704710B5002800D1012000F094
:10A29000F9FB002010BD10B5002900D1012100F00C
:10A2A00019FC002010BD10B500F060FC002010BDAE
:10A2B00010B5FFF7BBFF18B1BDE8104000F0D2BDEC
:10A2C000BDE8104000F0C8BD7FB504460D46616989
:10A2D000B4F90800002910D0A16971B1FFF7CDFFD2
:10A2E000D4E90521CDE901210090D4E900102B46E5
:10A2F000226900F083FD039010E0FFF7BEFF03A981
:10A30000CDE90001208A2B4682B2D4E9001000F08A
:10A3100043FD012802D0002004B070BD0398FBE784
:10A320009FED1C0AD0ED081A90ED091AB0EE002A34
:10A3300071EEC10AF4EEC11AF1EE10FA06D291EDF7
:10A34000001AB0EE600A01EE020A06E005DD91EDAA
:10A35000001AB0EE600A01EE420AB0EE601AC0EDDB
:10A36000091AF0EEC12ADFED0C1AD0ED040AB0EEA6
:10A37000C02AB4EEE22AF1EE10FA04DD41EE210A21
:10A38000C0ED040A03E040EE210AC0ED040A90ED9E
:10A39000040A704700000000E12E65422DE9F041FB
:10A3A00004460F46194EF5683168002081F85200C6
:10A3B0003068001D00F071FA38B9306890F82C1040
:10A3C00001208840316981433161601C07D137B178
:10A3D0003168BDE8F041091D0D4800F0A3BA2C44D6
:10A3E00030684460AC4206D23168B06B091DBDE8EC
:10A3F000F04100F07FBA3168706B091D00F07AFA05
:10A40000B06A844200D2B462BDE8F08170090020D5
:10A410003421002070B5044600F090FA1C4DA86865
:10A42000401CA860286810B1686938B10CE02C6045
:10A43000A868012808D100F0FFF805E02868E16A63
:10A44000C06A884200D82C60686A401C6862E06A72
:10A4500001212A698140114329610E4900EB8000E6
:10A4600001EB8000211D00F05DFA00F087FA6869B9
:10A4700000280CD02868E16AC06A884207D20649E1
:10A480004FF080500860BFF34F8FBFF36F8F70BDE8
:10A49000700900205820002004ED00E070B50C4D3C
:10A4A0000C4E11E000F04AFAF068C468201D00F07C
:10A4B000F4F9A868401EA8606868401E686000F053
:10A4C0005DFA204600F008F868680028EAD170BDFF
:10A4D000700900202021002010B5044694F8510096
:10A4E00000280BD0012811D0022814D0502080F36E
:10A4F0001188BFF34F8FBFF36F8FFEE7206B00F023
:10A5000053FA2046BDE8104000F04EBA2046BDE8A0
:10A51000104000F049BA10BD4FF4C0410F48420747
:10A5200006D0C01D20F007000C49411AC1F5C041FA
:10A530000B4A1060002353600144083921F00701E1
:10A54000183A11604B600B600B1A43600160406861
:10A55000906050604FF000405061704748210020EB
:10A56000C4090020074E4FF08054074DFFF796FFB7
:10A5700030680128FAD92C60BFF34F8FBFF36F8F7B
:10A58000F4E700005820002004ED00E02DE9F05F22
:10A590008246DDE90A590C9C0E4617469B46B900D7
:10A5A000A522206BF6F701F8206B7F1E00EB8700D9
:10A5B00020F00707780707D0502080F31188BFF3F9
:10A5C0004F8FBFF36F8FFEE74FF0000866B100209A
:10A5D0002218315C82F83410315C11B1401C102813
:10A5E000F6D384F8438001E084F83480072D00D34B
:10A5F0000625E5626564C4F84880201D00F077F9FF
:10A6000004F1180000F073F92461C5F10700A0619E
:10A610006462C4F84C8084F8508084F852805A46B2
:10A620005146384600F0F4F82060B9F1000F01D02F
:10A63000C9F80040BDE8F09F70B50024124D04EB4E
:10A64000840005EB800000F047F9641C072CF6D36A
:10A650000D488C3000F040F90B48A03000F03CF978
:10A660000948B43000F038F90748C83000F034F930
:10A670000548DC3000F030F9034904488C3141636F
:10A680001431816370BD0000582000207009002043
:10A6900030B5134900E011460A688242FBD34B688B
:10A6A0005C18844203D140681844486008460D682D
:10A6B00044682318AB420DD1094B183B1B689A42E2
:10A6C00006D05268224442600A681268026002E0C2
:10A6D000036000E00260814200D0086030BD0000ED
:10A6E000C40900200748416B0968002905D0416B67
:10A6F000C968C9684968816270474FF0FF3181625B
:10A70000704700007009002009484068401C07D0CD
:10A71000502080F31188BFF34F8FBFF36F8FFEE798
:10A72000502080F31188BFF34F8FBFF36F8FFEE788
:10A73000CC0900202DE9F0410546002600F05AFA28
:10A74000324F386808B9FFF7E7FE786905424DD106
:10A750008DB1083568070ED005F00700C0F108007C
:10A760000544680707D0502080F31188BFF34F8F4E
:10A77000BFF36F8FFEE7CDB37868854236D82349A3
:10A7800018310846046801E0214604466068A84282
:10A7900002D220680028F7D13868844226D00E689B
:10A7A0000836206808606068411B10290ED96019BE
:10A7B000420707D0502080F31188BFF34F8FBFF3BB
:10A7C0006F8FFEE741606560FFF762FF6168786840
:10A7D000401A7860BA68904200D2B8607869014344
:10A7E000616000202060F868401CF86000F0AAFB5F
:10A7F000700707D0502080F31188BFF34F8FBFF34D
:10A800006F8FFEE73046BDE8F0810000AC09002004
:10A8100024384FF08073036221F00101C1610449C3
:10A82000816142606FF0020140F82019704700001A
:10A8300009A7000810B500EE100A2DED028BB1EE4D
:10A84000C08A18EE100A20F00040C0F1FF40C00F8F
:10A850000AD010EE100A20F00040C0F1FF40C00FF7
:10A8600004BF0120F5F774FF18EE100ABDEC028B4F
:10A8700010BD70EEC00A01EE100A01208840B8EE4B
:10A88000C11A401E21EE201A00EE900AF8EEE01ADE
:10A89000C1EE210A30EE800A70470169D0E9013229
:10A8A0009A60D0E901235A604A68824201D18268E5
:10A8B0004A60002202610868401E0860086870470C
:10A8C000044B036003F1540008604FF48070106083
:10A8D00070470000CC17002000F1080141604FF0E4
:10A8E000FF328260C1600161002101607047002178
:10A8F0000161704730B50C68621C02D000F108029B
:10A9000002E0026904E01A4653681D68A542FAD9BC
:10A9100053684B6099608A60516008610168491C06
:10A92000016030BD42684A6093688B6093685960EB
:10A93000916008610168491C01607047502080F3F4
:10A940001188BFF34F8FBFF36F8F0A494868401CCF
:10A95000486001280CD10848006810F0FF0F07D0AC
:10A96000502080F31188BFF34F8FBFF36F8FFEE746
:10A9700070470000CC09002004ED00E00949486858
:10A98000002806D0401E4860002801D180F31188BD
:10A990007047502080F31188BFF34F8FBFF36F8F44
:10A9A000FEE70000CC09002070B500282AD0083846
:10A9B0000446154D60686969084207D1502080F34C
:10A9C0001188BFF34F8FBFF36F8FFEE722683AB154
:10A9D000502080F31188BFF34F8FBFF36F8FFEE7D6
:10A9E0008843606000F006F9606869680844686040
:10A9F0002046FFF74DFE2869401C2861BDE87040E5
:10AA000000F0A0BA70BD0000AC0900204FF0E020BB
:10AA100000210161816105494FF47A720968B1FB37
:10AA2000F2F1491E41610721016170476C09002064
:10AA300010B5F5F779FC114910280ED300F1E0208C
:10AA400090F8F0030A78904207D2502080F31188E2
:10AA5000BFF34F8FBFF36F8FFEE709480068896827
:10AA600000F4E060884207D9502080F31188BFF3DA
:10AA70004F8FBFF36F8FFEE710BD0000CC090020A1
:10AA80000CED00E010B502460020002A12D00F485D
:10AA9000006B38B1502080F31188BFF34F8FBFF3A4
:10AAA0006F8FFEE700F0A6F800211046FFF776FC56
:10AAB00000F048FA002807D105494FF0805008609F
:10AAC000BFF34F8FBFF36F8F10BD000070090020E0
:10AAD00004ED00E070B505460E460023002D0BD0B6
:10AAE00096B1204A106BB8B1502080F31188BFF3A3
:10AAF0004F8FBFF36F8FFEE7502080F31188BFF3B5
:10AB00004F8FBFF36F8FFEE7502080F31188BFF3A4
:10AB10004F8FBFF36F8FFEE700F06CF8D2682C68A0
:10AB2000A119944205D98C4208D9914206D9012332
:10AB300004E08C4201D8914200D9012329601BB165
:10AB4000881A0021FFF72AFC00F0FCF9002807D141
:10AB500005494FF080500860BFF34F8FBFF36F8FF0
:10AB600070BD00007009002004ED00E010B586B053
:10AB700000240594049403AA04A905A8FFF7A0FEE5
:10AB8000DDE90410CDE900410290002315A117482A
:10AB9000039A00F033F91649C86208B1012000E0B9
:10ABA0000020012809D0401C19D1502080F31188C1
:10ABB000BFF34F8FBFF36F8FFEE7502080F31188F4
:10ABC000BFF34F8FBFF36F8F4FF0FF3088620120CC
:10ABD0004861CC6006B0BDE8104000F063B806B034
:10ABE00010BD000049444C450000000065A5000868
:10ABF000700900200248016B491C01637047000086
:10AC000070090020154A106B002802D00120D06185
:10AC100070470020D0611069B0FA80F0C0F11F00C9
:10AC20000F4900EB800051F8203073B101EB800038
:10AC300041684968416000F10803994201D14968BF
:10AC400041604068C06810607047502080F31188F0
:10AC5000BFF34F8FBFF36F8FFEE700007009002036
:10AC60005820002030B505460C46002D01D0022C9E
:10AC700001D8002030BD0A48A11E02882846FFF7EF
:10AC8000BDFA2919C2B211F8023C9A4206D111F854
:10AC9000011CB1EB102F01D1012030BD002030BDCF
:10ACA000980200201CB537480168374A914207D105
:10ACB000502080F31188BFF34F8FBFF36F8FFEE7F3
:10ACC00000683149491E884207D1502080F311881D
:10ACD000BFF34F8FBFF36F8FFEE72C4908780190C9
:10ACE000FF200870087800909DF800009DF8002073
:10ACF00000F0F000904207D0502080F31188BFF39D
:10AD00004F8FBFF36F8FFEE79DF80000204C00F0DF
:10AD1000500020700720A06006E0A068401EA060E0
:10AD20009DF80000400000909DF800000006F4D45B
:10AD3000A068032807D0502080F31188BFF34F8FFD
:10AD4000BFF36F8FFEE74FF44070A060019808706A
:10AD50000C482030016841F470010160016841F045
:10AD600070410160FFF752FE00206060F5F7A4FA21
:10AD70000848016841F040410160F5F789FA002078
:10AD80001CBD000000ED00E071C20F4100E400E0D6
:10AD9000CC09002034EF00E02DE9FF5F8146DDE9BA
:10ADA0000E788A4616469B46B000FFF7C3FC054660
:10ADB00028000AD05420FFF7BDFC04460CB12563DF
:10ADC00004E02846FFF7F0FD00E000249CB10020DD
:10ADD00084F85100CDE90240CDE900785B46324667
:10ADE00051464846FFF7D2FB2046FFF713FB0120F0
:10ADF00004B0BDE8F09F4FF0FF30F9E7F0B585B043
:10AE00000746DDE90A600C9C002815D0E4B1542502
:10AE100003952063022084F85100002004ADCDE9A1
:10AE20000240CDE900653846FFF7B0FB2046FFF74A
:10AE3000F1FA049805B0F0BD502080F31188BFF3FB
:10AE40004F8FBFF36F8FFEE7502080F31188BFF361
:10AE50004F8FBFF36F8FFEE70148C0687047000057
:10AE60007009002010B5FFF7E3FD0148C06810BD70
:10AE7000700900202DE9F0410026304F386B002882
:10AE800005D0B869401CB8613046BDE8F081FD6866
:10AE90006D1CFD609DB9786B006838B1502080F35F
:10AEA0001188BFF34F8FBFF36F8FFEE7786BB96BDD
:10AEB0007963B863386A401C3862FFF713FCB86ADC
:10AEC000DFF87C8085420DD3786B006838B1786BF1
:10AED000C068C4686068854212D2B86202E04FF070
:10AEE000FF30B8623868C06A00EB800058F8200074
:10AEF000012800D90126F8690028C5D00126C3E73A
:10AF0000201DFFF7CAFCA06A18B104F11800FFF772
:10AF1000C4FCE06A01213A6981401143396100EBC8
:10AF2000800008EB8000211DFFF7FCFCE06A396817
:10AF3000C96A8842C8D30126C6E70000700900200C
:10AF4000582000202DE9F041002400272D4D286BCA
:10AF5000002807D0FFF7F2FC286B401E2863286BFF
:10AF600040B14AE0502080F31188BFF34F8FBFF308
:10AF70006F8FFEE7A868E8B3DFF88C8001261EE03B
:10AF8000D8F80C00C46804F11800FFF786FC201DF7
:10AF9000FFF783FCE06A2A6906FA00F11143296190
:10AFA000194900EB8000B43901EB8000211DFFF747
:10AFB000B9FCE06A2968C96A884200D3EE61D8F812
:10AFC00000000028DCD10CB1FFF78CFBAC6944B168
:10AFD000FFF750FF00B1EE61641E002CF8D1002095
:10AFE000A861E86930B10127084938070860BFF354
:10AFF0004F8F00E001E0BFF36F8FFFF7BFFC3846D3
:10B00000BDE8F081700900200C21002004ED00E073
:10B0100021F00042A2F16052B2F5801F01F000431E
:10B0200028BFD2F17F6C0BD95FEA001C43EAC20251
:10B0300042EB507018BF704728BF20F001007047E6
:10B04000B2F5801FBCBF184670474FEA410C1CF593
:10B05000001F02D2084600F02BBB70B500F074F957
:10B0600000000089FFF7F6BF4FF00040A0F5800018
:10B070007047000010B591EA030F48BF83F000430A
:10B0800000F1BE81841A71EB030C05D2121943EB57
:10B090000C03001B61EB0C01DFF824E14FEA1154B3
:10B0A000A4EB135C1EEA430F18BF9EEA445F73D003
:10B0B00023EA0E03DCF1200E21EA045143F480134D
:10B0C00032D322FA0CFE10EB0E0023FA0CFE41EBF9
:10B0D0000E01CCF1200E03FA0EFE10EB0E0051F122
:10B0E0000001B1F5801FCCF1200E32D201EB0451EA
:10B0F00012FA0EF2BDE8104058BF7047401C38BF2E
:10B100005FEA420218BF7047002814BF20F0010018
:10B1100041F100014FEA410313F5001F38BF7047AA
:10B12000A1F1C04100F05EB9012A43EB0302ACF18A
:10B13000200CDCF11F0E32BF4FF0000E23FA0CF38F
:10B1400010EB030041EB0451B4EB115FD0D0A1EB45
:10B15000045101F5801149085FEA300001EB045108
:10B160000ED350F1000038BF12FA0EFE08D1BDE830
:10B170001040C9E7401C38BF5FEA4202CAD1C3E7AA
:10B18000BDE810404FEA410313F5001F38BF704778
:10B19000A1F1C04100F026B99EEA445F08D011EA4F
:10B1A0005E0FBDE8104004BF01F000410020704771
:10B1B000BDE8104070B500F0C7F800BF64FBBE3EAC
:10B1C0000000E0FF10F0004248BF4042B0FA80F3B8
:10B1D00010FA03F10AD0C3F11D0303F580634FEAAF
:10B1E000415002EB035202EBD12170474FF00000B7
:10B1F00070470000DFF848C170B51CEA111E1EBF81
:10B200001CEA13159EEA0C0F95EA0C0F00F06F80F4
:10B2100081EA030423EA4C134EEAD47E21EA4C115E
:10B2200041F4801143F48013AE44A1FB024CA0FB17
:10B230000365AEF17F7E361955EB0C05A1FB034C7F
:10B240004CF10003A0FB021C16EB0C06654153F108
:10B250000003094218BF46F0010613F4007F0BD12A
:10B260004FEA03314FEA0530340341EA155140EA11
:10B2700016506FF003020AE04FEAC3214FEAC520DF
:10B28000F40241EA555140EA56506FF0020202EBD7
:10B290002E4201EB025585EACE710AD05FEA440CDA
:10B2A00018BF24F0004450F1000041F1000120EAF1
:10B2B000D47040F2FE7C624500D270BDA84214BF3B
:10B2C0004FF080444FF04044002E08BF0024BEF1F0
:10B2D000806FA8BFA1F1C041BDE8704080F28280BC
:10B2E0004FF0000001F1C04101F0004170479EEABB
:10B2F0000C0F0CEA131518BF95EA0C0F06D04FF08F
:10B30000000081EA030E0EF0004170BD00F01CF851
:10B310008900013E00F007B800F009B84FEA430C7D
:10B320005FEA5C5C08D081EA030100F05BB84FEA99
:10B33000410C5FEA5C5CF6D14FF0000001497047B8
:10B340000000FF070000F87F0EF1020E2EF0030E42
:10B350005EF8046B364205D4012A43EB030515F56C
:10B36000001F12D8012841EB010C1CF5001F0CD85E
:10B370000ED14FEAD17C15F5001F0CEB4C0C0CF1F3
:10B38000020C08BF4CEBD37C04E04FF0080C01E04A
:10B390004FEAD37C0CEB4C0526FA05F606F00706BF
:10B3A000B6F1040C06D20EEB860CBDE870404CF0F2
:10B3B000010C6047DFE80CF0090B02024FF000417E
:10B3C0004FF00000A1F5002170BD1946104601287C
:10B3D00051EB010418BFD4F5001484BF002001F024
:10B3E000004170BD0808A0F500114FEA3101704717
:10B3F00010B591EA030F48BF83F000433FF542AE1A
:10B40000841A71EB030C07D212198CF0004C43EB39
:10B410000C03001B61EB0C01DFF8A4E14FEA1154AF
:10B42000A4EB135C1EEA430F18BF9EEA445F00F0D2
:10B43000B08023EA6E03524221EA0451C3EB6E034B
:10B4400038BF5B1EDCF1200E25D322FA0CFE10EB78
:10B450000E0043FA0CFE41EB0E01CCF1200E03FA74
:10B460000EFE10EB0E0051F10001CCF1200E29D49C
:10B4700012FA0EF201EB0451BDE8104058BF7047BC
:10B48000401C1CBFB2F1004F704700280CBF491C84
:10B4900020F00100704712EB020E43EB030218BFCD
:10B4A0004FF0010E4EEA4202ACF1200CDCF11E0E10
:10B4B00054D943FA0CFE10EB0E0051F1FF31CCF1E0
:10B4C0001E0ED5D50EF1010E12FA0EFE404141EBD3
:10B4D000010101EB445C5FEA5C5C10D910EBDE70AB
:10B4E00001EB045138BFBEF1004FBDE8104018BF5A
:10B4F000704700280CBF491C20F00100704730D273
:10B500004FEAD42C11F5001124F400641BD0B1FAD9
:10B5100081F20B3AA41AA41ED2F12003914030FA12
:10B5200003F31943904001EBCC71002C01EB045163
:10B53000BDE81040A8BF704701F1C0414FF00000C6
:10B5400001F000417047B0FA80F310FA03F100D126
:10B5500010BDE41A173C4805C90AE4E701EB0451A1
:10B5600010BD491001EB0451BDE810404FEA300016
:10B5700002E04FF0000170474A0008BF0042F8D0D7
:10B58000B2F5001F28BF704701F000414FF00000E6
:10B5900070479EEA445F07D011EA5E0FBDE8104095
:10B5A00004BF002100207047BDE8104070B5FFF7D0
:10B5B000CBFE00BF40DFF63E83F0004110467047EF
:10B5C0000000E0FF43004FEAD30C4FEA3C0C43403D
:10B5D0001FBF40070CF1605113F0FE4F70471CF085
:10B5E000006F03D100200CF0004170470CF00043C5
:10B5F00043EA507010B540EACC0000F00EF800BFEE
:10B60000000000924FEA0001FFF7ECBE4FF000414E
:10B610004FF00000A1F5002170470EF1020E2EF050
:10B62000030E5EF8044B244204D44FEA4102B2F107
:10B630007F4F11D84FEA4003B3F17F4F0CD80ED1A2
:10B640004FEAD07CB2F17F4F0CEB4C0C0CF1020CAA
:10B6500008BF4CEBD17C04E04FF0080C01E04FEA4E
:10B66000D17C0CEB4C0324FA03F404F00704B4F18E
:10B67000040C06D20EEB840CBDE810404CF0010C1B
:10B680006047DFE80CF0070802024FF00040A0F529
:10B69000800010BD0846420018BFD2F1807288BFFA
:10B6A00000F0004010BD4FF04070E1EE100A70470E
:10B6B000FF2141EAD050C0057047005EBCE2613F07
:10B6C000DD83C29C7E20A3FD1F419DC3217FFCA280
:10B6D000401E5F01E3BD3E6082DC237D9FC1421CB2
:10B6E000FEA0E1BF5D0380DE3C62BEE0025CDF8164
:10B6F000633D7C22C09E1D43A1FF4618FAA4277912
:10B700009BC584DA3866E5BB5907DB856739BAE43F
:10B7100006581947A5FB7826C49A653BD987045A71
:10B72000B8E6A7F91B45C6987A24F8A6441A99C723
:10B73000257B3A6486D85B05E7B98CD2306EEDB3D1
:10B74000510F4E10F2AC2F7193CD114FADF3702EFF
:10B75000CC92D38D6F31B2EC0E50AFF1134DCE9031
:10B76000722C6D33D18F0C52B0EE326C8ED0530DE3
:10B77000EFB1F0AE4C1291CF2D73CA947628ABF591
:10B7800017490856B4EA6937D58B5709EBB53668BF
:10B790008AD495CB2977F4AA4816E9B7550B88D6F1
:10B7A000346A2B7597C94A14F6A8742AC896154BA3
:10B7B000A9F7B6E80A54D7896B350000891112231E
:10B7C0009B322446AD573665BF74488CC19D5AAF35
:10B7D000D3BE6CCAE5DB7EE9F7F88110080193332C
:10B7E0001A22A5562C47B7753E64C99C408DDBBF15
:10B7F00052AEEDDA64CBFFF976E802218B3010020D
:10B8000099132667AF763444BD554AADC3BC588EF4
:10B81000D19F6EEBE7FA7CC8F5D983310A209112EB
:10B820001803A7772E66B5543C45CBBD42ACD99ED4
:10B83000508FEFFB66EAFDD874C904428D53166140
:10B840009F702004A9153227BB364CCEC5DF5EEDB4
:10B85000D7FC6888E1997AABF3BA85520C439771AB
:10B860001E60A1142805B3373A26CDDE44CFDFFD94
:10B8700056ECE9986089FBBB72AA06638F7214408C
:10B880009D512225AB343006B9174EEFC7FE5CCC74
:10B89000D5DD6AA9E3B8788AF19B87730E6295506B
:10B8A0001C41A3352A24B1163807CFFF46EEDDDC54
:10B8B00054CDEBB962A8F99A708B088481951AA7C8
:10B8C00093B62CC2A5D33EE1B7F04008C919522B5C
:10B8D000DB3A644EED5F766DFF7C899400859BB703
:10B8E00012A6ADD224C3BFF136E0C1184809D33B3C
:10B8F0005A2AE55E6C4FF77D7E6C0AA583B41886E4
:10B9000091972EE3A7F23CC0B5D14229CB38500A1B
:10B91000D91B666FEF7E744CFD5D8BB502A49996C2
:10B920001087AFF326E2BDD034C1C3394A28D11AFB
:10B93000580BE77F6E6EF55C7C4D0CC685D71EE517
:10B9400097F42880A1913AA3B3B2444ACD5B5669DB
:10B95000DF78600CE91D722FFB3E8DD604C79FF582
:10B9600016E4A9902081BBB332A2C55A4C4BD779BB
:10B970005E68E11C680DF33F7A2E0EE787F61CC463
:10B9800095D52AA1A3B03882B193466BCF7A54489B
:10B99000DD59622DEB3C700EF91F8FF706E69DD442
:10B9A00014C5ABB122A0B9923083C77B4E6AD5587B
:10B9B0005C49E33D6A2CF11E780F000084BA000850
:10B9C0008552000803000000000000000001000094
:10B9D0000000000000000000B4BA0008DF99000871
:10B9E0000300000000000000000100000000000053
:10B9F00000000000C4BA00081D2300080300000076
:10BA00000000000000010000000000000000000035
:10BA1000A4BA0008CD1200080300000000000000D6
:10BA2000000100000000000000000000D4BA00087F
:10BA3000051F0008FDFF00000000000000010000DD
:10BA4000000000000000000094BA00085D730008C8
:10BA500003000000000000000001000000000000E2
:10BA600000000000000000000000000001020304CC
:10BA70000607080900000000010203040006101672
:10BA8000000610165374617274494E535461736BFF
:10BA900000000000537461727453797374656D54BF
:10BAA00061736B00537461727441726D5461736B96
:10BAB000000000005374617274566973696F6E54AC
:10BAC00061736B005374617274446574656374547C
:10BAD00061736B005374617274436861737369734B
:10BAE0005461730004BB000800000020D80A000065
:10BAF000C4010008E0BC0008D80A0020B0D2000051
:10BB000020020008200D5AF8F63F5D896EBFD5A9C6
:10BB1000183B031A803F09711C08081250C347CD17
:10BB2000CCCC3D0409531C110B1AC8421C19042229
:10BB300044E3A0411AFA145A20141A202469148BE1
:10BB400048431063A040137A458C80BB45181159B7
:10BB50003819301C401C46281980BB4C3E5C2440E0
:10BB60001C470A10F0743930FB704130111AFA602A
:10BB70005A40309A48901AE190DE40C19A991930A3
:10BB80001994012F0A2D0818013423FFFF100D33DB
:10BB900033EB3A58A08B3A7D04017C100F0240AB86
:10BBA000034101055308065804070F1608108109C0
:10BBB00011160A15800B1606330C18010DA542014B
:10BBC0001A0208190401711264EA40880A85028881
:10BBD0000A8503880A7D04884132A00237E01CF9F7
:10BBE0000F494C1AC00403591041CA68B032A10A67
:10BBF000A9E1B032A20AA5E2B0320132B00A3BF0AC
:10BC0000B01A70AC0B662042B032B10AA5F1B04157
:10BC100032B20A3BF2B01A40B01A10040157CA649B
:10BC2000B0E1031D01FA036124F41AAA01398A3133
:10BC30007210135D801B089D041AA9041AD1041305
:10BC40000D811B082D081A69041704030904120149
:10BC5000140202021640830440571D020102033DF4
:10BC6000031A1A0313C51C1B08C1041AB9041AE9E4
:10BC70000413091D420814810182130A0632022AA4
:10BC800040801C0902434F111DC0320904911A0261
:10BC90000B130524161001052401100901042402C8
:10BCA00002052406170107058203081C10090485F4
:10BCB000320A2E0705010240072A81071113557C1D
:10BCC0001408C57A4C08457E641B597BC019101AAC
:10BCD0008504C11AD9181A9D041A19301A9108003E
:040000050800018965
:00000001FF
