Component: ARM Compiler 5.06 update 7 (build 960) Tool: armlink [4d3601]

==============================================================================

Section Cross References

    api_quaternion.o(i.QuaternionEKF_A_Update) refers to rt_memclr_w.o(.text) for __aeabi_memclr4
    api_quaternion.o(i.QuaternionEKF_A_Update) refers to api_quaternion.o(i.Fast_InverseSqrt) for Fast_InverseSqrt
    api_quaternion.o(i.QuaternionEKF_ChiSqrtTest) refers to arm_mat_mult_f32.o(.text.arm_mat_mult_f32) for arm_mat_mult_f32
    api_quaternion.o(i.QuaternionEKF_ChiSqrtTest) refers to arm_mat_trans_f32.o(.text.arm_mat_trans_f32) for arm_mat_trans_f32
    api_quaternion.o(i.QuaternionEKF_ChiSqrtTest) refers to rt_memcpy_w.o(.text) for __aeabi_memcpy4
    api_quaternion.o(i.QuaternionEKF_H_Update) refers to rt_memclr_w.o(.text) for __aeabi_memclr4
    api_quaternion.o(i.QuaternionEKF_Init) refers to kalman.o(i.Kalman_Filter_Init) for Kalman_Filter_Init
    api_quaternion.o(i.QuaternionEKF_Init) refers to rt_memcpy_w.o(.text) for __aeabi_memcpy4
    api_quaternion.o(i.QuaternionEKF_Init) refers to api_quaternion.o(i.QuaternionEKF_A_Update) for QuaternionEKF_A_Update
    api_quaternion.o(i.QuaternionEKF_Init) refers to api_quaternion.o(i.QuaternionEKF_H_Update) for QuaternionEKF_H_Update
    api_quaternion.o(i.QuaternionEKF_Init) refers to api_quaternion.o(i.QuaternionEKF_xhat_Update) for QuaternionEKF_xhat_Update
    api_quaternion.o(i.QuaternionEKF_Update) refers to api_quaternion.o(i.Fast_InverseSqrt) for Fast_InverseSqrt
    api_quaternion.o(i.QuaternionEKF_Update) refers to rt_memcpy_w.o(.text) for __aeabi_memcpy4
    api_quaternion.o(i.QuaternionEKF_Update) refers to kalman.o(i.Kalman_Filter_Update) for Kalman_Filter_Update
    api_quaternion.o(i.QuaternionEKF_Update) refers to atan2f.o(i.__hardfp_atan2f) for __hardfp_atan2f
    api_quaternion.o(i.QuaternionEKF_Update) refers to asinf.o(i.__hardfp_asinf) for __hardfp_asinf
    api_quaternion.o(i.QuaternionEKF_xhat_Update) refers to arm_mat_trans_f32.o(.text.arm_mat_trans_f32) for arm_mat_trans_f32
    api_quaternion.o(i.QuaternionEKF_xhat_Update) refers to arm_mat_mult_f32.o(.text.arm_mat_mult_f32) for arm_mat_mult_f32
==============================================================================

Removing Unused input sections from the image.

    Removing api_quaternion.o(.rev16_text), (4 bytes).
    Removing api_quaternion.o(.revsh_text), (4 bytes).
    Removing api_quaternion.o(.rrx_text), (6 bytes).
    Removing api_trajectory.o(.rev16_text), (4 bytes).
    Removing api_trajectory.o(.revsh_text), (4 bytes).
    Removing api_trajectory.o(.rrx_text), (6 bytes).
    Removing api_trajectory.o(i.SolveTrajectory_Transform), (960 bytes).
    Removing api_trajectory.o(i.SolveTrajectory_Update), (14 bytes).
    Removing api_trajectory.o(i.Trajectory_BulletModel), (180 bytes).
    Removing api_trajectory.o(i.Trajectory_Picth_Update), (184 bytes).
    Removing ins_task.o(.rev16_text), (4 bytes).
    Removing ins_task.o(.revsh_text), (4 bytes).
    Removing ins_task.o(.rrx_text), (6 bytes).
    Removing vision_task.o(.bss), (12 bytes).
    Removing vision_task.o(.data), (64 bytes).
    Removing arm_task.o(.rev16_text), (4 bytes).
    Removing arm_task.o(.revsh_text), (4 bytes).
    Removing arm_task.o(.rrx_text), (6 bytes).
==============================================================================

Image Symbol Table

    Local Symbols

    Symbol Name                              Value     Ov Type        Size  Object(Section)

    ../Core/Src/can.c                        0x00000000   Number         0  can.o ABSOLUTE
    ../Core/Src/dma.c                        0x00000000   Number         0  dma.o ABSOLUTE
    ../Core/Src/freertos.c                   0x00000000   Number         0  freertos.o ABSOLUTE
    ../Core/Src/gpio.c                       0x00000000   Number         0  gpio.o ABSOLUTE
    ../Core/Src/main.c                       0x00000000   Number         0  main.o ABSOLUTE
    ../Core/Src/spi.c                        0x00000000   Number         0  spi.o ABSOLUTE
    ../Core/Src/stm32f4xx_hal_msp.c          0x00000000   Number         0  stm32f4xx_hal_msp.o ABSOLUTE
    ../Core/Src/stm32f4xx_hal_timebase_tim.c 0x00000000   Number         0  stm32f4xx_hal_timebase_tim.o ABSOLUTE
    ../Core/Src/stm32f4xx_it.c               0x00000000   Number         0  stm32f4xx_it.o ABSOLUTE
    ../Core/Src/system_stm32f4xx.c           0x00000000   Number         0  system_stm32f4xx.o ABSOLUTE
    ../Core/Src/tim.c                        0x00000000   Number         0  tim.o ABSOLUTE
    ../Core/Src/usart.c                      0x00000000   Number         0  usart.o ABSOLUTE
    ../Drivers/STM32F4xx_HAL_Driver/Src/stm32f4xx_hal.c 0x00000000   Number         0  stm32f4xx_hal.o ABSOLUTE
    ../Drivers/STM32F4xx_HAL_Driver/Src/stm32f4xx_hal_can.c 0x00000000   Number         0  stm32f4xx_hal_can.o ABSOLUTE
    ../Drivers/STM32F4xx_HAL_Driver/Src/stm32f4xx_hal_cortex.c 0x00000000   Number         0  stm32f4xx_hal_cortex.o ABSOLUTE
    ../Drivers/STM32F4xx_HAL_Driver/Src/stm32f4xx_hal_dma.c 0x00000000   Number         0  stm32f4xx_hal_dma.o ABSOLUTE
    ../Drivers/STM32F4xx_HAL_Driver/Src/stm32f4xx_hal_dma_ex.c 0x00000000   Number         0  stm32f4xx_hal_dma_ex.o ABSOLUTE
    ../Drivers/STM32F4xx_HAL_Driver/Src/stm32f4xx_hal_exti.c 0x00000000   Number         0  stm32f4xx_hal_exti.o ABSOLUTE
    ../Drivers/STM32F4xx_HAL_Driver/Src/stm32f4xx_hal_flash.c 0x00000000   Number         0  stm32f4xx_hal_flash.o ABSOLUTE
    ../Drivers/STM32F4xx_HAL_Driver/Src/stm32f4xx_hal_flash_ex.c 0x00000000   Number         0  stm32f4xx_hal_flash_ex.o ABSOLUTE
    ../Drivers/STM32F4xx_HAL_Driver/Src/stm32f4xx_hal_flash_ramfunc.c 0x00000000   Number         0  stm32f4xx_hal_flash_ramfunc.o ABSOLUTE
    ../Drivers/STM32F4xx_HAL_Driver/Src/stm32f4xx_hal_gpio.c 0x00000000   Number         0  stm32f4xx_hal_gpio.o ABSOLUTE
    ../Drivers/STM32F4xx_HAL_Driver/Src/stm32f4xx_hal_pcd.c 0x00000000   Number         0  stm32f4xx_hal_pcd.o ABSOLUTE
    ../Drivers/STM32F4xx_HAL_Driver/Src/stm32f4xx_hal_pcd_ex.c 0x00000000   Number         0  stm32f4xx_hal_pcd_ex.o ABSOLUTE
    ../Drivers/STM32F4xx_HAL_Driver/Src/stm32f4xx_hal_pwr.c 0x00000000   Number         0  stm32f4xx_hal_pwr.o ABSOLUTE
    ../Drivers/STM32F4xx_HAL_Driver/Src/stm32f4xx_hal_pwr_ex.c 0x00000000   Number         0  stm32f4xx_hal_pwr_ex.o ABSOLUTE
    ../Drivers/STM32F4xx_HAL_Driver/Src/stm32f4xx_hal_rcc.c 0x00000000   Number         0  stm32f4xx_hal_rcc.o ABSOLUTE
    ../Drivers/STM32F4xx_HAL_Driver/Src/stm32f4xx_hal_rcc_ex.c 0x00000000   Number         0  stm32f4xx_hal_rcc_ex.o ABSOLUTE
    ../Drivers/STM32F4xx_HAL_Driver/Src/stm32f4xx_hal_spi.c 0x00000000   Number         0  stm32f4xx_hal_spi.o ABSOLUTE
    ../Drivers/STM32F4xx_HAL_Driver/Src/stm32f4xx_hal_tim.c 0x00000000   Number         0  stm32f4xx_hal_tim.o ABSOLUTE
    ../Drivers/STM32F4xx_HAL_Driver/Src/stm32f4xx_hal_tim_ex.c 0x00000000   Number         0  stm32f4xx_hal_tim_ex.o ABSOLUTE
    ../Drivers/STM32F4xx_HAL_Driver/Src/stm32f4xx_hal_uart.c 0x00000000   Number         0  stm32f4xx_hal_uart.o ABSOLUTE
    ../Drivers/STM32F4xx_HAL_Driver/Src/stm32f4xx_ll_usb.c 0x00000000   Number         0  stm32f4xx_ll_usb.o ABSOLUTE
    ../Middlewares/ST/STM32_USB_Device_Library/Class/CDC/Src/usbd_cdc.c 0x00000000   Number         0  usbd_cdc.o ABSOLUTE
    ../Middlewares/ST/STM32_USB_Device_Library/Core/Src/usbd_core.c 0x00000000   Number         0  usbd_core.o ABSOLUTE
    ../Middlewares/ST/STM32_USB_Device_Library/Core/Src/usbd_ctlreq.c 0x00000000   Number         0  usbd_ctlreq.o ABSOLUTE
    ../Middlewares/ST/STM32_USB_Device_Library/Core/Src/usbd_ioreq.c 0x00000000   Number         0  usbd_ioreq.o ABSOLUTE
    ../Middlewares/Third_Party/FreeRTOS/Source/CMSIS_RTOS/cmsis_os.c 0x00000000   Number         0  cmsis_os.o ABSOLUTE
    ../Middlewares/Third_Party/FreeRTOS/Source/croutine.c 0x00000000   Number         0  croutine.o ABSOLUTE
    ../Middlewares/Third_Party/FreeRTOS/Source/event_groups.c 0x00000000   Number         0  event_groups.o ABSOLUTE
    ../Middlewares/Third_Party/FreeRTOS/Source/list.c 0x00000000   Number         0  list.o ABSOLUTE
    ../Middlewares/Third_Party/FreeRTOS/Source/portable/MemMang/heap_4.c 0x00000000   Number         0  heap_4.o ABSOLUTE
    ../Middlewares/Third_Party/FreeRTOS/Source/portable/RVDS/ARM_CM4F/port.c 0x00000000   Number         0  port.o ABSOLUTE
    ../Middlewares/Third_Party/FreeRTOS/Source/queue.c 0x00000000   Number         0  queue.o ABSOLUTE
    ../Middlewares/Third_Party/FreeRTOS/Source/stream_buffer.c 0x00000000   Number         0  stream_buffer.o ABSOLUTE
    ../Middlewares/Third_Party/FreeRTOS/Source/tasks.c 0x00000000   Number         0  tasks.o ABSOLUTE
    ../Middlewares/Third_Party/FreeRTOS/Source/timers.c 0x00000000   Number         0  timers.o ABSOLUTE
    ../USB_DEVICE/App/usb_device.c           0x00000000   Number         0  usb_device.o ABSOLUTE
    ../USB_DEVICE/App/usbd_cdc_if.c          0x00000000   Number         0  usbd_cdc_if.o ABSOLUTE
    ../USB_DEVICE/App/usbd_desc.c            0x00000000   Number         0  usbd_desc.o ABSOLUTE
    ../USB_DEVICE/Target/usbd_conf.c         0x00000000   Number         0  usbd_conf.o ABSOLUTE
    ../clib/angel/boardlib.s                 0x00000000   Number         0  boardshut.o ABSOLUTE
    ../clib/angel/boardlib.s                 0x00000000   Number         0  boardinit1.o ABSOLUTE
    ../clib/angel/boardlib.s                 0x00000000   Number         0  boardinit2.o ABSOLUTE
    ../clib/angel/boardlib.s                 0x00000000   Number         0  boardinit3.o ABSOLUTE
    ../clib/angel/dczerorl2.s                0x00000000   Number         0  __dczerorl2.o ABSOLUTE
    ../clib/angel/handlers.s                 0x00000000   Number         0  __scatter_zi.o ABSOLUTE
    ../clib/angel/kernel.s                   0x00000000   Number         0  rtexit.o ABSOLUTE
    ../clib/angel/kernel.s                   0x00000000   Number         0  __rtentry.o ABSOLUTE
    ../clib/angel/kernel.s                   0x00000000   Number         0  rtexit2.o ABSOLUTE
    ../clib/angel/kernel.s                   0x00000000   Number         0  __rtentry2.o ABSOLUTE
    ../clib/angel/kernel.s                   0x00000000   Number         0  __rtentry4.o ABSOLUTE
    ../clib/angel/rt.s                       0x00000000   Number         0  rt_errno_addr.o ABSOLUTE
    ../clib/angel/rt.s                       0x00000000   Number         0  rt_errno_addr_intlibspace.o ABSOLUTE
    ../clib/angel/rt.s                       0x00000000   Number         0  rt_heap_descriptor.o ABSOLUTE
    ../clib/angel/rt.s                       0x00000000   Number         0  rt_raise.o ABSOLUTE
    ../clib/angel/rt.s                       0x00000000   Number         0  rt_heap_descriptor_intlibspace.o ABSOLUTE
    ../clib/angel/rt.s                       0x00000000   Number         0  aeabi_ldiv0_sigfpe.o ABSOLUTE
    ../clib/angel/rt.s                       0x00000000   Number         0  rt_div0.o ABSOLUTE
    ../clib/angel/rt.s                       0x00000000   Number         0  aeabi_ldiv0.o ABSOLUTE
    ../clib/angel/scatter.s                  0x00000000   Number         0  __scatter.o ABSOLUTE
    ../clib/angel/startup.s                  0x00000000   Number         0  __main.o ABSOLUTE
    ../clib/angel/sys.s                      0x00000000   Number         0  indicate_semi.o ABSOLUTE
    ../clib/angel/sys.s                      0x00000000   Number         0  sys_stackheap_outer.o ABSOLUTE
    ../clib/angel/sys.s                      0x00000000   Number         0  mutex_dummy.o ABSOLUTE
    ../clib/angel/sys.s                      0x00000000   Number         0  libspace.o ABSOLUTE
    ../clib/angel/sys.s                      0x00000000   Number         0  use_no_semi.o ABSOLUTE
    ../clib/angel/sysapp.c                   0x00000000   Number         0  sys_command.o ABSOLUTE
    ../clib/angel/sysapp.c                   0x00000000   Number         0  sys_wrch.o ABSOLUTE
    ../clib/angel/sysapp.c                   0x00000000   Number         0  sys_exit.o ABSOLUTE
    ../clib/armsys.c                         0x00000000   Number         0  _get_argv.o ABSOLUTE
    ../clib/armsys.c                         0x00000000   Number         0  argv_veneer.o ABSOLUTE
    ../clib/armsys.c                         0x00000000   Number         0  argv_veneer.o ABSOLUTE
    ../clib/armsys.c                         0x00000000   Number         0  _get_argv_nomalloc.o ABSOLUTE
    ../clib/armsys.c                         0x00000000   Number         0  no_argv.o ABSOLUTE
    ../clib/fenv.c                           0x00000000   Number         0  _rserrno.o ABSOLUTE
    ../clib/heap1.c                          0x00000000   Number         0  h1_free_mt.o ABSOLUTE
    ../clib/heap1.c                          0x00000000   Number         0  h1_alloc_mt.o ABSOLUTE
    ../clib/heap1.c                          0x00000000   Number         0  h1_final_mt.o ABSOLUTE
    ../clib/heap1.c                          0x00000000   Number         0  h1_final.o ABSOLUTE
    ../clib/heap1.c                          0x00000000   Number         0  h1_extend.o ABSOLUTE
    ../clib/heap1.c                          0x00000000   Number         0  h1_alloc.o ABSOLUTE
    ../clib/heap1.c                          0x00000000   Number         0  h1_init_mt.o ABSOLUTE
    ../clib/heap1.c                          0x00000000   Number         0  h1_extend_mt.o ABSOLUTE
    ../clib/heap1.c                          0x00000000   Number         0  h1_init.o ABSOLUTE
    ../clib/heap1.c                          0x00000000   Number         0  h1_free.o ABSOLUTE
    ../clib/heap2.c                          0x00000000   Number         0  heap2.o ABSOLUTE
    ../clib/heap2.c                          0x00000000   Number         0  fdtree.o ABSOLUTE
    ../clib/heap2.c                          0x00000000   Number         0  heap2mt.o ABSOLUTE
    ../clib/heapalloc.c                      0x00000000   Number         0  maybetermalloc1.o ABSOLUTE
    ../clib/heapalloc.c                      0x00000000   Number         0  maybetermalloc2.o ABSOLUTE
    ../clib/heapalloc.c                      0x00000000   Number         0  free.o ABSOLUTE
    ../clib/heapalloc.c                      0x00000000   Number         0  term_alloc.o ABSOLUTE
    ../clib/heapalloc.c                      0x00000000   Number         0  init_alloc.o ABSOLUTE
    ../clib/heapalloc.c                      0x00000000   Number         0  hguard.o ABSOLUTE
    ../clib/heapalloc.c                      0x00000000   Number         0  maybetermalloc1.o ABSOLUTE
    ../clib/heapalloc.c                      0x00000000   Number         0  malloc.o ABSOLUTE
    ../clib/heapalloc.c                      0x00000000   Number         0  hrguard.o ABSOLUTE
    ../clib/heapalloc.c                      0x00000000   Number         0  maybetermalloc2.o ABSOLUTE
    ../clib/heapalloc.c                      0x00000000   Number         0  heapstubs.o ABSOLUTE
    ../clib/heapaux.c                        0x00000000   Number         0  heapauxi.o ABSOLUTE
    ../clib/heapaux.c                        0x00000000   Number         0  heapauxa.o ABSOLUTE
    ../clib/libinit.s                        0x00000000   Number         0  libinit.o ABSOLUTE
    ../clib/libinit.s                        0x00000000   Number         0  libinit2.o ABSOLUTE
    ../clib/libinit.s                        0x00000000   Number         0  libshutdown.o ABSOLUTE
    ../clib/libinit.s                        0x00000000   Number         0  libshutdown2.o ABSOLUTE
    ../clib/longlong.s                       0x00000000   Number         0  lludivv7m.o ABSOLUTE
    ../clib/memcpset.s                       0x00000000   Number         0  rt_memcpy_w.o ABSOLUTE
    ../clib/memcpset.s                       0x00000000   Number         0  rt_memclr_w.o ABSOLUTE
    ../clib/memcpset.s                       0x00000000   Number         0  memset.o ABSOLUTE
    ../clib/memcpset.s                       0x00000000   Number         0  aeabi_memset.o ABSOLUTE
    ../clib/memcpset.s                       0x00000000   Number         0  rt_memclr.o ABSOLUTE
    ../clib/memcpset.s                       0x00000000   Number         0  rt_memcpy_v6.o ABSOLUTE
    ../clib/signal.c                         0x00000000   Number         0  defsig_rtred_inner.o ABSOLUTE
    ../clib/signal.c                         0x00000000   Number         0  __raise.o ABSOLUTE
    ../clib/signal.c                         0x00000000   Number         0  defsig_rtmem_inner.o ABSOLUTE
    ../clib/signal.c                         0x00000000   Number         0  defsig_abrt_inner.o ABSOLUTE
    ../clib/signal.c                         0x00000000   Number         0  defsig_general.o ABSOLUTE
    ../clib/signal.c                         0x00000000   Number         0  defsig_exit.o ABSOLUTE
    ../clib/signal.c                         0x00000000   Number         0  defsig_fpe_outer.o ABSOLUTE
    ../clib/signal.c                         0x00000000   Number         0  defsig_fpe_formal.o ABSOLUTE
    ../clib/signal.c                         0x00000000   Number         0  defsig_rtmem_outer.o ABSOLUTE
    ../clib/signal.c                         0x00000000   Number         0  defsig_cppl_inner.o ABSOLUTE
    ../clib/signal.c                         0x00000000   Number         0  defsig_rtmem_formal.o ABSOLUTE
    ../clib/signal.c                         0x00000000   Number         0  defsig_segv_inner.o ABSOLUTE
    ../clib/signal.c                         0x00000000   Number         0  defsig_fpe_inner.o ABSOLUTE
    ../clib/signal.c                         0x00000000   Number         0  defsig_other.o ABSOLUTE
    ../clib/signal.c                         0x00000000   Number         0  defsig_stak_inner.o ABSOLUTE
    ../clib/signal.c                         0x00000000   Number         0  defsig_pvfn_inner.o ABSOLUTE
    ../clib/signal.s                         0x00000000   Number         0  defsig.o ABSOLUTE
    ../clib/stdlib.c                         0x00000000   Number         0  exit.o ABSOLUTE
    ../clib/string.c                         0x00000000   Number         0  strlen.o ABSOLUTE
    ../fplib/basic.s                         0x00000000   Number         0  basic.o ABSOLUTE
    ../fplib/d2f.s                           0x00000000   Number         0  d2f.o ABSOLUTE
    ../fplib/daddsub.s                       0x00000000   Number         0  daddsub_clz.o ABSOLUTE
    ../fplib/dcheck1.s                       0x00000000   Number         0  dcheck1.o ABSOLUTE
    ../fplib/dcmpi.s                         0x00000000   Number         0  dcmpi.o ABSOLUTE
    ../fplib/ddiv.s                          0x00000000   Number         0  ddiv.o ABSOLUTE
    ../fplib/deqf.s                          0x00000000   Number         0  deqf.o ABSOLUTE
    ../fplib/dfix.s                          0x00000000   Number         0  dfix.o ABSOLUTE
    ../fplib/dflt.s                          0x00000000   Number         0  dflt_clz.o ABSOLUTE
    ../fplib/dleqf.s                         0x00000000   Number         0  dleqf.o ABSOLUTE
    ../fplib/dmul.s                          0x00000000   Number         0  dmul.o ABSOLUTE
    ../fplib/dnaninf.s                       0x00000000   Number         0  dnaninf.o ABSOLUTE
    ../fplib/dretinf.s                       0x00000000   Number         0  dretinf.o ABSOLUTE
    ../fplib/drleqf.s                        0x00000000   Number         0  drleqf.o ABSOLUTE
    ../fplib/dsqrt.s                         0x00000000   Number         0  dsqrt_umaal.o ABSOLUTE
    ../fplib/f2d.s                           0x00000000   Number         0  f2d.o ABSOLUTE
    ../fplib/fnaninf.s                       0x00000000   Number         0  fnaninf.o ABSOLUTE
    ../fplib/fpinit.s                        0x00000000   Number         0  fpinit.o ABSOLUTE
    ../fplib/fretinf.s                       0x00000000   Number         0  fretinf.o ABSOLUTE
    ../fplib/retnan.s                        0x00000000   Number         0  retnan.o ABSOLUTE
    ../fplib/scalbn.s                        0x00000000   Number         0  scalbn.o ABSOLUTE
    ../fplib/trapv.s                         0x00000000   Number         0  trapv.o ABSOLUTE
    ../fplib/usenofp.s                       0x00000000   Number         0  usenofp.o ABSOLUTE
    ../mathlib/acosf.c                       0x00000000   Number         0  acosf_x.o ABSOLUTE
    ../mathlib/acosf.c                       0x00000000   Number         0  acosf.o ABSOLUTE
    ../mathlib/asinf.c                       0x00000000   Number         0  asinf_x.o ABSOLUTE
    ../mathlib/asinf.c                       0x00000000   Number         0  asinf.o ABSOLUTE
    ../mathlib/atan.c                        0x00000000   Number         0  atan_x.o ABSOLUTE
    ../mathlib/atan.c                        0x00000000   Number         0  atan.o ABSOLUTE
    ../mathlib/atan2.c                       0x00000000   Number         0  atan2.o ABSOLUTE
    ../mathlib/atan2.c                       0x00000000   Number         0  atan2_x.o ABSOLUTE
    ../mathlib/atan2f.c                      0x00000000   Number         0  atan2f.o ABSOLUTE
    ../mathlib/atan2f.c                      0x00000000   Number         0  atan2f_x.o ABSOLUTE
    ../mathlib/cos.c                         0x00000000   Number         0  cos.o ABSOLUTE
    ../mathlib/cos.c                         0x00000000   Number         0  cos_x.o ABSOLUTE
    ../mathlib/cos_i.c                       0x00000000   Number         0  cos_i.o ABSOLUTE
    ../mathlib/dunder.c                      0x00000000   Number         0  dunder.o ABSOLUTE
    ../mathlib/exp.c                         0x00000000   Number         0  exp.o ABSOLUTE
    ../mathlib/exp.c                         0x00000000   Number         0  exp_x.o ABSOLUTE
    ../mathlib/fabs.c                        0x00000000   Number         0  fabs.o ABSOLUTE
    ../mathlib/fpclassify.c                  0x00000000   Number         0  fpclassify.o ABSOLUTE
    ../mathlib/fpclassifyf.c                 0x00000000   Number         0  fpclassifyf.o ABSOLUTE
    ../mathlib/funder.c                      0x00000000   Number         0  funder.o ABSOLUTE
    ../mathlib/poly.c                        0x00000000   Number         0  poly.o ABSOLUTE
    ../mathlib/pow.c                         0x00000000   Number         0  pow_x.o ABSOLUTE
    ../mathlib/pow.c                         0x00000000   Number         0  pow.o ABSOLUTE
    ../mathlib/qnan.c                        0x00000000   Number         0  qnan.o ABSOLUTE
    ../mathlib/rred.c                        0x00000000   Number         0  rred.o ABSOLUTE
    ../mathlib/sin_i.c                       0x00000000   Number         0  sin_i_x.o ABSOLUTE
    ../mathlib/sin_i.c                       0x00000000   Number         0  sin_i.o ABSOLUTE
    ../mathlib/sqrt.c                        0x00000000   Number         0  sqrt_x.o ABSOLUTE
    ../mathlib/sqrt.c                        0x00000000   Number         0  sqrt.o ABSOLUTE
    ../mathlib/sqrtf.c                       0x00000000   Number         0  sqrtf.o ABSOLUTE
    ../mathlib/sqrtf.c                       0x00000000   Number         0  sqrtf_x.o ABSOLUTE
    ..\Application\API\Src\api_quaternion.c  0x00000000   Number         0  api_quaternion.o ABSOLUTE
    ..\Application\API\Src\api_trajectory.c  0x00000000   Number         0  api_trajectory.o ABSOLUTE
    ..\Application\Tasks\Src\Arm_Task.c      0x00000000   Number         0  arm_task.o ABSOLUTE
    ..\Application\Tasks\Src\Chassis_Task.c  0x00000000   Number         0  chassis_task.o ABSOLUTE
    ..\Application\Tasks\Src\Detect_Task.c   0x00000000   Number         0  detect_task.o ABSOLUTE
    ..\Application\Tasks\Src\INS_Task.c      0x00000000   Number         0  ins_task.o ABSOLUTE
    ..\Application\Tasks\Src\System_Task.c   0x00000000   Number         0  system_task.o ABSOLUTE
    ..\Application\Tasks\Src\Vision_Task.c   0x00000000   Number         0  vision_task.o ABSOLUTE
    ..\Bsp\Src\bsp_can.c                     0x00000000   Number         0  bsp_can.o ABSOLUTE
    ..\Bsp\Src\bsp_dwt.c                     0x00000000   Number         0  bsp_dwt.o ABSOLUTE
    ..\Bsp\Src\bsp_gpio.c                    0x00000000   Number         0  bsp_gpio.o ABSOLUTE
    ..\Bsp\Src\bsp_mcu.c                     0x00000000   Number         0  bsp_mcu.o ABSOLUTE
    ..\Bsp\Src\bsp_spi.c                     0x00000000   Number         0  bsp_spi.o ABSOLUTE
    ..\Bsp\Src\bsp_tick.c                    0x00000000   Number         0  bsp_tick.o ABSOLUTE
    ..\Bsp\Src\bsp_tim.c                     0x00000000   Number         0  bsp_tim.o ABSOLUTE
    ..\Bsp\Src\bsp_uart.c                    0x00000000   Number         0  bsp_uart.o ABSOLUTE
    ..\Components\Algorithm\Src\crc.c        0x00000000   Number         0  crc.o ABSOLUTE
    ..\Components\Algorithm\Src\kalman.c     0x00000000   Number         0  kalman.o ABSOLUTE
    ..\Components\Algorithm\Src\lpf.c        0x00000000   Number         0  lpf.o ABSOLUTE
    ..\Components\Algorithm\Src\ramp.c       0x00000000   Number         0  ramp.o ABSOLUTE
    ..\Components\Controller\Src\pid.c       0x00000000   Number         0  pid.o ABSOLUTE
    ..\Components\Device\Src\bmi088.c        0x00000000   Number         0  bmi088.o ABSOLUTE
    ..\Components\Device\Src\minipc.c        0x00000000   Number         0  minipc.o ABSOLUTE
    ..\Components\Device\Src\motor.c         0x00000000   Number         0  motor.o ABSOLUTE
    ..\Components\Device\Src\referee_info.c  0x00000000   Number         0  referee_info.o ABSOLUTE
    ..\Components\Device\Src\remote_control.c 0x00000000   Number         0  remote_control.o ABSOLUTE
    ..\Components\Device\Src\ui.c            0x00000000   Number         0  ui.o ABSOLUTE
    ..\Core\Src\can.c                        0x00000000   Number         0  can.o ABSOLUTE
    ..\Core\Src\dma.c                        0x00000000   Number         0  dma.o ABSOLUTE
    ..\Core\Src\freertos.c                   0x00000000   Number         0  freertos.o ABSOLUTE
    ..\Core\Src\gpio.c                       0x00000000   Number         0  gpio.o ABSOLUTE
    ..\Core\Src\main.c                       0x00000000   Number         0  main.o ABSOLUTE
    ..\Core\Src\spi.c                        0x00000000   Number         0  spi.o ABSOLUTE
    ..\Core\Src\stm32f4xx_hal_msp.c          0x00000000   Number         0  stm32f4xx_hal_msp.o ABSOLUTE
    ..\Core\Src\stm32f4xx_hal_timebase_tim.c 0x00000000   Number         0  stm32f4xx_hal_timebase_tim.o ABSOLUTE
    ..\Core\Src\stm32f4xx_it.c               0x00000000   Number         0  stm32f4xx_it.o ABSOLUTE
    ..\Core\Src\system_stm32f4xx.c           0x00000000   Number         0  system_stm32f4xx.o ABSOLUTE
    ..\Core\Src\tim.c                        0x00000000   Number         0  tim.o ABSOLUTE
    ..\Core\Src\usart.c                      0x00000000   Number         0  usart.o ABSOLUTE
    ..\Drivers\STM32F4xx_HAL_Driver\Src\stm32f4xx_hal.c 0x00000000   Number         0  stm32f4xx_hal.o ABSOLUTE
    ..\Drivers\STM32F4xx_HAL_Driver\Src\stm32f4xx_hal_can.c 0x00000000   Number         0  stm32f4xx_hal_can.o ABSOLUTE
    ..\Drivers\STM32F4xx_HAL_Driver\Src\stm32f4xx_hal_cortex.c 0x00000000   Number         0  stm32f4xx_hal_cortex.o ABSOLUTE
    ..\Drivers\STM32F4xx_HAL_Driver\Src\stm32f4xx_hal_dma.c 0x00000000   Number         0  stm32f4xx_hal_dma.o ABSOLUTE
    ..\Drivers\STM32F4xx_HAL_Driver\Src\stm32f4xx_hal_dma_ex.c 0x00000000   Number         0  stm32f4xx_hal_dma_ex.o ABSOLUTE
    ..\Drivers\STM32F4xx_HAL_Driver\Src\stm32f4xx_hal_exti.c 0x00000000   Number         0  stm32f4xx_hal_exti.o ABSOLUTE
    ..\Drivers\STM32F4xx_HAL_Driver\Src\stm32f4xx_hal_flash.c 0x00000000   Number         0  stm32f4xx_hal_flash.o ABSOLUTE
    ..\Drivers\STM32F4xx_HAL_Driver\Src\stm32f4xx_hal_flash_ex.c 0x00000000   Number         0  stm32f4xx_hal_flash_ex.o ABSOLUTE
    ..\Drivers\STM32F4xx_HAL_Driver\Src\stm32f4xx_hal_flash_ramfunc.c 0x00000000   Number         0  stm32f4xx_hal_flash_ramfunc.o ABSOLUTE
    ..\Drivers\STM32F4xx_HAL_Driver\Src\stm32f4xx_hal_gpio.c 0x00000000   Number         0  stm32f4xx_hal_gpio.o ABSOLUTE
    ..\Drivers\STM32F4xx_HAL_Driver\Src\stm32f4xx_hal_pcd.c 0x00000000   Number         0  stm32f4xx_hal_pcd.o ABSOLUTE
    ..\Drivers\STM32F4xx_HAL_Driver\Src\stm32f4xx_hal_pcd_ex.c 0x00000000   Number         0  stm32f4xx_hal_pcd_ex.o ABSOLUTE
    ..\Drivers\STM32F4xx_HAL_Driver\Src\stm32f4xx_hal_pwr.c 0x00000000   Number         0  stm32f4xx_hal_pwr.o ABSOLUTE
    ..\Drivers\STM32F4xx_HAL_Driver\Src\stm32f4xx_hal_pwr_ex.c 0x00000000   Number         0  stm32f4xx_hal_pwr_ex.o ABSOLUTE
    ..\Drivers\STM32F4xx_HAL_Driver\Src\stm32f4xx_hal_rcc.c 0x00000000   Number         0  stm32f4xx_hal_rcc.o ABSOLUTE
    ..\Drivers\STM32F4xx_HAL_Driver\Src\stm32f4xx_hal_rcc_ex.c 0x00000000   Number         0  stm32f4xx_hal_rcc_ex.o ABSOLUTE
    ..\Drivers\STM32F4xx_HAL_Driver\Src\stm32f4xx_hal_spi.c 0x00000000   Number         0  stm32f4xx_hal_spi.o ABSOLUTE
    ..\Drivers\STM32F4xx_HAL_Driver\Src\stm32f4xx_hal_tim.c 0x00000000   Number         0  stm32f4xx_hal_tim.o ABSOLUTE
    ..\Drivers\STM32F4xx_HAL_Driver\Src\stm32f4xx_hal_tim_ex.c 0x00000000   Number         0  stm32f4xx_hal_tim_ex.o ABSOLUTE
    ..\Drivers\STM32F4xx_HAL_Driver\Src\stm32f4xx_hal_uart.c 0x00000000   Number         0  stm32f4xx_hal_uart.o ABSOLUTE
    ..\Drivers\STM32F4xx_HAL_Driver\Src\stm32f4xx_ll_usb.c 0x00000000   Number         0  stm32f4xx_ll_usb.o ABSOLUTE
    ..\Middlewares\ST\STM32_USB_Device_Library\Class\CDC\Src\usbd_cdc.c 0x00000000   Number         0  usbd_cdc.o ABSOLUTE
    ..\Middlewares\ST\STM32_USB_Device_Library\Core\Src\usbd_core.c 0x00000000   Number         0  usbd_core.o ABSOLUTE
    ..\Middlewares\ST\STM32_USB_Device_Library\Core\Src\usbd_ctlreq.c 0x00000000   Number         0  usbd_ctlreq.o ABSOLUTE
    ..\Middlewares\ST\STM32_USB_Device_Library\Core\Src\usbd_ioreq.c 0x00000000   Number         0  usbd_ioreq.o ABSOLUTE
    ..\Middlewares\Third_Party\FreeRTOS\Source\CMSIS_RTOS\cmsis_os.c 0x00000000   Number         0  cmsis_os.o ABSOLUTE
    ..\Middlewares\Third_Party\FreeRTOS\Source\portable\RVDS\ARM_CM4F\port.c 0x00000000   Number         0  port.o ABSOLUTE
    ..\USB_DEVICE\App\usb_device.c           0x00000000   Number         0  usb_device.o ABSOLUTE
    ..\USB_DEVICE\App\usbd_cdc_if.c          0x00000000   Number         0  usbd_cdc_if.o ABSOLUTE
    ..\USB_DEVICE\App\usbd_desc.c            0x00000000   Number         0  usbd_desc.o ABSOLUTE
    ..\USB_DEVICE\Target\usbd_conf.c         0x00000000   Number         0  usbd_conf.o ABSOLUTE
    ..\\Application\\API\\Src\\api_quaternion.c 0x00000000   Number         0  api_quaternion.o ABSOLUTE
    ..\\Application\\API\\Src\\api_trajectory.c 0x00000000   Number         0  api_trajectory.o ABSOLUTE
    ..\\Application\\Tasks\\Src\\Arm_Task.c  0x00000000   Number         0  arm_task.o ABSOLUTE
    ..\\Application\\Tasks\\Src\\Chassis_Task.c 0x00000000   Number         0  chassis_task.o ABSOLUTE
    ..\\Application\\Tasks\\Src\\INS_Task.c  0x00000000   Number         0  ins_task.o ABSOLUTE
    ..\\Application\\Tasks\\Src\\System_Task.c 0x00000000   Number         0  system_task.o ABSOLUTE
    ..\\Bsp\\Src\\bsp_can.c                  0x00000000   Number         0  bsp_can.o ABSOLUTE
    ..\\Bsp\\Src\\bsp_dwt.c                  0x00000000   Number         0  bsp_dwt.o ABSOLUTE
    ..\\Bsp\\Src\\bsp_gpio.c                 0x00000000   Number         0  bsp_gpio.o ABSOLUTE
    ..\\Bsp\\Src\\bsp_mcu.c                  0x00000000   Number         0  bsp_mcu.o ABSOLUTE
    ..\\Bsp\\Src\\bsp_spi.c                  0x00000000   Number         0  bsp_spi.o ABSOLUTE
    ..\\Bsp\\Src\\bsp_tick.c                 0x00000000   Number         0  bsp_tick.o ABSOLUTE
    ..\\Bsp\\Src\\bsp_tim.c                  0x00000000   Number         0  bsp_tim.o ABSOLUTE
    ..\\Bsp\\Src\\bsp_uart.c                 0x00000000   Number         0  bsp_uart.o ABSOLUTE
    ..\\Components\\Algorithm\\Src\\kalman.c 0x00000000   Number         0  kalman.o ABSOLUTE
    ..\\Components\\Device\\Src\\minipc.c    0x00000000   Number         0  minipc.o ABSOLUTE
    ..\\Components\\Device\\Src\\motor.c     0x00000000   Number         0  motor.o ABSOLUTE
    ..\\Components\\Device\\Src\\ui.c        0x00000000   Number         0  ui.o ABSOLUTE
    arm_common_tables.c                      0x00000000   Number         0  arm_common_tables.o ABSOLUTE
    arm_cos_f32.c                            0x00000000   Number         0  arm_cos_f32.o ABSOLUTE
    arm_mat_add_f32.c                        0x00000000   Number         0  arm_mat_add_f32.o ABSOLUTE
    arm_mat_init_f32.c                       0x00000000   Number         0  arm_mat_init_f32.o ABSOLUTE
    arm_mat_inverse_f32.c                    0x00000000   Number         0  arm_mat_inverse_f32.o ABSOLUTE
    arm_mat_mult_f32.c                       0x00000000   Number         0  arm_mat_mult_f32.o ABSOLUTE
    arm_mat_sub_f32.c                        0x00000000   Number         0  arm_mat_sub_f32.o ABSOLUTE
    arm_mat_trans_f32.c                      0x00000000   Number         0  arm_mat_trans_f32.o ABSOLUTE
    arm_sin_f32.c                            0x00000000   Number         0  arm_sin_f32.o ABSOLUTE
    dc.s                                     0x00000000   Number         0  dc.o ABSOLUTE
    startup_stm32f407xx.s                    0x00000000   Number         0  startup_stm32f407xx.o ABSOLUTE
    RESET                                    0x08000000   Section      392  startup_stm32f407xx.o(RESET)
    !!!main                                  0x08000188   Section        8  __main.o(!!!main)
    !!!scatter                               0x08000190   Section       52  __scatter.o(!!!scatter)
    !!dczerorl2                              0x080001c4   Section       90  __dczerorl2.o(!!dczerorl2)
    !!handler_zi                             0x08000220   Section       28  __scatter_zi.o(!!handler_zi)
    .ARM.Collect$$libinit$$00000000          0x0800023c   Section        2  libinit.o(.ARM.Collect$$libinit$$00000000)
    .ARM.Collect$$libinit$$00000001          0x0800023e   Section        4  libinit2.o(.ARM.Collect$$libinit$$00000001)
    .ARM.Collect$$libinit$$00000004          0x08000242   Section        0  libinit2.o(.ARM.Collect$$libinit$$00000004)
    .ARM.Collect$$libinit$$00000005          0x08000242   Section        8  libinit2.o(.ARM.Collect$$libinit$$00000005)
    .ARM.Collect$$libinit$$0000000A          0x0800024a   Section        0  libinit2.o(.ARM.Collect$$libinit$$0000000A)
    .ARM.Collect$$libinit$$0000000C          0x0800024a   Section        0  libinit2.o(.ARM.Collect$$libinit$$0000000C)
    .ARM.Collect$$libinit$$0000000E          0x0800024a   Section        0  libinit2.o(.ARM.Collect$$libinit$$0000000E)
    .ARM.Collect$$libinit$$00000011          0x0800024a   Section        0  libinit2.o(.ARM.Collect$$libinit$$00000011)
    .ARM.Collect$$libinit$$00000013          0x0800024a   Section        0  libinit2.o(.ARM.Collect$$libinit$$00000013)
    .ARM.Collect$$libinit$$00000015          0x0800024a   Section        0  libinit2.o(.ARM.Collect$$libinit$$00000015)
    .ARM.Collect$$libinit$$00000017          0x0800024a   Section        0  libinit2.o(.ARM.Collect$$libinit$$00000017)
    .ARM.Collect$$libinit$$00000019          0x0800024a   Section        0  libinit2.o(.ARM.Collect$$libinit$$00000019)
    .ARM.Collect$$libinit$$0000001B          0x0800024a   Section        0  libinit2.o(.ARM.Collect$$libinit$$0000001B)
    .ARM.Collect$$libinit$$0000001D          0x0800024a   Section        0  libinit2.o(.ARM.Collect$$libinit$$0000001D)
    .ARM.Collect$$libinit$$0000001F          0x0800024a   Section        0  libinit2.o(.ARM.Collect$$libinit$$0000001F)
    .ARM.Collect$$libinit$$00000021          0x0800024a   Section        0  libinit2.o(.ARM.Collect$$libinit$$00000021)
    .ARM.Collect$$libinit$$00000023          0x0800024a   Section        0  libinit2.o(.ARM.Collect$$libinit$$00000023)
    .ARM.Collect$$libinit$$00000025          0x0800024a   Section        0  libinit2.o(.ARM.Collect$$libinit$$00000025)
    .ARM.Collect$$libinit$$0000002C          0x0800024a   Section        0  libinit2.o(.ARM.Collect$$libinit$$0000002C)
    .ARM.Collect$$libinit$$0000002E          0x0800024a   Section        0  libinit2.o(.ARM.Collect$$libinit$$0000002E)
    .ARM.Collect$$libinit$$00000030          0x0800024a   Section        0  libinit2.o(.ARM.Collect$$libinit$$00000030)
    .ARM.Collect$$libinit$$00000032          0x0800024a   Section        0  libinit2.o(.ARM.Collect$$libinit$$00000032)
    .ARM.Collect$$libinit$$00000033          0x0800024a   Section        2  libinit2.o(.ARM.Collect$$libinit$$00000033)
    .ARM.Collect$$libshutdown$$00000000      0x0800024c   Section        2  libshutdown.o(.ARM.Collect$$libshutdown$$00000000)
    .ARM.Collect$$libshutdown$$00000002      0x0800024e   Section        0  libshutdown2.o(.ARM.Collect$$libshutdown$$00000002)
    .ARM.Collect$$libshutdown$$00000004      0x0800024e   Section        0  libshutdown2.o(.ARM.Collect$$libshutdown$$00000004)
    .ARM.Collect$$libshutdown$$00000006      0x0800024e   Section        0  libshutdown2.o(.ARM.Collect$$libshutdown$$00000006)
    .ARM.Collect$$libshutdown$$00000009      0x0800024e   Section        0  libshutdown2.o(.ARM.Collect$$libshutdown$$00000009)
    .ARM.Collect$$libshutdown$$0000000C      0x0800024e   Section        0  libshutdown2.o(.ARM.Collect$$libshutdown$$0000000C)
    .ARM.Collect$$libshutdown$$0000000E      0x0800024e   Section        0  libshutdown2.o(.ARM.Collect$$libshutdown$$0000000E)
    .ARM.Collect$$libshutdown$$00000011      0x0800024e   Section        0  libshutdown2.o(.ARM.Collect$$libshutdown$$00000011)
    .ARM.Collect$$libshutdown$$00000012      0x0800024e   Section        2  libshutdown2.o(.ARM.Collect$$libshutdown$$00000012)
    .ARM.Collect$$rtentry$$00000000          0x08000250   Section        0  __rtentry.o(.ARM.Collect$$rtentry$$00000000)
    .ARM.Collect$$rtentry$$00000002          0x08000250   Section        0  __rtentry2.o(.ARM.Collect$$rtentry$$00000002)
    .ARM.Collect$$rtentry$$00000004          0x08000250   Section        6  __rtentry4.o(.ARM.Collect$$rtentry$$00000004)
    .ARM.Collect$$rtentry$$00000009          0x08000256   Section        0  __rtentry2.o(.ARM.Collect$$rtentry$$00000009)
    .ARM.Collect$$rtentry$$0000000A          0x08000256   Section        4  __rtentry2.o(.ARM.Collect$$rtentry$$0000000A)
    .ARM.Collect$$rtentry$$0000000C          0x0800025a   Section        0  __rtentry2.o(.ARM.Collect$$rtentry$$0000000C)
    .ARM.Collect$$rtentry$$0000000D          0x0800025a   Section        8  __rtentry2.o(.ARM.Collect$$rtentry$$0000000D)
    .ARM.Collect$$rtexit$$00000000           0x08000262   Section        2  rtexit.o(.ARM.Collect$$rtexit$$00000000)
    .ARM.Collect$$rtexit$$00000002           0x08000264   Section        0  rtexit2.o(.ARM.Collect$$rtexit$$00000002)
    .ARM.Collect$$rtexit$$00000003           0x08000264   Section        4  rtexit2.o(.ARM.Collect$$rtexit$$00000003)
    .ARM.Collect$$rtexit$$00000004           0x08000268   Section        6  rtexit2.o(.ARM.Collect$$rtexit$$00000004)
    .emb_text                                0x08000270   Section      190  port.o(.emb_text)
    $v0                                      0x08000270   Number         0  port.o(.emb_text)
    .emb_text                                0x08000330   Section        0  maybetermalloc1.o(.emb_text)
    .text                                    0x08000330   Section       64  startup_stm32f407xx.o(.text)
    $v0                                      0x08000330   Number         0  startup_stm32f407xx.o(.text)
    .text                                    0x08000370   Section        0  h1_alloc.o(.text)
    .text                                    0x080003ce   Section      238  lludivv7m.o(.text)
    .text                                    0x080004bc   Section      138  rt_memcpy_v6.o(.text)
    .text                                    0x08000546   Section      100  rt_memcpy_w.o(.text)
    .text                                    0x080005aa   Section       16  aeabi_memset.o(.text)
    .text                                    0x080005ba   Section       68  rt_memclr.o(.text)
    .text                                    0x080005fe   Section       78  rt_memclr_w.o(.text)
    .text                                    0x0800064c   Section        0  heapauxi.o(.text)
    .text                                    0x08000654   Section        8  rt_heap_descriptor_intlibspace.o(.text)
    .text                                    0x0800065c   Section        0  hguard.o(.text)
    .text                                    0x08000660   Section        0  init_alloc.o(.text)
    .text                                    0x080006ea   Section        0  h1_init.o(.text)
    .text                                    0x080006f8   Section        0  h1_free.o(.text)
    .text                                    0x08000746   Section        0  _rserrno.o(.text)
    .text                                    0x0800075c   Section        8  libspace.o(.text)
    .text                                    0x08000764   Section        8  rt_errno_addr_intlibspace.o(.text)
    .text                                    0x0800076c   Section        0  h1_extend.o(.text)
    .text                                    0x080007a0   Section        0  defsig_rtmem_outer.o(.text)
    .text                                    0x080007ae   Section        2  use_no_semi.o(.text)
    .text                                    0x080007b0   Section       74  sys_stackheap_outer.o(.text)
    .text                                    0x080007b0   Section        0  indicate_semi.o(.text)
    .text                                    0x080007fa   Section        0  exit.o(.text)
    .text                                    0x0800080c   Section        0  defsig_exit.o(.text)
    .text                                    0x08000818   Section        0  defsig_rtmem_inner.o(.text)
    .text                                    0x08000868   Section        0  sys_exit.o(.text)
    .text                                    0x08000874   Section        0  defsig_general.o(.text)
    .text                                    0x080008a6   Section        0  sys_wrch.o(.text)
    [Anonymous Symbol]                       0x080008b4   Section        0  arm_mat_add_f32.o(.text.arm_mat_add_f32)
    [Anonymous Symbol]                       0x0800096e   Section        0  arm_mat_init_f32.o(.text.arm_mat_init_f32)
    [Anonymous Symbol]                       0x08000978   Section        0  arm_mat_inverse_f32.o(.text.arm_mat_inverse_f32)
    [Anonymous Symbol]                       0x08000c6c   Section        0  arm_mat_mult_f32.o(.text.arm_mat_mult_f32)
    [Anonymous Symbol]                       0x08000d94   Section        0  arm_mat_sub_f32.o(.text.arm_mat_sub_f32)
    [Anonymous Symbol]                       0x08000e50   Section        0  arm_mat_trans_f32.o(.text.arm_mat_trans_f32)
    i.Arm_Keep                               0x08000ef4   Section        0  arm_task.o(i.Arm_Keep)
    Arm_Keep                                 0x08000ef5   Thumb Code   246  arm_task.o(i.Arm_Keep)
    i.Arm_OFF                                0x08000ff8   Section        0  arm_task.o(i.Arm_OFF)
    Arm_OFF                                  0x08000ff9   Thumb Code   210  arm_task.o(i.Arm_OFF)
    i.Arm_Solve                              0x080010d4   Section        0  arm_task.o(i.Arm_Solve)
    Arm_Solve                                0x080010d5   Thumb Code   470  arm_task.o(i.Arm_Solve)
    i.Arm_Task                               0x080012cc   Section        0  arm_task.o(i.Arm_Task)
    i.Arm_Task_Init                          0x08001314   Section        0  arm_task.o(i.Arm_Task_Init)
    Arm_Task_Init                            0x08001315   Thumb Code   292  arm_task.o(i.Arm_Task_Init)
    i.BMI088_ACCEL_NS_H                      0x08001474   Section        0  bsp_gpio.o(i.BMI088_ACCEL_NS_H)
    i.BMI088_ACCEL_NS_L                      0x08001484   Section        0  bsp_gpio.o(i.BMI088_ACCEL_NS_L)
    i.BMI088_Accel_Init                      0x08001494   Section        0  bmi088.o(i.BMI088_Accel_Init)
    BMI088_Accel_Init                        0x08001495   Thumb Code   264  bmi088.o(i.BMI088_Accel_Init)
    i.BMI088_GYRO_NS_H                       0x080015a0   Section        0  bsp_gpio.o(i.BMI088_GYRO_NS_H)
    i.BMI088_GYRO_NS_L                       0x080015b0   Section        0  bsp_gpio.o(i.BMI088_GYRO_NS_L)
    i.BMI088_Gyro_Init                       0x080015c0   Section        0  bmi088.o(i.BMI088_Gyro_Init)
    BMI088_Gyro_Init                         0x080015c1   Thumb Code   214  bmi088.o(i.BMI088_Gyro_Init)
    i.BMI088_Info_Update                     0x0800169c   Section        0  bmi088.o(i.BMI088_Info_Update)
    i.BMI088_Init                            0x0800180c   Section        0  bmi088.o(i.BMI088_Init)
    i.BMI088_Offset_Update                   0x08001838   Section        0  bmi088.o(i.BMI088_Offset_Update)
    BMI088_Offset_Update                     0x08001839   Thumb Code   282  bmi088.o(i.BMI088_Offset_Update)
    i.BMI088_Read_Multi_Reg                  0x0800195c   Section        0  bmi088.o(i.BMI088_Read_Multi_Reg)
    BMI088_Read_Multi_Reg                    0x0800195d   Thumb Code    36  bmi088.o(i.BMI088_Read_Multi_Reg)
    i.BMI088_Read_Single_Reg                 0x08001980   Section        0  bmi088.o(i.BMI088_Read_Single_Reg)
    BMI088_Read_Single_Reg                   0x08001981   Thumb Code    22  bmi088.o(i.BMI088_Read_Single_Reg)
    i.BMI088_Read_Write_Byte                 0x08001998   Section        0  bsp_spi.o(i.BMI088_Read_Write_Byte)
    i.BMI088_Temp_Control                    0x080019bc   Section        0  ins_task.o(i.BMI088_Temp_Control)
    BMI088_Temp_Control                      0x080019bd   Thumb Code    82  ins_task.o(i.BMI088_Temp_Control)
    i.BMI088_Write_Single_Reg                0x08001a24   Section        0  bmi088.o(i.BMI088_Write_Single_Reg)
    BMI088_Write_Single_Reg                  0x08001a25   Thumb Code    18  bmi088.o(i.BMI088_Write_Single_Reg)
    i.BSP_CAN_Init                           0x08001a38   Section        0  bsp_can.o(i.BSP_CAN_Init)
    i.BSP_DWT_Init                           0x08001aa8   Section        0  bsp_dwt.o(i.BSP_DWT_Init)
    i.BSP_USART_Init                         0x08001af0   Section        0  bsp_uart.o(i.BSP_USART_Init)
    i.Bsp_Tim_Init                           0x08001b2c   Section        0  bsp_tim.o(i.Bsp_Tim_Init)
    i.BusFault_Handler                       0x08001b38   Section        0  stm32f4xx_it.o(i.BusFault_Handler)
    i.CAN1_RX0_IRQHandler                    0x08001b3c   Section        0  stm32f4xx_it.o(i.CAN1_RX0_IRQHandler)
    i.CAN1_RxFifo0RxHandler                  0x08001b48   Section        0  bsp_can.o(i.CAN1_RxFifo0RxHandler)
    CAN1_RxFifo0RxHandler                    0x08001b49   Thumb Code    64  bsp_can.o(i.CAN1_RxFifo0RxHandler)
    i.CAN2_RX0_IRQHandler                    0x08001b94   Section        0  stm32f4xx_it.o(i.CAN2_RX0_IRQHandler)
    i.CAN2_RxFifo0RxHandler                  0x08001ba0   Section        0  bsp_can.o(i.CAN2_RxFifo0RxHandler)
    CAN2_RxFifo0RxHandler                    0x08001ba1   Thumb Code    64  bsp_can.o(i.CAN2_RxFifo0RxHandler)
    i.CAN_Send                               0x08001bec   Section        0  system_task.o(i.CAN_Send)
    CAN_Send                                 0x08001bed   Thumb Code   182  system_task.o(i.CAN_Send)
    i.CDC_Control_FS                         0x08001cb8   Section        0  usbd_cdc_if.o(i.CDC_Control_FS)
    CDC_Control_FS                           0x08001cb9   Thumb Code     8  usbd_cdc_if.o(i.CDC_Control_FS)
    i.CDC_DeInit_FS                          0x08001cc0   Section        0  usbd_cdc_if.o(i.CDC_DeInit_FS)
    CDC_DeInit_FS                            0x08001cc1   Thumb Code     4  usbd_cdc_if.o(i.CDC_DeInit_FS)
    i.CDC_Init_FS                            0x08001cc4   Section        0  usbd_cdc_if.o(i.CDC_Init_FS)
    CDC_Init_FS                              0x08001cc5   Thumb Code    24  usbd_cdc_if.o(i.CDC_Init_FS)
    i.CDC_Receive_FS                         0x08001ce8   Section        0  usbd_cdc_if.o(i.CDC_Receive_FS)
    CDC_Receive_FS                           0x08001ce9   Thumb Code    28  usbd_cdc_if.o(i.CDC_Receive_FS)
    i.CDC_TransmitCplt_FS                    0x08001d08   Section        0  usbd_cdc_if.o(i.CDC_TransmitCplt_FS)
    CDC_TransmitCplt_FS                      0x08001d09   Thumb Code     4  usbd_cdc_if.o(i.CDC_TransmitCplt_FS)
    i.Chassis_Init                           0x08001d0c   Section        0  chassis_task.o(i.Chassis_Init)
    Chassis_Init                             0x08001d0d   Thumb Code    90  chassis_task.o(i.Chassis_Init)
    i.Chassis_OFF                            0x08001d78   Section        0  chassis_task.o(i.Chassis_OFF)
    Chassis_OFF                              0x08001d79   Thumb Code    34  chassis_task.o(i.Chassis_OFF)
    i.Chassis_ON                             0x08001da4   Section        0  chassis_task.o(i.Chassis_ON)
    Chassis_ON                               0x08001da5   Thumb Code   342  chassis_task.o(i.Chassis_ON)
    i.Chassis_Task                           0x08001f04   Section        0  chassis_task.o(i.Chassis_Task)
    i.DJI_Motor_ErrorHandler                 0x08001f30   Section        0  motor.o(i.DJI_Motor_ErrorHandler)
    DJI_Motor_ErrorHandler                   0x08001f31   Thumb Code    42  motor.o(i.DJI_Motor_ErrorHandler)
    i.DJI_Motor_Info_Update                  0x08001f5c   Section        0  motor.o(i.DJI_Motor_Info_Update)
    i.DMA1_Stream1_IRQHandler                0x08002004   Section        0  stm32f4xx_it.o(i.DMA1_Stream1_IRQHandler)
    i.DMA2_Stream1_IRQHandler                0x08002010   Section        0  stm32f4xx_it.o(i.DMA2_Stream1_IRQHandler)
    i.DMA2_Stream2_IRQHandler                0x0800201c   Section        0  stm32f4xx_it.o(i.DMA2_Stream2_IRQHandler)
    i.DMA2_Stream6_IRQHandler                0x08002028   Section        0  stm32f4xx_it.o(i.DMA2_Stream6_IRQHandler)
    i.DMA2_Stream7_IRQHandler                0x08002034   Section        0  stm32f4xx_it.o(i.DMA2_Stream7_IRQHandler)
    i.DMA_CalcBaseAndBitshift                0x08002040   Section        0  stm32f4xx_hal_dma.o(i.DMA_CalcBaseAndBitshift)
    DMA_CalcBaseAndBitshift                  0x08002041   Thumb Code    38  stm32f4xx_hal_dma.o(i.DMA_CalcBaseAndBitshift)
    i.DMA_CheckFifoParam                     0x0800206c   Section        0  stm32f4xx_hal_dma.o(i.DMA_CheckFifoParam)
    DMA_CheckFifoParam                       0x0800206d   Thumb Code   120  stm32f4xx_hal_dma.o(i.DMA_CheckFifoParam)
    i.DM_Lock                                0x080020e4   Section        0  motor.o(i.DM_Lock)
    i.DM_MIT_Transform                       0x080020fc   Section        0  motor.o(i.DM_MIT_Transform)
    i.DM_Motor_Info_Update                   0x080021a8   Section        0  motor.o(i.DM_Motor_Info_Update)
    i.DM_Reset                               0x08002236   Section        0  motor.o(i.DM_Reset)
    i.DM_Start                               0x0800224c   Section        0  motor.o(i.DM_Start)
    i.Data_solving                           0x08002264   Section        0  arm_task.o(i.Data_solving)
    Data_solving                             0x08002265   Thumb Code   122  arm_task.o(i.Data_solving)
    i.DebugMon_Handler                       0x080022ec   Section        0  stm32f4xx_it.o(i.DebugMon_Handler)
    i.Delay_ms                               0x080022ee   Section        0  bsp_tick.o(i.Delay_ms)
    i.Delay_us                               0x08002304   Section        0  bsp_tick.o(i.Delay_us)
    i.Detect_Task                            0x0800231c   Section        0  detect_task.o(i.Detect_Task)
    i.EXTI9_5_IRQHandler                     0x08002330   Section        0  stm32f4xx_it.o(i.EXTI9_5_IRQHandler)
    i.Error_Handler                          0x08002336   Section        0  main.o(i.Error_Handler)
    i.Fast_InverseSqrt                       0x0800233c   Section        0  api_quaternion.o(i.Fast_InverseSqrt)
    Fast_InverseSqrt                         0x0800233d   Thumb Code    40  api_quaternion.o(i.Fast_InverseSqrt)
    i.Get_SerialNum                          0x08002368   Section        0  usbd_desc.o(i.Get_SerialNum)
    Get_SerialNum                            0x08002369   Thumb Code    34  usbd_desc.o(i.Get_SerialNum)
    i.HAL_CAN_ActivateNotification           0x08002390   Section        0  stm32f4xx_hal_can.o(i.HAL_CAN_ActivateNotification)
    i.HAL_CAN_AddTxMessage                   0x080023b4   Section        0  stm32f4xx_hal_can.o(i.HAL_CAN_AddTxMessage)
    i.HAL_CAN_ConfigFilter                   0x08002498   Section        0  stm32f4xx_hal_can.o(i.HAL_CAN_ConfigFilter)
    i.HAL_CAN_ErrorCallback                  0x080025a8   Section        0  stm32f4xx_hal_can.o(i.HAL_CAN_ErrorCallback)
    i.HAL_CAN_GetRxMessage                   0x080025aa   Section        0  stm32f4xx_hal_can.o(i.HAL_CAN_GetRxMessage)
    i.HAL_CAN_IRQHandler                     0x080026bc   Section        0  stm32f4xx_hal_can.o(i.HAL_CAN_IRQHandler)
    i.HAL_CAN_Init                           0x080028b8   Section        0  stm32f4xx_hal_can.o(i.HAL_CAN_Init)
    i.HAL_CAN_MspInit                        0x08002a0c   Section        0  can.o(i.HAL_CAN_MspInit)
    i.HAL_CAN_RxFifo0FullCallback            0x08002b0c   Section        0  stm32f4xx_hal_can.o(i.HAL_CAN_RxFifo0FullCallback)
    i.HAL_CAN_RxFifo0MsgPendingCallback      0x08002b10   Section        0  bsp_can.o(i.HAL_CAN_RxFifo0MsgPendingCallback)
    i.HAL_CAN_RxFifo1FullCallback            0x08002b58   Section        0  stm32f4xx_hal_can.o(i.HAL_CAN_RxFifo1FullCallback)
    i.HAL_CAN_RxFifo1MsgPendingCallback      0x08002b5a   Section        0  stm32f4xx_hal_can.o(i.HAL_CAN_RxFifo1MsgPendingCallback)
    i.HAL_CAN_SleepCallback                  0x08002b5c   Section        0  stm32f4xx_hal_can.o(i.HAL_CAN_SleepCallback)
    i.HAL_CAN_Start                          0x08002b5e   Section        0  stm32f4xx_hal_can.o(i.HAL_CAN_Start)
    i.HAL_CAN_TxMailbox0AbortCallback        0x08002bb6   Section        0  stm32f4xx_hal_can.o(i.HAL_CAN_TxMailbox0AbortCallback)
    i.HAL_CAN_TxMailbox0CompleteCallback     0x08002bb8   Section        0  stm32f4xx_hal_can.o(i.HAL_CAN_TxMailbox0CompleteCallback)
    i.HAL_CAN_TxMailbox1AbortCallback        0x08002bba   Section        0  stm32f4xx_hal_can.o(i.HAL_CAN_TxMailbox1AbortCallback)
    i.HAL_CAN_TxMailbox1CompleteCallback     0x08002bbc   Section        0  stm32f4xx_hal_can.o(i.HAL_CAN_TxMailbox1CompleteCallback)
    i.HAL_CAN_TxMailbox2AbortCallback        0x08002bbe   Section        0  stm32f4xx_hal_can.o(i.HAL_CAN_TxMailbox2AbortCallback)
    i.HAL_CAN_TxMailbox2CompleteCallback     0x08002bc0   Section        0  stm32f4xx_hal_can.o(i.HAL_CAN_TxMailbox2CompleteCallback)
    i.HAL_CAN_WakeUpFromRxMsgCallback        0x08002bc2   Section        0  stm32f4xx_hal_can.o(i.HAL_CAN_WakeUpFromRxMsgCallback)
    i.HAL_DMA_Abort                          0x08002bc4   Section        0  stm32f4xx_hal_dma.o(i.HAL_DMA_Abort)
    i.HAL_DMA_Abort_IT                       0x08002c52   Section        0  stm32f4xx_hal_dma.o(i.HAL_DMA_Abort_IT)
    i.HAL_DMA_IRQHandler                     0x08002c78   Section        0  stm32f4xx_hal_dma.o(i.HAL_DMA_IRQHandler)
    i.HAL_DMA_Init                           0x08002e48   Section        0  stm32f4xx_hal_dma.o(i.HAL_DMA_Init)
    i.HAL_Delay                              0x08002f1c   Section        0  stm32f4xx_hal.o(i.HAL_Delay)
    i.HAL_GPIO_EXTI_Callback                 0x08002f40   Section        0  stm32f4xx_hal_gpio.o(i.HAL_GPIO_EXTI_Callback)
    i.HAL_GPIO_EXTI_IRQHandler               0x08002f44   Section        0  stm32f4xx_hal_gpio.o(i.HAL_GPIO_EXTI_IRQHandler)
    i.HAL_GPIO_Init                          0x08002f5c   Section        0  stm32f4xx_hal_gpio.o(i.HAL_GPIO_Init)
    i.HAL_GPIO_WritePin                      0x0800312c   Section        0  stm32f4xx_hal_gpio.o(i.HAL_GPIO_WritePin)
    i.HAL_GetTick                            0x0800313c   Section        0  stm32f4xx_hal.o(i.HAL_GetTick)
    i.HAL_IncTick                            0x08003148   Section        0  stm32f4xx_hal.o(i.HAL_IncTick)
    i.HAL_Init                               0x08003158   Section        0  stm32f4xx_hal.o(i.HAL_Init)
    i.HAL_InitTick                           0x0800318c   Section        0  stm32f4xx_hal_timebase_tim.o(i.HAL_InitTick)
    i.HAL_MspInit                            0x08003224   Section        0  stm32f4xx_hal_msp.o(i.HAL_MspInit)
    i.HAL_NVIC_EnableIRQ                     0x0800325c   Section        0  stm32f4xx_hal_cortex.o(i.HAL_NVIC_EnableIRQ)
    i.HAL_NVIC_SetPriority                   0x08003278   Section        0  stm32f4xx_hal_cortex.o(i.HAL_NVIC_SetPriority)
    i.HAL_NVIC_SetPriorityGrouping           0x080032b8   Section        0  stm32f4xx_hal_cortex.o(i.HAL_NVIC_SetPriorityGrouping)
    i.HAL_PCDEx_LPM_Callback                 0x080032dc   Section        0  stm32f4xx_hal_pcd_ex.o(i.HAL_PCDEx_LPM_Callback)
    i.HAL_PCDEx_SetRxFiFo                    0x080032de   Section        0  stm32f4xx_hal_pcd_ex.o(i.HAL_PCDEx_SetRxFiFo)
    i.HAL_PCDEx_SetTxFiFo                    0x080032e6   Section        0  stm32f4xx_hal_pcd_ex.o(i.HAL_PCDEx_SetTxFiFo)
    i.HAL_PCD_ConnectCallback                0x08003328   Section        0  usbd_conf.o(i.HAL_PCD_ConnectCallback)
    i.HAL_PCD_DataInStageCallback            0x08003330   Section        0  usbd_conf.o(i.HAL_PCD_DataInStageCallback)
    i.HAL_PCD_DataOutStageCallback           0x08003342   Section        0  usbd_conf.o(i.HAL_PCD_DataOutStageCallback)
    i.HAL_PCD_DisconnectCallback             0x08003356   Section        0  usbd_conf.o(i.HAL_PCD_DisconnectCallback)
    i.HAL_PCD_EP_Abort                       0x0800335e   Section        0  stm32f4xx_hal_pcd.o(i.HAL_PCD_EP_Abort)
    i.HAL_PCD_EP_Close                       0x0800337c   Section        0  stm32f4xx_hal_pcd.o(i.HAL_PCD_EP_Close)
    i.HAL_PCD_EP_ClrStall                    0x080033c4   Section        0  stm32f4xx_hal_pcd.o(i.HAL_PCD_EP_ClrStall)
    i.HAL_PCD_EP_GetRxCount                  0x0800341c   Section        0  stm32f4xx_hal_pcd.o(i.HAL_PCD_EP_GetRxCount)
    i.HAL_PCD_EP_Open                        0x0800342e   Section        0  stm32f4xx_hal_pcd.o(i.HAL_PCD_EP_Open)
    i.HAL_PCD_EP_Receive                     0x0800348a   Section        0  stm32f4xx_hal_pcd.o(i.HAL_PCD_EP_Receive)
    i.HAL_PCD_EP_SetStall                    0x080034bc   Section        0  stm32f4xx_hal_pcd.o(i.HAL_PCD_EP_SetStall)
    i.HAL_PCD_EP_Transmit                    0x0800352c   Section        0  stm32f4xx_hal_pcd.o(i.HAL_PCD_EP_Transmit)
    i.HAL_PCD_IRQHandler                     0x0800355e   Section        0  stm32f4xx_hal_pcd.o(i.HAL_PCD_IRQHandler)
    i.HAL_PCD_ISOINIncompleteCallback        0x08003a66   Section        0  usbd_conf.o(i.HAL_PCD_ISOINIncompleteCallback)
    i.HAL_PCD_ISOOUTIncompleteCallback       0x08003a6e   Section        0  usbd_conf.o(i.HAL_PCD_ISOOUTIncompleteCallback)
    i.HAL_PCD_Init                           0x08003a76   Section        0  stm32f4xx_hal_pcd.o(i.HAL_PCD_Init)
    i.HAL_PCD_MspInit                        0x08003b4c   Section        0  usbd_conf.o(i.HAL_PCD_MspInit)
    i.HAL_PCD_ResetCallback                  0x08003bd0   Section        0  usbd_conf.o(i.HAL_PCD_ResetCallback)
    i.HAL_PCD_ResumeCallback                 0x08003bfe   Section        0  usbd_conf.o(i.HAL_PCD_ResumeCallback)
    i.HAL_PCD_SOFCallback                    0x08003c06   Section        0  usbd_conf.o(i.HAL_PCD_SOFCallback)
    i.HAL_PCD_SetAddress                     0x08003c0e   Section        0  stm32f4xx_hal_pcd.o(i.HAL_PCD_SetAddress)
    i.HAL_PCD_SetupStageCallback             0x08003c34   Section        0  usbd_conf.o(i.HAL_PCD_SetupStageCallback)
    i.HAL_PCD_Start                          0x08003c42   Section        0  stm32f4xx_hal_pcd.o(i.HAL_PCD_Start)
    i.HAL_PCD_SuspendCallback                0x08003c84   Section        0  usbd_conf.o(i.HAL_PCD_SuspendCallback)
    i.HAL_RCC_CSSCallback                    0x08003cb4   Section        0  stm32f4xx_hal_rcc.o(i.HAL_RCC_CSSCallback)
    i.HAL_RCC_ClockConfig                    0x08003cb8   Section        0  stm32f4xx_hal_rcc.o(i.HAL_RCC_ClockConfig)
    i.HAL_RCC_EnableCSS                      0x08003e04   Section        0  stm32f4xx_hal_rcc.o(i.HAL_RCC_EnableCSS)
    i.HAL_RCC_GetClockConfig                 0x08003e10   Section        0  stm32f4xx_hal_rcc.o(i.HAL_RCC_GetClockConfig)
    i.HAL_RCC_GetHCLKFreq                    0x08003e4c   Section        0  stm32f4xx_hal_rcc.o(i.HAL_RCC_GetHCLKFreq)
    i.HAL_RCC_GetPCLK1Freq                   0x08003e58   Section        0  stm32f4xx_hal_rcc.o(i.HAL_RCC_GetPCLK1Freq)
    i.HAL_RCC_GetPCLK2Freq                   0x08003e78   Section        0  stm32f4xx_hal_rcc.o(i.HAL_RCC_GetPCLK2Freq)
    i.HAL_RCC_GetSysClockFreq                0x08003e98   Section        0  stm32f4xx_hal_rcc.o(i.HAL_RCC_GetSysClockFreq)
    i.HAL_RCC_NMI_IRQHandler                 0x08003f04   Section        0  stm32f4xx_hal_rcc.o(i.HAL_RCC_NMI_IRQHandler)
    i.HAL_RCC_OscConfig                      0x08003f20   Section        0  stm32f4xx_hal_rcc.o(i.HAL_RCC_OscConfig)
    i.HAL_SPI_Init                           0x080042e0   Section        0  stm32f4xx_hal_spi.o(i.HAL_SPI_Init)
    i.HAL_SPI_MspInit                        0x080043a0   Section        0  spi.o(i.HAL_SPI_MspInit)
    i.HAL_SPI_TransmitReceive                0x08004430   Section        0  stm32f4xx_hal_spi.o(i.HAL_SPI_TransmitReceive)
    i.HAL_TIMEx_BreakCallback                0x08004626   Section        0  stm32f4xx_hal_tim_ex.o(i.HAL_TIMEx_BreakCallback)
    i.HAL_TIMEx_CommutCallback               0x08004628   Section        0  stm32f4xx_hal_tim_ex.o(i.HAL_TIMEx_CommutCallback)
    i.HAL_TIMEx_MasterConfigSynchronization  0x0800462c   Section        0  stm32f4xx_hal_tim_ex.o(i.HAL_TIMEx_MasterConfigSynchronization)
    i.HAL_TIM_Base_Init                      0x080046bc   Section        0  stm32f4xx_hal_tim.o(i.HAL_TIM_Base_Init)
    i.HAL_TIM_Base_MspInit                   0x08004708   Section        0  tim.o(i.HAL_TIM_Base_MspInit)
    i.HAL_TIM_Base_Start_IT                  0x08004750   Section        0  stm32f4xx_hal_tim.o(i.HAL_TIM_Base_Start_IT)
    i.HAL_TIM_ConfigClockSource              0x080047dc   Section        0  stm32f4xx_hal_tim.o(i.HAL_TIM_ConfigClockSource)
    i.HAL_TIM_IC_CaptureCallback             0x080048c4   Section        0  stm32f4xx_hal_tim.o(i.HAL_TIM_IC_CaptureCallback)
    i.HAL_TIM_IRQHandler                     0x080048c6   Section        0  stm32f4xx_hal_tim.o(i.HAL_TIM_IRQHandler)
    i.HAL_TIM_MspPostInit                    0x08004a00   Section        0  tim.o(i.HAL_TIM_MspPostInit)
    i.HAL_TIM_OC_DelayElapsedCallback        0x08004a88   Section        0  stm32f4xx_hal_tim.o(i.HAL_TIM_OC_DelayElapsedCallback)
    i.HAL_TIM_PWM_ConfigChannel              0x08004a8a   Section        0  stm32f4xx_hal_tim.o(i.HAL_TIM_PWM_ConfigChannel)
    i.HAL_TIM_PWM_Init                       0x08004b62   Section        0  stm32f4xx_hal_tim.o(i.HAL_TIM_PWM_Init)
    i.HAL_TIM_PWM_MspInit                    0x08004bac   Section        0  stm32f4xx_hal_tim.o(i.HAL_TIM_PWM_MspInit)
    i.HAL_TIM_PWM_PulseFinishedCallback      0x08004bae   Section        0  stm32f4xx_hal_tim.o(i.HAL_TIM_PWM_PulseFinishedCallback)
    i.HAL_TIM_PWM_Start                      0x08004bb0   Section        0  stm32f4xx_hal_tim.o(i.HAL_TIM_PWM_Start)
    i.HAL_TIM_PeriodElapsedCallback          0x08004c8c   Section        0  main.o(i.HAL_TIM_PeriodElapsedCallback)
    i.HAL_TIM_TriggerCallback                0x08004c9a   Section        0  stm32f4xx_hal_tim.o(i.HAL_TIM_TriggerCallback)
    i.HAL_UARTEx_RxEventCallback             0x08004c9c   Section        0  bsp_uart.o(i.HAL_UARTEx_RxEventCallback)
    i.HAL_UART_ErrorCallback                 0x08004cec   Section        0  stm32f4xx_hal_uart.o(i.HAL_UART_ErrorCallback)
    i.HAL_UART_IRQHandler                    0x08004cf0   Section        0  stm32f4xx_hal_uart.o(i.HAL_UART_IRQHandler)
    i.HAL_UART_Init                          0x08004f20   Section        0  stm32f4xx_hal_uart.o(i.HAL_UART_Init)
    i.HAL_UART_MspInit                       0x08004f88   Section        0  usart.o(i.HAL_UART_MspInit)
    i.HAL_UART_RxCpltCallback                0x080051f4   Section        0  stm32f4xx_hal_uart.o(i.HAL_UART_RxCpltCallback)
    i.HAL_UART_TxCpltCallback                0x080051f6   Section        0  stm32f4xx_hal_uart.o(i.HAL_UART_TxCpltCallback)
    i.Haltick                                0x080051f8   Section        0  bsp_tick.o(i.Haltick)
    Haltick                                  0x080051f9   Thumb Code    26  bsp_tick.o(i.Haltick)
    i.HardFault_Handler                      0x08005212   Section        0  stm32f4xx_it.o(i.HardFault_Handler)
    i.Heat_Power_Control                     0x08005214   Section        0  bsp_tim.o(i.Heat_Power_Control)
    i.INSTask_Init                           0x08005224   Section        0  ins_task.o(i.INSTask_Init)
    INSTask_Init                             0x08005225   Thumb Code    74  ins_task.o(i.INSTask_Init)
    i.INS_Task                               0x08005284   Section        0  ins_task.o(i.INS_Task)
    i.IntToUnicode                           0x080053f0   Section        0  usbd_desc.o(i.IntToUnicode)
    IntToUnicode                             0x080053f1   Thumb Code    58  usbd_desc.o(i.IntToUnicode)
    i.Kalman_Filter_Init                     0x0800542a   Section        0  kalman.o(i.Kalman_Filter_Init)
    i.Kalman_Filter_K_Update                 0x08005794   Section        0  kalman.o(i.Kalman_Filter_K_Update)
    Kalman_Filter_K_Update                   0x08005795   Thumb Code   192  kalman.o(i.Kalman_Filter_K_Update)
    i.Kalman_Filter_Measurement_Update       0x08005854   Section        0  kalman.o(i.Kalman_Filter_Measurement_Update)
    Kalman_Filter_Measurement_Update         0x08005855   Thumb Code    58  kalman.o(i.Kalman_Filter_Measurement_Update)
    i.Kalman_Filter_P_Update                 0x0800588e   Section        0  kalman.o(i.Kalman_Filter_P_Update)
    Kalman_Filter_P_Update                   0x0800588f   Thumb Code   104  kalman.o(i.Kalman_Filter_P_Update)
    i.Kalman_Filter_Pminus_Update            0x080058f6   Section        0  kalman.o(i.Kalman_Filter_Pminus_Update)
    Kalman_Filter_Pminus_Update              0x080058f7   Thumb Code   106  kalman.o(i.Kalman_Filter_Pminus_Update)
    i.Kalman_Filter_Update                   0x08005960   Section        0  kalman.o(i.Kalman_Filter_Update)
    i.Kalman_Filter_xhat_Update              0x080059e6   Section        0  kalman.o(i.Kalman_Filter_xhat_Update)
    Kalman_Filter_xhat_Update                0x080059e7   Thumb Code   128  kalman.o(i.Kalman_Filter_xhat_Update)
    i.Kalman_Filter_xhatminus_Update         0x08005a66   Section        0  kalman.o(i.Kalman_Filter_xhatminus_Update)
    Kalman_Filter_xhatminus_Update           0x08005a67   Thumb Code   116  kalman.o(i.Kalman_Filter_xhatminus_Update)
    i.LowPassFilter2p_Init                   0x08005adc   Section        0  lpf.o(i.LowPassFilter2p_Init)
    i.LowPassFilter2p_Update                 0x08005b10   Section        0  lpf.o(i.LowPassFilter2p_Update)
    i.MCU_Init                               0x08005b5c   Section        0  bsp_mcu.o(i.MCU_Init)
    i.MX_CAN1_Init                           0x08005b7c   Section        0  can.o(i.MX_CAN1_Init)
    i.MX_CAN2_Init                           0x08005bc4   Section        0  can.o(i.MX_CAN2_Init)
    i.MX_DMA_Init                            0x08005c0c   Section        0  dma.o(i.MX_DMA_Init)
    i.MX_FREERTOS_Init                       0x08005c88   Section        0  freertos.o(i.MX_FREERTOS_Init)
    i.MX_GPIO_Init                           0x08005d1c   Section        0  gpio.o(i.MX_GPIO_Init)
    i.MX_SPI1_Init                           0x08005e50   Section        0  spi.o(i.MX_SPI1_Init)
    i.MX_TIM10_Init                          0x08005e98   Section        0  tim.o(i.MX_TIM10_Init)
    i.MX_TIM4_Init                           0x08005f00   Section        0  tim.o(i.MX_TIM4_Init)
    i.MX_USART1_UART_Init                    0x08005f98   Section        0  usart.o(i.MX_USART1_UART_Init)
    i.MX_USART3_UART_Init                    0x08005fd0   Section        0  usart.o(i.MX_USART3_UART_Init)
    i.MX_USART6_UART_Init                    0x0800600c   Section        0  usart.o(i.MX_USART6_UART_Init)
    i.MX_USB_DEVICE_Init                     0x08006044   Section        0  usb_device.o(i.MX_USB_DEVICE_Init)
    i.MemManage_Handler                      0x080060c4   Section        0  stm32f4xx_it.o(i.MemManage_Handler)
    i.MiniPC_RecvFrameInfo                   0x080060c8   Section        0  minipc.o(i.MiniPC_RecvFrameInfo)
    i.Mode_Judeg                             0x080060f8   Section        0  system_task.o(i.Mode_Judeg)
    Mode_Judeg                               0x080060f9   Thumb Code   154  system_task.o(i.Mode_Judeg)
    i.NMI_Handler                            0x080061a4   Section        0  stm32f4xx_it.o(i.NMI_Handler)
    i.OTG_FS_IRQHandler                      0x080061ac   Section        0  stm32f4xx_it.o(i.OTG_FS_IRQHandler)
    i.PCD_EP_OutSetupPacket_int              0x080061b8   Section        0  stm32f4xx_hal_pcd.o(i.PCD_EP_OutSetupPacket_int)
    PCD_EP_OutSetupPacket_int                0x080061b9   Thumb Code    66  stm32f4xx_hal_pcd.o(i.PCD_EP_OutSetupPacket_int)
    i.PCD_EP_OutXfrComplete_int              0x08006200   Section        0  stm32f4xx_hal_pcd.o(i.PCD_EP_OutXfrComplete_int)
    PCD_EP_OutXfrComplete_int                0x08006201   Thumb Code   220  stm32f4xx_hal_pcd.o(i.PCD_EP_OutXfrComplete_int)
    i.PCD_WriteEmptyTxFifo                   0x080062e4   Section        0  stm32f4xx_hal_pcd.o(i.PCD_WriteEmptyTxFifo)
    PCD_WriteEmptyTxFifo                     0x080062e5   Thumb Code   156  stm32f4xx_hal_pcd.o(i.PCD_WriteEmptyTxFifo)
    i.PID_Calc_Clear                         0x08006380   Section        0  pid.o(i.PID_Calc_Clear)
    PID_Calc_Clear                           0x08006381   Thumb Code    34  pid.o(i.PID_Calc_Clear)
    i.PID_ErrorHandle                        0x080063a8   Section        0  pid.o(i.PID_ErrorHandle)
    PID_ErrorHandle                          0x080063a9   Thumb Code    44  pid.o(i.PID_ErrorHandle)
    i.PID_Init                               0x080063d4   Section        0  pid.o(i.PID_Init)
    i.PID_Param_Init                         0x08006400   Section        0  pid.o(i.PID_Param_Init)
    PID_Param_Init                           0x08006401   Thumb Code    70  pid.o(i.PID_Param_Init)
    i.QuaternionEKF_A_Update                 0x08006448   Section        0  api_quaternion.o(i.QuaternionEKF_A_Update)
    QuaternionEKF_A_Update                   0x08006449   Thumb Code   404  api_quaternion.o(i.QuaternionEKF_A_Update)
    i.QuaternionEKF_ChiSqrtTest              0x080065ec   Section        0  api_quaternion.o(i.QuaternionEKF_ChiSqrtTest)
    QuaternionEKF_ChiSqrtTest                0x080065ed   Thumb Code   302  api_quaternion.o(i.QuaternionEKF_ChiSqrtTest)
    i.QuaternionEKF_H_Update                 0x08006724   Section        0  api_quaternion.o(i.QuaternionEKF_H_Update)
    QuaternionEKF_H_Update                   0x08006725   Thumb Code   230  api_quaternion.o(i.QuaternionEKF_H_Update)
    i.QuaternionEKF_Init                     0x0800680c   Section        0  api_quaternion.o(i.QuaternionEKF_Init)
    i.QuaternionEKF_Update                   0x080068c8   Section        0  api_quaternion.o(i.QuaternionEKF_Update)
    i.QuaternionEKF_xhat_Update              0x08006c08   Section        0  api_quaternion.o(i.QuaternionEKF_xhat_Update)
    QuaternionEKF_xhat_Update                0x08006c09   Thumb Code   684  api_quaternion.o(i.QuaternionEKF_xhat_Update)
    i.Referee_Frame_Update_C                 0x08006ec4   Section        0  referee_info.o(i.Referee_Frame_Update_C)
    i.Remote_Message_Moniter                 0x08006f04   Section        0  remote_control.o(i.Remote_Message_Moniter)
    i.SBUS_TO_RC                             0x08006f26   Section        0  remote_control.o(i.SBUS_TO_RC)
    i.SPI_EndRxTxTransaction                 0x08006ff0   Section        0  stm32f4xx_hal_spi.o(i.SPI_EndRxTxTransaction)
    SPI_EndRxTxTransaction                   0x08006ff1   Thumb Code   114  stm32f4xx_hal_spi.o(i.SPI_EndRxTxTransaction)
    i.SPI_WaitFlagStateUntilTimeout          0x0800706c   Section        0  stm32f4xx_hal_spi.o(i.SPI_WaitFlagStateUntilTimeout)
    SPI_WaitFlagStateUntilTimeout            0x0800706d   Thumb Code   184  stm32f4xx_hal_spi.o(i.SPI_WaitFlagStateUntilTimeout)
    i.SWAPBYTE                               0x08007128   Section        0  usbd_ctlreq.o(i.SWAPBYTE)
    SWAPBYTE                                 0x08007129   Thumb Code    10  usbd_ctlreq.o(i.SWAPBYTE)
    i.Solve                                  0x08007134   Section        0  chassis_task.o(i.Solve)
    Solve                                    0x08007135   Thumb Code   308  chassis_task.o(i.Solve)
    i.SysTick_Handler                        0x08007288   Section        0  port.o(i.SysTick_Handler)
    i.SystemClock_Config                     0x080072b4   Section        0  main.o(i.SystemClock_Config)
    i.SystemInit                             0x0800734c   Section        0  system_stm32f4xx.o(i.SystemInit)
    i.System_Task                            0x0800735c   Section        0  system_task.o(i.System_Task)
    i.TIM2_IRQHandler                        0x080073bc   Section        0  stm32f4xx_it.o(i.TIM2_IRQHandler)
    i.TIM_Base_SetConfig                     0x080073c8   Section        0  stm32f4xx_hal_tim.o(i.TIM_Base_SetConfig)
    i.TIM_CCxChannelCmd                      0x080074a4   Section        0  stm32f4xx_hal_tim.o(i.TIM_CCxChannelCmd)
    i.TIM_ETR_SetConfig                      0x080074be   Section        0  stm32f4xx_hal_tim.o(i.TIM_ETR_SetConfig)
    i.TIM_ITRx_SetConfig                     0x080074d2   Section        0  stm32f4xx_hal_tim.o(i.TIM_ITRx_SetConfig)
    TIM_ITRx_SetConfig                       0x080074d3   Thumb Code    16  stm32f4xx_hal_tim.o(i.TIM_ITRx_SetConfig)
    i.TIM_OC1_SetConfig                      0x080074e4   Section        0  stm32f4xx_hal_tim.o(i.TIM_OC1_SetConfig)
    TIM_OC1_SetConfig                        0x080074e5   Thumb Code    96  stm32f4xx_hal_tim.o(i.TIM_OC1_SetConfig)
    i.TIM_OC2_SetConfig                      0x0800754c   Section        0  stm32f4xx_hal_tim.o(i.TIM_OC2_SetConfig)
    i.TIM_OC3_SetConfig                      0x080075c0   Section        0  stm32f4xx_hal_tim.o(i.TIM_OC3_SetConfig)
    TIM_OC3_SetConfig                        0x080075c1   Thumb Code   104  stm32f4xx_hal_tim.o(i.TIM_OC3_SetConfig)
    i.TIM_OC4_SetConfig                      0x08007630   Section        0  stm32f4xx_hal_tim.o(i.TIM_OC4_SetConfig)
    TIM_OC4_SetConfig                        0x08007631   Thumb Code    74  stm32f4xx_hal_tim.o(i.TIM_OC4_SetConfig)
    i.TIM_TI1_ConfigInputStage               0x08007684   Section        0  stm32f4xx_hal_tim.o(i.TIM_TI1_ConfigInputStage)
    TIM_TI1_ConfigInputStage                 0x08007685   Thumb Code    34  stm32f4xx_hal_tim.o(i.TIM_TI1_ConfigInputStage)
    i.TIM_TI2_ConfigInputStage               0x080076a6   Section        0  stm32f4xx_hal_tim.o(i.TIM_TI2_ConfigInputStage)
    TIM_TI2_ConfigInputStage                 0x080076a7   Thumb Code    36  stm32f4xx_hal_tim.o(i.TIM_TI2_ConfigInputStage)
    i.UART_DMAAbortOnError                   0x080076ca   Section        0  stm32f4xx_hal_uart.o(i.UART_DMAAbortOnError)
    UART_DMAAbortOnError                     0x080076cb   Thumb Code    16  stm32f4xx_hal_uart.o(i.UART_DMAAbortOnError)
    i.UART_EndRxTransfer                     0x080076da   Section        0  stm32f4xx_hal_uart.o(i.UART_EndRxTransfer)
    UART_EndRxTransfer                       0x080076db   Thumb Code    78  stm32f4xx_hal_uart.o(i.UART_EndRxTransfer)
    i.UART_EndTransmit_IT                    0x08007728   Section        0  stm32f4xx_hal_uart.o(i.UART_EndTransmit_IT)
    UART_EndTransmit_IT                      0x08007729   Thumb Code    26  stm32f4xx_hal_uart.o(i.UART_EndTransmit_IT)
    i.UART_Receive_IT                        0x08007742   Section        0  stm32f4xx_hal_uart.o(i.UART_Receive_IT)
    UART_Receive_IT                          0x08007743   Thumb Code   200  stm32f4xx_hal_uart.o(i.UART_Receive_IT)
    i.UART_SetConfig                         0x0800780c   Section        0  stm32f4xx_hal_uart.o(i.UART_SetConfig)
    UART_SetConfig                           0x0800780d   Thumb Code   266  stm32f4xx_hal_uart.o(i.UART_SetConfig)
    i.UART_Transmit_IT                       0x08007920   Section        0  stm32f4xx_hal_uart.o(i.UART_Transmit_IT)
    UART_Transmit_IT                         0x08007921   Thumb Code    94  stm32f4xx_hal_uart.o(i.UART_Transmit_IT)
    i.USART1_IRQHandler                      0x08007980   Section        0  stm32f4xx_it.o(i.USART1_IRQHandler)
    i.USART3_IRQHandler                      0x0800798c   Section        0  stm32f4xx_it.o(i.USART3_IRQHandler)
    i.USART6_IRQHandler                      0x08007998   Section        0  stm32f4xx_it.o(i.USART6_IRQHandler)
    i.USART_RxDMA_MultiBufferStart           0x080079a4   Section        0  bsp_uart.o(i.USART_RxDMA_MultiBufferStart)
    USART_RxDMA_MultiBufferStart             0x080079a5   Thumb Code   104  bsp_uart.o(i.USART_RxDMA_MultiBufferStart)
    i.USBD_CDC_DataIn                        0x08007a0c   Section        0  usbd_cdc.o(i.USBD_CDC_DataIn)
    USBD_CDC_DataIn                          0x08007a0d   Thumb Code   120  usbd_cdc.o(i.USBD_CDC_DataIn)
    i.USBD_CDC_DataOut                       0x08007a84   Section        0  usbd_cdc.o(i.USBD_CDC_DataOut)
    USBD_CDC_DataOut                         0x08007a85   Thumb Code    62  usbd_cdc.o(i.USBD_CDC_DataOut)
    i.USBD_CDC_DeInit                        0x08007ac4   Section        0  usbd_cdc.o(i.USBD_CDC_DeInit)
    USBD_CDC_DeInit                          0x08007ac5   Thumb Code   142  usbd_cdc.o(i.USBD_CDC_DeInit)
    i.USBD_CDC_EP0_RxReady                   0x08007b58   Section        0  usbd_cdc.o(i.USBD_CDC_EP0_RxReady)
    USBD_CDC_EP0_RxReady                     0x08007b59   Thumb Code    56  usbd_cdc.o(i.USBD_CDC_EP0_RxReady)
    i.USBD_CDC_GetDeviceQualifierDescriptor  0x08007b90   Section        0  usbd_cdc.o(i.USBD_CDC_GetDeviceQualifierDescriptor)
    i.USBD_CDC_GetFSCfgDesc                  0x08007b9c   Section        0  usbd_cdc.o(i.USBD_CDC_GetFSCfgDesc)
    USBD_CDC_GetFSCfgDesc                    0x08007b9d   Thumb Code    56  usbd_cdc.o(i.USBD_CDC_GetFSCfgDesc)
    i.USBD_CDC_GetHSCfgDesc                  0x08007bd8   Section        0  usbd_cdc.o(i.USBD_CDC_GetHSCfgDesc)
    USBD_CDC_GetHSCfgDesc                    0x08007bd9   Thumb Code    58  usbd_cdc.o(i.USBD_CDC_GetHSCfgDesc)
    i.USBD_CDC_GetOtherSpeedCfgDesc          0x08007c18   Section        0  usbd_cdc.o(i.USBD_CDC_GetOtherSpeedCfgDesc)
    USBD_CDC_GetOtherSpeedCfgDesc            0x08007c19   Thumb Code    56  usbd_cdc.o(i.USBD_CDC_GetOtherSpeedCfgDesc)
    i.USBD_CDC_Init                          0x08007c54   Section        0  usbd_cdc.o(i.USBD_CDC_Init)
    USBD_CDC_Init                            0x08007c55   Thumb Code   342  usbd_cdc.o(i.USBD_CDC_Init)
    i.USBD_CDC_ReceivePacket                 0x08007db0   Section        0  usbd_cdc.o(i.USBD_CDC_ReceivePacket)
    i.USBD_CDC_RegisterInterface             0x08007df0   Section        0  usbd_cdc.o(i.USBD_CDC_RegisterInterface)
    i.USBD_CDC_SetRxBuffer                   0x08007e08   Section        0  usbd_cdc.o(i.USBD_CDC_SetRxBuffer)
    i.USBD_CDC_SetTxBuffer                   0x08007e24   Section        0  usbd_cdc.o(i.USBD_CDC_SetTxBuffer)
    i.USBD_CDC_Setup                         0x08007e44   Section        0  usbd_cdc.o(i.USBD_CDC_Setup)
    USBD_CDC_Setup                           0x08007e45   Thumb Code   266  usbd_cdc.o(i.USBD_CDC_Setup)
    i.USBD_ClrClassConfig                    0x08007f4e   Section        0  usbd_core.o(i.USBD_ClrClassConfig)
    i.USBD_ClrFeature                        0x08007f62   Section        0  usbd_ctlreq.o(i.USBD_ClrFeature)
    USBD_ClrFeature                          0x08007f63   Thumb Code    38  usbd_ctlreq.o(i.USBD_ClrFeature)
    i.USBD_CoreFindEP                        0x08007f88   Section        0  usbd_core.o(i.USBD_CoreFindEP)
    i.USBD_CoreFindIF                        0x08007f8c   Section        0  usbd_core.o(i.USBD_CoreFindIF)
    i.USBD_CtlContinueRx                     0x08007f90   Section        0  usbd_ioreq.o(i.USBD_CtlContinueRx)
    i.USBD_CtlContinueSendData               0x08007fa0   Section        0  usbd_ioreq.o(i.USBD_CtlContinueSendData)
    i.USBD_CtlError                          0x08007fb0   Section        0  usbd_ctlreq.o(i.USBD_CtlError)
    i.USBD_CtlPrepareRx                      0x08007fc8   Section        0  usbd_ioreq.o(i.USBD_CtlPrepareRx)
    i.USBD_CtlReceiveStatus                  0x08007fe6   Section        0  usbd_ioreq.o(i.USBD_CtlReceiveStatus)
    i.USBD_CtlSendData                       0x08007ffc   Section        0  usbd_ioreq.o(i.USBD_CtlSendData)
    i.USBD_CtlSendStatus                     0x08008016   Section        0  usbd_ioreq.o(i.USBD_CtlSendStatus)
    i.USBD_FS_ConfigStrDescriptor            0x0800802c   Section        0  usbd_desc.o(i.USBD_FS_ConfigStrDescriptor)
    i.USBD_FS_DeviceDescriptor               0x0800805c   Section        0  usbd_desc.o(i.USBD_FS_DeviceDescriptor)
    i.USBD_FS_InterfaceStrDescriptor         0x08008068   Section        0  usbd_desc.o(i.USBD_FS_InterfaceStrDescriptor)
    i.USBD_FS_LangIDStrDescriptor            0x0800809c   Section        0  usbd_desc.o(i.USBD_FS_LangIDStrDescriptor)
    i.USBD_FS_ManufacturerStrDescriptor      0x080080a8   Section        0  usbd_desc.o(i.USBD_FS_ManufacturerStrDescriptor)
    i.USBD_FS_ProductStrDescriptor           0x080080d0   Section        0  usbd_desc.o(i.USBD_FS_ProductStrDescriptor)
    i.USBD_FS_SerialStrDescriptor            0x0800810c   Section        0  usbd_desc.o(i.USBD_FS_SerialStrDescriptor)
    i.USBD_GetConfig                         0x08008120   Section        0  usbd_ctlreq.o(i.USBD_GetConfig)
    USBD_GetConfig                           0x08008121   Thumb Code    58  usbd_ctlreq.o(i.USBD_GetConfig)
    i.USBD_GetDescriptor                     0x0800815a   Section        0  usbd_ctlreq.o(i.USBD_GetDescriptor)
    USBD_GetDescriptor                       0x0800815b   Thumb Code   432  usbd_ctlreq.o(i.USBD_GetDescriptor)
    i.USBD_GetEpDesc                         0x0800830a   Section        0  usbd_core.o(i.USBD_GetEpDesc)
    i.USBD_GetLen                            0x08008344   Section        0  usbd_ctlreq.o(i.USBD_GetLen)
    USBD_GetLen                              0x08008345   Thumb Code    20  usbd_ctlreq.o(i.USBD_GetLen)
    i.USBD_GetNextDesc                       0x08008358   Section        0  usbd_core.o(i.USBD_GetNextDesc)
    i.USBD_GetStatus                         0x08008366   Section        0  usbd_ctlreq.o(i.USBD_GetStatus)
    USBD_GetStatus                           0x08008367   Thumb Code    60  usbd_ctlreq.o(i.USBD_GetStatus)
    i.USBD_GetString                         0x080083a2   Section        0  usbd_ctlreq.o(i.USBD_GetString)
    i.USBD_Get_USB_Status                    0x080083e0   Section        0  usbd_conf.o(i.USBD_Get_USB_Status)
    i.USBD_Init                              0x08008404   Section        0  usbd_core.o(i.USBD_Init)
    i.USBD_LL_ClearStallEP                   0x0800842c   Section        0  usbd_conf.o(i.USBD_LL_ClearStallEP)
    i.USBD_LL_CloseEP                        0x0800843e   Section        0  usbd_conf.o(i.USBD_LL_CloseEP)
    i.USBD_LL_DataInStage                    0x08008450   Section        0  usbd_core.o(i.USBD_LL_DataInStage)
    i.USBD_LL_DataOutStage                   0x0800852c   Section        0  usbd_core.o(i.USBD_LL_DataOutStage)
    i.USBD_LL_DevConnected                   0x080085f6   Section        0  usbd_core.o(i.USBD_LL_DevConnected)
    i.USBD_LL_DevDisconnected                0x080085fa   Section        0  usbd_core.o(i.USBD_LL_DevDisconnected)
    i.USBD_LL_GetRxDataSize                  0x0800861a   Section        0  usbd_conf.o(i.USBD_LL_GetRxDataSize)
    i.USBD_LL_Init                           0x08008624   Section        0  usbd_conf.o(i.USBD_LL_Init)
    i.USBD_LL_IsStallEP                      0x08008684   Section        0  usbd_conf.o(i.USBD_LL_IsStallEP)
    i.USBD_LL_IsoINIncomplete                0x080086a2   Section        0  usbd_core.o(i.USBD_LL_IsoINIncomplete)
    i.USBD_LL_IsoOUTIncomplete               0x080086cc   Section        0  usbd_core.o(i.USBD_LL_IsoOUTIncomplete)
    i.USBD_LL_OpenEP                         0x080086f6   Section        0  usbd_conf.o(i.USBD_LL_OpenEP)
    i.USBD_LL_PrepareReceive                 0x0800870e   Section        0  usbd_conf.o(i.USBD_LL_PrepareReceive)
    i.USBD_LL_Reset                          0x08008720   Section        0  usbd_core.o(i.USBD_LL_Reset)
    i.USBD_LL_Resume                         0x08008780   Section        0  usbd_core.o(i.USBD_LL_Resume)
    i.USBD_LL_SOF                            0x08008794   Section        0  usbd_core.o(i.USBD_LL_SOF)
    i.USBD_LL_SetSpeed                       0x080087ae   Section        0  usbd_core.o(i.USBD_LL_SetSpeed)
    i.USBD_LL_SetUSBAddress                  0x080087b4   Section        0  usbd_conf.o(i.USBD_LL_SetUSBAddress)
    i.USBD_LL_SetupStage                     0x080087c6   Section        0  usbd_core.o(i.USBD_LL_SetupStage)
    i.USBD_LL_StallEP                        0x08008826   Section        0  usbd_conf.o(i.USBD_LL_StallEP)
    i.USBD_LL_Start                          0x08008838   Section        0  usbd_conf.o(i.USBD_LL_Start)
    i.USBD_LL_Suspend                        0x0800884a   Section        0  usbd_core.o(i.USBD_LL_Suspend)
    i.USBD_LL_Transmit                       0x08008864   Section        0  usbd_conf.o(i.USBD_LL_Transmit)
    i.USBD_ParseSetupRequest                 0x08008876   Section        0  usbd_ctlreq.o(i.USBD_ParseSetupRequest)
    i.USBD_RegisterClass                     0x080088a8   Section        0  usbd_core.o(i.USBD_RegisterClass)
    i.USBD_RunTestMode                       0x080088e2   Section        0  usbd_core.o(i.USBD_RunTestMode)
    i.USBD_SetAddress                        0x080088e6   Section        0  usbd_ctlreq.o(i.USBD_SetAddress)
    USBD_SetAddress                          0x080088e7   Thumb Code    88  usbd_ctlreq.o(i.USBD_SetAddress)
    i.USBD_SetClassConfig                    0x0800893e   Section        0  usbd_core.o(i.USBD_SetClassConfig)
    i.USBD_SetConfig                         0x08008954   Section        0  usbd_ctlreq.o(i.USBD_SetConfig)
    USBD_SetConfig                           0x08008955   Thumb Code   214  usbd_ctlreq.o(i.USBD_SetConfig)
    i.USBD_SetFeature                        0x08008a30   Section        0  usbd_ctlreq.o(i.USBD_SetFeature)
    USBD_SetFeature                          0x08008a31   Thumb Code    36  usbd_ctlreq.o(i.USBD_SetFeature)
    i.USBD_Start                             0x08008a54   Section        0  usbd_core.o(i.USBD_Start)
    i.USBD_StdDevReq                         0x08008a58   Section        0  usbd_ctlreq.o(i.USBD_StdDevReq)
    i.USBD_StdEPReq                          0x08008ace   Section        0  usbd_ctlreq.o(i.USBD_StdEPReq)
    i.USBD_StdItfReq                         0x08008cee   Section        0  usbd_ctlreq.o(i.USBD_StdItfReq)
    i.USBD_static_free                       0x08008d7c   Section        0  usbd_conf.o(i.USBD_static_free)
    i.USBD_static_malloc                     0x08008d80   Section        0  usbd_conf.o(i.USBD_static_malloc)
    i.USB_ActivateEndpoint                   0x08008d88   Section        0  stm32f4xx_ll_usb.o(i.USB_ActivateEndpoint)
    i.USB_ActivateSetup                      0x08008e0c   Section        0  stm32f4xx_ll_usb.o(i.USB_ActivateSetup)
    i.USB_CoreInit                           0x08008e28   Section        0  stm32f4xx_ll_usb.o(i.USB_CoreInit)
    i.USB_CoreReset                          0x08008eb0   Section        0  stm32f4xx_ll_usb.o(i.USB_CoreReset)
    USB_CoreReset                            0x08008eb1   Thumb Code    68  stm32f4xx_ll_usb.o(i.USB_CoreReset)
    i.USB_DeactivateEndpoint                 0x08008ef4   Section        0  stm32f4xx_ll_usb.o(i.USB_DeactivateEndpoint)
    i.USB_DevConnect                         0x08008fbc   Section        0  stm32f4xx_ll_usb.o(i.USB_DevConnect)
    i.USB_DevDisconnect                      0x08008fd8   Section        0  stm32f4xx_ll_usb.o(i.USB_DevDisconnect)
    i.USB_DevInit                            0x08008ff4   Section        0  stm32f4xx_ll_usb.o(i.USB_DevInit)
    i.USB_DisableGlobalInt                   0x08009168   Section        0  stm32f4xx_ll_usb.o(i.USB_DisableGlobalInt)
    i.USB_EP0_OutStart                       0x08009174   Section        0  stm32f4xx_ll_usb.o(i.USB_EP0_OutStart)
    i.USB_EPClearStall                       0x080091c8   Section        0  stm32f4xx_ll_usb.o(i.USB_EPClearStall)
    i.USB_EPSetStall                         0x08009220   Section        0  stm32f4xx_ll_usb.o(i.USB_EPSetStall)
    i.USB_EPStartXfer                        0x08009278   Section        0  stm32f4xx_ll_usb.o(i.USB_EPStartXfer)
    i.USB_EPStopXfer                         0x080094c4   Section        0  stm32f4xx_ll_usb.o(i.USB_EPStopXfer)
    i.USB_EnableGlobalInt                    0x08009568   Section        0  stm32f4xx_ll_usb.o(i.USB_EnableGlobalInt)
    i.USB_FlushRxFifo                        0x08009574   Section        0  stm32f4xx_ll_usb.o(i.USB_FlushRxFifo)
    i.USB_FlushTxFifo                        0x080095b4   Section        0  stm32f4xx_ll_usb.o(i.USB_FlushTxFifo)
    i.USB_GetDevSpeed                        0x080095f8   Section        0  stm32f4xx_ll_usb.o(i.USB_GetDevSpeed)
    i.USB_GetMode                            0x08009618   Section        0  stm32f4xx_ll_usb.o(i.USB_GetMode)
    i.USB_ReadDevAllInEpInterrupt            0x08009620   Section        0  stm32f4xx_ll_usb.o(i.USB_ReadDevAllInEpInterrupt)
    i.USB_ReadDevAllOutEpInterrupt           0x0800962e   Section        0  stm32f4xx_ll_usb.o(i.USB_ReadDevAllOutEpInterrupt)
    i.USB_ReadDevInEPInterrupt               0x0800963c   Section        0  stm32f4xx_ll_usb.o(i.USB_ReadDevInEPInterrupt)
    i.USB_ReadDevOutEPInterrupt              0x08009660   Section        0  stm32f4xx_ll_usb.o(i.USB_ReadDevOutEPInterrupt)
    i.USB_ReadInterrupts                     0x08009670   Section        0  stm32f4xx_ll_usb.o(i.USB_ReadInterrupts)
    i.USB_ReadPacket                         0x08009678   Section        0  stm32f4xx_ll_usb.o(i.USB_ReadPacket)
    i.USB_SetCurrentMode                     0x080096b6   Section        0  stm32f4xx_ll_usb.o(i.USB_SetCurrentMode)
    i.USB_SetDevAddress                      0x08009716   Section        0  stm32f4xx_ll_usb.o(i.USB_SetDevAddress)
    i.USB_SetDevSpeed                        0x08009734   Section        0  stm32f4xx_ll_usb.o(i.USB_SetDevSpeed)
    i.USB_SetTurnaroundTime                  0x08009744   Section        0  stm32f4xx_ll_usb.o(i.USB_SetTurnaroundTime)
    i.USB_WritePacket                        0x08009838   Section        0  stm32f4xx_ll_usb.o(i.USB_WritePacket)
    i.USER_CAN_TxMessage                     0x08009860   Section        0  bsp_can.o(i.USER_CAN_TxMessage)
    i.USER_USART1_RxHandler                  0x080098b0   Section        0  bsp_uart.o(i.USER_USART1_RxHandler)
    USER_USART1_RxHandler                    0x080098b1   Thumb Code   144  bsp_uart.o(i.USER_USART1_RxHandler)
    i.USER_USART3_RxHandler                  0x08009944   Section        0  bsp_uart.o(i.USER_USART3_RxHandler)
    USER_USART3_RxHandler                    0x08009945   Thumb Code   102  bsp_uart.o(i.USER_USART3_RxHandler)
    i.UsageFault_Handler                     0x080099b4   Section        0  stm32f4xx_it.o(i.UsageFault_Handler)
    i.User_Tim_SetCompare                    0x080099b6   Section        0  bsp_tim.o(i.User_Tim_SetCompare)
    User_Tim_SetCompare                      0x080099b7   Thumb Code    40  bsp_tim.o(i.User_Tim_SetCompare)
    i.Vision_Task                            0x080099de   Section        0  vision_task.o(i.Vision_Task)
    i.__ARM_fpclassifyf                      0x080099e6   Section        0  fpclassifyf.o(i.__ARM_fpclassifyf)
    i.__NVIC_SetPriority                     0x08009a0c   Section        0  stm32f4xx_hal_cortex.o(i.__NVIC_SetPriority)
    __NVIC_SetPriority                       0x08009a0d   Thumb Code    32  stm32f4xx_hal_cortex.o(i.__NVIC_SetPriority)
    i.__hardfp_acosf                         0x08009a2c   Section        0  acosf.o(i.__hardfp_acosf)
    i.__hardfp_asinf                         0x08009b44   Section        0  asinf.o(i.__hardfp_asinf)
    i.__hardfp_atan2f                        0x08009c70   Section        0  atan2f.o(i.__hardfp_atan2f)
    i.__mathlib_flt_infnan                   0x08009f1c   Section        0  funder.o(i.__mathlib_flt_infnan)
    i.__mathlib_flt_infnan2                  0x08009f22   Section        0  funder.o(i.__mathlib_flt_infnan2)
    i.__mathlib_flt_invalid                  0x08009f28   Section        0  funder.o(i.__mathlib_flt_invalid)
    i.__mathlib_flt_underflow                0x08009f38   Section        0  funder.o(i.__mathlib_flt_underflow)
    i.encoder_to_anglesum                    0x08009f48   Section        0  motor.o(i.encoder_to_anglesum)
    encoder_to_anglesum                      0x08009f49   Thumb Code   182  motor.o(i.encoder_to_anglesum)
    i.f_PID_Calculate                        0x0800a008   Section        0  pid.o(i.f_PID_Calculate)
    i.f_Ramp_Calc                            0x0800a194   Section        0  ramp.o(i.f_Ramp_Calc)
    i.float_to_uint                          0x0800a1d2   Section        0  motor.o(i.float_to_uint)
    i.get_CRC16_check_sum                    0x0800a1fc   Section        0  crc.o(i.get_CRC16_check_sum)
    i.inHandlerMode                          0x0800a22c   Section        0  cmsis_os.o(i.inHandlerMode)
    inHandlerMode                            0x0800a22d   Thumb Code    16  cmsis_os.o(i.inHandlerMode)
    i.main                                   0x0800a23c   Section        0  main.o(i.main)
    i.makeFreeRtosPriority                   0x0800a27a   Section        0  cmsis_os.o(i.makeFreeRtosPriority)
    makeFreeRtosPriority                     0x0800a27b   Thumb Code    12  cmsis_os.o(i.makeFreeRtosPriority)
    i.osDelay                                0x0800a286   Section        0  cmsis_os.o(i.osDelay)
    i.osDelayUntil                           0x0800a296   Section        0  cmsis_os.o(i.osDelayUntil)
    i.osKernelStart                          0x0800a2a6   Section        0  cmsis_os.o(i.osKernelStart)
    i.osKernelSysTick                        0x0800a2b0   Section        0  cmsis_os.o(i.osKernelSysTick)
    i.osThreadCreate                         0x0800a2c8   Section        0  cmsis_os.o(i.osThreadCreate)
    i.position_to_anglesum                   0x0800a320   Section        0  motor.o(i.position_to_anglesum)
    position_to_anglesum                     0x0800a321   Thumb Code   116  motor.o(i.position_to_anglesum)
    i.prvAddCurrentTaskToDelayedList         0x0800a39c   Section        0  tasks.o(i.prvAddCurrentTaskToDelayedList)
    prvAddCurrentTaskToDelayedList           0x0800a39d   Thumb Code   112  tasks.o(i.prvAddCurrentTaskToDelayedList)
    i.prvAddNewTaskToReadyList               0x0800a414   Section        0  tasks.o(i.prvAddNewTaskToReadyList)
    prvAddNewTaskToReadyList                 0x0800a415   Thumb Code   124  tasks.o(i.prvAddNewTaskToReadyList)
    i.prvCheckTasksWaitingTermination        0x0800a49c   Section        0  tasks.o(i.prvCheckTasksWaitingTermination)
    prvCheckTasksWaitingTermination          0x0800a49d   Thumb Code    52  tasks.o(i.prvCheckTasksWaitingTermination)
    i.prvDeleteTCB                           0x0800a4d8   Section        0  tasks.o(i.prvDeleteTCB)
    prvDeleteTCB                             0x0800a4d9   Thumb Code    64  tasks.o(i.prvDeleteTCB)
    i.prvHeapInit                            0x0800a518   Section        0  heap_4.o(i.prvHeapInit)
    prvHeapInit                              0x0800a519   Thumb Code    68  heap_4.o(i.prvHeapInit)
    i.prvIdleTask                            0x0800a564   Section        0  tasks.o(i.prvIdleTask)
    prvIdleTask                              0x0800a565   Thumb Code    30  tasks.o(i.prvIdleTask)
    i.prvInitialiseNewTask                   0x0800a58c   Section        0  tasks.o(i.prvInitialiseNewTask)
    prvInitialiseNewTask                     0x0800a58d   Thumb Code   172  tasks.o(i.prvInitialiseNewTask)
    i.prvInitialiseTaskLists                 0x0800a638   Section        0  tasks.o(i.prvInitialiseTaskLists)
    prvInitialiseTaskLists                   0x0800a639   Thumb Code    78  tasks.o(i.prvInitialiseTaskLists)
    i.prvInsertBlockIntoFreeList             0x0800a690   Section        0  heap_4.o(i.prvInsertBlockIntoFreeList)
    prvInsertBlockIntoFreeList               0x0800a691   Thumb Code    78  heap_4.o(i.prvInsertBlockIntoFreeList)
    i.prvResetNextTaskUnblockTime            0x0800a6e4   Section        0  tasks.o(i.prvResetNextTaskUnblockTime)
    prvResetNextTaskUnblockTime              0x0800a6e5   Thumb Code    30  tasks.o(i.prvResetNextTaskUnblockTime)
    i.prvTaskExitError                       0x0800a708   Section        0  port.o(i.prvTaskExitError)
    prvTaskExitError                         0x0800a709   Thumb Code    40  port.o(i.prvTaskExitError)
    i.pvPortMalloc                           0x0800a734   Section        0  heap_4.o(i.pvPortMalloc)
    i.pxPortInitialiseStack                  0x0800a810   Section        0  port.o(i.pxPortInitialiseStack)
    i.sqrtf                                  0x0800a834   Section        0  sqrtf.o(i.sqrtf)
    i.uint_to_float                          0x0800a872   Section        0  motor.o(i.uint_to_float)
    i.uxListRemove                           0x0800a89a   Section        0  list.o(i.uxListRemove)
    i.vApplicationGetIdleTaskMemory          0x0800a8c0   Section        0  freertos.o(i.vApplicationGetIdleTaskMemory)
    i.vListInitialise                        0x0800a8d8   Section        0  list.o(i.vListInitialise)
    i.vListInitialiseItem                    0x0800a8ee   Section        0  list.o(i.vListInitialiseItem)
    i.vListInsert                            0x0800a8f4   Section        0  list.o(i.vListInsert)
    i.vListInsertEnd                         0x0800a924   Section        0  list.o(i.vListInsertEnd)
    i.vPortEnterCritical                     0x0800a93c   Section        0  port.o(i.vPortEnterCritical)
    i.vPortExitCritical                      0x0800a97c   Section        0  port.o(i.vPortExitCritical)
    i.vPortFree                              0x0800a9a8   Section        0  heap_4.o(i.vPortFree)
    i.vPortSetupTimerInterrupt               0x0800aa0c   Section        0  port.o(i.vPortSetupTimerInterrupt)
    i.vPortValidateInterruptPriority         0x0800aa30   Section        0  port.o(i.vPortValidateInterruptPriority)
    i.vTaskDelay                             0x0800aa84   Section        0  tasks.o(i.vTaskDelay)
    i.vTaskDelayUntil                        0x0800aad4   Section        0  tasks.o(i.vTaskDelayUntil)
    i.vTaskStartScheduler                    0x0800ab6c   Section        0  tasks.o(i.vTaskStartScheduler)
    i.vTaskSuspendAll                        0x0800abf4   Section        0  tasks.o(i.vTaskSuspendAll)
    i.vTaskSwitchContext                     0x0800ac04   Section        0  tasks.o(i.vTaskSwitchContext)
    i.verify_CRC16_check_sum                 0x0800ac64   Section        0  crc.o(i.verify_CRC16_check_sum)
    i.xPortStartScheduler                    0x0800aca4   Section        0  port.o(i.xPortStartScheduler)
    i.xTaskCreate                            0x0800ad98   Section        0  tasks.o(i.xTaskCreate)
    i.xTaskCreateStatic                      0x0800adfc   Section        0  tasks.o(i.xTaskCreateStatic)
    i.xTaskGetTickCount                      0x0800ae58   Section        0  tasks.o(i.xTaskGetTickCount)
    i.xTaskGetTickCountFromISR               0x0800ae64   Section        0  tasks.o(i.xTaskGetTickCountFromISR)
    i.xTaskIncrementTick                     0x0800ae74   Section        0  tasks.o(i.xTaskIncrementTick)
    i.xTaskResumeAll                         0x0800af44   Section        0  tasks.o(i.xTaskResumeAll)
    x$fpl$d2f                                0x0800b010   Section       98  d2f.o(x$fpl$d2f)
    $v0                                      0x0800b010   Number         0  d2f.o(x$fpl$d2f)
    x$fpl$dadd                               0x0800b074   Section      336  daddsub_clz.o(x$fpl$dadd)
    $v0                                      0x0800b074   Number         0  daddsub_clz.o(x$fpl$dadd)
    _dadd1                                   0x0800b085   Thumb Code     0  daddsub_clz.o(x$fpl$dadd)
    x$fpl$dflt                               0x0800b1c4   Section       46  dflt_clz.o(x$fpl$dflt)
    $v0                                      0x0800b1c4   Number         0  dflt_clz.o(x$fpl$dflt)
    x$fpl$dmul                               0x0800b1f4   Section      340  dmul.o(x$fpl$dmul)
    $v0                                      0x0800b1f4   Number         0  dmul.o(x$fpl$dmul)
    x$fpl$dnaninf                            0x0800b348   Section      156  dnaninf.o(x$fpl$dnaninf)
    $v0                                      0x0800b348   Number         0  dnaninf.o(x$fpl$dnaninf)
    x$fpl$dretinf                            0x0800b3e4   Section       12  dretinf.o(x$fpl$dretinf)
    $v0                                      0x0800b3e4   Number         0  dretinf.o(x$fpl$dretinf)
    x$fpl$dsub                               0x0800b3f0   Section      468  daddsub_clz.o(x$fpl$dsub)
    $v0                                      0x0800b3f0   Number         0  daddsub_clz.o(x$fpl$dsub)
    _dsub1                                   0x0800b401   Thumb Code     0  daddsub_clz.o(x$fpl$dsub)
    x$fpl$f2d                                0x0800b5c4   Section       86  f2d.o(x$fpl$f2d)
    $v0                                      0x0800b5c4   Number         0  f2d.o(x$fpl$f2d)
    x$fpl$fnaninf                            0x0800b61a   Section      140  fnaninf.o(x$fpl$fnaninf)
    $v0                                      0x0800b61a   Number         0  fnaninf.o(x$fpl$fnaninf)
    x$fpl$fpinit                             0x0800b6a6   Section       10  fpinit.o(x$fpl$fpinit)
    $v0                                      0x0800b6a6   Number         0  fpinit.o(x$fpl$fpinit)
    x$fpl$fretinf                            0x0800b6b0   Section       10  fretinf.o(x$fpl$fretinf)
    $v0                                      0x0800b6b0   Number         0  fretinf.o(x$fpl$fretinf)
    .constdata                               0x0800b6ba   Section      768  crc.o(.constdata)
    x$fpl$usenofp                            0x0800b6ba   Section        0  usenofp.o(x$fpl$usenofp)
    .constdata                               0x0800b9bc   Section      168  freertos.o(.constdata)
    .constdata                               0x0800ba64   Section       16  system_stm32f4xx.o(.constdata)
    .constdata                               0x0800ba74   Section        8  system_stm32f4xx.o(.constdata)
    .constdata                               0x0800ba7c   Section        8  stm32f4xx_hal_dma.o(.constdata)
    flagBitshiftOffset                       0x0800ba7c   Data           8  stm32f4xx_hal_dma.o(.constdata)
    .conststring                             0x0800ba84   Section       96  freertos.o(.conststring)
    .data                                    0x20000000   Section      324  ins_task.o(.data)
    INS_LPF2p_Alpha                          0x20000000   Data          12  ins_task.o(.data)
    QuaternionEKF_A_Data                     0x2000000c   Data         144  ins_task.o(.data)
    QuaternionEKF_P_Data                     0x2000009c   Data         144  ins_task.o(.data)
    TemCtrl_PID_Param                        0x2000012c   Data          24  ins_task.o(.data)
    .data                                    0x20000144   Section       96  arm_task.o(.data)
    .data                                    0x200001a4   Section       96  chassis_task.o(.data)
    .data                                    0x20000204   Section       20  system_task.o(.data)
    .data                                    0x20000218   Section       60  bsp_can.o(.data)
    TxMailbox                                0x20000218   Data           4  bsp_can.o(.data)
    USER_CAN_RxFrameData                     0x2000021c   Data           8  bsp_can.o(.data)
    CAN1_FrameTxInstance                     0x20000224   Data          24  bsp_can.o(.data)
    CAN2_FrameTxInstance                     0x2000023c   Data          24  bsp_can.o(.data)
    .data                                    0x20000258   Section       64  bsp_dwt.o(.data)
    CPU_FREQ_Hz                              0x20000258   Data           4  bsp_dwt.o(.data)
    CPU_FREQ_Hz_ms                           0x2000025c   Data           4  bsp_dwt.o(.data)
    CPU_FREQ_Hz_us                           0x20000260   Data           4  bsp_dwt.o(.data)
    CYCCNT_RountCount                        0x20000264   Data           4  bsp_dwt.o(.data)
    CYCCNT_LAST                              0x20000268   Data           4  bsp_dwt.o(.data)
    CNT_TEMP1                                0x20000270   Data           8  bsp_dwt.o(.data)
    CNT_TEMP2                                0x20000278   Data           8  bsp_dwt.o(.data)
    CNT_TEMP3                                0x20000280   Data           8  bsp_dwt.o(.data)
    .data                                    0x20000298   Section        2  crc.o(.data)
    .data                                    0x2000029c   Section       44  bmi088.o(.data)
    BMI088_ACCEL_SEN                         0x2000029c   Data           4  bmi088.o(.data)
    BMI088_GYRO_SEN                          0x200002a0   Data           4  bmi088.o(.data)
    Accel_Register_ConfigurationData_ErrorStatus 0x200002a4   Data          18  bmi088.o(.data)
    Gyro_Register_ConfigurationData_ErrorStatus 0x200002b6   Data          18  bmi088.o(.data)
    .data                                    0x200002c8   Section       48  minipc.o(.data)
    .data                                    0x200002f8   Section      544  motor.o(.data)
    .data                                    0x20000518   Section     1056  motor.o(.data)
    .data                                    0x20000938   Section       24  remote_control.o(.data)
    .data                                    0x20000950   Section       24  freertos.o(.data)
    .data                                    0x20000968   Section        4  can.o(.data)
    HAL_RCC_CAN1_CLK_ENABLED                 0x20000968   Data           4  can.o(.data)
    .data                                    0x2000096c   Section        4  system_stm32f4xx.o(.data)
    .data                                    0x20000970   Section       60  tasks.o(.data)
    uxDeletedTasksWaitingCleanUp             0x20000974   Data           4  tasks.o(.data)
    uxCurrentNumberOfTasks                   0x20000978   Data           4  tasks.o(.data)
    xTickCount                               0x2000097c   Data           4  tasks.o(.data)
    uxTopReadyPriority                       0x20000980   Data           4  tasks.o(.data)
    xSchedulerRunning                        0x20000984   Data           4  tasks.o(.data)
    xPendedTicks                             0x20000988   Data           4  tasks.o(.data)
    xYieldPending                            0x2000098c   Data           4  tasks.o(.data)
    xNumOfOverflows                          0x20000990   Data           4  tasks.o(.data)
    uxTaskNumber                             0x20000994   Data           4  tasks.o(.data)
    xNextTaskUnblockTime                     0x20000998   Data           4  tasks.o(.data)
    xIdleTaskHandle                          0x2000099c   Data           4  tasks.o(.data)
    uxSchedulerSuspended                     0x200009a0   Data           4  tasks.o(.data)
    pxDelayedTaskList                        0x200009a4   Data           4  tasks.o(.data)
    pxOverflowDelayedTaskList                0x200009a8   Data           4  tasks.o(.data)
    .data                                    0x200009ac   Section       32  heap_4.o(.data)
    pxEnd                                    0x200009ac   Data           4  heap_4.o(.data)
    xFreeBytesRemaining                      0x200009b0   Data           4  heap_4.o(.data)
    xMinimumEverFreeBytesRemaining           0x200009b4   Data           4  heap_4.o(.data)
    xNumberOfSuccessfulAllocations           0x200009b8   Data           4  heap_4.o(.data)
    xNumberOfSuccessfulFrees                 0x200009bc   Data           4  heap_4.o(.data)
    xBlockAllocatedBit                       0x200009c0   Data           4  heap_4.o(.data)
    xStart                                   0x200009c4   Data           8  heap_4.o(.data)
    .data                                    0x200009cc   Section       12  port.o(.data)
    ucMaxSysCallPriority                     0x200009cc   Data           1  port.o(.data)
    uxCriticalNesting                        0x200009d0   Data           4  port.o(.data)
    ulMaxPRIGROUPValue                       0x200009d4   Data           4  port.o(.data)
    .data                                    0x200009d8   Section       12  stm32f4xx_hal.o(.data)
    .data                                    0x200009e4   Section       28  usbd_desc.o(.data)
    .data                                    0x20000a00   Section       50  usbd_desc.o(.data)
    .data                                    0x20000a34   Section       20  usbd_cdc_if.o(.data)
    .data                                    0x20000a48   Section        1  usbd_ctlreq.o(.data)
    cfgidx                                   0x20000a48   Data           1  usbd_ctlreq.o(.data)
    .data                                    0x20000a4c   Section       83  usbd_cdc.o(.data)
    CDCInEpAdd                               0x20000a4c   Data           1  usbd_cdc.o(.data)
    CDCOutEpAdd                              0x20000a4d   Data           1  usbd_cdc.o(.data)
    CDCCmdEpAdd                              0x20000a4e   Data           1  usbd_cdc.o(.data)
    USBD_CDC_DeviceQualifierDesc             0x20000a50   Data          10  usbd_cdc.o(.data)
    USBD_CDC_CfgDesc                         0x20000a5c   Data          67  usbd_cdc.o(.data)
    .data                                    0x20000aa0   Section       56  usbd_cdc.o(.data)
    .bss                                     0x20000ad8   Section      668  ins_task.o(.bss)
    .bss                                     0x20000d74   Section     1216  arm_task.o(.bss)
    .bss                                     0x20001234   Section      932  chassis_task.o(.bss)
    .bss                                     0x200015d8   Section       24  system_task.o(.bss)
    .bss                                     0x200015f0   Section       28  bsp_can.o(.bss)
    USER_CAN_RxInstance                      0x200015f0   Data          28  bsp_can.o(.bss)
    .bss                                     0x2000160c   Section       60  bmi088.o(.bss)
    .bss                                     0x20001648   Section       86  referee_info.o(.bss)
    .bss                                     0x2000169e   Section      200  referee_info.o(.bss)
    .bss                                     0x20001766   Section       30  referee_info.o(.bss)
    .bss                                     0x20001784   Section       72  remote_control.o(.bss)
    .bss                                     0x200017cc   Section     1108  freertos.o(.bss)
    xIdleTaskTCBBuffer                       0x200017cc   Data          84  freertos.o(.bss)
    xIdleStack                               0x20001820   Data        1024  freertos.o(.bss)
    .bss                                     0x20001c20   Section       80  can.o(.bss)
    .bss                                     0x20001c70   Section       88  spi.o(.bss)
    .bss                                     0x20001cc8   Section      144  tim.o(.bss)
    .bss                                     0x20001d58   Section      696  usart.o(.bss)
    .bss                                     0x20002010   Section       72  stm32f4xx_hal_timebase_tim.o(.bss)
    .bss                                     0x20002058   Section      240  tasks.o(.bss)
    pxReadyTasksLists                        0x20002058   Data         140  tasks.o(.bss)
    xDelayedTaskList1                        0x200020e4   Data          20  tasks.o(.bss)
    xDelayedTaskList2                        0x200020f8   Data          20  tasks.o(.bss)
    xPendingReadyList                        0x2000210c   Data          20  tasks.o(.bss)
    xTasksWaitingTermination                 0x20002120   Data          20  tasks.o(.bss)
    xSuspendedTaskList                       0x20002134   Data          20  tasks.o(.bss)
    .bss                                     0x20002148   Section    24576  heap_4.o(.bss)
    ucHeap                                   0x20002148   Data       24576  heap_4.o(.bss)
    .bss                                     0x20008148   Section      732  usb_device.o(.bss)
    .bss                                     0x20008424   Section      512  usbd_desc.o(.bss)
    .bss                                     0x20008624   Section     4096  usbd_cdc_if.o(.bss)
    .bss                                     0x20009624   Section     1796  usbd_conf.o(.bss)
    mem                                      0x20009624   Data         544  usbd_conf.o(.bss)
    .bss                                     0x20009d28   Section       96  libspace.o(.bss)
    HEAP                                     0x20009d88   Section     8192  startup_stm32f407xx.o(HEAP)
    Heap_Mem                                 0x20009d88   Data        8192  startup_stm32f407xx.o(HEAP)
    STACK                                    0x2000bd88   Section     8192  startup_stm32f407xx.o(STACK)
    Stack_Mem                                0x2000bd88   Data        8192  startup_stm32f407xx.o(STACK)
    __initial_sp                             0x2000dd88   Data           0  startup_stm32f407xx.o(STACK)

    Global Symbols

    Symbol Name                              Value     Ov Type        Size  Object(Section)

    BuildAttributes$$THM_ISAv4$E$P$D$K$B$S$7EM$VFPi3$EXTD16$VFPS$VFMA$PE$A:L22UL41UL21$X:L11$S22US41US21$IEEE1$IW$USESV6$~STKCKD$USESV7$~SHL$OTIME$ROPI$IEEEX$EBA8$UX$STANDARDLIB$REQ8$PRES8$EABIv2 0x00000000   Number         0  anon$$obj.o ABSOLUTE
    __ARM_use_no_argv                        0x00000000   Number         0  main.o ABSOLUTE
    __ARM_exceptions_init                     - Undefined Weak Reference
    __alloca_initialize                       - Undefined Weak Reference
    __arm_fini_                               - Undefined Weak Reference
    __arm_preinit_                            - Undefined Weak Reference
    __cpp_initialize__aeabi_                  - Undefined Weak Reference
    __cxa_finalize                            - Undefined Weak Reference
    __rt_locale                               - Undefined Weak Reference
    __sigvec_lookup                           - Undefined Weak Reference
    __user_heap_extent                        - Undefined Weak Reference
    _atexit_init                              - Undefined Weak Reference
    _call_atexit_fns                          - Undefined Weak Reference
    _clock_init                               - Undefined Weak Reference
    _fp_trap_init                             - Undefined Weak Reference
    _fp_trap_shutdown                         - Undefined Weak Reference
    _get_lc_collate                           - Undefined Weak Reference
    _get_lc_ctype                             - Undefined Weak Reference
    _get_lc_monetary                          - Undefined Weak Reference
    _get_lc_numeric                           - Undefined Weak Reference
    _get_lc_time                              - Undefined Weak Reference
    _getenv_init                              - Undefined Weak Reference
    _handle_redirection                       - Undefined Weak Reference
    _initio                                   - Undefined Weak Reference
    _mutex_acquire                            - Undefined Weak Reference
    _mutex_free                               - Undefined Weak Reference
    _mutex_release                            - Undefined Weak Reference
    _rand_init                                - Undefined Weak Reference
    _signal_finish                            - Undefined Weak Reference
    _signal_init                              - Undefined Weak Reference
    _terminateio                              - Undefined Weak Reference
    __Vectors_Size                           0x00000188   Number         0  startup_stm32f407xx.o ABSOLUTE
    __Vectors                                0x08000000   Data           4  startup_stm32f407xx.o(RESET)
    __Vectors_End                            0x08000188   Data           0  startup_stm32f407xx.o(RESET)
    __main                                   0x08000189   Thumb Code     8  __main.o(!!!main)
    __scatterload                            0x08000191   Thumb Code     0  __scatter.o(!!!scatter)
    __scatterload_rt2                        0x08000191   Thumb Code    44  __scatter.o(!!!scatter)
    __scatterload_rt2_thumb_only             0x08000191   Thumb Code     0  __scatter.o(!!!scatter)
    __scatterload_null                       0x0800019f   Thumb Code     0  __scatter.o(!!!scatter)
    __decompress                             0x080001c5   Thumb Code    90  __dczerorl2.o(!!dczerorl2)
    __decompress1                            0x080001c5   Thumb Code     0  __dczerorl2.o(!!dczerorl2)
    __scatterload_zeroinit                   0x08000221   Thumb Code    28  __scatter_zi.o(!!handler_zi)
    __rt_lib_init                            0x0800023d   Thumb Code     0  libinit.o(.ARM.Collect$$libinit$$00000000)
    __rt_lib_init_fp_1                       0x0800023f   Thumb Code     0  libinit2.o(.ARM.Collect$$libinit$$00000001)
    __rt_lib_init_heap_2                     0x08000243   Thumb Code     0  libinit2.o(.ARM.Collect$$libinit$$00000005)
    __rt_lib_init_preinit_1                  0x08000243   Thumb Code     0  libinit2.o(.ARM.Collect$$libinit$$00000004)
    __rt_lib_init_alloca_1                   0x0800024b   Thumb Code     0  libinit2.o(.ARM.Collect$$libinit$$0000002E)
    __rt_lib_init_argv_1                     0x0800024b   Thumb Code     0  libinit2.o(.ARM.Collect$$libinit$$0000002C)
    __rt_lib_init_atexit_1                   0x0800024b   Thumb Code     0  libinit2.o(.ARM.Collect$$libinit$$0000001B)
    __rt_lib_init_clock_1                    0x0800024b   Thumb Code     0  libinit2.o(.ARM.Collect$$libinit$$00000021)
    __rt_lib_init_cpp_1                      0x0800024b   Thumb Code     0  libinit2.o(.ARM.Collect$$libinit$$00000032)
    __rt_lib_init_exceptions_1               0x0800024b   Thumb Code     0  libinit2.o(.ARM.Collect$$libinit$$00000030)
    __rt_lib_init_fp_trap_1                  0x0800024b   Thumb Code     0  libinit2.o(.ARM.Collect$$libinit$$0000001F)
    __rt_lib_init_getenv_1                   0x0800024b   Thumb Code     0  libinit2.o(.ARM.Collect$$libinit$$00000023)
    __rt_lib_init_heap_1                     0x0800024b   Thumb Code     0  libinit2.o(.ARM.Collect$$libinit$$0000000A)
    __rt_lib_init_lc_collate_1               0x0800024b   Thumb Code     0  libinit2.o(.ARM.Collect$$libinit$$00000011)
    __rt_lib_init_lc_ctype_1                 0x0800024b   Thumb Code     0  libinit2.o(.ARM.Collect$$libinit$$00000013)
    __rt_lib_init_lc_monetary_1              0x0800024b   Thumb Code     0  libinit2.o(.ARM.Collect$$libinit$$00000015)
    __rt_lib_init_lc_numeric_1               0x0800024b   Thumb Code     0  libinit2.o(.ARM.Collect$$libinit$$00000017)
    __rt_lib_init_lc_time_1                  0x0800024b   Thumb Code     0  libinit2.o(.ARM.Collect$$libinit$$00000019)
    __rt_lib_init_rand_1                     0x0800024b   Thumb Code     0  libinit2.o(.ARM.Collect$$libinit$$0000000E)
    __rt_lib_init_return                     0x0800024b   Thumb Code     0  libinit2.o(.ARM.Collect$$libinit$$00000033)
    __rt_lib_init_signal_1                   0x0800024b   Thumb Code     0  libinit2.o(.ARM.Collect$$libinit$$0000001D)
    __rt_lib_init_stdio_1                    0x0800024b   Thumb Code     0  libinit2.o(.ARM.Collect$$libinit$$00000025)
    __rt_lib_init_user_alloc_1               0x0800024b   Thumb Code     0  libinit2.o(.ARM.Collect$$libinit$$0000000C)
    __rt_lib_shutdown                        0x0800024d   Thumb Code     0  libshutdown.o(.ARM.Collect$$libshutdown$$00000000)
    __rt_lib_shutdown_cpp_1                  0x0800024f   Thumb Code     0  libshutdown2.o(.ARM.Collect$$libshutdown$$00000004)
    __rt_lib_shutdown_fini_1                 0x0800024f   Thumb Code     0  libshutdown2.o(.ARM.Collect$$libshutdown$$00000002)
    __rt_lib_shutdown_fp_trap_1              0x0800024f   Thumb Code     0  libshutdown2.o(.ARM.Collect$$libshutdown$$00000009)
    __rt_lib_shutdown_heap_1                 0x0800024f   Thumb Code     0  libshutdown2.o(.ARM.Collect$$libshutdown$$00000011)
    __rt_lib_shutdown_return                 0x0800024f   Thumb Code     0  libshutdown2.o(.ARM.Collect$$libshutdown$$00000012)
    __rt_lib_shutdown_signal_1               0x0800024f   Thumb Code     0  libshutdown2.o(.ARM.Collect$$libshutdown$$0000000C)
    __rt_lib_shutdown_stdio_1                0x0800024f   Thumb Code     0  libshutdown2.o(.ARM.Collect$$libshutdown$$00000006)
    __rt_lib_shutdown_user_alloc_1           0x0800024f   Thumb Code     0  libshutdown2.o(.ARM.Collect$$libshutdown$$0000000E)
    __rt_entry                               0x08000251   Thumb Code     0  __rtentry.o(.ARM.Collect$$rtentry$$00000000)
    __rt_entry_presh_1                       0x08000251   Thumb Code     0  __rtentry2.o(.ARM.Collect$$rtentry$$00000002)
    __rt_entry_sh                            0x08000251   Thumb Code     0  __rtentry4.o(.ARM.Collect$$rtentry$$00000004)
    __rt_entry_li                            0x08000257   Thumb Code     0  __rtentry2.o(.ARM.Collect$$rtentry$$0000000A)
    __rt_entry_postsh_1                      0x08000257   Thumb Code     0  __rtentry2.o(.ARM.Collect$$rtentry$$00000009)
    __rt_entry_main                          0x0800025b   Thumb Code     0  __rtentry2.o(.ARM.Collect$$rtentry$$0000000D)
    __rt_entry_postli_1                      0x0800025b   Thumb Code     0  __rtentry2.o(.ARM.Collect$$rtentry$$0000000C)
    __rt_exit                                0x08000263   Thumb Code     0  rtexit.o(.ARM.Collect$$rtexit$$00000000)
    __rt_exit_ls                             0x08000265   Thumb Code     0  rtexit2.o(.ARM.Collect$$rtexit$$00000003)
    __rt_exit_prels_1                        0x08000265   Thumb Code     0  rtexit2.o(.ARM.Collect$$rtexit$$00000002)
    __rt_exit_exit                           0x08000269   Thumb Code     0  rtexit2.o(.ARM.Collect$$rtexit$$00000004)
    SVC_Handler                              0x08000271   Thumb Code    28  port.o(.emb_text)
    __asm___6_port_c_39a90d8d__prvStartFirstTask 0x08000291   Thumb Code    36  port.o(.emb_text)
    __asm___6_port_c_39a90d8d__prvEnableVFP  0x080002b9   Thumb Code    16  port.o(.emb_text)
    PendSV_Handler                           0x080002cd   Thumb Code    88  port.o(.emb_text)
    vPortGetIPSR                             0x08000329   Thumb Code     6  port.o(.emb_text)
    Reset_Handler                            0x08000331   Thumb Code     8  startup_stm32f407xx.o(.text)
    _maybe_terminate_alloc                   0x08000331   Thumb Code     0  maybetermalloc1.o(.emb_text)
    ADC_IRQHandler                           0x0800034b   Thumb Code     0  startup_stm32f407xx.o(.text)
    CAN1_RX1_IRQHandler                      0x0800034b   Thumb Code     0  startup_stm32f407xx.o(.text)
    CAN1_SCE_IRQHandler                      0x0800034b   Thumb Code     0  startup_stm32f407xx.o(.text)
    CAN1_TX_IRQHandler                       0x0800034b   Thumb Code     0  startup_stm32f407xx.o(.text)
    CAN2_RX1_IRQHandler                      0x0800034b   Thumb Code     0  startup_stm32f407xx.o(.text)
    CAN2_SCE_IRQHandler                      0x0800034b   Thumb Code     0  startup_stm32f407xx.o(.text)
    CAN2_TX_IRQHandler                       0x0800034b   Thumb Code     0  startup_stm32f407xx.o(.text)
    DCMI_IRQHandler                          0x0800034b   Thumb Code     0  startup_stm32f407xx.o(.text)
    DMA1_Stream0_IRQHandler                  0x0800034b   Thumb Code     0  startup_stm32f407xx.o(.text)
    DMA1_Stream2_IRQHandler                  0x0800034b   Thumb Code     0  startup_stm32f407xx.o(.text)
    DMA1_Stream3_IRQHandler                  0x0800034b   Thumb Code     0  startup_stm32f407xx.o(.text)
    DMA1_Stream4_IRQHandler                  0x0800034b   Thumb Code     0  startup_stm32f407xx.o(.text)
    DMA1_Stream5_IRQHandler                  0x0800034b   Thumb Code     0  startup_stm32f407xx.o(.text)
    DMA1_Stream6_IRQHandler                  0x0800034b   Thumb Code     0  startup_stm32f407xx.o(.text)
    DMA1_Stream7_IRQHandler                  0x0800034b   Thumb Code     0  startup_stm32f407xx.o(.text)
    DMA2_Stream0_IRQHandler                  0x0800034b   Thumb Code     0  startup_stm32f407xx.o(.text)
    DMA2_Stream3_IRQHandler                  0x0800034b   Thumb Code     0  startup_stm32f407xx.o(.text)
    DMA2_Stream4_IRQHandler                  0x0800034b   Thumb Code     0  startup_stm32f407xx.o(.text)
    DMA2_Stream5_IRQHandler                  0x0800034b   Thumb Code     0  startup_stm32f407xx.o(.text)
    ETH_IRQHandler                           0x0800034b   Thumb Code     0  startup_stm32f407xx.o(.text)
    ETH_WKUP_IRQHandler                      0x0800034b   Thumb Code     0  startup_stm32f407xx.o(.text)
    EXTI0_IRQHandler                         0x0800034b   Thumb Code     0  startup_stm32f407xx.o(.text)
    EXTI15_10_IRQHandler                     0x0800034b   Thumb Code     0  startup_stm32f407xx.o(.text)
    EXTI1_IRQHandler                         0x0800034b   Thumb Code     0  startup_stm32f407xx.o(.text)
    EXTI2_IRQHandler                         0x0800034b   Thumb Code     0  startup_stm32f407xx.o(.text)
    EXTI3_IRQHandler                         0x0800034b   Thumb Code     0  startup_stm32f407xx.o(.text)
    EXTI4_IRQHandler                         0x0800034b   Thumb Code     0  startup_stm32f407xx.o(.text)
    FLASH_IRQHandler                         0x0800034b   Thumb Code     0  startup_stm32f407xx.o(.text)
    FMC_IRQHandler                           0x0800034b   Thumb Code     0  startup_stm32f407xx.o(.text)
    FPU_IRQHandler                           0x0800034b   Thumb Code     0  startup_stm32f407xx.o(.text)
    HASH_RNG_IRQHandler                      0x0800034b   Thumb Code     0  startup_stm32f407xx.o(.text)
    I2C1_ER_IRQHandler                       0x0800034b   Thumb Code     0  startup_stm32f407xx.o(.text)
    I2C1_EV_IRQHandler                       0x0800034b   Thumb Code     0  startup_stm32f407xx.o(.text)
    I2C2_ER_IRQHandler                       0x0800034b   Thumb Code     0  startup_stm32f407xx.o(.text)
    I2C2_EV_IRQHandler                       0x0800034b   Thumb Code     0  startup_stm32f407xx.o(.text)
    I2C3_ER_IRQHandler                       0x0800034b   Thumb Code     0  startup_stm32f407xx.o(.text)
    I2C3_EV_IRQHandler                       0x0800034b   Thumb Code     0  startup_stm32f407xx.o(.text)
    OTG_FS_WKUP_IRQHandler                   0x0800034b   Thumb Code     0  startup_stm32f407xx.o(.text)
    OTG_HS_EP1_IN_IRQHandler                 0x0800034b   Thumb Code     0  startup_stm32f407xx.o(.text)
    OTG_HS_EP1_OUT_IRQHandler                0x0800034b   Thumb Code     0  startup_stm32f407xx.o(.text)
    OTG_HS_IRQHandler                        0x0800034b   Thumb Code     0  startup_stm32f407xx.o(.text)
    OTG_HS_WKUP_IRQHandler                   0x0800034b   Thumb Code     0  startup_stm32f407xx.o(.text)
    PVD_IRQHandler                           0x0800034b   Thumb Code     0  startup_stm32f407xx.o(.text)
    RCC_IRQHandler                           0x0800034b   Thumb Code     0  startup_stm32f407xx.o(.text)
    RTC_Alarm_IRQHandler                     0x0800034b   Thumb Code     0  startup_stm32f407xx.o(.text)
    RTC_WKUP_IRQHandler                      0x0800034b   Thumb Code     0  startup_stm32f407xx.o(.text)
    SDIO_IRQHandler                          0x0800034b   Thumb Code     0  startup_stm32f407xx.o(.text)
    SPI1_IRQHandler                          0x0800034b   Thumb Code     0  startup_stm32f407xx.o(.text)
    SPI2_IRQHandler                          0x0800034b   Thumb Code     0  startup_stm32f407xx.o(.text)
    SPI3_IRQHandler                          0x0800034b   Thumb Code     0  startup_stm32f407xx.o(.text)
    TAMP_STAMP_IRQHandler                    0x0800034b   Thumb Code     0  startup_stm32f407xx.o(.text)
    TIM1_BRK_TIM9_IRQHandler                 0x0800034b   Thumb Code     0  startup_stm32f407xx.o(.text)
    TIM1_CC_IRQHandler                       0x0800034b   Thumb Code     0  startup_stm32f407xx.o(.text)
    TIM1_TRG_COM_TIM11_IRQHandler            0x0800034b   Thumb Code     0  startup_stm32f407xx.o(.text)
    TIM1_UP_TIM10_IRQHandler                 0x0800034b   Thumb Code     0  startup_stm32f407xx.o(.text)
    TIM3_IRQHandler                          0x0800034b   Thumb Code     0  startup_stm32f407xx.o(.text)
    TIM4_IRQHandler                          0x0800034b   Thumb Code     0  startup_stm32f407xx.o(.text)
    TIM5_IRQHandler                          0x0800034b   Thumb Code     0  startup_stm32f407xx.o(.text)
    TIM6_DAC_IRQHandler                      0x0800034b   Thumb Code     0  startup_stm32f407xx.o(.text)
    TIM7_IRQHandler                          0x0800034b   Thumb Code     0  startup_stm32f407xx.o(.text)
    TIM8_BRK_TIM12_IRQHandler                0x0800034b   Thumb Code     0  startup_stm32f407xx.o(.text)
    TIM8_CC_IRQHandler                       0x0800034b   Thumb Code     0  startup_stm32f407xx.o(.text)
    TIM8_TRG_COM_TIM14_IRQHandler            0x0800034b   Thumb Code     0  startup_stm32f407xx.o(.text)
    TIM8_UP_TIM13_IRQHandler                 0x0800034b   Thumb Code     0  startup_stm32f407xx.o(.text)
    UART4_IRQHandler                         0x0800034b   Thumb Code     0  startup_stm32f407xx.o(.text)
    UART5_IRQHandler                         0x0800034b   Thumb Code     0  startup_stm32f407xx.o(.text)
    USART2_IRQHandler                        0x0800034b   Thumb Code     0  startup_stm32f407xx.o(.text)
    WWDG_IRQHandler                          0x0800034b   Thumb Code     0  startup_stm32f407xx.o(.text)
    __user_initial_stackheap                 0x0800034d   Thumb Code     0  startup_stm32f407xx.o(.text)
    malloc                                   0x08000371   Thumb Code    94  h1_alloc.o(.text)
    __aeabi_uldivmod                         0x080003cf   Thumb Code     0  lludivv7m.o(.text)
    _ll_udiv                                 0x080003cf   Thumb Code   238  lludivv7m.o(.text)
    __aeabi_memcpy                           0x080004bd   Thumb Code     0  rt_memcpy_v6.o(.text)
    __rt_memcpy                              0x080004bd   Thumb Code   138  rt_memcpy_v6.o(.text)
    _memcpy_lastbytes                        0x08000523   Thumb Code     0  rt_memcpy_v6.o(.text)
    __aeabi_memcpy4                          0x08000547   Thumb Code     0  rt_memcpy_w.o(.text)
    __aeabi_memcpy8                          0x08000547   Thumb Code     0  rt_memcpy_w.o(.text)
    __rt_memcpy_w                            0x08000547   Thumb Code   100  rt_memcpy_w.o(.text)
    _memcpy_lastbytes_aligned                0x0800058f   Thumb Code     0  rt_memcpy_w.o(.text)
    __aeabi_memset                           0x080005ab   Thumb Code    16  aeabi_memset.o(.text)
    __aeabi_memclr                           0x080005bb   Thumb Code     0  rt_memclr.o(.text)
    __rt_memclr                              0x080005bb   Thumb Code    68  rt_memclr.o(.text)
    _memset                                  0x080005bf   Thumb Code     0  rt_memclr.o(.text)
    __aeabi_memclr4                          0x080005ff   Thumb Code     0  rt_memclr_w.o(.text)
    __aeabi_memclr8                          0x080005ff   Thumb Code     0  rt_memclr_w.o(.text)
    __rt_memclr_w                            0x080005ff   Thumb Code    78  rt_memclr_w.o(.text)
    _memset_w                                0x08000603   Thumb Code     0  rt_memclr_w.o(.text)
    __use_two_region_memory                  0x0800064d   Thumb Code     2  heapauxi.o(.text)
    __rt_heap_escrow                         0x0800064f   Thumb Code     2  heapauxi.o(.text)
    __rt_heap_expand                         0x08000651   Thumb Code     2  heapauxi.o(.text)
    __rt_heap_descriptor                     0x08000655   Thumb Code     8  rt_heap_descriptor_intlibspace.o(.text)
    __use_no_heap                            0x0800065d   Thumb Code     2  hguard.o(.text)
    __heap$guard                             0x0800065f   Thumb Code     2  hguard.o(.text)
    _terminate_user_alloc                    0x08000661   Thumb Code     2  init_alloc.o(.text)
    _init_user_alloc                         0x08000663   Thumb Code     2  init_alloc.o(.text)
    __Heap_Full                              0x08000665   Thumb Code    34  init_alloc.o(.text)
    __Heap_Broken                            0x08000687   Thumb Code     6  init_alloc.o(.text)
    _init_alloc                              0x0800068d   Thumb Code    94  init_alloc.o(.text)
    __Heap_Initialize                        0x080006eb   Thumb Code    10  h1_init.o(.text)
    __Heap_DescSize                          0x080006f5   Thumb Code     4  h1_init.o(.text)
    free                                     0x080006f9   Thumb Code    78  h1_free.o(.text)
    __read_errno                             0x08000747   Thumb Code    10  _rserrno.o(.text)
    __set_errno                              0x08000751   Thumb Code    12  _rserrno.o(.text)
    __user_libspace                          0x0800075d   Thumb Code     8  libspace.o(.text)
    __user_perproc_libspace                  0x0800075d   Thumb Code     0  libspace.o(.text)
    __user_perthread_libspace                0x0800075d   Thumb Code     0  libspace.o(.text)
    __aeabi_errno_addr                       0x08000765   Thumb Code     8  rt_errno_addr_intlibspace.o(.text)
    __errno$intlibspace                      0x08000765   Thumb Code     0  rt_errno_addr_intlibspace.o(.text)
    __rt_errno_addr$intlibspace              0x08000765   Thumb Code     0  rt_errno_addr_intlibspace.o(.text)
    __Heap_ProvideMemory                     0x0800076d   Thumb Code    52  h1_extend.o(.text)
    __rt_SIGRTMEM                            0x080007a1   Thumb Code    14  defsig_rtmem_outer.o(.text)
    __I$use$semihosting                      0x080007af   Thumb Code     0  use_no_semi.o(.text)
    __use_no_semihosting_swi                 0x080007af   Thumb Code     2  use_no_semi.o(.text)
    __semihosting_library_function           0x080007b1   Thumb Code     0  indicate_semi.o(.text)
    __user_setup_stackheap                   0x080007b1   Thumb Code    74  sys_stackheap_outer.o(.text)
    exit                                     0x080007fb   Thumb Code    18  exit.o(.text)
    __sig_exit                               0x0800080d   Thumb Code    10  defsig_exit.o(.text)
    __rt_SIGRTMEM_inner                      0x08000819   Thumb Code    22  defsig_rtmem_inner.o(.text)
    _sys_exit                                0x08000869   Thumb Code     8  sys_exit.o(.text)
    __default_signal_display                 0x08000875   Thumb Code    50  defsig_general.o(.text)
    _ttywrch                                 0x080008a7   Thumb Code    14  sys_wrch.o(.text)
    arm_mat_add_f32                          0x080008b5   Thumb Code   186  arm_mat_add_f32.o(.text.arm_mat_add_f32)
    arm_mat_init_f32                         0x0800096f   Thumb Code     8  arm_mat_init_f32.o(.text.arm_mat_init_f32)
    arm_mat_inverse_f32                      0x08000979   Thumb Code   756  arm_mat_inverse_f32.o(.text.arm_mat_inverse_f32)
    arm_mat_mult_f32                         0x08000c6d   Thumb Code   296  arm_mat_mult_f32.o(.text.arm_mat_mult_f32)
    arm_mat_sub_f32                          0x08000d95   Thumb Code   186  arm_mat_sub_f32.o(.text.arm_mat_sub_f32)
    arm_mat_trans_f32                        0x08000e51   Thumb Code   162  arm_mat_trans_f32.o(.text.arm_mat_trans_f32)
    Arm_Task                                 0x080012cd   Thumb Code    66  arm_task.o(i.Arm_Task)
    BMI088_ACCEL_NS_H                        0x08001475   Thumb Code    10  bsp_gpio.o(i.BMI088_ACCEL_NS_H)
    BMI088_ACCEL_NS_L                        0x08001485   Thumb Code    10  bsp_gpio.o(i.BMI088_ACCEL_NS_L)
    BMI088_GYRO_NS_H                         0x080015a1   Thumb Code    10  bsp_gpio.o(i.BMI088_GYRO_NS_H)
    BMI088_GYRO_NS_L                         0x080015b1   Thumb Code    10  bsp_gpio.o(i.BMI088_GYRO_NS_L)
    BMI088_Info_Update                       0x0800169d   Thumb Code   362  bmi088.o(i.BMI088_Info_Update)
    BMI088_Init                              0x0800180d   Thumb Code    40  bmi088.o(i.BMI088_Init)
    BMI088_Read_Write_Byte                   0x08001999   Thumb Code    32  bsp_spi.o(i.BMI088_Read_Write_Byte)
    BSP_CAN_Init                             0x08001a39   Thumb Code   102  bsp_can.o(i.BSP_CAN_Init)
    BSP_DWT_Init                             0x08001aa9   Thumb Code    54  bsp_dwt.o(i.BSP_DWT_Init)
    BSP_USART_Init                           0x08001af1   Thumb Code    44  bsp_uart.o(i.BSP_USART_Init)
    Bsp_Tim_Init                             0x08001b2d   Thumb Code     8  bsp_tim.o(i.Bsp_Tim_Init)
    BusFault_Handler                         0x08001b39   Thumb Code     2  stm32f4xx_it.o(i.BusFault_Handler)
    CAN1_RX0_IRQHandler                      0x08001b3d   Thumb Code     6  stm32f4xx_it.o(i.CAN1_RX0_IRQHandler)
    CAN2_RX0_IRQHandler                      0x08001b95   Thumb Code     6  stm32f4xx_it.o(i.CAN2_RX0_IRQHandler)
    Chassis_Task                             0x08001f05   Thumb Code    40  chassis_task.o(i.Chassis_Task)
    DJI_Motor_Info_Update                    0x08001f5d   Thumb Code   160  motor.o(i.DJI_Motor_Info_Update)
    DMA1_Stream1_IRQHandler                  0x08002005   Thumb Code     6  stm32f4xx_it.o(i.DMA1_Stream1_IRQHandler)
    DMA2_Stream1_IRQHandler                  0x08002011   Thumb Code     6  stm32f4xx_it.o(i.DMA2_Stream1_IRQHandler)
    DMA2_Stream2_IRQHandler                  0x0800201d   Thumb Code     6  stm32f4xx_it.o(i.DMA2_Stream2_IRQHandler)
    DMA2_Stream6_IRQHandler                  0x08002029   Thumb Code     6  stm32f4xx_it.o(i.DMA2_Stream6_IRQHandler)
    DMA2_Stream7_IRQHandler                  0x08002035   Thumb Code     6  stm32f4xx_it.o(i.DMA2_Stream7_IRQHandler)
    DM_Lock                                  0x080020e5   Thumb Code    22  motor.o(i.DM_Lock)
    DM_MIT_Transform                         0x080020fd   Thumb Code   160  motor.o(i.DM_MIT_Transform)
    DM_Motor_Info_Update                     0x080021a9   Thumb Code   142  motor.o(i.DM_Motor_Info_Update)
    DM_Reset                                 0x08002237   Thumb Code    22  motor.o(i.DM_Reset)
    DM_Start                                 0x0800224d   Thumb Code    22  motor.o(i.DM_Start)
    DebugMon_Handler                         0x080022ed   Thumb Code     2  stm32f4xx_it.o(i.DebugMon_Handler)
    Delay_ms                                 0x080022ef   Thumb Code    22  bsp_tick.o(i.Delay_ms)
    Delay_us                                 0x08002305   Thumb Code    22  bsp_tick.o(i.Delay_us)
    Detect_Task                              0x0800231d   Thumb Code    14  detect_task.o(i.Detect_Task)
    EXTI9_5_IRQHandler                       0x08002331   Thumb Code     6  stm32f4xx_it.o(i.EXTI9_5_IRQHandler)
    Error_Handler                            0x08002337   Thumb Code     4  main.o(i.Error_Handler)
    HAL_CAN_ActivateNotification             0x08002391   Thumb Code    36  stm32f4xx_hal_can.o(i.HAL_CAN_ActivateNotification)
    HAL_CAN_AddTxMessage                     0x080023b5   Thumb Code   226  stm32f4xx_hal_can.o(i.HAL_CAN_AddTxMessage)
    HAL_CAN_ConfigFilter                     0x08002499   Thumb Code   266  stm32f4xx_hal_can.o(i.HAL_CAN_ConfigFilter)
    HAL_CAN_ErrorCallback                    0x080025a9   Thumb Code     2  stm32f4xx_hal_can.o(i.HAL_CAN_ErrorCallback)
    HAL_CAN_GetRxMessage                     0x080025ab   Thumb Code   274  stm32f4xx_hal_can.o(i.HAL_CAN_GetRxMessage)
    HAL_CAN_IRQHandler                       0x080026bd   Thumb Code   508  stm32f4xx_hal_can.o(i.HAL_CAN_IRQHandler)
    HAL_CAN_Init                             0x080028b9   Thumb Code   338  stm32f4xx_hal_can.o(i.HAL_CAN_Init)
    HAL_CAN_MspInit                          0x08002a0d   Thumb Code   230  can.o(i.HAL_CAN_MspInit)
    HAL_CAN_RxFifo0FullCallback              0x08002b0d   Thumb Code     2  stm32f4xx_hal_can.o(i.HAL_CAN_RxFifo0FullCallback)
    HAL_CAN_RxFifo0MsgPendingCallback        0x08002b11   Thumb Code    56  bsp_can.o(i.HAL_CAN_RxFifo0MsgPendingCallback)
    HAL_CAN_RxFifo1FullCallback              0x08002b59   Thumb Code     2  stm32f4xx_hal_can.o(i.HAL_CAN_RxFifo1FullCallback)
    HAL_CAN_RxFifo1MsgPendingCallback        0x08002b5b   Thumb Code     2  stm32f4xx_hal_can.o(i.HAL_CAN_RxFifo1MsgPendingCallback)
    HAL_CAN_SleepCallback                    0x08002b5d   Thumb Code     2  stm32f4xx_hal_can.o(i.HAL_CAN_SleepCallback)
    HAL_CAN_Start                            0x08002b5f   Thumb Code    88  stm32f4xx_hal_can.o(i.HAL_CAN_Start)
    HAL_CAN_TxMailbox0AbortCallback          0x08002bb7   Thumb Code     2  stm32f4xx_hal_can.o(i.HAL_CAN_TxMailbox0AbortCallback)
    HAL_CAN_TxMailbox0CompleteCallback       0x08002bb9   Thumb Code     2  stm32f4xx_hal_can.o(i.HAL_CAN_TxMailbox0CompleteCallback)
    HAL_CAN_TxMailbox1AbortCallback          0x08002bbb   Thumb Code     2  stm32f4xx_hal_can.o(i.HAL_CAN_TxMailbox1AbortCallback)
    HAL_CAN_TxMailbox1CompleteCallback       0x08002bbd   Thumb Code     2  stm32f4xx_hal_can.o(i.HAL_CAN_TxMailbox1CompleteCallback)
    HAL_CAN_TxMailbox2AbortCallback          0x08002bbf   Thumb Code     2  stm32f4xx_hal_can.o(i.HAL_CAN_TxMailbox2AbortCallback)
    HAL_CAN_TxMailbox2CompleteCallback       0x08002bc1   Thumb Code     2  stm32f4xx_hal_can.o(i.HAL_CAN_TxMailbox2CompleteCallback)
    HAL_CAN_WakeUpFromRxMsgCallback          0x08002bc3   Thumb Code     2  stm32f4xx_hal_can.o(i.HAL_CAN_WakeUpFromRxMsgCallback)
    HAL_DMA_Abort                            0x08002bc5   Thumb Code   142  stm32f4xx_hal_dma.o(i.HAL_DMA_Abort)
    HAL_DMA_Abort_IT                         0x08002c53   Thumb Code    36  stm32f4xx_hal_dma.o(i.HAL_DMA_Abort_IT)
    HAL_DMA_IRQHandler                       0x08002c79   Thumb Code   460  stm32f4xx_hal_dma.o(i.HAL_DMA_IRQHandler)
    HAL_DMA_Init                             0x08002e49   Thumb Code   208  stm32f4xx_hal_dma.o(i.HAL_DMA_Init)
    HAL_Delay                                0x08002f1d   Thumb Code    32  stm32f4xx_hal.o(i.HAL_Delay)
    HAL_GPIO_EXTI_Callback                   0x08002f41   Thumb Code     2  stm32f4xx_hal_gpio.o(i.HAL_GPIO_EXTI_Callback)
    HAL_GPIO_EXTI_IRQHandler                 0x08002f45   Thumb Code    18  stm32f4xx_hal_gpio.o(i.HAL_GPIO_EXTI_IRQHandler)
    HAL_GPIO_Init                            0x08002f5d   Thumb Code   420  stm32f4xx_hal_gpio.o(i.HAL_GPIO_Init)
    HAL_GPIO_WritePin                        0x0800312d   Thumb Code    14  stm32f4xx_hal_gpio.o(i.HAL_GPIO_WritePin)
    HAL_GetTick                              0x0800313d   Thumb Code     6  stm32f4xx_hal.o(i.HAL_GetTick)
    HAL_IncTick                              0x08003149   Thumb Code    12  stm32f4xx_hal.o(i.HAL_IncTick)
    HAL_Init                                 0x08003159   Thumb Code    48  stm32f4xx_hal.o(i.HAL_Init)
    HAL_InitTick                             0x0800318d   Thumb Code   134  stm32f4xx_hal_timebase_tim.o(i.HAL_InitTick)
    HAL_MspInit                              0x08003225   Thumb Code    52  stm32f4xx_hal_msp.o(i.HAL_MspInit)
    HAL_NVIC_EnableIRQ                       0x0800325d   Thumb Code    26  stm32f4xx_hal_cortex.o(i.HAL_NVIC_EnableIRQ)
    HAL_NVIC_SetPriority                     0x08003279   Thumb Code    60  stm32f4xx_hal_cortex.o(i.HAL_NVIC_SetPriority)
    HAL_NVIC_SetPriorityGrouping             0x080032b9   Thumb Code    26  stm32f4xx_hal_cortex.o(i.HAL_NVIC_SetPriorityGrouping)
    HAL_PCDEx_LPM_Callback                   0x080032dd   Thumb Code     2  stm32f4xx_hal_pcd_ex.o(i.HAL_PCDEx_LPM_Callback)
    HAL_PCDEx_SetRxFiFo                      0x080032df   Thumb Code     8  stm32f4xx_hal_pcd_ex.o(i.HAL_PCDEx_SetRxFiFo)
    HAL_PCDEx_SetTxFiFo                      0x080032e7   Thumb Code    66  stm32f4xx_hal_pcd_ex.o(i.HAL_PCDEx_SetTxFiFo)
    HAL_PCD_ConnectCallback                  0x08003329   Thumb Code     8  usbd_conf.o(i.HAL_PCD_ConnectCallback)
    HAL_PCD_DataInStageCallback              0x08003331   Thumb Code    18  usbd_conf.o(i.HAL_PCD_DataInStageCallback)
    HAL_PCD_DataOutStageCallback             0x08003343   Thumb Code    20  usbd_conf.o(i.HAL_PCD_DataOutStageCallback)
    HAL_PCD_DisconnectCallback               0x08003357   Thumb Code     8  usbd_conf.o(i.HAL_PCD_DisconnectCallback)
    HAL_PCD_EP_Abort                         0x0800335f   Thumb Code    30  stm32f4xx_hal_pcd.o(i.HAL_PCD_EP_Abort)
    HAL_PCD_EP_Close                         0x0800337d   Thumb Code    72  stm32f4xx_hal_pcd.o(i.HAL_PCD_EP_Close)
    HAL_PCD_EP_ClrStall                      0x080033c5   Thumb Code    88  stm32f4xx_hal_pcd.o(i.HAL_PCD_EP_ClrStall)
    HAL_PCD_EP_GetRxCount                    0x0800341d   Thumb Code    18  stm32f4xx_hal_pcd.o(i.HAL_PCD_EP_GetRxCount)
    HAL_PCD_EP_Open                          0x0800342f   Thumb Code    92  stm32f4xx_hal_pcd.o(i.HAL_PCD_EP_Open)
    HAL_PCD_EP_Receive                       0x0800348b   Thumb Code    50  stm32f4xx_hal_pcd.o(i.HAL_PCD_EP_Receive)
    HAL_PCD_EP_SetStall                      0x080034bd   Thumb Code   112  stm32f4xx_hal_pcd.o(i.HAL_PCD_EP_SetStall)
    HAL_PCD_EP_Transmit                      0x0800352d   Thumb Code    50  stm32f4xx_hal_pcd.o(i.HAL_PCD_EP_Transmit)
    HAL_PCD_IRQHandler                       0x0800355f   Thumb Code  1288  stm32f4xx_hal_pcd.o(i.HAL_PCD_IRQHandler)
    HAL_PCD_ISOINIncompleteCallback          0x08003a67   Thumb Code     8  usbd_conf.o(i.HAL_PCD_ISOINIncompleteCallback)
    HAL_PCD_ISOOUTIncompleteCallback         0x08003a6f   Thumb Code     8  usbd_conf.o(i.HAL_PCD_ISOOUTIncompleteCallback)
    HAL_PCD_Init                             0x08003a77   Thumb Code   214  stm32f4xx_hal_pcd.o(i.HAL_PCD_Init)
    HAL_PCD_MspInit                          0x08003b4d   Thumb Code   122  usbd_conf.o(i.HAL_PCD_MspInit)
    HAL_PCD_ResetCallback                    0x08003bd1   Thumb Code    46  usbd_conf.o(i.HAL_PCD_ResetCallback)
    HAL_PCD_ResumeCallback                   0x08003bff   Thumb Code     8  usbd_conf.o(i.HAL_PCD_ResumeCallback)
    HAL_PCD_SOFCallback                      0x08003c07   Thumb Code     8  usbd_conf.o(i.HAL_PCD_SOFCallback)
    HAL_PCD_SetAddress                       0x08003c0f   Thumb Code    38  stm32f4xx_hal_pcd.o(i.HAL_PCD_SetAddress)
    HAL_PCD_SetupStageCallback               0x08003c35   Thumb Code    14  usbd_conf.o(i.HAL_PCD_SetupStageCallback)
    HAL_PCD_Start                            0x08003c43   Thumb Code    66  stm32f4xx_hal_pcd.o(i.HAL_PCD_Start)
    HAL_PCD_SuspendCallback                  0x08003c85   Thumb Code    44  usbd_conf.o(i.HAL_PCD_SuspendCallback)
    HAL_RCC_CSSCallback                      0x08003cb5   Thumb Code     2  stm32f4xx_hal_rcc.o(i.HAL_RCC_CSSCallback)
    HAL_RCC_ClockConfig                      0x08003cb9   Thumb Code   310  stm32f4xx_hal_rcc.o(i.HAL_RCC_ClockConfig)
    HAL_RCC_EnableCSS                        0x08003e05   Thumb Code     8  stm32f4xx_hal_rcc.o(i.HAL_RCC_EnableCSS)
    HAL_RCC_GetClockConfig                   0x08003e11   Thumb Code    52  stm32f4xx_hal_rcc.o(i.HAL_RCC_GetClockConfig)
    HAL_RCC_GetHCLKFreq                      0x08003e4d   Thumb Code     6  stm32f4xx_hal_rcc.o(i.HAL_RCC_GetHCLKFreq)
    HAL_RCC_GetPCLK1Freq                     0x08003e59   Thumb Code    22  stm32f4xx_hal_rcc.o(i.HAL_RCC_GetPCLK1Freq)
    HAL_RCC_GetPCLK2Freq                     0x08003e79   Thumb Code    22  stm32f4xx_hal_rcc.o(i.HAL_RCC_GetPCLK2Freq)
    HAL_RCC_GetSysClockFreq                  0x08003e99   Thumb Code    94  stm32f4xx_hal_rcc.o(i.HAL_RCC_GetSysClockFreq)
    HAL_RCC_NMI_IRQHandler                   0x08003f05   Thumb Code    24  stm32f4xx_hal_rcc.o(i.HAL_RCC_NMI_IRQHandler)
    HAL_RCC_OscConfig                        0x08003f21   Thumb Code   942  stm32f4xx_hal_rcc.o(i.HAL_RCC_OscConfig)
    HAL_SPI_Init                             0x080042e1   Thumb Code   190  stm32f4xx_hal_spi.o(i.HAL_SPI_Init)
    HAL_SPI_MspInit                          0x080043a1   Thumb Code   128  spi.o(i.HAL_SPI_MspInit)
    HAL_SPI_TransmitReceive                  0x08004431   Thumb Code   502  stm32f4xx_hal_spi.o(i.HAL_SPI_TransmitReceive)
    HAL_TIMEx_BreakCallback                  0x08004627   Thumb Code     2  stm32f4xx_hal_tim_ex.o(i.HAL_TIMEx_BreakCallback)
    HAL_TIMEx_CommutCallback                 0x08004629   Thumb Code     2  stm32f4xx_hal_tim_ex.o(i.HAL_TIMEx_CommutCallback)
    HAL_TIMEx_MasterConfigSynchronization    0x0800462d   Thumb Code   114  stm32f4xx_hal_tim_ex.o(i.HAL_TIMEx_MasterConfigSynchronization)
    HAL_TIM_Base_Init                        0x080046bd   Thumb Code    74  stm32f4xx_hal_tim.o(i.HAL_TIM_Base_Init)
    HAL_TIM_Base_MspInit                     0x08004709   Thumb Code    58  tim.o(i.HAL_TIM_Base_MspInit)
    HAL_TIM_Base_Start_IT                    0x08004751   Thumb Code   110  stm32f4xx_hal_tim.o(i.HAL_TIM_Base_Start_IT)
    HAL_TIM_ConfigClockSource                0x080047dd   Thumb Code   232  stm32f4xx_hal_tim.o(i.HAL_TIM_ConfigClockSource)
    HAL_TIM_IC_CaptureCallback               0x080048c5   Thumb Code     2  stm32f4xx_hal_tim.o(i.HAL_TIM_IC_CaptureCallback)
    HAL_TIM_IRQHandler                       0x080048c7   Thumb Code   312  stm32f4xx_hal_tim.o(i.HAL_TIM_IRQHandler)
    HAL_TIM_MspPostInit                      0x08004a01   Thumb Code   114  tim.o(i.HAL_TIM_MspPostInit)
    HAL_TIM_OC_DelayElapsedCallback          0x08004a89   Thumb Code     2  stm32f4xx_hal_tim.o(i.HAL_TIM_OC_DelayElapsedCallback)
    HAL_TIM_PWM_ConfigChannel                0x08004a8b   Thumb Code   216  stm32f4xx_hal_tim.o(i.HAL_TIM_PWM_ConfigChannel)
    HAL_TIM_PWM_Init                         0x08004b63   Thumb Code    74  stm32f4xx_hal_tim.o(i.HAL_TIM_PWM_Init)
    HAL_TIM_PWM_MspInit                      0x08004bad   Thumb Code     2  stm32f4xx_hal_tim.o(i.HAL_TIM_PWM_MspInit)
    HAL_TIM_PWM_PulseFinishedCallback        0x08004baf   Thumb Code     2  stm32f4xx_hal_tim.o(i.HAL_TIM_PWM_PulseFinishedCallback)
    HAL_TIM_PWM_Start                        0x08004bb1   Thumb Code   190  stm32f4xx_hal_tim.o(i.HAL_TIM_PWM_Start)
    HAL_TIM_PeriodElapsedCallback            0x08004c8d   Thumb Code    14  main.o(i.HAL_TIM_PeriodElapsedCallback)
    HAL_TIM_TriggerCallback                  0x08004c9b   Thumb Code     2  stm32f4xx_hal_tim.o(i.HAL_TIM_TriggerCallback)
    HAL_UARTEx_RxEventCallback               0x08004c9d   Thumb Code    70  bsp_uart.o(i.HAL_UARTEx_RxEventCallback)
    HAL_UART_ErrorCallback                   0x08004ced   Thumb Code     2  stm32f4xx_hal_uart.o(i.HAL_UART_ErrorCallback)
    HAL_UART_IRQHandler                      0x08004cf1   Thumb Code   556  stm32f4xx_hal_uart.o(i.HAL_UART_IRQHandler)
    HAL_UART_Init                            0x08004f21   Thumb Code   102  stm32f4xx_hal_uart.o(i.HAL_UART_Init)
    HAL_UART_MspInit                         0x08004f89   Thumb Code   570  usart.o(i.HAL_UART_MspInit)
    HAL_UART_RxCpltCallback                  0x080051f5   Thumb Code     2  stm32f4xx_hal_uart.o(i.HAL_UART_RxCpltCallback)
    HAL_UART_TxCpltCallback                  0x080051f7   Thumb Code     2  stm32f4xx_hal_uart.o(i.HAL_UART_TxCpltCallback)
    HardFault_Handler                        0x08005213   Thumb Code     2  stm32f4xx_it.o(i.HardFault_Handler)
    Heat_Power_Control                       0x08005215   Thumb Code    10  bsp_tim.o(i.Heat_Power_Control)
    INS_Task                                 0x08005285   Thumb Code   336  ins_task.o(i.INS_Task)
    Kalman_Filter_Init                       0x0800542b   Thumb Code   874  kalman.o(i.Kalman_Filter_Init)
    Kalman_Filter_Update                     0x08005961   Thumb Code   134  kalman.o(i.Kalman_Filter_Update)
    LowPassFilter2p_Init                     0x08005add   Thumb Code    46  lpf.o(i.LowPassFilter2p_Init)
    LowPassFilter2p_Update                   0x08005b11   Thumb Code    76  lpf.o(i.LowPassFilter2p_Update)
    MCU_Init                                 0x08005b5d   Thumb Code    32  bsp_mcu.o(i.MCU_Init)
    MX_CAN1_Init                             0x08005b7d   Thumb Code    62  can.o(i.MX_CAN1_Init)
    MX_CAN2_Init                             0x08005bc5   Thumb Code    62  can.o(i.MX_CAN2_Init)
    MX_DMA_Init                              0x08005c0d   Thumb Code   120  dma.o(i.MX_DMA_Init)
    MX_FREERTOS_Init                         0x08005c89   Thumb Code   140  freertos.o(i.MX_FREERTOS_Init)
    MX_GPIO_Init                             0x08005d1d   Thumb Code   288  gpio.o(i.MX_GPIO_Init)
    MX_SPI1_Init                             0x08005e51   Thumb Code    62  spi.o(i.MX_SPI1_Init)
    MX_TIM10_Init                            0x08005e99   Thumb Code    94  tim.o(i.MX_TIM10_Init)
    MX_TIM4_Init                             0x08005f01   Thumb Code   144  tim.o(i.MX_TIM4_Init)
    MX_USART1_UART_Init                      0x08005f99   Thumb Code    48  usart.o(i.MX_USART1_UART_Init)
    MX_USART3_UART_Init                      0x08005fd1   Thumb Code    46  usart.o(i.MX_USART3_UART_Init)
    MX_USART6_UART_Init                      0x0800600d   Thumb Code    48  usart.o(i.MX_USART6_UART_Init)
    MX_USB_DEVICE_Init                       0x08006045   Thumb Code   106  usb_device.o(i.MX_USB_DEVICE_Init)
    MemManage_Handler                        0x080060c5   Thumb Code     2  stm32f4xx_it.o(i.MemManage_Handler)
    MiniPC_RecvFrameInfo                     0x080060c9   Thumb Code    44  minipc.o(i.MiniPC_RecvFrameInfo)
    NMI_Handler                              0x080061a5   Thumb Code     6  stm32f4xx_it.o(i.NMI_Handler)
    OTG_FS_IRQHandler                        0x080061ad   Thumb Code     6  stm32f4xx_it.o(i.OTG_FS_IRQHandler)
    PID_Init                                 0x080063d5   Thumb Code    36  pid.o(i.PID_Init)
    QuaternionEKF_Init                       0x0800680d   Thumb Code   166  api_quaternion.o(i.QuaternionEKF_Init)
    QuaternionEKF_Update                     0x080068c9   Thumb Code   816  api_quaternion.o(i.QuaternionEKF_Update)
    Referee_Frame_Update_C                   0x08006ec5   Thumb Code    58  referee_info.o(i.Referee_Frame_Update_C)
    Remote_Message_Moniter                   0x08006f05   Thumb Code    34  remote_control.o(i.Remote_Message_Moniter)
    SBUS_TO_RC                               0x08006f27   Thumb Code   200  remote_control.o(i.SBUS_TO_RC)
    SysTick_Handler                          0x08007289   Thumb Code    38  port.o(i.SysTick_Handler)
    SystemClock_Config                       0x080072b5   Thumb Code   142  main.o(i.SystemClock_Config)
    SystemInit                               0x0800734d   Thumb Code    12  system_stm32f4xx.o(i.SystemInit)
    System_Task                              0x0800735d   Thumb Code    76  system_task.o(i.System_Task)
    TIM2_IRQHandler                          0x080073bd   Thumb Code     6  stm32f4xx_it.o(i.TIM2_IRQHandler)
    TIM_Base_SetConfig                       0x080073c9   Thumb Code   174  stm32f4xx_hal_tim.o(i.TIM_Base_SetConfig)
    TIM_CCxChannelCmd                        0x080074a5   Thumb Code    26  stm32f4xx_hal_tim.o(i.TIM_CCxChannelCmd)
    TIM_ETR_SetConfig                        0x080074bf   Thumb Code    20  stm32f4xx_hal_tim.o(i.TIM_ETR_SetConfig)
    TIM_OC2_SetConfig                        0x0800754d   Thumb Code   106  stm32f4xx_hal_tim.o(i.TIM_OC2_SetConfig)
    USART1_IRQHandler                        0x08007981   Thumb Code     6  stm32f4xx_it.o(i.USART1_IRQHandler)
    USART3_IRQHandler                        0x0800798d   Thumb Code     6  stm32f4xx_it.o(i.USART3_IRQHandler)
    USART6_IRQHandler                        0x08007999   Thumb Code     6  stm32f4xx_it.o(i.USART6_IRQHandler)
    USBD_CDC_GetDeviceQualifierDescriptor    0x08007b91   Thumb Code     8  usbd_cdc.o(i.USBD_CDC_GetDeviceQualifierDescriptor)
    USBD_CDC_ReceivePacket                   0x08007db1   Thumb Code    60  usbd_cdc.o(i.USBD_CDC_ReceivePacket)
    USBD_CDC_RegisterInterface               0x08007df1   Thumb Code    24  usbd_cdc.o(i.USBD_CDC_RegisterInterface)
    USBD_CDC_SetRxBuffer                     0x08007e09   Thumb Code    28  usbd_cdc.o(i.USBD_CDC_SetRxBuffer)
    USBD_CDC_SetTxBuffer                     0x08007e25   Thumb Code    32  usbd_cdc.o(i.USBD_CDC_SetTxBuffer)
    USBD_ClrClassConfig                      0x08007f4f   Thumb Code    20  usbd_core.o(i.USBD_ClrClassConfig)
    USBD_CoreFindEP                          0x08007f89   Thumb Code     4  usbd_core.o(i.USBD_CoreFindEP)
    USBD_CoreFindIF                          0x08007f8d   Thumb Code     4  usbd_core.o(i.USBD_CoreFindIF)
    USBD_CtlContinueRx                       0x08007f91   Thumb Code    16  usbd_ioreq.o(i.USBD_CtlContinueRx)
    USBD_CtlContinueSendData                 0x08007fa1   Thumb Code    16  usbd_ioreq.o(i.USBD_CtlContinueSendData)
    USBD_CtlError                            0x08007fb1   Thumb Code    24  usbd_ctlreq.o(i.USBD_CtlError)
    USBD_CtlPrepareRx                        0x08007fc9   Thumb Code    30  usbd_ioreq.o(i.USBD_CtlPrepareRx)
    USBD_CtlReceiveStatus                    0x08007fe7   Thumb Code    22  usbd_ioreq.o(i.USBD_CtlReceiveStatus)
    USBD_CtlSendData                         0x08007ffd   Thumb Code    26  usbd_ioreq.o(i.USBD_CtlSendData)
    USBD_CtlSendStatus                       0x08008017   Thumb Code    22  usbd_ioreq.o(i.USBD_CtlSendStatus)
    USBD_FS_ConfigStrDescriptor              0x0800802d   Thumb Code    32  usbd_desc.o(i.USBD_FS_ConfigStrDescriptor)
    USBD_FS_DeviceDescriptor                 0x0800805d   Thumb Code     8  usbd_desc.o(i.USBD_FS_DeviceDescriptor)
    USBD_FS_InterfaceStrDescriptor           0x08008069   Thumb Code    32  usbd_desc.o(i.USBD_FS_InterfaceStrDescriptor)
    USBD_FS_LangIDStrDescriptor              0x0800809d   Thumb Code     8  usbd_desc.o(i.USBD_FS_LangIDStrDescriptor)
    USBD_FS_ManufacturerStrDescriptor        0x080080a9   Thumb Code    16  usbd_desc.o(i.USBD_FS_ManufacturerStrDescriptor)
    USBD_FS_ProductStrDescriptor             0x080080d1   Thumb Code    32  usbd_desc.o(i.USBD_FS_ProductStrDescriptor)
    USBD_FS_SerialStrDescriptor              0x0800810d   Thumb Code    14  usbd_desc.o(i.USBD_FS_SerialStrDescriptor)
    USBD_GetEpDesc                           0x0800830b   Thumb Code    58  usbd_core.o(i.USBD_GetEpDesc)
    USBD_GetNextDesc                         0x08008359   Thumb Code    14  usbd_core.o(i.USBD_GetNextDesc)
    USBD_GetString                           0x080083a3   Thumb Code    62  usbd_ctlreq.o(i.USBD_GetString)
    USBD_Get_USB_Status                      0x080083e1   Thumb Code    36  usbd_conf.o(i.USBD_Get_USB_Status)
    USBD_Init                                0x08008405   Thumb Code    40  usbd_core.o(i.USBD_Init)
    USBD_LL_ClearStallEP                     0x0800842d   Thumb Code    18  usbd_conf.o(i.USBD_LL_ClearStallEP)
    USBD_LL_CloseEP                          0x0800843f   Thumb Code    18  usbd_conf.o(i.USBD_LL_CloseEP)
    USBD_LL_DataInStage                      0x08008451   Thumb Code   220  usbd_core.o(i.USBD_LL_DataInStage)
    USBD_LL_DataOutStage                     0x0800852d   Thumb Code   202  usbd_core.o(i.USBD_LL_DataOutStage)
    USBD_LL_DevConnected                     0x080085f7   Thumb Code     4  usbd_core.o(i.USBD_LL_DevConnected)
    USBD_LL_DevDisconnected                  0x080085fb   Thumb Code    32  usbd_core.o(i.USBD_LL_DevDisconnected)
    USBD_LL_GetRxDataSize                    0x0800861b   Thumb Code     8  usbd_conf.o(i.USBD_LL_GetRxDataSize)
    USBD_LL_Init                             0x08008625   Thumb Code    92  usbd_conf.o(i.USBD_LL_Init)
    USBD_LL_IsStallEP                        0x08008685   Thumb Code    30  usbd_conf.o(i.USBD_LL_IsStallEP)
    USBD_LL_IsoINIncomplete                  0x080086a3   Thumb Code    42  usbd_core.o(i.USBD_LL_IsoINIncomplete)
    USBD_LL_IsoOUTIncomplete                 0x080086cd   Thumb Code    42  usbd_core.o(i.USBD_LL_IsoOUTIncomplete)
    USBD_LL_OpenEP                           0x080086f7   Thumb Code    24  usbd_conf.o(i.USBD_LL_OpenEP)
    USBD_LL_PrepareReceive                   0x0800870f   Thumb Code    18  usbd_conf.o(i.USBD_LL_PrepareReceive)
    USBD_LL_Reset                            0x08008721   Thumb Code    96  usbd_core.o(i.USBD_LL_Reset)
    USBD_LL_Resume                           0x08008781   Thumb Code    20  usbd_core.o(i.USBD_LL_Resume)
    USBD_LL_SOF                              0x08008795   Thumb Code    26  usbd_core.o(i.USBD_LL_SOF)
    USBD_LL_SetSpeed                         0x080087af   Thumb Code     6  usbd_core.o(i.USBD_LL_SetSpeed)
    USBD_LL_SetUSBAddress                    0x080087b5   Thumb Code    18  usbd_conf.o(i.USBD_LL_SetUSBAddress)
    USBD_LL_SetupStage                       0x080087c7   Thumb Code    96  usbd_core.o(i.USBD_LL_SetupStage)
    USBD_LL_StallEP                          0x08008827   Thumb Code    18  usbd_conf.o(i.USBD_LL_StallEP)
    USBD_LL_Start                            0x08008839   Thumb Code    18  usbd_conf.o(i.USBD_LL_Start)
    USBD_LL_Suspend                          0x0800884b   Thumb Code    26  usbd_core.o(i.USBD_LL_Suspend)
    USBD_LL_Transmit                         0x08008865   Thumb Code    18  usbd_conf.o(i.USBD_LL_Transmit)
    USBD_ParseSetupRequest                   0x08008877   Thumb Code    50  usbd_ctlreq.o(i.USBD_ParseSetupRequest)
    USBD_RegisterClass                       0x080088a9   Thumb Code    58  usbd_core.o(i.USBD_RegisterClass)
    USBD_RunTestMode                         0x080088e3   Thumb Code     4  usbd_core.o(i.USBD_RunTestMode)
    USBD_SetClassConfig                      0x0800893f   Thumb Code    20  usbd_core.o(i.USBD_SetClassConfig)
    USBD_Start                               0x08008a55   Thumb Code     4  usbd_core.o(i.USBD_Start)
    USBD_StdDevReq                           0x08008a59   Thumb Code   118  usbd_ctlreq.o(i.USBD_StdDevReq)
    USBD_StdEPReq                            0x08008acf   Thumb Code   544  usbd_ctlreq.o(i.USBD_StdEPReq)
    USBD_StdItfReq                           0x08008cef   Thumb Code   142  usbd_ctlreq.o(i.USBD_StdItfReq)
    USBD_static_free                         0x08008d7d   Thumb Code     2  usbd_conf.o(i.USBD_static_free)
    USBD_static_malloc                       0x08008d81   Thumb Code     4  usbd_conf.o(i.USBD_static_malloc)
    USB_ActivateEndpoint                     0x08008d89   Thumb Code   126  stm32f4xx_ll_usb.o(i.USB_ActivateEndpoint)
    USB_ActivateSetup                        0x08008e0d   Thumb Code    28  stm32f4xx_ll_usb.o(i.USB_ActivateSetup)
    USB_CoreInit                             0x08008e29   Thumb Code   130  stm32f4xx_ll_usb.o(i.USB_CoreInit)
    USB_DeactivateEndpoint                   0x08008ef5   Thumb Code   190  stm32f4xx_ll_usb.o(i.USB_DeactivateEndpoint)
    USB_DevConnect                           0x08008fbd   Thumb Code    28  stm32f4xx_ll_usb.o(i.USB_DevConnect)
    USB_DevDisconnect                        0x08008fd9   Thumb Code    28  stm32f4xx_ll_usb.o(i.USB_DevDisconnect)
    USB_DevInit                              0x08008ff5   Thumb Code   362  stm32f4xx_ll_usb.o(i.USB_DevInit)
    USB_DisableGlobalInt                     0x08009169   Thumb Code    12  stm32f4xx_ll_usb.o(i.USB_DisableGlobalInt)
    USB_EP0_OutStart                         0x08009175   Thumb Code    80  stm32f4xx_ll_usb.o(i.USB_EP0_OutStart)
    USB_EPClearStall                         0x080091c9   Thumb Code    88  stm32f4xx_ll_usb.o(i.USB_EPClearStall)
    USB_EPSetStall                           0x08009221   Thumb Code    88  stm32f4xx_ll_usb.o(i.USB_EPSetStall)
    USB_EPStartXfer                          0x08009279   Thumb Code   582  stm32f4xx_ll_usb.o(i.USB_EPStartXfer)
    USB_EPStopXfer                           0x080094c5   Thumb Code   164  stm32f4xx_ll_usb.o(i.USB_EPStopXfer)
    USB_EnableGlobalInt                      0x08009569   Thumb Code    12  stm32f4xx_ll_usb.o(i.USB_EnableGlobalInt)
    USB_FlushRxFifo                          0x08009575   Thumb Code    64  stm32f4xx_ll_usb.o(i.USB_FlushRxFifo)
    USB_FlushTxFifo                          0x080095b5   Thumb Code    68  stm32f4xx_ll_usb.o(i.USB_FlushTxFifo)
    USB_GetDevSpeed                          0x080095f9   Thumb Code    32  stm32f4xx_ll_usb.o(i.USB_GetDevSpeed)
    USB_GetMode                              0x08009619   Thumb Code     8  stm32f4xx_ll_usb.o(i.USB_GetMode)
    USB_ReadDevAllInEpInterrupt              0x08009621   Thumb Code    14  stm32f4xx_ll_usb.o(i.USB_ReadDevAllInEpInterrupt)
    USB_ReadDevAllOutEpInterrupt             0x0800962f   Thumb Code    14  stm32f4xx_ll_usb.o(i.USB_ReadDevAllOutEpInterrupt)
    USB_ReadDevInEPInterrupt                 0x0800963d   Thumb Code    36  stm32f4xx_ll_usb.o(i.USB_ReadDevInEPInterrupt)
    USB_ReadDevOutEPInterrupt                0x08009661   Thumb Code    16  stm32f4xx_ll_usb.o(i.USB_ReadDevOutEPInterrupt)
    USB_ReadInterrupts                       0x08009671   Thumb Code     8  stm32f4xx_ll_usb.o(i.USB_ReadInterrupts)
    USB_ReadPacket                           0x08009679   Thumb Code    62  stm32f4xx_ll_usb.o(i.USB_ReadPacket)
    USB_SetCurrentMode                       0x080096b7   Thumb Code    96  stm32f4xx_ll_usb.o(i.USB_SetCurrentMode)
    USB_SetDevAddress                        0x08009717   Thumb Code    30  stm32f4xx_ll_usb.o(i.USB_SetDevAddress)
    USB_SetDevSpeed                          0x08009735   Thumb Code    14  stm32f4xx_ll_usb.o(i.USB_SetDevSpeed)
    USB_SetTurnaroundTime                    0x08009745   Thumb Code   170  stm32f4xx_ll_usb.o(i.USB_SetTurnaroundTime)
    USB_WritePacket                          0x08009839   Thumb Code    40  stm32f4xx_ll_usb.o(i.USB_WritePacket)
    USER_CAN_TxMessage                       0x08009861   Thumb Code    60  bsp_can.o(i.USER_CAN_TxMessage)
    UsageFault_Handler                       0x080099b5   Thumb Code     2  stm32f4xx_it.o(i.UsageFault_Handler)
    Vision_Task                              0x080099df   Thumb Code     8  vision_task.o(i.Vision_Task)
    __ARM_fpclassifyf                        0x080099e7   Thumb Code    38  fpclassifyf.o(i.__ARM_fpclassifyf)
    __hardfp_acosf                           0x08009a2d   Thumb Code   234  acosf.o(i.__hardfp_acosf)
    __hardfp_asinf                           0x08009b45   Thumb Code   258  asinf.o(i.__hardfp_asinf)
    __hardfp_atan2f                          0x08009c71   Thumb Code   594  atan2f.o(i.__hardfp_atan2f)
    __mathlib_flt_infnan                     0x08009f1d   Thumb Code     6  funder.o(i.__mathlib_flt_infnan)
    __mathlib_flt_infnan2                    0x08009f23   Thumb Code     6  funder.o(i.__mathlib_flt_infnan2)
    __mathlib_flt_invalid                    0x08009f29   Thumb Code    10  funder.o(i.__mathlib_flt_invalid)
    __mathlib_flt_underflow                  0x08009f39   Thumb Code    10  funder.o(i.__mathlib_flt_underflow)
    f_PID_Calculate                          0x0800a009   Thumb Code   392  pid.o(i.f_PID_Calculate)
    f_Ramp_Calc                              0x0800a195   Thumb Code    62  ramp.o(i.f_Ramp_Calc)
    float_to_uint                            0x0800a1d3   Thumb Code    40  motor.o(i.float_to_uint)
    get_CRC16_check_sum                      0x0800a1fd   Thumb Code    44  crc.o(i.get_CRC16_check_sum)
    main                                     0x0800a23d   Thumb Code    62  main.o(i.main)
    osDelay                                  0x0800a287   Thumb Code    16  cmsis_os.o(i.osDelay)
    osDelayUntil                             0x0800a297   Thumb Code    16  cmsis_os.o(i.osDelayUntil)
    osKernelStart                            0x0800a2a7   Thumb Code    10  cmsis_os.o(i.osKernelStart)
    osKernelSysTick                          0x0800a2b1   Thumb Code    24  cmsis_os.o(i.osKernelSysTick)
    osThreadCreate                           0x0800a2c9   Thumb Code    88  cmsis_os.o(i.osThreadCreate)
    pvPortMalloc                             0x0800a735   Thumb Code   214  heap_4.o(i.pvPortMalloc)
    pxPortInitialiseStack                    0x0800a811   Thumb Code    30  port.o(i.pxPortInitialiseStack)
    sqrtf                                    0x0800a835   Thumb Code    62  sqrtf.o(i.sqrtf)
    uint_to_float                            0x0800a873   Thumb Code    40  motor.o(i.uint_to_float)
    uxListRemove                             0x0800a89b   Thumb Code    38  list.o(i.uxListRemove)
    vApplicationGetIdleTaskMemory            0x0800a8c1   Thumb Code    18  freertos.o(i.vApplicationGetIdleTaskMemory)
    vListInitialise                          0x0800a8d9   Thumb Code    22  list.o(i.vListInitialise)
    vListInitialiseItem                      0x0800a8ef   Thumb Code     6  list.o(i.vListInitialiseItem)
    vListInsert                              0x0800a8f5   Thumb Code    48  list.o(i.vListInsert)
    vListInsertEnd                           0x0800a925   Thumb Code    24  list.o(i.vListInsertEnd)
    vPortEnterCritical                       0x0800a93d   Thumb Code    54  port.o(i.vPortEnterCritical)
    vPortExitCritical                        0x0800a97d   Thumb Code    38  port.o(i.vPortExitCritical)
    vPortFree                                0x0800a9a9   Thumb Code    94  heap_4.o(i.vPortFree)
    vPortSetupTimerInterrupt                 0x0800aa0d   Thumb Code    32  port.o(i.vPortSetupTimerInterrupt)
    vPortValidateInterruptPriority           0x0800aa31   Thumb Code    74  port.o(i.vPortValidateInterruptPriority)
    vTaskDelay                               0x0800aa85   Thumb Code    70  tasks.o(i.vTaskDelay)
    vTaskDelayUntil                          0x0800aad5   Thumb Code   142  tasks.o(i.vTaskDelayUntil)
    vTaskStartScheduler                      0x0800ab6d   Thumb Code   118  tasks.o(i.vTaskStartScheduler)
    vTaskSuspendAll                          0x0800abf5   Thumb Code    10  tasks.o(i.vTaskSuspendAll)
    vTaskSwitchContext                       0x0800ac05   Thumb Code    86  tasks.o(i.vTaskSwitchContext)
    verify_CRC16_check_sum                   0x0800ac65   Thumb Code    60  crc.o(i.verify_CRC16_check_sum)
    xPortStartScheduler                      0x0800aca5   Thumb Code   222  port.o(i.xPortStartScheduler)
    xTaskCreate                              0x0800ad99   Thumb Code   100  tasks.o(i.xTaskCreate)
    xTaskCreateStatic                        0x0800adfd   Thumb Code    92  tasks.o(i.xTaskCreateStatic)
    xTaskGetTickCount                        0x0800ae59   Thumb Code     6  tasks.o(i.xTaskGetTickCount)
    xTaskGetTickCountFromISR                 0x0800ae65   Thumb Code    12  tasks.o(i.xTaskGetTickCountFromISR)
    xTaskIncrementTick                       0x0800ae75   Thumb Code   198  tasks.o(i.xTaskIncrementTick)
    xTaskResumeAll                           0x0800af45   Thumb Code   192  tasks.o(i.xTaskResumeAll)
    __aeabi_d2f                              0x0800b011   Thumb Code     0  d2f.o(x$fpl$d2f)
    _d2f                                     0x0800b011   Thumb Code    98  d2f.o(x$fpl$d2f)
    __aeabi_dadd                             0x0800b075   Thumb Code     0  daddsub_clz.o(x$fpl$dadd)
    _dadd                                    0x0800b075   Thumb Code   332  daddsub_clz.o(x$fpl$dadd)
    __aeabi_i2d                              0x0800b1c5   Thumb Code     0  dflt_clz.o(x$fpl$dflt)
    _dflt                                    0x0800b1c5   Thumb Code    46  dflt_clz.o(x$fpl$dflt)
    __aeabi_dmul                             0x0800b1f5   Thumb Code     0  dmul.o(x$fpl$dmul)
    _dmul                                    0x0800b1f5   Thumb Code   332  dmul.o(x$fpl$dmul)
    __fpl_dnaninf                            0x0800b349   Thumb Code   156  dnaninf.o(x$fpl$dnaninf)
    __fpl_dretinf                            0x0800b3e5   Thumb Code    12  dretinf.o(x$fpl$dretinf)
    __aeabi_dsub                             0x0800b3f1   Thumb Code     0  daddsub_clz.o(x$fpl$dsub)
    _dsub                                    0x0800b3f1   Thumb Code   464  daddsub_clz.o(x$fpl$dsub)
    __aeabi_f2d                              0x0800b5c5   Thumb Code     0  f2d.o(x$fpl$f2d)
    _f2d                                     0x0800b5c5   Thumb Code    86  f2d.o(x$fpl$f2d)
    __fpl_fnaninf                            0x0800b61b   Thumb Code   140  fnaninf.o(x$fpl$fnaninf)
    _fp_init                                 0x0800b6a7   Thumb Code    10  fpinit.o(x$fpl$fpinit)
    __fplib_config_fpu_vfp                   0x0800b6af   Thumb Code     0  fpinit.o(x$fpl$fpinit)
    __fplib_config_pureend_doubles           0x0800b6af   Thumb Code     0  fpinit.o(x$fpl$fpinit)
    __fpl_fretinf                            0x0800b6b1   Thumb Code    10  fretinf.o(x$fpl$fretinf)
    CRC8_table                               0x0800b6ba   Data         256  crc.o(.constdata)
    __I$use$fp                               0x0800b6ba   Number         0  usenofp.o(x$fpl$usenofp)
    wCRC_table                               0x0800b7ba   Data         512  crc.o(.constdata)
    AHBPrescTable                            0x0800ba64   Data          16  system_stm32f4xx.o(.constdata)
    APBPrescTable                            0x0800ba74   Data           8  system_stm32f4xx.o(.constdata)
    Region$$Table$$Base                      0x0800bae4   Number         0  anon$$obj.o(Region$$Table)
    Region$$Table$$Limit                     0x0800bb04   Number         0  anon$$obj.o(Region$$Table)
    Arm_Pid_Param                            0x20000144   Data          96  arm_task.o(.data)
    Chassis_Pid_Para                         0x200001a4   Data          96  chassis_task.o(.data)
    Handoff                                  0x20000204   Data           1  system_task.o(.data)
    GetTick                                  0x20000208   Data           4  system_task.o(.data)
    tim                                      0x2000020c   Data           4  system_task.o(.data)
    Pump_Change                              0x20000210   Data           8  system_task.o(.data)
    SysTime                                  0x20000288   Data           8  bsp_dwt.o(.data)
    CYCCNT64                                 0x20000290   Data           8  bsp_dwt.o(.data)
    CRC16_INIT                               0x20000298   Data           2  crc.o(.data)
    MiniPC_ReceivePacket                     0x200002c8   Data          48  minipc.o(.data)
    Chassis_Motor                            0x200002f8   Data         544  motor.o(.data)
    Arm_Motor                                0x20000518   Data        1056  motor.o(.data)
    remote_ctrl                              0x20000938   Data          24  remote_control.o(.data)
    StartINSTaskHandle                       0x20000950   Data           4  freertos.o(.data)
    StartVisionTaskHandle                    0x20000954   Data           4  freertos.o(.data)
    StartDetectTaskHandle                    0x20000958   Data           4  freertos.o(.data)
    StartArmTaskHandle                       0x2000095c   Data           4  freertos.o(.data)
    StartChassisTasHandle                    0x20000960   Data           4  freertos.o(.data)
    StartSystemTaskHandle                    0x20000964   Data           4  freertos.o(.data)
    SystemCoreClock                          0x2000096c   Data           4  system_stm32f4xx.o(.data)
    pxCurrentTCB                             0x20000970   Data           4  tasks.o(.data)
    uwTickFreq                               0x200009d8   Data           1  stm32f4xx_hal.o(.data)
    uwTickPrio                               0x200009dc   Data           4  stm32f4xx_hal.o(.data)
    uwTick                                   0x200009e0   Data           4  stm32f4xx_hal.o(.data)
    FS_Desc                                  0x200009e4   Data          28  usbd_desc.o(.data)
    USBD_LangIDDesc                          0x20000a00   Data           4  usbd_desc.o(.data)
    USBD_FS_DeviceDesc                       0x20000a04   Data          18  usbd_desc.o(.data)
    USBD_StringSerial                        0x20000a18   Data          26  usbd_desc.o(.data)
    USBD_Interface_fops_FS                   0x20000a34   Data          20  usbd_cdc_if.o(.data)
    USBD_CDC                                 0x20000aa0   Data          56  usbd_cdc.o(.data)
    INS_Info                                 0x20000ad8   Data          72  ins_task.o(.bss)
    INS_AcceLPF2p                            0x20000b20   Data          96  ins_task.o(.bss)
    TempCtrl_PID                             0x20000b80   Data          80  ins_task.o(.bss)
    Quaternion_Info                          0x20000bd0   Data         420  ins_task.o(.bss)
    Arm_Info                                 0x20000d74   Data         256  arm_task.o(.bss)
    Arm_Pid                                  0x20000e74   Data         960  arm_task.o(.bss)
    Chassis_Info                             0x20001234   Data         132  chassis_task.o(.bss)
    Chassis_Pid                              0x200012b8   Data         800  chassis_task.o(.bss)
    System_Info                              0x200015d8   Data          24  system_task.o(.bss)
    BMI088_Info                              0x2000160c   Data          60  bmi088.o(.bss)
    Robot_Interactive                        0x20001648   Data          30  referee_info.o(.bss)
    Referee_Info                             0x20001666   Data          56  referee_info.o(.bss)
    REFEREE_MultiRx_Buf                      0x2000169e   Data         200  referee_info.o(.bss)
    REFEREE_MultiRx_Buf_Ref_t                0x20001766   Data          30  referee_info.o(.bss)
    SBUS_MultiRx_Buf                         0x20001784   Data          72  remote_control.o(.bss)
    hcan1                                    0x20001c20   Data          40  can.o(.bss)
    hcan2                                    0x20001c48   Data          40  can.o(.bss)
    hspi1                                    0x20001c70   Data          88  spi.o(.bss)
    htim4                                    0x20001cc8   Data          72  tim.o(.bss)
    htim10                                   0x20001d10   Data          72  tim.o(.bss)
    huart1                                   0x20001d58   Data          72  usart.o(.bss)
    huart3                                   0x20001da0   Data          72  usart.o(.bss)
    huart6                                   0x20001de8   Data          72  usart.o(.bss)
    hdma_usart1_rx                           0x20001e30   Data          96  usart.o(.bss)
    hdma_usart1_tx                           0x20001e90   Data          96  usart.o(.bss)
    hdma_usart3_rx                           0x20001ef0   Data          96  usart.o(.bss)
    hdma_usart6_rx                           0x20001f50   Data          96  usart.o(.bss)
    hdma_usart6_tx                           0x20001fb0   Data          96  usart.o(.bss)
    htim2                                    0x20002010   Data          72  stm32f4xx_hal_timebase_tim.o(.bss)
    hUsbDeviceFS                             0x20008148   Data         732  usb_device.o(.bss)
    USBD_StrDesc                             0x20008424   Data         512  usbd_desc.o(.bss)
    UserRxBufferFS                           0x20008624   Data        2048  usbd_cdc_if.o(.bss)
    UserTxBufferFS                           0x20008e24   Data        2048  usbd_cdc_if.o(.bss)
    hpcd_USB_OTG_FS                          0x20009844   Data        1252  usbd_conf.o(.bss)
    __libspace_start                         0x20009d28   Data          96  libspace.o(.bss)
    __temporary_stack_top$libspace           0x20009d88   Data           0  libspace.o(.bss)



==============================================================================

Memory Map of the image

  Image Entry point : 0x08000189

  Load Region LR_IROM1 (Base: 0x08000000, Size: 0x0000c5dc, Max: 0x00100000, ABSOLUTE, COMPRESSED[0x0000bce0])

    Execution Region ER_IROM1 (Exec base: 0x08000000, Load base: 0x08000000, Size: 0x0000bb04, Max: 0x00100000, ABSOLUTE)

    Exec Addr    Load Addr    Size         Type   Attr      Idx    E Section Name        Object

    0x08000000   0x08000000   0x00000188   Data   RO         2100    RESET               startup_stm32f407xx.o
    0x08000188   0x08000188   0x00000008   Code   RO         8276  * !!!main             c_w.l(__main.o)
    0x08000190   0x08000190   0x00000034   Code   RO         8740    !!!scatter          c_w.l(__scatter.o)
    0x080001c4   0x080001c4   0x0000005a   Code   RO         8738    !!dczerorl2         c_w.l(__dczerorl2.o)
    0x0800021e   0x0800021e   0x00000002   PAD
    0x08000220   0x08000220   0x0000001c   Code   RO         8742    !!handler_zi        c_w.l(__scatter_zi.o)
    0x0800023c   0x0800023c   0x00000002   Code   RO         8671    .ARM.Collect$$libinit$$00000000  c_w.l(libinit.o)
    0x0800023e   0x0800023e   0x00000004   Code   RO         8450    .ARM.Collect$$libinit$$00000001  c_w.l(libinit2.o)
    0x08000242   0x08000242   0x00000000   Code   RO         8453    .ARM.Collect$$libinit$$00000004  c_w.l(libinit2.o)
    0x08000242   0x08000242   0x00000008   Code   RO         8454    .ARM.Collect$$libinit$$00000005  c_w.l(libinit2.o)
    0x0800024a   0x0800024a   0x00000000   Code   RO         8456    .ARM.Collect$$libinit$$0000000A  c_w.l(libinit2.o)
    0x0800024a   0x0800024a   0x00000000   Code   RO         8458    .ARM.Collect$$libinit$$0000000C  c_w.l(libinit2.o)
    0x0800024a   0x0800024a   0x00000000   Code   RO         8460    .ARM.Collect$$libinit$$0000000E  c_w.l(libinit2.o)
    0x0800024a   0x0800024a   0x00000000   Code   RO         8463    .ARM.Collect$$libinit$$00000011  c_w.l(libinit2.o)
    0x0800024a   0x0800024a   0x00000000   Code   RO         8465    .ARM.Collect$$libinit$$00000013  c_w.l(libinit2.o)
    0x0800024a   0x0800024a   0x00000000   Code   RO         8467    .ARM.Collect$$libinit$$00000015  c_w.l(libinit2.o)
    0x0800024a   0x0800024a   0x00000000   Code   RO         8469    .ARM.Collect$$libinit$$00000017  c_w.l(libinit2.o)
    0x0800024a   0x0800024a   0x00000000   Code   RO         8471    .ARM.Collect$$libinit$$00000019  c_w.l(libinit2.o)
    0x0800024a   0x0800024a   0x00000000   Code   RO         8473    .ARM.Collect$$libinit$$0000001B  c_w.l(libinit2.o)
    0x0800024a   0x0800024a   0x00000000   Code   RO         8475    .ARM.Collect$$libinit$$0000001D  c_w.l(libinit2.o)
    0x0800024a   0x0800024a   0x00000000   Code   RO         8477    .ARM.Collect$$libinit$$0000001F  c_w.l(libinit2.o)
    0x0800024a   0x0800024a   0x00000000   Code   RO         8479    .ARM.Collect$$libinit$$00000021  c_w.l(libinit2.o)
    0x0800024a   0x0800024a   0x00000000   Code   RO         8481    .ARM.Collect$$libinit$$00000023  c_w.l(libinit2.o)
    0x0800024a   0x0800024a   0x00000000   Code   RO         8483    .ARM.Collect$$libinit$$00000025  c_w.l(libinit2.o)
    0x0800024a   0x0800024a   0x00000000   Code   RO         8487    .ARM.Collect$$libinit$$0000002C  c_w.l(libinit2.o)
    0x0800024a   0x0800024a   0x00000000   Code   RO         8489    .ARM.Collect$$libinit$$0000002E  c_w.l(libinit2.o)
    0x0800024a   0x0800024a   0x00000000   Code   RO         8491    .ARM.Collect$$libinit$$00000030  c_w.l(libinit2.o)
    0x0800024a   0x0800024a   0x00000000   Code   RO         8493    .ARM.Collect$$libinit$$00000032  c_w.l(libinit2.o)
    0x0800024a   0x0800024a   0x00000002   Code   RO         8494    .ARM.Collect$$libinit$$00000033  c_w.l(libinit2.o)
    0x0800024c   0x0800024c   0x00000002   Code   RO         8735    .ARM.Collect$$libshutdown$$00000000  c_w.l(libshutdown.o)
    0x0800024e   0x0800024e   0x00000000   Code   RO         8689    .ARM.Collect$$libshutdown$$00000002  c_w.l(libshutdown2.o)
    0x0800024e   0x0800024e   0x00000000   Code   RO         8691    .ARM.Collect$$libshutdown$$00000004  c_w.l(libshutdown2.o)
    0x0800024e   0x0800024e   0x00000000   Code   RO         8693    .ARM.Collect$$libshutdown$$00000006  c_w.l(libshutdown2.o)
    0x0800024e   0x0800024e   0x00000000   Code   RO         8696    .ARM.Collect$$libshutdown$$00000009  c_w.l(libshutdown2.o)
    0x0800024e   0x0800024e   0x00000000   Code   RO         8699    .ARM.Collect$$libshutdown$$0000000C  c_w.l(libshutdown2.o)
    0x0800024e   0x0800024e   0x00000000   Code   RO         8701    .ARM.Collect$$libshutdown$$0000000E  c_w.l(libshutdown2.o)
    0x0800024e   0x0800024e   0x00000000   Code   RO         8704    .ARM.Collect$$libshutdown$$00000011  c_w.l(libshutdown2.o)
    0x0800024e   0x0800024e   0x00000002   Code   RO         8705    .ARM.Collect$$libshutdown$$00000012  c_w.l(libshutdown2.o)
    0x08000250   0x08000250   0x00000000   Code   RO         8410    .ARM.Collect$$rtentry$$00000000  c_w.l(__rtentry.o)
    0x08000250   0x08000250   0x00000000   Code   RO         8601    .ARM.Collect$$rtentry$$00000002  c_w.l(__rtentry2.o)
    0x08000250   0x08000250   0x00000006   Code   RO         8613    .ARM.Collect$$rtentry$$00000004  c_w.l(__rtentry4.o)
    0x08000256   0x08000256   0x00000000   Code   RO         8603    .ARM.Collect$$rtentry$$00000009  c_w.l(__rtentry2.o)
    0x08000256   0x08000256   0x00000004   Code   RO         8604    .ARM.Collect$$rtentry$$0000000A  c_w.l(__rtentry2.o)
    0x0800025a   0x0800025a   0x00000000   Code   RO         8606    .ARM.Collect$$rtentry$$0000000C  c_w.l(__rtentry2.o)
    0x0800025a   0x0800025a   0x00000008   Code   RO         8607    .ARM.Collect$$rtentry$$0000000D  c_w.l(__rtentry2.o)
    0x08000262   0x08000262   0x00000002   Code   RO         8676    .ARM.Collect$$rtexit$$00000000  c_w.l(rtexit.o)
    0x08000264   0x08000264   0x00000000   Code   RO         8711    .ARM.Collect$$rtexit$$00000002  c_w.l(rtexit2.o)
    0x08000264   0x08000264   0x00000004   Code   RO         8712    .ARM.Collect$$rtexit$$00000003  c_w.l(rtexit2.o)
    0x08000268   0x08000268   0x00000006   Code   RO         8713    .ARM.Collect$$rtexit$$00000004  c_w.l(rtexit2.o)
    0x0800026e   0x0800026e   0x00000002   PAD
    0x08000270   0x08000270   0x000000be   Code   RO         3436    .emb_text           port.o
    0x0800032e   0x0800032e   0x00000002   PAD
    0x08000330   0x08000330   0x00000000   Code   RO         8624    .emb_text           c_w.l(maybetermalloc1.o)
    0x08000330   0x08000330   0x00000040   Code   RO         2101    .text               startup_stm32f407xx.o
    0x08000370   0x08000370   0x0000005e   Code   RO         8204    .text               c_w.l(h1_alloc.o)
    0x080003ce   0x080003ce   0x000000ee   Code   RO         8258    .text               c_w.l(lludivv7m.o)
    0x080004bc   0x080004bc   0x0000008a   Code   RO         8262    .text               c_w.l(rt_memcpy_v6.o)
    0x08000546   0x08000546   0x00000064   Code   RO         8264    .text               c_w.l(rt_memcpy_w.o)
    0x080005aa   0x080005aa   0x00000010   Code   RO         8268    .text               c_w.l(aeabi_memset.o)
    0x080005ba   0x080005ba   0x00000044   Code   RO         8270    .text               c_w.l(rt_memclr.o)
    0x080005fe   0x080005fe   0x0000004e   Code   RO         8272    .text               c_w.l(rt_memclr_w.o)
    0x0800064c   0x0800064c   0x00000006   Code   RO         8274    .text               c_w.l(heapauxi.o)
    0x08000652   0x08000652   0x00000002   PAD
    0x08000654   0x08000654   0x00000008   Code   RO         8418    .text               c_w.l(rt_heap_descriptor_intlibspace.o)
    0x0800065c   0x0800065c   0x00000004   Code   RO         8420    .text               c_w.l(hguard.o)
    0x08000660   0x08000660   0x0000008a   Code   RO         8422    .text               c_w.l(init_alloc.o)
    0x080006ea   0x080006ea   0x0000000e   Code   RO         8428    .text               c_w.l(h1_init.o)
    0x080006f8   0x080006f8   0x0000004e   Code   RO         8430    .text               c_w.l(h1_free.o)
    0x08000746   0x08000746   0x00000016   Code   RO         8446    .text               c_w.l(_rserrno.o)
    0x0800075c   0x0800075c   0x00000008   Code   RO         8597    .text               c_w.l(libspace.o)
    0x08000764   0x08000764   0x00000008   Code   RO         8620    .text               c_w.l(rt_errno_addr_intlibspace.o)
    0x0800076c   0x0800076c   0x00000034   Code   RO         8626    .text               c_w.l(h1_extend.o)
    0x080007a0   0x080007a0   0x0000000e   Code   RO         8630    .text               c_w.l(defsig_rtmem_outer.o)
    0x080007ae   0x080007ae   0x00000002   Code   RO         8643    .text               c_w.l(use_no_semi.o)
    0x080007b0   0x080007b0   0x00000000   Code   RO         8645    .text               c_w.l(indicate_semi.o)
    0x080007b0   0x080007b0   0x0000004a   Code   RO         8646    .text               c_w.l(sys_stackheap_outer.o)
    0x080007fa   0x080007fa   0x00000012   Code   RO         8652    .text               c_w.l(exit.o)
    0x0800080c   0x0800080c   0x0000000a   Code   RO         8654    .text               c_w.l(defsig_exit.o)
    0x08000816   0x08000816   0x00000002   PAD
    0x08000818   0x08000818   0x00000050   Code   RO         8660    .text               c_w.l(defsig_rtmem_inner.o)
    0x08000868   0x08000868   0x0000000c   Code   RO         8674    .text               c_w.l(sys_exit.o)
    0x08000874   0x08000874   0x00000032   Code   RO         8684    .text               c_w.l(defsig_general.o)
    0x080008a6   0x080008a6   0x0000000e   Code   RO         8708    .text               c_w.l(sys_wrch.o)
    0x080008b4   0x080008b4   0x000000ba   Code   RO         8028    .text.arm_mat_add_f32  arm_cortexM4lf_math.lib(arm_mat_add_f32.o)
    0x0800096e   0x0800096e   0x00000008   Code   RO         8037    .text.arm_mat_init_f32  arm_cortexM4lf_math.lib(arm_mat_init_f32.o)
    0x08000976   0x08000976   0x00000002   PAD
    0x08000978   0x08000978   0x000002f4   Code   RO         8045    .text.arm_mat_inverse_f32  arm_cortexM4lf_math.lib(arm_mat_inverse_f32.o)
    0x08000c6c   0x08000c6c   0x00000128   Code   RO         8054    .text.arm_mat_mult_f32  arm_cortexM4lf_math.lib(arm_mat_mult_f32.o)
    0x08000d94   0x08000d94   0x000000ba   Code   RO         8063    .text.arm_mat_sub_f32  arm_cortexM4lf_math.lib(arm_mat_sub_f32.o)
    0x08000e4e   0x08000e4e   0x00000002   PAD
    0x08000e50   0x08000e50   0x000000a2   Code   RO         8072    .text.arm_mat_trans_f32  arm_cortexM4lf_math.lib(arm_mat_trans_f32.o)
    0x08000ef2   0x08000ef2   0x00000002   PAD
    0x08000ef4   0x08000ef4   0x00000104   Code   RO          316    i.Arm_Keep          arm_task.o
    0x08000ff8   0x08000ff8   0x000000dc   Code   RO          317    i.Arm_OFF           arm_task.o
    0x080010d4   0x080010d4   0x000001f8   Code   RO          318    i.Arm_Solve         arm_task.o
    0x080012cc   0x080012cc   0x00000048   Code   RO          319    i.Arm_Task          arm_task.o
    0x08001314   0x08001314   0x00000160   Code   RO          320    i.Arm_Task_Init     arm_task.o
    0x08001474   0x08001474   0x00000010   Code   RO          754    i.BMI088_ACCEL_NS_H  bsp_gpio.o
    0x08001484   0x08001484   0x00000010   Code   RO          755    i.BMI088_ACCEL_NS_L  bsp_gpio.o
    0x08001494   0x08001494   0x0000010c   Code   RO         1207    i.BMI088_Accel_Init  bmi088.o
    0x080015a0   0x080015a0   0x00000010   Code   RO          756    i.BMI088_GYRO_NS_H  bsp_gpio.o
    0x080015b0   0x080015b0   0x00000010   Code   RO          757    i.BMI088_GYRO_NS_L  bsp_gpio.o
    0x080015c0   0x080015c0   0x000000dc   Code   RO         1208    i.BMI088_Gyro_Init  bmi088.o
    0x0800169c   0x0800169c   0x00000170   Code   RO         1209    i.BMI088_Info_Update  bmi088.o
    0x0800180c   0x0800180c   0x0000002c   Code   RO         1210    i.BMI088_Init       bmi088.o
    0x08001838   0x08001838   0x00000124   Code   RO         1211    i.BMI088_Offset_Update  bmi088.o
    0x0800195c   0x0800195c   0x00000024   Code   RO         1212    i.BMI088_Read_Multi_Reg  bmi088.o
    0x08001980   0x08001980   0x00000016   Code   RO         1213    i.BMI088_Read_Single_Reg  bmi088.o
    0x08001996   0x08001996   0x00000002   PAD
    0x08001998   0x08001998   0x00000024   Code   RO          839    i.BMI088_Read_Write_Byte  bsp_spi.o
    0x080019bc   0x080019bc   0x00000068   Code   RO          233    i.BMI088_Temp_Control  ins_task.o
    0x08001a24   0x08001a24   0x00000012   Code   RO         1214    i.BMI088_Write_Single_Reg  bmi088.o
    0x08001a36   0x08001a36   0x00000002   PAD
    0x08001a38   0x08001a38   0x00000070   Code   RO          627    i.BSP_CAN_Init      bsp_can.o
    0x08001aa8   0x08001aa8   0x00000048   Code   RO          680    i.BSP_DWT_Init      bsp_dwt.o
    0x08001af0   0x08001af0   0x0000003c   Code   RO          947    i.BSP_USART_Init    bsp_uart.o
    0x08001b2c   0x08001b2c   0x0000000c   Code   RO          908    i.Bsp_Tim_Init      bsp_tim.o
    0x08001b38   0x08001b38   0x00000002   Code   RO         1902    i.BusFault_Handler  stm32f4xx_it.o
    0x08001b3a   0x08001b3a   0x00000002   PAD
    0x08001b3c   0x08001b3c   0x0000000c   Code   RO         1903    i.CAN1_RX0_IRQHandler  stm32f4xx_it.o
    0x08001b48   0x08001b48   0x0000004c   Code   RO          628    i.CAN1_RxFifo0RxHandler  bsp_can.o
    0x08001b94   0x08001b94   0x0000000c   Code   RO         1904    i.CAN2_RX0_IRQHandler  stm32f4xx_it.o
    0x08001ba0   0x08001ba0   0x0000004c   Code   RO          629    i.CAN2_RxFifo0RxHandler  bsp_can.o
    0x08001bec   0x08001bec   0x000000cc   Code   RO          577    i.CAN_Send          system_task.o
    0x08001cb8   0x08001cb8   0x00000008   Code   RO         7317    i.CDC_Control_FS    usbd_cdc_if.o
    0x08001cc0   0x08001cc0   0x00000004   Code   RO         7318    i.CDC_DeInit_FS     usbd_cdc_if.o
    0x08001cc4   0x08001cc4   0x00000024   Code   RO         7319    i.CDC_Init_FS       usbd_cdc_if.o
    0x08001ce8   0x08001ce8   0x00000020   Code   RO         7320    i.CDC_Receive_FS    usbd_cdc_if.o
    0x08001d08   0x08001d08   0x00000004   Code   RO         7321    i.CDC_TransmitCplt_FS  usbd_cdc_if.o
    0x08001d0c   0x08001d0c   0x0000006c   Code   RO          497    i.Chassis_Init      chassis_task.o
    0x08001d78   0x08001d78   0x0000002c   Code   RO          498    i.Chassis_OFF       chassis_task.o
    0x08001da4   0x08001da4   0x00000160   Code   RO          499    i.Chassis_ON        chassis_task.o
    0x08001f04   0x08001f04   0x0000002c   Code   RO          500    i.Chassis_Task      chassis_task.o
    0x08001f30   0x08001f30   0x0000002a   Code   RO         1333    i.DJI_Motor_ErrorHandler  motor.o
    0x08001f5a   0x08001f5a   0x00000002   PAD
    0x08001f5c   0x08001f5c   0x000000a8   Code   RO         1334    i.DJI_Motor_Info_Update  motor.o
    0x08002004   0x08002004   0x0000000c   Code   RO         1905    i.DMA1_Stream1_IRQHandler  stm32f4xx_it.o
    0x08002010   0x08002010   0x0000000c   Code   RO         1906    i.DMA2_Stream1_IRQHandler  stm32f4xx_it.o
    0x0800201c   0x0800201c   0x0000000c   Code   RO         1907    i.DMA2_Stream2_IRQHandler  stm32f4xx_it.o
    0x08002028   0x08002028   0x0000000c   Code   RO         1908    i.DMA2_Stream6_IRQHandler  stm32f4xx_it.o
    0x08002034   0x08002034   0x0000000c   Code   RO         1909    i.DMA2_Stream7_IRQHandler  stm32f4xx_it.o
    0x08002040   0x08002040   0x0000002c   Code   RO         4616    i.DMA_CalcBaseAndBitshift  stm32f4xx_hal_dma.o
    0x0800206c   0x0800206c   0x00000078   Code   RO         4617    i.DMA_CheckFifoParam  stm32f4xx_hal_dma.o
    0x080020e4   0x080020e4   0x00000016   Code   RO         1335    i.DM_Lock           motor.o
    0x080020fa   0x080020fa   0x00000002   PAD
    0x080020fc   0x080020fc   0x000000ac   Code   RO         1336    i.DM_MIT_Transform  motor.o
    0x080021a8   0x080021a8   0x0000008e   Code   RO         1337    i.DM_Motor_Info_Update  motor.o
    0x08002236   0x08002236   0x00000016   Code   RO         1338    i.DM_Reset          motor.o
    0x0800224c   0x0800224c   0x00000016   Code   RO         1339    i.DM_Start          motor.o
    0x08002262   0x08002262   0x00000002   PAD
    0x08002264   0x08002264   0x00000088   Code   RO          322    i.Data_solving      arm_task.o
    0x080022ec   0x080022ec   0x00000002   Code   RO         1910    i.DebugMon_Handler  stm32f4xx_it.o
    0x080022ee   0x080022ee   0x00000016   Code   RO          870    i.Delay_ms          bsp_tick.o
    0x08002304   0x08002304   0x00000016   Code   RO          871    i.Delay_us          bsp_tick.o
    0x0800231a   0x0800231a   0x00000002   PAD
    0x0800231c   0x0800231c   0x00000014   Code   RO          155    i.Detect_Task       detect_task.o
    0x08002330   0x08002330   0x00000006   Code   RO         1911    i.EXTI9_5_IRQHandler  stm32f4xx_it.o
    0x08002336   0x08002336   0x00000004   Code   RO         1535    i.Error_Handler     main.o
    0x0800233a   0x0800233a   0x00000002   PAD
    0x0800233c   0x0800233c   0x0000002c   Code   RO            4    i.Fast_InverseSqrt  api_quaternion.o
    0x08002368   0x08002368   0x00000028   Code   RO         7239    i.Get_SerialNum     usbd_desc.o
    0x08002390   0x08002390   0x00000024   Code   RO         5296    i.HAL_CAN_ActivateNotification  stm32f4xx_hal_can.o
    0x080023b4   0x080023b4   0x000000e2   Code   RO         5297    i.HAL_CAN_AddTxMessage  stm32f4xx_hal_can.o
